:100000000C9461000C947E000C947E000C947E0095
:100010000C947E000C947E000C947E000C947E0068
:100020000C947E000C947E000C947E000C947E0058
:100030000C947E000C947E000C947E000C947E0048
:100040000C94B9020C947E000C947E000C947E00FB
:100050000C947E000C947E000C947E000C947E0028
:100060000C947E000C947E00000000002400270009
:100070002A0000000000250028002B0000000000DE
:1000800023002600290004040404040404040202DA
:100090000202020203030303030301020408102007
:1000A0004080010204081020010204081020000012
:1000B0000007000201000003040600000000000029
:1000C000000011241FBECFEFD8E0DEBFCDBF11E08E
:1000D000A0E0B1E0E0E2F8E002C005900D92A030AF
:1000E000B107D9F711E0A0E0B1E001C01D92A7313E
:1000F000B107E1F70E9480000C940E040C940000FC
:100100000E944D030E94000180E090E00895FC01F0
:10011000CB01099580E090E0089528E730E0309326
:1001200001012093000168E770E00E94CA000E946C
:10013000B20180E090E008952EEF30E030930101AD
:10014000209300016EEF70E00E94CA000E946601D9
:1001500080E090E0089564E670E00E94CA0068EED6
:1001600073E080E090E00E9427030E94070180E096
:1001700090E008959C0180910001909101018436E6
:1001800091051CF4C9010E94AB000E940B0280E0A3
:1001900090E008950E9459020E94180180E090E0CA
:1001A00008950F931F93182F092F89E061E00E9493
:1001B0008803812F61E00E9488038AEB90E0612F21
:1001C000702F0E94870068EE73E080E090E00E944C
:1001D00027038DE890E0612F702F0E94870068EE62
:1001E00073E080E090E00E9427038CE990E0612FAB
:1001F000702F0E94870080E090E01F910F9108957A
:100200008AE090E00E94D10080E090E0089580E0D4
:1002100090E0089589E060E070E00E94590262E396
:1002200070E080E090E00E94270380E090E0089575
:100230008AE090E0909312018093110182E390E0B4
:10024000909314018093130182E090E090930C014D
:1002500080930B0110920E0110920D0127C089E0CE
:100260006EEF70E00E9459026091110170911201CD
:10027000882777FD8095982F0E94270389E060E00A
:1002800070E00E9459026091130170911401882757
:1002900077FD8095982F0E94270380910D01909102
:1002A0000E01019690930E0180930D0120910D0196
:1002B00030910E0180910B0190910C0128173907A4
:1002C00074F20E940A0180E090E0089582E390E0D9
:1002D0009093120180931101909314018093130164
:1002E00088E090E090930C0180930B0110920E0136
:1002F00010920D0127C089E06EEF70E00E94590254
:100300006091110170911201882777FD8095982FD7
:100310000E94270389E060E070E00E94590260912A
:10032000130170911401882777FD8095982F0E9402
:10033000270380910D0190910E01019690930E017B
:1003400080930D0120910D0130910E0180910B01E0
:1003500090910C012817390774F20E940A0180E07D
:1003600090E0089584E690E090931201809311014B
:100370008CE291E0909314018093130184E090E06B
:1003800090930C0180930B0110920E0110920D01BD
:1003900027C089E06EEF70E00E9459026091110160
:1003A00070911201882777FD8095982F0E9427036E
:1003B00089E060E070E00E94590260911301709141
:1003C0001401882777FD8095982F0E94270380913C
:1003D0000D0190910E01019690930E0180930D01F5
:1003E00020910D0130910E0180910B0190910C0133
:1003F0002817390774F289E06EEF70E00E94590205
:1004000064EF71E080E090E00E9427030E940A01FF
:1004100080E090E0089584E690E09093120180934C
:10042000110182E390E0909314018093130188E01E
:1004300090E090930C0180930B0110920E011092AA
:100440000D0127C089E06EEF70E00E9459026091B3
:10045000110170911201882777FD8095982F0E94D5
:10046000270389E060E070E00E9459026091130167
:1004700070911401882777FD8095982F0E9427039B
:1004800080910D0190910E01019690930E01809341
:100490000D0120910D0130910E0180910B01909181
:1004A0000C012817390774F20E940A0180E090E0DD
:1004B00008951F93CF93DF93182FEB0161E00E9403
:1004C0008803209709F44AC0CF3FD10509F449C0F9
:1004D000E12FF0E0E255FF4F84918330C1F084308A
:1004E00028F4813051F08230B1F50CC0863019F11A
:1004F000873049F1843079F514C084B5806884BDB3
:10050000C7BD33C084B5806284BDC8BD2EC0809194
:100510008000806880938000D0938900C093880019
:1005200024C080918000806280938000D0938B00F3
:10053000C0938A001AC08091B00080688093B00098
:10054000C093B30012C08091B00080628093B0006D
:10055000C093B4000AC0C038D1051CF4812F60E0FC
:1005600002C0812F61E00E94DB03DF91CF911F91D8
:1005700008951F920F920FB60F9211242F933F935D
:100580008F939F93AF93BF93809106019091070142
:10059000A0910801B091090130910A010196A11DB5
:1005A000B11D232F2D5F2D3720F02D570196A11D52
:1005B000B11D20930A018093060190930701A09337
:1005C0000801B09309018091020190910301A0916B
:1005D0000401B09105010196A11DB11D8093020196
:1005E00090930301A0930401B0930501BF91AF91D3
:1005F0009F918F913F912F910F900FBE0F901F9061
:1006000018959FB7F8942091020130910301409111
:1006100004015091050186B5A89B06C08F3F21F0CB
:100620002F5F3F4F4F4F5F4F9FBF542F432F322FAE
:100630002227280F311D411D511D82E0220F331F3B
:10064000441F551F8A95D1F7B901CA010895EF9249
:10065000FF920F931F93CF93DF937B018C010E9436
:100660000103EB010EC00E9401036C1B7D0B685E51
:100670007340C8F30894E108F10801091109C85151
:10068000DC4FE114F1040105110569F7DF91CF9109
:100690001F910F91FF90EF900895789484B5826038
:1006A00084BD84B5816084BD85B5826085BD85B516
:1006B000816085BDEEE6F0E0808181608083E1E8C5
:1006C000F0E01082808182608083808181608083FD
:1006D000E0E8F0E0808181608083E1EBF0E0808100
:1006E00084608083E0EBF0E0808181608083EAE7D2
:1006F000F0E080818460808380818260808380815B
:10070000816080838081806880831092C100089519
:10071000482F50E0CA0186569F4FFC0124914A574A
:100720005F4FFA0184918823C1F0E82FF0E0EE0FCB
:10073000FF1FE859FF4FA591B491662341F49FB77D
:10074000F8948C91209582238C939FBF08959FB736
:10075000F8948C91822B8C939FBF0895833071F015
:10076000843028F48130A1F0823021F514C0863025
:10077000B1F08730D1F08430E9F404C0809180007A
:100780008F7703C0809180008F7D809380000895D3
:1007900084B58F7702C084B58F7D84BD0895809124
:1007A000B0008F778093B00008958091B0008F7D66
:1007B0008093B0000895FF920F931F93F62E482F59
:1007C00050E0CA0182559F4FFC012491CA01865610
:1007D0009F4FFC0114914A575F4FFA010491002387
:1007E000C9F0222319F0822F0E94AE03E02FF0E01F
:1007F000EE0FFF1FEE58FF4FA591B4919FB7F894ED
:10080000FF2021F48C911095812302C08C91812BC3
:100810008C939FBF1F910F91FF900895F894FFCF85
:040000030000017484
:00000001FF
