:100000000C9402010C9423010C9423010C94230101
:100010000C9423010C9423010C9423010C942301D0
:100020000C9423010C9423010C9423010C942301C0
:100030000C9423010C9423010C9423010C942301B0
:100040000C9423010C9423010C9423010C942301A0
:100050000C9423010C9423010C9423010C9457025B
:100060000C9423010C9423010C9423010C94230180
:100070000C9423010C9423010C9423010C94230170
:100080000C9423010C9423010C9423010C94230160
:100090000C9423010C9423010C9423010C94230150
:1000A0000C9423010C9423010C9423010C94230140
:1000B0000C9423010C9423010C9423010C94230130
:1000C0000C9423010C9423010C9423010C94230120
:1000D0000C9423010C9423010C9423010C94230110
:1000E0000C94230100002100240027002A002D0089
:1000F0003000330001010000040107010A01000083
:100100002200250028002B002E00310034000201BF
:100110000000050108010B0100002000230026005B
:1001200029002C002F00320000010000030106010D
:10013000090105050505070508080808020202026D
:100140000A0A080804040404010101010101010173
:100150000303030303030303040707070C0C0C0C3E
:100160000C0C0C0C02020202060606060606060627
:100170000B0B0B0B0B0B0B0B0102102020080810B4
:100180002040102040800201020108040201010207
:1001900004081020408080402010080402018004E0
:1001A000020180402010080402010804020101023B
:1001B0000408102040800102040810204080000044
:1001C000090A02080B0C0D070603040100000000D9
:1001D000000000000000000000000000000000001F
:1001E0000000000000000000000011100F000000DF
:1001F00000000000000000000000000000000000FF
:100200000000000011241FBECFEFD1E2DEBFCDBF42
:1002100000E00CBF12E0A0E0B2E0E0E4F8E000E0B3
:100220000BBF02C007900D92A030B107D9F712E0C2
:10023000A0E0B2E001C01D92AB30B107E1F70E942F
:1002400025010C941E040C9400000E94750180E0AE
:1002500090E00895FC01CB01199580E090E00895AD
:1002600064E670E00E94700168EE73E080E090E068
:100270000E94C50280E090E0089520910002309134
:1002800001022436310514F40E94300180E090E030
:100290000895DF93CF930F92CDB7DEB789830E9485
:1002A000EC02898161E00E94C20380E090E00F903F
:1002B000CF91DF910895CF93DF93EC010E94490124
:1002C0008DE391E0BE010E942A0168EE73E080E0B8
:1002D00090E00E94C50280E090E0DF91CF91089508
:1002E0000E947C0180E090E008958AE090E00E9406
:1002F0005B0180E090E008951F93CF93DF93182F68
:10030000EB0161E00E94C203209709F4C5C0CF3F12
:10031000D10509F4C4C0E12FF0E0E254FE4FE491AE
:10032000E93009F466C0EA30B0F4E430F1F1E530C8
:1003300040F4E23059F1E33070F5E13009F0A9C042
:1003400020C0E73009F443C0E83008F048C0E63088
:1003500009F09FC034C0ED3009F473C0EE3038F4BA
:10036000EB3009F45AC0EC3008F061C04CC0E03109
:1003700009F47BC0E13109F482C0EF3009F089C093
:100380006AC084B5806884BDC7BD8DC084B58062F5
:1003900084BDC8BD88C08091800080688093800043
:1003A000D0938900C09388007EC0809180008062D5
:1003B00080938000D0938B00C0938A0074C080919A
:1003C000B00080688093B000C093B3006CC080918F
:1003D000B00080628093B000C093B40064C080918C
:1003E0009000806880939000D0939900C09398000B
:1003F0005AC080919000806280939000D0939B00BF
:10040000C0939A0050C080919000886080939000C3
:10041000D0939D00C0939C0046C08091A00080684E
:100420008093A000D093A900C093A8003CC0809105
:10043000A00080628093A000D093AB00C093AA007C
:1004400032C08091A00088608093A000D093AD005E
:10045000C093AC0028C08091200180688093200167
:10046000D0932901C09328011EC080912001806291
:1004700080932001D0932B01C0932A0114C0809156
:100480002001886080932001D0932D01C0932C011E
:100490000AC0C038D1051CF4812F60E002C0812F52
:1004A00061E00E94E603DF91CF911F9108951F92B2
:1004B0000F920FB60F9211242F933F938F939F9318
:1004C000AF93BF938091060290910702A09108021A
:1004D000B091090230910A020196A11DB11D232F8E
:1004E0002D5F2D3720F02D570196A11DB11D2093B2
:1004F0000A028093060290930702A0930802B09329
:1005000009028091020290910302A0910402B0912D
:1005100005020196A11DB11D809302029093030272
:10052000A0930402B0930502BF91AF919F918F9168
:100530003F912F910F900FBE0F901F9018959FB76E
:10054000F8942091020230910302409104025091EC
:10055000050286B5A89B06C08F3F21F02F5F3F4F55
:100560004F4F5F4F9FBF542F432F322F2227280F0B
:10057000311D411D511D82E0220F331F441F551FA5
:100580008A95D1F7B901CA010895EF92FF920F93AE
:100590001F93CF93DF937B018C010E949F02EB019D
:1005A0000FC00E949F026C1B7D0B83E0683E7807A2
:1005B00038F00894E108F10801091109C851DC4F2D
:1005C000E114F1040105110561F7DF91CF911F914D
:1005D0000F91FF90EF900895789484B5826084BD68
:1005E00084B5816084BD85B5826085BD85B5816037
:1005F00085BDEEE6F0E0808181608083E1E8F0E097
:100600001082808182608083808181608083E0E8C5
:10061000F0E0808181608083E1EBF0E080818460A4
:100620008083E0EBF0E0808181608083E1E9F0E0AD
:10063000808182608083808181608083E0E9F0E056
:10064000808181608083E1EAF0E080818260808344
:10065000808181608083E0EAF0E080818160808336
:10066000E1E2F1E08081826080838081816080832B
:10067000E0E2F1E0808181608083EAE7F0E0808160
:1006800084608083808182608083808181608083B8
:100690008081806880831092C1000895893009F4B8
:1006A00049C08A30A0F4843051F1853040F4823062
:1006B00079F1833000F5813009F063C026C08730BE
:1006C00079F1883098F5863009F05BC025C08D300F
:1006D00009F442C08E3028F48B30B1F18C30C0F573
:1006E0002DC0803109F442C0813109F445C08F30FA
:1006F00009F047C037C0809180008F7703C0809198
:1007000080008F7D80938000089584B58F7702C02C
:1007100084B58F7D84BD08958091B0008F7703C02C
:100720008091B0008F7D8093B000089580919000FB
:100730008F7707C0809190008F7D03C080919000DB
:10074000877F8093900008958091A0008F7707C0E5
:100750008091A0008F7D03C08091A000877F80934F
:10076000A0000895809120018F7703C0809120011F
:100770008F7D80932001089580912001877F809351
:100780002001089590E0FC01E858FE4F2491FC01FF
:10079000EE5CFE4FE491EE23C1F0F0E0EE0FFF1FA0
:1007A000EC51FF4F85919491DC01662341F49FB792
:1007B000F8948C91209582238C939FBF08959FB7C6
:1007C000F8948C91822B8C939FBF08950F931F9365
:1007D000DF93CF930F92CDB7DEB7282F30E0F9012A
:1007E000E254FE4F8491F901E858FE4F14912E5CBB
:1007F0003E4FF90104910023D9F0882321F0698349
:100800000E944E036981E02FF0E0EE0FFF1FE250DF
:10081000FF4F85919491DC019FB7F894662321F4F2
:100820008C911095812302C08C91812B8C939FBF5A
:100830000F90CF91DF911F910F910895F894FFCF02
:040000030000027A7D
:00000001FF
