:100000000C9461000C947E000C947E000C947E0095
:100010000C947E000C947E000C947E000C947E0068
:100020000C947E000C947E000C947E000C947E0058
:100030000C947E000C947E000C947E000C947E0048
:100040000C94AA020C947E000C947E000C947E000A
:100050000C947E000C947E000C947E000C947E0028
:100060000C947E000C947E00000000002400270009
:100070002A0000000000250028002B0000000000DE
:1000800023002600290004040404040404040202DA
:100090000202020203030303030301020408102007
:1000A0004080010204081020010204081020000012
:1000B0000007000201000003040600000000000029
:1000C000000011241FBECFEFD8E0DEBFCDBF12E08D
:1000D000A0E0B1E0EAEAF8E002C005900D92AC3190
:1000E000B107D9F712E0ACE1B2E001C01D92AD3228
:1000F000B107E1F70E9480000C9453040C940000B7
:100100000E943F030E94C6010E94DA0168EE73E07C
:1001100080E090E00E9418030E94E50160ED77E026
:1001200080E090E00E9418030E94F00160ED77E00B
:1001300080E090E00E9418030E94CF0180E090E0F0
:100140000895FC01CB01BA01099580E090E0089583
:10015000FC01CB01BA01A901099580E090E0089566
:1001600040911C0250911D020E94780180E090E0B5
:100170000895CF93DF93EB0128E730E030931D0221
:1001800020931C0248E750E00E94B000CE010E947C
:10019000080280E090E0DF91CF910895CF93DF9344
:1001A000EB012EEF30E030931D0220931C024EEF46
:1001B00050E00E94B000CE010E941E0280E090E05C
:1001C000DF91CF910895CF93DF93EB012BE930E0DE
:1001D00030931D0220931C024BE950E00E94B000B6
:1001E000CE010E94130280E090E0DF91CF9108954C
:1001F00024E630E030931D0220931C0244E650E0D8
:100200000E94B00068EE73E080E090E00E94180366
:1002100080E090E0089520911C0230911D02243668
:1002200031051CF40E94F8000895CB010E94FD01E5
:1002300080E090E008950F931F93CF93DF93EC013C
:100240008B0150931D0240931C020E948601409135
:100250001C0250911D02CE01B8010E94B00080E046
:1002600090E0DF91CF911F910F9108950F931F930D
:10027000CF93DF93EC018B019A0140911C025091C6
:100280001D020E94A801AC0190931D0280931C02E4
:10029000CE01B8010E941B0180E090E0DF91CF9178
:1002A0001F910F9108950F931F93DF93CF9300D069
:1002B000CDB7DEB7182F092FAB01862F61E0498338
:1002C0005A830E94A703812F61E00E94A7038BE05D
:1002D00091E0612F702F49815A810E94A10080E036
:1002E00090E00F900F90CF91DF911F910F910895A3
:1002F000CF93DF93EB01BA010E944A02CE010E9424
:10030000290280E090E0DF91CF9108950F931F9331
:10031000CF93DF938C01EB014B39510544F4CB01B2
:100320000E943402C801BE010E94E3000AC04F3F90
:1003300051053CF0CB010E943F02C801BE010E9462
:10034000CE0080E090E0DF91CF911F910F91089552
:10035000EF92FF920F931F93CF93DF937C018B015A
:10036000EA014F3F510544F0CB010E943F02C70113
:10037000B8010E94CE0002C0C20FD31FCE01DF9190
:10038000CF911F910F91FF90EF9008958AE090E038
:1003900069E070E00E94530180E090E0089589EBED
:1003A00090E06AE070E049E050E00E94A10080E047
:1003B00090E0089583EE90E06AE070E049E050E05C
:1003C0000E94A10080E090E008958EEC90E06AE049
:1003D00070E049E050E00E94A10080E090E00895C4
:1003E00086E391E06AE070E049E050E02AE030E026
:1003F0000E94A80080E090E008950F931F938C0165
:1004000080E091E00E940304C8011F910F910895BC
:100410000F931F938C0186E191E00E940304C801B1
:100420001F910F9108950F931F938C018CE291E01F
:100430000E940304C8011F910F9108950F931F9309
:100440008C0184E491E00E940304C8011F910F9184
:1004500008950F931F938C018BE591E00E94030494
:10046000C8011F910F9108950F931F938C0180E78E
:1004700091E00E940304C8011F910F9108950F930A
:100480001F938C0180E891E00E940304C8011F9132
:100490000F9108951F93CF93DF93182FEB0161E025
:1004A0000E94A703209709F44AC0CF3FD10509F461
:1004B00049C0E12FF0E0E255FF4FE491E330C1F095
:1004C000E43028F4E13051F0E230B1F50CC0E63010
:1004D00019F1E73049F1E43079F514C084B580684A
:1004E00084BDC7BD33C084B5806284BDC8BD2EC085
:1004F00080918000806880938000D0938900C093B1
:10050000880024C080918000806280938000D09316
:100510008B00C0938A001AC08091B00080688093DD
:10052000B000C093B30012C08091B000806280938D
:10053000B000C093B4000AC0C038D1051CF4812FAC
:1005400060E002C0812F61E00E94CB03DF91CF9178
:100550001F9108951F920F920FB60F9211242F939F
:100560003F938F939F93AF93BF938091220290917B
:100570002302A0912402B091250230912602019617
:10058000A11DB11D232F2D5F2D3720F02D57019672
:10059000A11DB11D20932602809322029093230275
:1005A000A0932402B093250280911E0290911F0215
:1005B000A0912002B09121020196A11DB11D80934E
:1005C0001E0290931F02A0932002B0932102BF91BC
:1005D000AF919F918F913F912F910F900FBE0F90F0
:1005E0001F9018959FB7F89420911E0230911F021A
:1005F000409120025091210286B5A89B06C08F3FF2
:1006000021F02F5F3F4F4F4F5F4F9FBF542F432F1E
:10061000322F2227280F311D411D511D82E0220F4C
:10062000331F441F551F8A95D1F7B901CA01089598
:10063000EF92FF920F931F93CF93DF937B018C0177
:100640000E94F202EB010FC00E94F2026C1B7D0BB4
:1006500083E0683E780738F00894E108F108010962
:100660001109C851DC4FE114F1040105110561F7CE
:10067000DF91CF911F910F91FF90EF9008957894A3
:1006800084B5826084BD84B5816084BD85B5826097
:1006900085BD85B5816085BDEEE6F0E08081816035
:1006A0008083E1E8F0E01082808182608083808135
:1006B00081608083E0E8F0E0808181608083E1EB0D
:1006C000F0E0808184608083E0EBF0E080818160F5
:1006D0008083EAE7F0E080818460808380818260AB
:1006E0008083808181608083808180688083109294
:1006F000C1000895833071F0843028F48130A1F076
:10070000823021F514C08630B1F08730D1F08430CA
:10071000E9F404C0809180008F7703C0809180004D
:100720008F7D80938000089584B58F7702C084B553
:100730008F7D84BD08958091B0008F778093B00045
:1007400008958091B0008F7D8093B000089590E06F
:10075000FC01E656FF4F2491FC01EA57FF4FE4915C
:10076000EE23C1F0F0E0EE0FFF1FE859FF4F859137
:100770009491DC01662341F49FB7F8948C91209505
:1007800082238C939FBF08959FB7F8948C91822BFE
:100790008C939FBF08950F931F93DF93CF930F9276
:1007A000CDB7DEB7282F30E0F901E255FF4F849135
:1007B000F901E656FF4F14912A573F4FF901049172
:1007C0000023D9F0882321F069830E947A0369818C
:1007D000E02FF0E0EE0FFF1FEE58FF4F8591949150
:1007E000DC019FB7F894662321F48C911095812346
:1007F00002C08C91812B8C939FBF0F90CF91DF9182
:100800001F910F910895EF92FF920F931F93CF9333
:10081000DF938C01E0912902F0912A02838181FF0C
:100820001FC0C0E0D0E00AC0DB011896ED91FC913A
:1008300019970995009711F0CFEFDFEFF80181913B
:100840008F016091290270912A02882369F7DB01E8
:100850001896ED91FC9119978AE00995009711F08F
:10086000CFEFDFEFCE01CDB7DEB7E6E00C94440466
:100870002A88398848885F846E847D848C849B8430
:10088000AA84B984C884DF80EE80FD800C811B813E
:10089000AA81B981CE0FD11D0FB6F894DEBF0FBE6D
:0A08A000CDBFED010895F894FFCFDD
:1008AA00090954657374206D6F746F7220737461D3
:1008BA00727465642000090954657374206D6F743D
:1008CA006F722073746F7070656420000909546533
:1008DA007374206C6576656C206973206E6F726D17
:1008EA00616C2000090954657374206C6576656C27
:1008FA0020697320747572626F2000090954657348
:10090A007420616E616C6F6720777269746520006C
:10091A0009095465737420546F6F206C6F77200037
:10092A0009095465737420546F6F206869676820D9
:10093A000009095465737420542053206973206296
:10094A006F74746F6D2000090954657374206D6F9C
:10095A00746F722068617320616C726561647920BA
:10096A006265656E2073746172746564200009099A
:10097A005465737420494E43204E65772020202009
:10098A004C3A202564200A000909546573742044EE
:10099A004543204E6577202020204C3A20256420AC
:1009AA000A0009095465737420736574204E6577CB
:0C09BA00202020204C3A202564200A0058
:0400000300000216E1
:00000001FF
