:100000000C9461000C947E000C947E000C947E0095
:100010000C947E000C947E000C947E000C947E0068
:100020000C947E000C947E000C947E000C947E0058
:100030000C947E000C947E000C947E000C947E0048
:100040000C9453010C947E000C947E000C947E0062
:100050000C947E000C947E000C947E000C947E0028
:100060000C947E000C947E00000000002400270009
:100070002A0000000000250028002B0000000000DE
:1000800023002600290004040404040404040202DA
:100090000202020203030303030301020408102007
:1000A0004080010204081020010204081020000012
:1000B0000007000201000003040600000000000029
:1000C000000011241FBECFEFD8E0DEBFCDBF12E08D
:1000D000A0E0B1E0ECE6FBE002C005900D92A6378F
:1000E000B107D9F712E0A6E7B2E001C01D92A73828
:1000F000B107E1F70E944E010C94B4050C94000086
:100100001F93DF93CF930F92CDB7DEB7182F99834C
:100110000E94E801812F61E00E94500200D000D0CF
:10012000EDB7FEB7319620E031E0ADB7BEB712961D
:100130003C932E9311971283998193830E94AC0272
:1001400080E090E00F900F900F900F900F90CF9164
:10015000DF911F9108950F931F93CF93DF93EC01CD
:100160008B0100D000D000D0EDB7FEB731968BE107
:1001700091E0ADB7BEB712969C938E931197D3833F
:10018000C283758364830E94AC028DB79EB70696C6
:100190000FB6F8949EBF0FBE8DBFC801FE01099532
:1001A00087E391E00E94C10280E090E0DF91CF916F
:1001B0001F910F9108958BE061E00E9450028BE047
:1001C00061E00E94740268EE73E080E090E00E94BB
:1001D000C1018BE060E00E94740268EE73E080E091
:1001E00090E00E94C1018BE061E00E9450028BE030
:1001F00061E00E94740262E370E080E090E00E949F
:10020000C1018BE060E00E94740262E370E080E074
:1002100090E00E94C10183E691E00E94C10280E06B
:1002200090E0089564E670E00E94DB0068EE73E001
:1002300080E090E00E94C10188E791E00E94C10245
:1002400080E090E008952091760230917702243684
:1002500031051CF40E94120104C08EE891E00E9456
:10026000C10280E090E00895CF93DF93EC010E94FB
:10027000800083E291E0BE010E94AB0089E692E03B
:100280000E94C10280E090E0DF91CF9108958BE061
:1002900090E00E94340180E090E008950E944701C0
:1002A00080E090E008951F920F920FB60F921124F4
:1002B0002F933F938F939F93AF93BF9380917C0233
:1002C00090917D02A0917E02B0917F0230918002D8
:1002D0000196A11DB11D232F2D5F2D3720F02D5725
:1002E0000196A11DB11D2093800280937C02909302
:1002F0007D02A0937E02B0937F028091780290915C
:100300007902A0917A02B0917B020196A11DB11DE4
:100310008093780290937902A0937A02B0937B0243
:10032000BF91AF919F918F913F912F910F900FBEF1
:100330000F901F9018959FB7F894209178023091F4
:10034000790240917A0250917B0286B5A89B06C043
:100350008F3F21F02F5F3F4F4F4F5F4F9FBF542F75
:10036000432F322F2227280F311D411D511D82E0BE
:10037000220F331F441F551F8A95D1F7B901CA01B7
:100380000895EF92FF920F931F93CF93DF937B011A
:100390008C010E949B01EB010FC00E949B016C1B12
:1003A0007D0B83E0683E780738F00894E108F10897
:1003B00001091109C851DC4FE114F10401051105CF
:1003C00061F7DF91CF911F910F91FF90EF9008950A
:1003D000789484B5826084BD84B5816084BD85B520
:1003E000826085BD85B5816085BDEEE6F0E08081E7
:1003F00081608083E1E8F0E0108280818260808308
:10040000808181608083E0E8F0E08081816080838A
:10041000E1EBF0E0808184608083E0EBF0E08081BC
:1004200081608083EAE7F0E080818460808380815E
:100430008260808380818160808380818068808306
:100440001092C1000895833071F0843028F4813017
:10045000A1F0823021F514C08630B1F08730D1F0A0
:100460008430E9F404C0809180008F7703C08091CC
:1004700080008F7D80938000089584B58F7702C0BF
:1004800084B58F7D84BD08958091B0008F7780936F
:10049000B00008958091B0008F7D8093B0000895E2
:1004A00090E0FC01E656FF4F2491FC01EA57FF4F14
:1004B000E491EE23C1F0F0E0EE0FFF1FE859FF4F8B
:1004C00085919491DC01662341F49FB7F8948C9157
:1004D000209582238C939FBF08959FB7F8948C91A9
:1004E000822B8C939FBF08950F931F93DF93CF931D
:1004F0000F92CDB7DEB7282F30E0F901E255FF4F5C
:100500008491F901E656FF4F14912A573F4FF901A4
:1005100004910023D9F0882321F069830E942302EB
:100520006981E02FF0E0EE0FFF1FEE58FF4F85913D
:100530009491DC019FB7F894662321F48C91109577
:10054000812302C08C91812B8C939FBF0F90CF9100
:10055000DF911F910F910895A0E0B0E0E2EBF2E08F
:100560000C948D05FE013596619171918091830205
:1005700090918402AF010E94F6022096E2E00C9472
:10058000A905EF92FF920F931F93CF93DF938C01F6
:10059000E0918302F0918402838181FF1FC0C0E05B
:1005A000D0E00AC0DB011896ED91FC9119970995EE
:1005B000009711F0CFEFDFEFF80181918F0160918B
:1005C000830270918402882369F7DB011896ED910C
:1005D000FC9119978AE00995009711F0CFEFDFEFB2
:1005E000CE01CDB7DEB7E6E00C94A505ACE0B0E0F7
:1005F000ECEFF2E00C947D056C011B018A01FC011B
:1006000017821682838181FFD1C12E010894411C7B
:10061000511CF6019381F10193FD859193FF819126
:100620001F01882309F4BEC1853239F493FD8591F9
:1006300093FF81911F01853229F490E0B6010E9459
:10064000F304E7CFEE24FF2420E02032B0F48B3215
:1006500069F08C3228F4803251F0833271F40BC08F
:100660008D3239F0803349F421602CC0226024603F
:1006700029C0286027C0206125C027FD2CC0382F45
:1006800030533A3098F426FF08C08E2D880FE82E9C
:10069000EE0CEE0CE80EE30E15C08F2D880FF82E31
:1006A000FF0CFF0CF80EF30E20620CC08E3221F40A
:1006B00026FD78C1206406C08C3611F4206802C083
:1006C000883649F4F10193FD859193FF81911F01D3
:1006D000882309F0BACF982F9554933018F0905290
:1006E000933028F40C5F1F4FFFE3F9830DC083366E
:1006F00031F0833771F0833509F060C022C0F80112
:10070000808189830E5F1F4F420171E0A72EB12CBB
:1007100016C062E0662E712C600E711EF80180809A
:10072000918026FF03C06E2D70E002C06FEF7FEF57
:10073000C4012C870E94E8045C0183012C852F777B
:1007400017C052E0652E712C600E711EF80180807A
:10075000918026FF03C06E2D70E002C06FEF7FEF27
:10076000C4012C870E94DD045C012C852068830174
:1007700023FD20C008C080E290E0B6012C870E94D3
:10078000F304FA942C858F2D90E0A816B90698F3FF
:1007900011C0F40127FD859127FF81914F0190E061
:1007A000B6012C870E94F3042C85F110FA9408946A
:1007B000A108B108A114B10461F7F1C0843611F0A9
:1007C000893649F527FF08C0F8016081718182816F
:1007D00093810C5F1F4F09C0F801608171818827E8
:1007E00077FD8095982F0E5F1F4F4FE6B42EB222F3
:1007F00097FF09C090958095709561957F4F8F4FB9
:100800009F4FF0E8BF2AA2012AE030E00E941F05B6
:10081000782E741845C0853731F43FEEB32EB222DE
:100820002AE030E025C099EFB92EB2228F36C1F010
:10083000803720F4883509F0B5C00DC0803721F02D
:10084000883709F0AFC002C020E1B22AB4FE0BC065
:1008500084E0B82A08C0B4FE09C0E6E0BE2A06C09B
:1008600028E030E005C020E130E002C020E132E0C5
:10087000B7FE08C0F80160817181828193810C5FAD
:100880001F4F07C0F8016081718180E090E00E5F2A
:100890001F4FA2010E941F05782E7418FFE7BF2288
:1008A000B6FE0BC02EEFB2227E1438F4B4FE07C0A1
:1008B000B2FC05C08FEEB82202C0A72C01C0AE2C3E
:1008C0008B2D90E0B4FE0DC0FE01E70DF11D2081DF
:1008D000203319F4E9EEBE2209C0A394B2FE06C08B
:1008E00004C086789070009709F0A3948B2C99240B
:1008F000B3FC14C0B0FE0FC0AF1428F4E72CEF0C0B
:10090000EA18AF2C08C0E72C06C080E290E0B601E0
:100910000E94F304A394AF14C0F304C0AF1410F406
:10092000FA1801C0FF2484FE0FC080E390E0B601F6
:100930000E94F30482FE1FC081FE03C088E590E0A0
:1009400010C088E790E00DC0C401867890700097D1
:1009500091F081FC02C080E201C08BE2B7FC8DE225
:1009600090E0B6010E94F30406C080E390E0B60177
:100970000E94F304EA947E14C0F37A94F201E70D26
:10098000F11D808190E0B6010E94F3047720A9F761
:1009900006C080E290E0B6010E94F304FA94FF20C2
:1009A000C1F737CEF6012681378102C02FEF3FEF26
:1009B000C9012C96E2E10C949905FC010590615067
:1009C00070400110D8F7809590958E0F9F1F089565
:1009D000FC016150704001900110D8F7809590950E
:1009E0008E0F9F1F08950F931F93CF93DF938C015A
:1009F000EB018B8181FF1BC082FF0DC02E813F81E7
:100A00008C819D812817390764F4E881F98101936D
:100A1000F983E88306C0E885F985802F099500975A
:100A200031F48E819F8101969F838E8302C00FEFE8
:100A30001FEFC801DF91CF911F910F910895FA0127
:100A4000AA27283051F1203181F1E8946F936E7F0D
:100A50006E5F7F4F8F4F9F4FAF4FB1E03ED0B4E0FE
:100A60003CD0670F781F891F9A1FA11D680F791F3F
:100A70008A1F911DA11D6A0F711D811D911DA11D50
:100A800020D009F468943F912AE0269F1124301960
:100A9000305D3193DEF6CF010895462F4770405DFB
:100AA0004193B3E00FD0C9F7F6CF462F4F70405DAA
:100AB0004A3318F0495D31FD4052419302D0A9F705
:100AC000EACFB4E0A6959795879577956795BA95FF
:100AD000C9F700976105710508959B01AC010A2EC5
:100AE00006945795479537952795BA95C9F7620F9C
:100AF000731F841F951FA01D08952F923F924F9240
:100B00005F926F927F928F929F92AF92BF92CF929D
:100B1000DF92EF92FF920F931F93CF93DF93CDB7A6
:100B2000DEB7CA1BDB0B0FB6F894DEBF0FBECDBF1E
:100B300009942A88398848885F846E847D848C84EF
:100B40009B84AA84B984C884DF80EE80FD800C81F8
:100B50001B81AA81B981CE0FD11D0FB6F894DEBFDB
:0C0B60000FBECDBFED010895F894FFCF4B
:100B6C00090954657374206F7574707574207069FD
:100B7C006E3A202564204F4B200A000A0A202D2DA6
:100B8C0020686F7665725F66756E63202025702015
:100B9C002025640A0A0A00090954657374206675D5
:100BAC006E6374696F6E204F4B0009095465737442
:100BBC00204C6F6F70204F4B202020204C3A20256A
:100BCC00640A0009095465737420616E616C6F6767
:100BDC002077726974652000090954657374205478
:100BEC00205320697320626F74746F6D20000909A3
:100BFC0054657374206D6F746F722068617320611B
:100C0C006C7265616479206265656E2073746172C3
:100C1C007465642000090954657374206C657665ED
:100C2C006C206973206E6F726D616C200009095421
:100C3C00657374206C6576656C20697320747572AD
:100C4C00626F2000090954657374206D6F746F72A4
:100C5C002073746F70706564200009095465737497
:100C6C0020546F6F206C6F772000090954657374E2
:100C7C0020546F6F206869676820000909546573F8
:100C8C007420736574204E6577202020204C3A2008
:100C9C002564200A000909546573742044454320D7
:100CAC004E6577202020204C3A202564200A00092C
:100CBC00095465737420494E43204E6577202020DB
:100CCC00204C3A202564200A0009095465737420CD
:060CDC004D61696E20006D
:0400000300000246B1
:00000001FF
