:100000000C9402010C9423010C9423010C94230101
:100010000C9423010C9423010C9423010C942301D0
:100020000C9423010C9423010C9423010C942301C0
:100030000C9423010C9423010C9423010C942301B0
:100040000C9423010C9423010C9423010C942301A0
:100050000C9423010C9423010C9423010C94B805F7
:100060000C9423010C9423010C9423010C94230180
:100070000C9423010C9423010C9423010C94230170
:100080000C9423010C9423010C9423010C94230160
:100090000C9423010C9423010C9423010C94230150
:1000A0000C9423010C9423010C9423010C94230140
:1000B0000C9423010C9423010C9423010C94230130
:1000C0000C9423010C9423010C9423010C94230120
:1000D0000C9423010C9423010C9423010C94230110
:1000E0000C94230100002100240027002A002D0089
:1000F0003000330001010000040107010A01000083
:100100002200250028002B002E00310034000201BF
:100110000000050108010B0100002000230026005B
:1001200029002C002F00320000010000030106010D
:10013000090105050505070508080808020202026D
:100140000A0A080804040404010101010101010173
:100150000303030303030303040707070C0C0C0C3E
:100160000C0C0C0C02020202060606060606060627
:100170000B0B0B0B0B0B0B0B0102102020080810B4
:100180002040102040800201020108040201010207
:1001900004081020408080402010080402018004E0
:1001A000020180402010080402010804020101023B
:1001B0000408102040800102040810204080000044
:1001C000090A02080B0C0D070603040100000000D9
:1001D000000000000000000000000000000000001F
:1001E0000000000000000000000011100F000000DF
:1001F00000000000000000000000000000000000FF
:100200000000000011241FBECFEFD1E2DEBFCDBF42
:1002100000E00CBF12E0A0E0B2E0E2E0FFE000E0AE
:100220000BBF02C007900D92A030B107D9F712E0C2
:10023000A0E0B2E001C01D92A731B107E1F70E9432
:1002400025010C947F070C9400000E944D060E942B
:1002500072020E94860268EE73E080E090E00E94E5
:1002600026060E94910260ED77E080E090E00E9417
:1002700026060E949C0260ED77E080E090E00E94FC
:1002800026060E947B0280E090E00895FC01CB01ED
:10029000BA01199580E090E00895FC01CB01BA0104
:1002A000A901199580E090E00895409100025091D5
:1002B00001020E94240280E090E00895CF93DF9332
:1002C000EB0128E730E0309301022093000248E779
:1002D00050E00E945501CE010E94240480E090E08D
:1002E000DF91CF910895CF93DF93EB012EEF30E0B4
:1002F00030930102209300024EEF50E00E9455011E
:10030000CE010E94780380E090E0DF91CF910895C4
:10031000CF93DF93EB012BE930E030930102209380
:1003200000024BE950E00E945501CE010E94CD032E
:1003300080E090E0DF91CF91089524E630E03093A3
:1003400001022093000244E650E00E94550168EE4D
:1003500073E080E090E00E94260680E090E008953F
:100360002091000230910102243631051CF40E94D4
:100370009D010895CB010E94860480E090E00895DD
:100380000F931F93CF93DF93EC018B0150930102E6
:10039000409300020E9432024091000250910102FB
:1003A000CE01B8010E94550180E090E0DF91CF912D
:1003B0001F910F9108950F931F93CF93DF93EC013B
:1003C0008B019A0140910002509101020E94540257
:1003D000AC019093010280930002CE01B8010E940B
:1003E000C00180E090E0DF91CF911F910F910895BF
:1003F0000F931F93DF93CF930F920F92CDB7DEB77A
:10040000182F092FAB01862F61E049835A830E9480
:100410002307812F61E00E94230780EB91E0612F89
:10042000702F49815A810E94460168EE73E080E096
:1004300090E00E94260680E090E00F900F90CF9110
:10044000DF911F910F910895CF93DF93EB01BA01D4
:100450000E94DD04CE010E94210380E090E0DF9144
:10046000CF9108950F931F93CF93DF938C01EB01EE
:100470004B39510544F4CB010E94BC02C801BE01B6
:100480000E9488010AC04F3F51053CF0CB010E94F9
:100490001C03C801BE010E94730180E090E0DF915F
:1004A000CF911F910F910895EF92FF920F931F9399
:1004B000CF93DF937C018B01EA014F3F510544F05C
:1004C000CB010E941C03C701B8010E94730102C046
:1004D000C20FD31FCE01DF91CF911F910F91FF90DB
:1004E000EF9008958AE090E069E070E00E94F801E2
:1004F00080E090E008958EE591E06AE070E049E0E8
:1005000050E00E94460180E090E0089588E891E084
:100510006AE070E049E050E00E94460180E090E02F
:10052000089583E791E06AE070E049E050E00E94BE
:10053000460180E090E008958BED91E06AE070E084
:1005400049E050E02AE030E00E944D0180E090E078
:1005500008950F931F93182F092F60E070E00E94F9
:10056000DD0462E370E080E090E00E942606812FC7
:10057000902F1F910F9108950F931F93182F092FFC
:1005800088EC90E0909312028093110290931402F1
:100590008093130283E090E090930C0280930B020F
:1005A00010920E0210920D0228C0812F6EEF70E0A3
:1005B0000E94DD046091110270911202882777FD7C
:1005C0008095982F0E942606812F60E070E00E949F
:1005D000DD046091130270911402882777FD8095E5
:1005E000982F0E94260620910D0230910E022F5F57
:1005F0003F4F30930E0220930D0220910D02309157
:100600000E0280910B0290910C02281739076CF2B0
:10061000812F6EEF70E00E94DD0462E370E080E005
:1006200090E00E942606812F902F0E94A90280E070
:1006300090E01F910F9108950E94BC0280E090E02D
:1006400008950F931F93182F092F8AE090E090933D
:1006500012028093110282E390E09093140280933F
:10066000130282E090E090930C0280930B021092B0
:100670000E0210920D0228C0812F6EEF70E00E94D2
:10068000DD046091110270911202882777FD809538
:10069000982F0E942606812F60E070E00E94DD0402
:1006A0006091130270911402882777FD8095982F2E
:1006B0000E94260620910D0230910E022F5F3F4FBF
:1006C00030930E0220930D0220910D0230910E0204
:1006D00080910B0290910C02281739076CF2812F40
:1006E000902F0E94A90280E090E01F910F91089541
:1006F0000F931F93182F092F82E390E0909312021B
:1007000080931102909314028093130288E090E08A
:1007100090930C0280930B0210920E0210920D0225
:1007200028C0812F6EEF70E00E94DD0460911102FD
:1007300070911202882777FD8095982F0E942606D7
:10074000812F60E070E00E94DD04609113027091DF
:100750001402882777FD8095982F0E942606209105
:100760000D0230910E022F5F3F4F30930E02209307
:100770000D0220910D0230910E0280910B0290919A
:100780000C02281739076CF2812F902F0E94A902C2
:1007900080E090E01F910F9108950F931F93182F01
:1007A000092F88EC90E0909312028093110282E36B
:1007B00090E0909314028093130286E090E090936F
:1007C0000C0280930B0210920E0210920D0228C0B0
:1007D000812F6EEF70E00E94DD0460911102709134
:1007E0001202882777FD8095982F0E942606812F78
:1007F00060E070E00E94DD046091130270911402C9
:10080000882777FD8095982F0E94260620910D025B
:1008100030910E022F5F3F4F30930E0220930D0256
:1008200020910D0230910E0280910B0290910C02EA
:10083000281739076CF2812F902F0E94A90280E0BF
:1008400090E01F910F9108950F931F93182F092F78
:1008500084E690E090931202809311028CE291E082
:10086000909314028093130284E090E090930C0222
:1008700080930B0210920E0210920D0228C0812F5D
:100880006EEF70E00E94DD0460911102709112021F
:10089000882777FD8095982F0E942606812F60E09B
:1008A00070E00E94DD0460911302709114028827A9
:1008B00077FD8095982F0E94260620910D02309199
:1008C0000E022F5F3F4F30930E0220930D022091B6
:1008D0000D0230910E0280910B0290910C022817AC
:1008E00039076CF2812F6EEF70E00E94DD0464EF37
:1008F00071E080E090E00E942606812F902F0E94F8
:10090000A90280E090E01F910F9108950F931F932B
:10091000182F092F84E690E0909312028093110221
:1009200082E390E0909314028093130288E090E0B9
:1009300090930C0280930B0210920E0210920D0203
:1009400028C0812F6EEF70E00E94DD0460911102DB
:1009500070911202882777FD8095982F0E942606B5
:10096000812F60E070E00E94DD04609113027091BD
:100970001402882777FD8095982F0E9426062091E3
:100980000D0230910E022F5F3F4F30930E022093E5
:100990000D0220910D0230910E0280910B02909178
:1009A0000C02281739076CF2812F902F0E94A902A0
:1009B00080E090E01F910F9108951F93CF93DF93F4
:1009C000182FEB0161E00E942307209709F4C5C0AE
:1009D000CF3FD10509F4C4C0E12FF0E0E254FE4F4F
:1009E000E491E93009F466C0EA30B0F4E430F1F1A2
:1009F000E53040F4E23059F1E33070F5E13009F0D0
:100A0000A9C020C0E73009F443C0E83008F048C06E
:100A1000E63009F09FC034C0ED3009F473C0EE3009
:100A200038F4EB3009F45AC0EC3008F061C04CC027
:100A3000E03109F47BC0E13109F482C0EF3009F004
:100A400089C06AC084B5806884BDC7BD8DC084B5C7
:100A5000806284BDC8BD88C080918000806880931A
:100A60008000D0938900C09388007EC08091800070
:100A7000806280938000D0938B00C0938A0074C002
:100A80008091B00080688093B000C093B3006CC0C8
:100A90008091B00080628093B000C093B40064C0C5
:100AA00080919000806880939000D0939900C093CB
:100AB00098005AC080919000806280939000D093FB
:100AC0009B00C0939A0050C08091900088608093F2
:100AD0009000D0939D00C0939C0046C08091A000E0
:100AE00080688093A000D093A900C093A8003CC068
:100AF0008091A00080628093A000D093AB00C0934F
:100B0000AA0032C08091A00088608093A000D0939A
:100B1000AD00C093AC0028C0809120018068809314
:100B20002001D0932901C09328011EC0809120018B
:100B3000806280932001D0932B01C0932A0114C0BE
:100B400080912001886080932001D0932D01C09373
:100B50002C010AC0C038D1051CF4812F60E002C00E
:100B6000812F61E00E944707DF91CF911F91089587
:100B70001F920F920FB60F9211242F933F938F93D2
:100B80009F93AF93BF938091060290910702A0912B
:100B90000802B091090230910A020196A11DB11D0F
:100BA000232F2D5F2D3720F02D570196A11DB11D4C
:100BB00020930A028093060290930702A0930802F2
:100BC000B09309028091020290910302A091040265
:100BD000B09105020196A11DB11D80930202909370
:100BE0000302A0930402B0930502BF91AF919F91BD
:100BF0008F913F912F910F900FBE0F901F901895DE
:100C00009FB7F894209102023091030240910402B0
:100C10005091050286B5A89B06C08F3F21F02F5F3B
:100C20003F4F4F4F5F4F9FBF542F432F322F2227ED
:100C3000280F311D411D511D82E0220F331F441F1B
:100C4000551F8A95D1F7B901CA010895EF92FF9215
:100C50000F931F93CF93DF937B018C010E940006BB
:100C6000EB010FC00E9400066C1B7D0B83E0683E09
:100C7000780738F00894E108F10801091109C85112
:100C8000DC4FE114F1040105110561F7DF91CF910B
:100C90001F910F91FF90EF900895789484B5826032
:100CA00084BD84B5816084BD85B5826085BD85B510
:100CB000816085BDEEE6F0E0808181608083E1E8BF
:100CC000F0E01082808182608083808181608083F7
:100CD000E0E8F0E0808181608083E1EBF0E08081FA
:100CE00084608083E0EBF0E0808181608083E1E9D3
:100CF000F0E0808182608083808181608083E0E990
:100D0000F0E0808181608083E1EAF0E080818260B0
:100D10008083808181608083E0EAF0E0808181606F
:100D20008083E1E2F1E08081826080838081816064
:100D30008083E0E2F1E0808181608083EAE7F0E097
:100D400080818460808380818260808380818160F3
:100D500080838081806880831092C10008958930EB
:100D600009F449C08A30A0F4843051F1853040F450
:100D7000823079F1833000F5813009F063C026C0FC
:100D8000873079F1883098F5863009F05BC025C04E
:100D90008D3009F442C08E3028F48B30B1F18C30A4
:100DA000C0F52DC0803109F442C0813109F445C03D
:100DB0008F3009F047C037C0809180008F7703C023
:100DC000809180008F7D80938000089584B58F7717
:100DD00002C084B58F7D84BD08958091B0008F7767
:100DE00003C08091B0008F7D8093B0000895809102
:100DF00090008F7707C0809190008F7D03C0809115
:100E00009000877F8093900008958091A0008F7755
:100E100007C08091A0008F7D03C08091A000877FD4
:100E20008093A0000895809120018F7703C0809166
:100E300020018F7D80932001089580912001877F7C
:100E400080932001089590E0FC01E858FE4F249122
:100E5000FC01EE5CFE4FE491EE23C1F0F0E0EE0FFA
:100E6000FF1FEC51FF4F85919491DC01662341F403
:100E70009FB7F8948C91209582238C939FBF0895FF
:100E80009FB7F8948C91822B8C939FBF08950F93FA
:100E90001F93DF93CF930F92CDB7DEB7282F30E0AB
:100EA000F901E254FE4F8491F901E858FE4F149184
:100EB0002E5C3E4FF90104910023D9F0882321F0E4
:100EC00069830E94AF066981E02FF0E0EE0FFF1FFB
:100ED000E250FF4F85919491DC019FB7F89466230F
:100EE00021F48C911095812302C08C91812B8C93DD
:100EF0009FBF0F90CF91DF911F910F910895F894AC
:020F0000FFCF21
:040000030000036096
:00000001FF
