:100000000C9404010C9435010C9435010C943501C9
:100010000C9435010C9435010C9435010C94350188
:100020000C9435010C9435010C9435010C94350178
:100030000C9435010C9435010C9435010C94350168
:100040000C9435010C94E7060C9435010C943501A1
:100050000C9435010C9435010C9435010C94460137
:100060000C9435010C94E30C0C94930D0C94350115
:100070000C9435010C9435010C9435010C94350128
:100080000C9415070C9435010C9435010C94350132
:100090000C940F0D0C94DE0D0C9435010C9435016D
:1000A0000C9435010C9435010C9443070C943501E4
:1000B0000C9435010C9435010C9435010C947107A6
:1000C0000C9435010C9435010C9435010C943B0DC6
:1000D0000C94290E0C9435010C94670D0C94740E3D
:1000E0000C94350100002100240027002A002D0077
:1000F0003000330001010000040107010A01000083
:100100002200250028002B002E00310034000201BF
:100110000000050108010B0100002000230026005B
:1001200029002C002F00320000010000030106010D
:10013000090105050505070508080808020202026D
:100140000A0A080804040404010101010101010173
:100150000303030303030303040707070C0C0C0C3E
:100160000C0C0C0C02020202060606060606060627
:100170000B0B0B0B0B0B0B0B0102102020080810B4
:100180002040102040800201020108040201010207
:1001900004081020408080402010080402018004E0
:1001A000020180402010080402010804020101023B
:1001B0000408102040800102040810204080000044
:1001C000090A02080B0C0D070603040100000000D9
:1001D000000000000000000000000000000000001F
:1001E0000000000000000000000011100F000000DF
:1001F00000000000000000000000000000000000FF
:100200000000000018063D0F11241FBECFEFD1E201
:10021000DEBFCDBF00E00CBF16E0A0E0B2E0E8E832
:10022000F4E200E00BBF02C007900D92A435B107C5
:10023000D9F719E0A4E5B6E001C01D92A53AB107CF
:10024000E1F712E0C8E0D2E000E006C02297010921
:10025000FE010BBF0E94A810C430D10780E0080740
:10026000A9F70E9437010C9442120C9400000E94DE
:10027000DB010E94B2020E9443040E94710480E0EC
:1002800090E00E9401050E948102FDCF1F920F9213
:100290000FB60F9211242F933F938F939F93AF9399
:1002A000BF938091580690915906A0915A06B0913B
:1002B0005B0630915C060196A11DB11D232F2D5FB9
:1002C0002D3720F02D570196A11DB11D20935C06FE
:1002D0008093580690935906A0935A06B0935B06F4
:1002E0008091540690915506A0915606B0915706FC
:1002F0000196A11DB11D8093540690935506A093BD
:100300005606B0935706BF91AF919F918F913F9141
:100310002F910F900FBE0F901F9018959FB7F894D4
:10032000209154063091550640915606509157063B
:1003300086B5A89B06C08F3F21F02F5F3F4F4F4FE0
:100340005F4F9FBF542F432F322F2227280F311D7D
:10035000411D511D82E0220F331F441F551F8A95F6
:10036000D1F7B901CA010895EF92FF920F931F933D
:10037000CF93DF937B018C010E948E01EB010FC0B4
:100380000E948E016C1B7D0B83E0683E780738F07D
:100390000894E108F10801091109C851DC4FE11482
:1003A000F1040105110561F7DF91CF911F910F91C4
:1003B000FF90EF900895789484B5826084BD84B5F1
:1003C000816084BD85B5826085BD85B5816085BD50
:1003D000EEE6F0E0808181608083E1E8F0E0108269
:1003E000808182608083808181608083E0E8F0E0AA
:1003F000808181608083E1EBF0E080818460808394
:10040000E0EBF0E0808181608083E1E9F0E08081D1
:1004100082608083808181608083E0E9F0E0808178
:1004200081608083E1EAF0E0808182608083808166
:1004300081608083E0EAF0E0808181608083E1E296
:10044000F1E0808182608083808181608083E0E24E
:10045000F1E0808181608083EAE7F0E08081846060
:1004600080838081826080838081816080838081BD
:10047000806880831092C100089581E090E066E07A
:1004800070E00E94AC10FC0190935E0680935D06C4
:100490001582148208950F931F93DF93CF93CDB7E6
:1004A000DEB72A970FB6F894DEBF0FBECDBF8E0120
:1004B0000F5F1F4F11C0C8010E94880299818A8175
:1004C0002B813C81ED81FE81913019F4F901199560
:1004D00003C0923009F4199560915D0670915E0633
:1004E000FB0184819581181619062CF32A960FB604
:1004F000F894DEBF0FBECDBFCF91DF911F910F915A
:1005000008950E943D020E946C030E944B02FBCFA3
:100510000F931F93CF93DF938C01FB01A081B181D7
:10052000982F292F312FAD018AE0EA010990AE0101
:10053000E90109929E018150C1F724813581215042
:100540003040358324831A968D919C911B9791831B
:100550008083CD010E946B11C801DF91CF911F9163
:100560000F9108950E94F1030895DF93CF930F92A6
:10057000CDB7DEB78983CE0101960E94AA038230EF
:10058000A1F0833028F4882351F08130D1F40AC0DF
:10059000843089F0843060F0853099F40FC080E0B9
:1005A00092E011C08AE092E00EC085E192E00BC0BB
:1005B00081E292E008C08DE292E005C088E392E01B
:1005C00002C08FE392E00E94270480E00F90CF9159
:1005D000DF9108950F931F93DF93CF930F92CDB7C1
:1005E000DEB789838E010F5F1F4FC8010E949F03F2
:1005F0008130910589F4C8010E94AE03882319F067
:10060000813039F403C080E592E01AC08EE692E0B2
:1006100017C08BE892E014C0C8010E94AE03882383
:1006200019F0873039F403C089EA92E005C089ECFB
:1006300092E002C08AEE92E00E94270487E193E0F4
:100640000E94270480E00F90CF91DF911F910F91BE
:1006500008950F931F93DF93CF930F92CDB7DEB71B
:1006600089838E010F5F1F4FC8010E949F03813055
:100670009105A9F4C8010E94AE03882319F08130C6
:1006800059F407C086E393E00E94E20382E493E01A
:100690001AC08DE693E017C088E993E014C0C80142
:1006A0000E94AE03882319F0873039F403C085EB2C
:1006B00093E005C084ED93E002C084EF93E00E94D4
:1006C000270480E294E00E94270480E00F90CF91FD
:1006D000DF911F910F9108950F931F930E940B04B8
:1006E000182F8F3F49F190E00E94C103082F8F3FE0
:1006F000A9F38AE090E00E94D110009729F48FE3DB
:1007000094E00E94270418C0013049F0013018F02D
:10071000023069F408C0812F0E942903DFCF812FA6
:100720000E94EA02DBCF812F0E94B502D7CF85E578
:1007300094E00E942704D2CF1F910F910895FC01ED
:10074000808190E08870907023E0959587952A9538
:10075000E1F70895FC01808187700895FC01808194
:1007600087700895FC01808182958F7090E08630BB
:10077000910528F4825C994FFC01808108958FEFE8
:100780000895DF93CF930F920F92CDB7DEB79A8380
:100790008983CE0101960E94B2030F900F90CF91F2
:1007A000DF910895CF93DF93EC018EE399E06881A8
:1007B0000E94900C8FE199E068810E94900CDF917B
:1007C000CF910895DF93CF930F92CDB7DEB78CE72B
:1007D0008983CE0101960E94D2030F90CF91DF91C1
:1007E00008958FE199E040E855E260E070E00E94F2
:1007F000BF0E8EE399E040E855E260E070E00E94B1
:10080000BF0E0895FC018FE199E0608140E150E066
:100810000E94DA0B0895DF93CF930F92CDB7DEB726
:100820008EE399E00E942B0C181619065CF48EE3F7
:1008300099E00E945A0C8983CE0101960E9402041D
:10084000898101C08FEF0F90CF91DF910895EF92D2
:10085000FF92CF93DF93E82EE7017E01F92EE701A7
:1008600004C08FE199E00E94690B69916623C9F782
:100870008FE199E06AE175E00E94660BDF91CF910C
:10088000FF90EF9008950E94640480E090E0089546
:1008900080915F06813029F0813018F0823089F430
:1008A00004C08BE064E670E00AC06091600670915D
:1008B00061066A3771052CF46C577F4F8BE00E94FC
:1008C000800980915F0608950E94DB018BE061E062
:1008D0000E94CF0A10925F060E94480480E090E0D8
:1008E00008958AE090E069E070E00E94B10480E041
:1008F00090E00895FC01CB01BA01199580E090E0E9
:10090000089540916206509163060E94DD0480E0E4
:1009100090E0089524E630E0309363062093620669
:1009200044E650E00E94810468EE73E080E090E0CD
:100930000E94B40180E090E00895CF93DF93EB0133
:1009400020916206309163062436310514F40E942A
:100950008A04CE010E94EB0480E090E0DF91CF9109
:1009600008950F931F93DF93CF930F920F92CDB7FC
:10097000DEB7182F092FAB01862F61E049835A8318
:100980000E94CF0A812F61E00E94CF0A8DE994E096
:10099000612F702F49815A810E947A0468EE73E0BA
:1009A00080E090E00E94B40180E090E00F900F9012
:1009B000CF91DF911F910F910895CF93DF93EB01BA
:1009C000BA010E948009CE010E94F60480E090E006
:1009D000DF91CF9108950F931F938C018CE195E0E7
:1009E0000E940B12C8011F910F9108950F931F933E
:1009F0008C0187E795E00E940B12C8011F910F91AF
:100A000008950F931F93CF93DF938C010E941405D9
:100A1000EC01B8010E940706CE010E941905DF9182
:100A2000CF911F910F91089581E090E00E941310E3
:100A300008950E94161008950F931F93CF93DF938C
:100A4000C4E6D6E0CE0162E070E00E94690807E6E5
:100A500016E0C80163E070E00E946908CE016FE50E
:100A600070E00E94A408C8016EE670E00E94A4082D
:100A700080E090E0DF91CF911F910F91089584E67F
:100A800096E06EE170E00E94A40887E696E06DE2D1
:100A900070E00E94A408089584E696E066E970E09C
:100AA0000E94A40887E696E065EA70E00E94A40828
:100AB0000895CF93DF93C4E6D6E0CE010E942709C4
:100AC000BC01CE010E94A408C7E6D6E0CE010E9478
:100AD0002709BC01CE010E94A408DF91CF9108959F
:100AE00084E696E06FE570E00E94A40887E696E051
:100AF0006EE670E00E94A408089584E696E064EB38
:100B000070E00E94A40887E696E06FE070E00E9423
:100B1000A40808950F931F93CF93DF9384E696E084
:100B20000E9427098C01EC012F96863991055CF40F
:100B300084E696E0BE010E94A408B801625E7F4F81
:100B400087E696E008C084E696E0B8010E94A40813
:100B500087E696E0BE010E94A408DF91CF911F9125
:100B60000F910895CF93DF9384E696E00E942709C2
:100B7000EC018F31910534F0BC016F50704084E678
:100B800096E003C084E696E0BE010E94A40887E6D2
:100B900096E0BE010E94A408DF91CF9108956230D3
:100BA000710501F1633071053CF46115710571F057
:100BB0006130710519F50DC064307105C9F06430FC
:100BC00071059CF065307105C9F415C00E9470056F
:100BD00002C00E944C0564EF71E080E090E00E944A
:100BE000B4010EC00E943F05F6CF0E94B20508C0B6
:100BF0000E948A0505C00E947D05EDCF0E9459051F
:100C000064EF71E080E090E00E94B40108950F93DA
:100C10001F93CF93DF938C01EB010E941C05C80149
:100C2000BE010E94CF05DF91CF911F910F910895D2
:100C300084E696E00E949F0787E696E00E949F0761
:100C40000895EF92FF920F931F93CF93DF93EB01E1
:100C50007A018C01DC01A550B94F8C9187FF03C04C
:100C60001982188237C0C801880F991F800F911F01
:100C7000880F991F880F991F2C91332727FD3095D6
:100C8000280F391F40916A0650E02417350714F5E4
:100C90002C91332727FD3095280F391FF901EE0FCE
:100CA000FF1FE20FF31FE559F94F208126FF12C005
:100CB0002C91332727FD3095280F391FF901EE0FAE
:100CC000FF1FE20FF31FE559F94F80818F7360E03A
:100CD0000E94F30AF801E550F94F80818F5F80830D
:100CE000C801880F991F800F911F880F991F880FC7
:100CF000991F2081332727FD3095280F391F4091F8
:100D00006A0650E0241735070CF053C020812C30C0
:100D10000CF04FC0488159812081332727FD309541
:100D2000280F391FD901AA0FBB1FA20FB31FA55946
:100D3000B94F11962D913C911297420F531FD70135
:100D400011965C934E932081332727FD3095280F11
:100D5000391FD901AA0FBB1FA20FB31FA559B94F45
:100D60002C9126FF2DC02081332727FD3095280F99
:100D7000391FF901EE0FFF1FE20FF31FE559F94F7D
:100D800080818F7361E00E94F30A1AC080E49CE9BD
:100D9000F7019183808307C0888199810496D701E8
:100DA00011969C938E93F801E550F94F8FEF808355
:100DB00007C088819981BCE984349B0738F3ECCF64
:100DC000DF91CF911F910F91FF90EF9008951F92A7
:100DD0000F920FB60F920BB60F9211242F933F93E1
:100DE0004F935F936F937F938F939F93AF93BF9333
:100DF000EF93FF9381E090E064E870E048E850E012
:100E00000E942106FF91EF91BF91AF919F918F9129
:100E10007F916F915F914F913F912F910F900BBEFA
:100E20000F900FBE0F901F9018951F920F920FB644
:100E30000F920BB60F9211242F933F934F935F9312
:100E40006F937F938F939F93AF93BF93EF93FF9392
:100E500082E090E064E970E048E950E00E942106F9
:100E6000FF91EF91BF91AF919F918F917F916F9182
:100E70005F914F913F912F910F900BBE0F900FBE3E
:100E80000F901F9018951F920F920FB60F920BB6EE
:100E90000F9211242F933F934F935F936F937F9300
:100EA0008F939F93AF93BF93EF93FF9383E090E073
:100EB00064EA70E048EA50E00E942106FF91EF9159
:100EC000BF91AF919F918F917F916F915F914F9162
:100ED0003F912F910F900BBE0F900FBE0F901F9060
:100EE00018951F920F920FB60F920BB60F92112406
:100EF0002F933F934F935F936F937F938F939F9322
:100F0000AF93BF93EF93FF9380E090E064E271E0D2
:100F100048E251E00E942106FF91EF91BF91AF910D
:100F20009F918F917F916F915F914F913F912F9101
:100F30000F900BBE0F900FBE0F901F901895FC01E5
:100F400080916A06803390F480838F5F80936A0675
:100F5000808190E0FC01EE0FFF1FE80FF91FE559BB
:100F6000F94F88EB9BE09283818308958FEF808314
:100F70000895DF92EF92FF920F931F93CF93DF9329
:100F8000EC01D62E8A0179018881803308F093C064
:100F9000862F61E00E94CF0A4881842F90E0FC01F7
:100FA000EE0FFF1FE80FF91FE559F94F9D2D9F73B5
:100FB0008081807C892B808380E292E0801B910B72
:100FC00024E030E0B9010E944410698380E699E092
:100FD0008E199F09B9010E9444106A83842F6CE026
:100FE0000E94381090E09C01220F331F280F391FF8
:100FF000220F331F220F331F40E050E0BA01620F6F
:10100000731FFB01EE0FFF1FE60FF71FE559F94FA6
:10101000608166FD44C04F5F5F4F4C30510571F7F2
:1010200053C01092800082E080938100109285006E
:1010300010928400B19A80916F00826080936F005B
:101040002EC08230910569F41092900082E0809366
:101050009100109295001092940088BB80937100CB
:101060001EC08330910569F41092A00082E0809345
:10107000A1001092A5001092A40089BB8093720079
:101080000EC0009761F41092200182E0809321014C
:1010900010922501109224018ABB809373008881ED
:1010A00090E0FC01EE0FFF1FE80FF91FE559F94F23
:1010B0008081806480838881DF91CF911F910F911F
:1010C000FF90EF90DF9008958130910509F0B9CF3E
:1010D000A8CF40E252E020E639E00E94B907089527
:1010E000FC012081203378F54181552747FD50953B
:1010F00088E890E0841B950B880F991F880F991F33
:101100006817790784F04281552747FD509588E597
:1011100092E0841B950B880F991F880F991F681701
:1011200079070CF4CB014FB7F89430E0F901EE0FDA
:10113000FF1FE20FF31FE559F94F0297880F991F20
:10114000928381834FBF0895AF92BF92CF92DF9277
:10115000EF92FF920F931F93CF93DF93EC0182E006
:10116000603278070CF046C077FD04C0653B71051E
:1011700024F405C060E070E002C064EB70E000D0D1
:101180000F92882777FD8095982F4981552747FD35
:10119000509528E830E0241B350B220F331F220F17
:1011A000331F5901CC24B7FCC094DC2C4A8155274D
:1011B00047FD509528E532E0241B350B220F331FE5
:1011C000220F331F442737FD4095542FEDB7FEB74C
:1011D000218332834383548320E030E0A901B4EBC0
:1011E000EB2EF12C012D112D0E94E20B0F900F9090
:1011F0000F900F90CE010E947008DF91CF911F9148
:101200000F91FF90EF90DF90CF90BF90AF90089537
:10121000FC0180818F3FB9F090E0FC01EE0FFF1FD1
:10122000E80FF91FE559F94F2181328193E0220F30
:10123000331F9A95E1F784E0369527958A95E1F773
:101240002E5F3F4F02C020E030E0C9010895AF9209
:10125000BF92CF92DF92EF92FF920F931F93CF93A3
:10126000DF93EC010E94080900D00F92BC016F5F70
:101270007F4F882777FD8095982F4981552747FD17
:10128000509528E830E0241B350B220F331F220F26
:10129000331F442737FD4095542FAA81BB27A7FD54
:1012A000B095E8E5F2E0EA1BFB0BEE0FFF1FEE0F37
:1012B000FF1F5F01CC24B7FCC094DC2CE4EBEE2EC6
:1012C000F12C012D112DEDB7FEB7E182F2820383DF
:1012D000148386017501AA24BB2465010E94E20BD8
:1012E0000F900F900F900F90CB01DF91CF911F9136
:1012F0000F91FF90EF90DF90CF90BF90AF90089547
:101300001F93CF93DF93182FEB0161E00E94CF0A68
:10131000209709F4C5C0CF3FD10509F4C4C0E12F1F
:10132000F0E0E254FE4FE491E93009F466C0EA309F
:10133000B0F4E430F1F1E53040F4E23059F1E3305B
:1013400070F5E13009F0A9C020C0E73009F443C0CE
:10135000E83008F048C0E63009F09FC034C0ED30F6
:1013600009F473C0EE3038F4EB3009F45AC0EC30B5
:1013700008F061C04CC0E03109F47BC0E13109F4F0
:1013800082C0EF3009F089C06AC084B5806884BD2E
:10139000C7BD8DC084B5806284BDC8BD88C0809142
:1013A0008000806880938000D0938900C09388007B
:1013B0007EC080918000806280938000D0938B00FB
:1013C000C0938A0074C08091B00080688093B000A0
:1013D000C093B3006CC08091B00080628093B00075
:1013E000C093B40064C080919000806880939000A6
:1013F000D0939900C09398005AC080919000806269
:1014000080939000D0939B00C0939A0050C080912D
:101410009000886080939000D0939D00C0939C00C2
:1014200046C08091A00080688093A000D093A9005E
:10143000C093A8003CC08091A00080628093A0006F
:10144000D093AB00C093AA0032C08091A000886006
:101450008093A000D093AD00C093AC0028C08091D1
:101460002001806880932001D0932901C093280136
:101470001EC080912001806280932001D0932B01B7
:10148000C0932A0114C080912001886080932001BC
:10149000D0932D01C0932C010AC0C038D1051CF493
:1014A000812F60E002C0812F61E00E94F30ADF918A
:1014B000CF911F910895893009F449C08A30A0F472
:1014C000843051F1853040F4823079F1833000F579
:1014D000813009F063C026C0873079F1883098F5F3
:1014E000863009F05BC025C08D3009F442C08E30D3
:1014F00028F48B30B1F18C30C0F52DC0803109F467
:1015000042C0813109F445C08F3009F047C037C06F
:10151000809180008F7703C0809180008F7D8093C1
:101520008000089584B58F7702C084B58F7D84BD17
:1015300008958091B0008F7703C08091B0008F7DB7
:101540008093B0000895809190008F7707C08091BC
:1015500090008F7D03C080919000877F80939000E2
:1015600008958091A0008F7707C08091A0008F7DA3
:1015700003C08091A000877F8093A0000895809190
:1015800020018F7703C0809120018F7D80932001FF
:10159000089580912001877F80932001089590E035
:1015A000FC01E858FE4F2491FC01EE5CFE4FE491F3
:1015B000EE23C1F0F0E0EE0FFF1FEC51FF4F8591DD
:1015C0009491DC01662341F49FB7F8948C912095A7
:1015D00082238C939FBF08959FB7F8948C91822BA0
:1015E0008C939FBF08950F931F93DF93CF930F9218
:1015F000CDB7DEB7282F30E0F901E254FE4F8491D9
:10160000F901E858FE4F14912E5C3E4FF901049108
:101610000023D9F0882321F069830E945B0A698145
:10162000E02FF0E0EE0FFF1FE250FF4F8591949105
:10163000DC019FB7F894662321F48C9110958123E7
:1016400002C08C91812B8C939FBF0F90CF91DF9123
:101650001F910F910895CF92DF92EF92FF920F9317
:101660001F93CF93DF936C017B018A01C0E0D0E030
:101670000FC0D7016D917D01D601ED91FC910190D4
:10168000F081E02DC6011995C80FD91F01501040F7
:101690000115110571F7CE01DF91CF911F910F91C7
:1016A000FF90EF90DF90CF900895DB010D90002028
:1016B000E9F7AD0141505040461B570BDC01ED915D
:1016C000FC910280F381E02D199508950E94550B3D
:1016D0000895DC01ED91FC910190F081E02D1995C8
:1016E00008958F929F92AF92BF92CF92DF92EF9226
:1016F000FF920F931F93DF93CF93CDB7DEB7A197E0
:101700000FB6F894DEBF0FBECDBF6C01042FE52FDE
:10171000CB01122F19A2223008F41AE021E2E22EA6
:10172000F12CEC0EFD1E812E9924AA24BB2403C0AB
:10173000022FE32FCA01602F7E2FA50194010E9482
:101740005710129F802D1124081B0894E108F108FE
:101750000A3014F4005D01C0095CF7010083211513
:1017600031054105510521F7C601B7010E94550B0E
:10177000A1960FB6F894DEBF0FBECDBFCF91DF911B
:101780001F910F91FF90EF90DF90CF90BF90AF909F
:101790009F908F9008952115310549F4DC01ED915A
:1017A000FC910190F081E02D642F199508950E941D
:1017B000710B08959A01462F50E060E070E00E949E
:1017C000CB0B08952F923F924F925F926F927F9230
:1017D0008F929F92AF92BF92CF92DF92EF92FF9241
:1017E0000F931F93DF93CF93CDB7DEB73B014C012F
:1017F00019012A016E897F89888D998D6A197B0963
:101800008C099D09621A730A840A950AA40193013E
:101810000E941910E218F30804091509A80197019C
:101820000E9479102A0D3B1D4C1D5D1DB901CA0196
:10183000CF91DF911F910F91FF90EF90DF90CF90AC
:10184000BF90AF909F908F907F906F905F904F90E0
:101850003F902F900895FC0184859585FC01E05C04
:10186000FF4F208131818E5B9F4FFC0180819181F0
:10187000281B390B2F733070C9010895FC01848532
:101880009585FC01E05CFF4F40815181FC01EE5BDE
:10189000FF4F208131814217530741F00190F081C1
:1018A000E02DE80FF91F208130E002C02FEF3FEF5D
:1018B000C9010895FC0184859585FC01E05CFF4F1A
:1018C00040815181FC01EE5BFF4F20813181421745
:1018D000530771F0A081B181A80FB91F2C918081AD
:1018E000918101968F7390709183808330E002C064
:1018F0002FEF3FEFC9010895DC011E968D919C9159
:101900001F97FC01E05CFF4F8E5B9F4F4081518130
:10191000DC012D913C91119742175307B9F70895B7
:10192000CF93FC01C62F26853785D901A05CBF4F18
:101930008D919C91019660E470E00E944410D90161
:10194000AE5BBF4F4D915C91119784179507D1F312
:10195000D901A05CBF4F0D90BC91A02DA20FB31F69
:10196000CC93A685B785A05CBF4F11969C938E93B0
:10197000A689B7892C9181E090E0058C02C0880F80
:10198000991F0A94E2F7282B2C9381E090E0CF91E5
:101990000895FB01E05CFF4F208131812F5F3F4FB5
:1019A0002F733070DB01AE5BBF4F4D915C9111978F
:1019B0002417350739F0A081B181A60FB71F8C938A
:1019C0003183208308951F920F920FB60F920BB6AA
:1019D0000F9211242F933F934F935F936F937F93B5
:1019E0008F939F93AF93BF93EF93FF938091C60024
:1019F0006FEF76E00E94C90CFF91EF91BF91AF911C
:101A00009F918F917F916F915F914F913F912F9116
:101A10000F900BBE0F900FBE0F901F9018951F9246
:101A20000F920FB60F920BB60F9211242F933F9384
:101A30004F935F936F937F938F939F93AF93BF93D6
:101A4000EF93FF938091CE0067E877E00E94C90C86
:101A5000FF91EF91BF91AF919F918F917F916F9186
:101A60005F914F913F912F910F900BBE0F900FBE42
:101A70000F901F9018951F920F920FB60F920BB6F2
:101A80000F9211242F933F934F935F936F937F9304
:101A90008F939F93AF93BF93EF93FF938091D60063
:101AA0006FE078E00E94C90CFF91EF91BF91AF9178
:101AB0009F918F917F916F915F914F913F912F9166
:101AC0000F900BBE0F900FBE0F901F9018951F9296
:101AD0000F920FB60F920BB60F9211242F933F93D4
:101AE0004F935F936F937F938F939F93AF93BF9326
:101AF000EF93FF938091360167E978E00E94C90C6B
:101B0000FF91EF91BF91AF919F918F917F916F91D5
:101B10005F914F913F912F910F900BBE0F900FBE91
:101B20000F901F9018951F920F920FB60F920BB641
:101B30000F9211242F933F935F936F937F938F9313
:101B40009F93AF93BF93EF93FF93209183073091BF
:101B5000840780918507909186072817390731F40B
:101B60008091C1008F7D8093C10016C0E0918507F0
:101B7000F0918607ED5BF84F208180918507909169
:101B80008607019660E470E00E94441090938607F7
:101B9000809385072093C600FF91EF91BF91AF918D
:101BA0009F918F917F916F915F913F912F910F90B6
:101BB0000BBE0F900FBE0F901F9018951F920F92A3
:101BC0000FB60F920BB60F9211242F933F935F9392
:101BD0006F937F938F939F93AF93BF93EF93FF93F5
:101BE00020910B0830910C0880910D0890910E08FF
:101BF0002817390731F48091C9008F7D8093C9007F
:101C000016C0E0910D08F0910E08E553F84F2081C1
:101C100080910D0890910E08019660E470E00E949A
:101C2000441090930E0880930D082093CE00FF91EE
:101C3000EF91BF91AF919F918F917F916F915F9144
:101C40003F912F910F900BBE0F900FBE0F901F90E2
:101C500018951F920F920FB60F920BB60F92112488
:101C60002F933F935F936F937F938F939F93AF9344
:101C7000BF93EF93FF932091930830919408809144
:101C80009508909196082817390731F48091D10072
:101C90008F7D8093D10016C0E0919508F091960851
:101CA000ED5AF74F20818091950890919608019602
:101CB00060E470E00E944410909396088093950829
:101CC0002093D600FF91EF91BF91AF919F918F919B
:101CD0007F916F915F913F912F910F900BBE0F906D
:101CE0000FBE0F901F9018951F920F920FB60F9274
:101CF0000BB60F9211242F933F935F936F937F93B3
:101D00008F939F93AF93BF93EF93FF9320911B0902
:101D100030911C0980911D0990911E0928173907DF
:101D200031F4809131018F7D8093310116C0E091B3
:101D30001D09F0911E09E552F74F208180911D0980
:101D400090911E09019660E470E00E944410909307
:101D50001E0980931D0920933601FF91EF91BF91D9
:101D6000AF919F918F917F916F915F913F912F9153
:101D70000F900BBE0F900FBE0F901F901895DF9223
:101D8000EF92FF920F931F93CF93DF93EC017A01B1
:101D90008B01DD24D394403081EE580780E0680742
:101DA00080E0780749F4DD24EC89FD89108260E841
:101DB00074E88EE190E00FC0EC89FD8981E090E04D
:101DC0000E8C02C0880F991F0A94E2F7808360E0AE
:101DD00079E08DE390E0A80197010E94571021500F
:101DE000304040405040569547953795279580E1C3
:101DF0002030380710F0DD20B1F6E889F98930830A
:101E0000EA89FB892083EE89FF89408181E090E0A7
:101E10009C010A8C02C0220F331F0A94E2F7422B66
:101E20004083EE89FF8940819C010B8C02C0220F08
:101E3000331F0A94E2F7422B4083EE89FF894081E9
:101E40009C010C8C02C0220F331F0A94E2F7422B34
:101E50004083EE89FF8920810D8C02C0880F991F75
:101E60000A94E2F7809582238083DF91CF911F91BE
:101E70000F91FF90EF90DF9008950F931F93CF93F2
:101E8000109222091092210988EE93E0A0E0B0E0C0
:101E90008093230990932409A0932509B0932609E0
:101EA000E1E2F9E028E436E0329322934FEF56E086
:101EB0005587448743E457E05787468745EC50E011
:101EC000518B408B44EC50E0538B428B40EC50E004
:101ED000558B448B41EC50E0578B468B46EC50E0E1
:101EE000518F408FC4E0C28F73E0738F67E0648FBF
:101EF00055E0558F41E0468F1092410910924009FC
:101F00008093420990934309A0934409B0934509F3
:101F1000E0E4F9E03293229307E817E0158704879D
:101F20000BEC17E0178706870DEC10E0118B008B88
:101F30000CEC10E0138B028B08EC10E0158B048B7B
:101F400009EC10E0178B068B0EEC10E0118F008F60
:101F5000C28F738F648F558F468F109260091092D5
:101F60005F098093610990936209A0936309B0931C
:101F70006409EFE5F9E0329322930FE018E015874A
:101F8000048703E518E01787068705ED10E0118B3D
:101F9000008B04ED10E0138B028B00ED10E0158B2D
:101FA000048B01ED10E0178B068B06ED10E0118F0E
:101FB000008FC28F738F648F558F468F10927F0969
:101FC00010927E098093800990938109A0938209E1
:101FD000B0938309EEE7F9E03293229387E998E022
:101FE000958784878BED98E09787868785E391E0D6
:101FF000918B808B84E391E0938B828B80E391E0E3
:10200000958B848B81E391E0978B868B86E391E0BF
:10201000918F808FC28F738F648F558F468FCF9132
:102020001F910F9108950E94D11008950E946B1185
:102030000895629FD001739FF001829FE00DF11D12
:10204000649FE00DF11D929FF00D839FF00D749F32
:10205000F00D659FF00D9927729FB00DE11DF91FDE
:10206000639FB00DE11DF91FBD01CF01112408953B
:10207000991B79E004C0991F961708F0961B881FDA
:102080007A95C9F78095089597FB092E07260AD0FF
:1020900077FD04D049D006D000201AF470956195E0
:1020A0007F4F0895F6F7909581959F4F0895A1E28F
:1020B0001A2EAA1BBB1BFD010DC0AA1FBB1FEE1FC2
:1020C000FF1FA217B307E407F50720F0A21BB30B0D
:1020D000E40BF50B661F771F881F991F1A9469F789
:1020E00060957095809590959B01AC01BD01CF01E5
:1020F000089597FB092E05260ED057FD04D0D7DF93
:102100000AD0001C38F450954095309521953F4FEA
:102110004F4F5F4F0895F6F79095809570956195B4
:102120007F4F8F4F9F4F0895AA1BBB1B51E107C0E4
:10213000AA1FBB1FA617B70710F0A61BB70B881F57
:10214000991F5A95A9F780959095BC01CD010895E6
:102150000790F691E02D1994EF92FF920F931F9341
:10216000CF93DF93689F8001699F100D789F100DBA
:102170001124C8010E94D110E82EE7017E01F92E3A
:10218000E701209731F08E2D60E070E0A8010E94F9
:102190000412CE01DF91CF911F910F91FF90EF902C
:1021A0000895CF93DF938230910510F482E090E0A0
:1021B000E0919D09F0919E0940E050E020E030E080
:1021C00026C06081718168177907E0F06817790788
:1021D00081F4828193812115310531F0D901139663
:1021E0009C938E9312972BC090939E0980939D0988
:1021F00026C04115510519F06417750718F4AB0195
:10220000E901DF019F0172816381E72FF62F30978B
:10221000C1F64115510501F1481B590B44305105D8
:1022200080F412968D919C911397209719F09B83BF
:102230008A8304C090939E0980939D09FD01329684
:1022400046C0FD01E40FF51F819391934250504029
:1022500011965C934E933BC020919B0930919C0951
:102260002115310541F420913A0630913B06309317
:102270009C0920939B0920913C0630913D06211535
:10228000310541F42DB73EB74091380650913906DB
:10229000241B350BE0919B09F0919C09E217F30791
:1022A000A0F42E1B3F0B2817390778F0AC014E5FC6
:1022B0005F4F2417350748F04E0F5F1F50939C095E
:1022C00040939B098193919302C0E0E0F0E0CF013D
:1022D000DF91CF910895CF93DF93009709F491C0D8
:1022E000FC0132971382128260919D0970919E09C0
:1022F0006115710581F420813181280F391F80918A
:102300009B0990919C098217930799F5F0939C097A
:10231000E0939B0976C0DB0180E090E002C0CD0134
:10232000D901AE17BF0748F412962D913C9113972F
:1023300021153105A1F7CD0121C0B383A283EF019F
:10234000499159919E01240F351FA217B30779F4C3
:102350002D913C911197240F351F2E5F3F4F3183F4
:10236000208312962D913C911397338322830097FB
:1023700029F4F0939E09E0939D0943C0DC01139674
:10238000FC93EE9312974D915D91A40FB51FEA1740
:10239000FB0769F420813181240F351F2E5F3F4FE9
:1023A000EC0139832883228133813B832A83E0E057
:1023B000F0E002C0FB01BC01DB0112968D919C9103
:1023C00013970097B9F79B012E5F3F4F8D919C911A
:1023D0001197820F931F40919B0950919C094817B8
:1023E000590779F4309729F410929E0910929D09AB
:1023F00002C0138212822250304030939C092093F5
:102400009B09DF91CF910895DC0101C06D9341508C
:102410005040E0F70895EF92FF920F931F93CF93F0
:10242000DF938C01E091A109F091A209838181FFE2
:102430001FC0C0E0D0E00AC0DB011896ED91FC910E
:1024400019971995009711F0CFEFDFEFF8018191FF
:102450008F016091A1097091A209882369F7DB01BE
:102460001896ED91FC9119978AE01995009711F053
:10247000CFEFDFEFCE01DF91CF911F910F91FF9052
:08248000EF900895F894FFCFDE
:1024880053545241494748540A00484152445F4C0A
:102498004546540A00484152445F52494748540A45
:1024A80000534F46545F52494748540A00534F4619
:1024B800545F4C4546540A004252414B450A006459
:1024C8006972656374696F6E204552524F520A00F3
:1024D8007075742046616E20486F766572696E6704
:1024E80020696E6372656173696E67200A00707592
:1024F800742046616E20486F766572696E67206445
:10250800656372656173696E670A00707574204649
:10251800616E20486F766572696E672053706565D5
:1025280064204552524F520A007075742046616EFD
:1025380020486F766572696E672053544F50206942
:102548006E2071756575650A007075742046616E38
:1025580020486F766572696E6720545552424F2045
:10256800696E2071756575650A0046616E20486F51
:10257800766572696E67206E6F7420696D706C6520
:102588006D656E74656420636F6D6D616E64732034
:102598004552524F520A0070757420657861637411
:1025A8002046414E5F484F564552494E475F53506B
:1025B800454544200A00616D697220616C6D617344
:1025C80069007075742046616E20466F727761727B
:1025D8006420696E6372656173696E672053706504
:1025E800656420696E2071756575650A007075747B
:1025F8002046616E20466F7277617264206465635D
:1026080072656173696E6720537065656420696ED1
:102618002071756575650A007075742046616E20B5
:10262800466F727761726420537065656420455205
:10263800524F520A007075742046616E20466F72C0
:10264800776172642053544F5020696E207175650C
:1026580075650A007075742046616E20466F727742
:1026680061726420545552424F20696E207175651D
:1026780075650A0046616E20466F72776172642044
:102688006E6F7420696D706C656D656E746564201D
:10269800636F6D6D616E6473204552524F520A002C
:1026A80070757420657861637420466F7277617203
:1026B800642073706565642076616C75650A0055E1
:1026C8006E61626C6520746F20676574206D656D3E
:1026D8006F72790A00536F6D657468696E67206E52
:1026E8006F74206261736564206F6E2070726F74FE
:1026F8006F636F6C206973207265636569766564C2
:102708000A0066616E5F666F72776172645F7370EC
:102718006565642063616C6C65640A0066616E5F60
:10272800686F766572696E675F737065656420634C
:10273800616C6C65640A0072756465725F646972C5
:10274800656374696F6E2063616C6C65640A006808
:102758006F76657263726166745F73706565642015
:1027680063616C6C65640A00686F76657263726198
:1027780066745F70726573737572652063616C6CE3
:1027880065640A00626174746572795F6C65766568
:102798006C2063616C6C65640A000A000909546561
:1027A8007374206D6F746F722073746172746564D2
:1027B8002000090954657374206D6F746F7220735B
:1027C800746F707065642000090954657374206C17
:1027D8006576656C206973206E6F726D616C200080
:1027E800090954657374206C6576656C20697320DB
:1027F800747572626F200009095465737420616EE4
:10280800616C6F67207772697465200009095465E7
:10281800737420546F6F206C6F772000090954651A
:10282800737420546F6F2068696768200009095421
:102838006573742054205320697320626F74746F19
:102848006D2000090954657374206D6F746F7220D0
:1028580068617320616C7265616479206265656E78
:102868002073746172746564200009095465737477
:1028780020494E43204E6577202020204C3A2025C1
:1028880064200A0009095465737420444543204EA6
:102898006577202020204C3A202564200A00090969
:1028A8005465737420736574204E6577202020204A
:1028B8004C3A202564200A002000A50900000001E8
:1028C8000203040500000000900C2B0B2B0C5A0C83
:0428D8003E0C7C0C2A
:040000030000093AB6
:00000001FF
