:100000000C9405010C9436010C9436010C943601C5
:100010000C9436010C9436010C9436010C94360184
:100020000C9436010C9436010C9436010C94360174
:100030000C9436010C9436010C9436010C94360164
:100040000C9436010C9434140C9436010C94360143
:100050000C9436010C9436010C9436010C94600714
:100060000C9436010C94C01B0C94701C0C9436013B
:100070000C9436010C9436010C9436010C94360124
:100080000C9462140C9436010C9436010C943601D5
:100090000C94EC1B0C94BB1C0C9436010C948E1726
:1000A0000C9436010C9436010C9490140C94360187
:1000B0000C9436010C9436010C9436010C94BE1449
:1000C0000C9436010C9436010C9436010C94181CD7
:1000D0000C94061D0C9436010C94441C0C94511D78
:1000E0000C94360100002100240027002A002D0076
:1000F0003000330001010000040107010A01000083
:100100002200250028002B002E00310034000201BF
:100110000000050108010B0100002000230026005B
:1001200029002C002F00320000010000030106010D
:10013000090105050505070508080808020202026D
:100140000A0A080804040404010101010101010173
:100150000303030303030303040707070C0C0C0C3E
:100160000C0C0C0C02020202060606060606060627
:100170000B0B0B0B0B0B0B0B0102102020080810B4
:100180002040102040800201020108040201010207
:1001900004081020408080402010080402018004E0
:1001A000020180402010080402010804020101023B
:1001B0000408102040800102040810204080000044
:1001C000090A02080B0C0D070603040100000000D9
:1001D000000000000000000000000000000000001F
:1001E0000000000000000000000011100F000000DF
:1001F00000000000000000000000000000000000FF
:10020000000000002C1157131A1E11241FBECFEF3F
:10021000D1E2DEBFCDBF00E00CBF17E0A0E0B2E04E
:10022000E0EBF2E400E00BBF02C007900D92AE35A8
:10023000B107D9F71BE0AEE5B7E001C01D92A137C9
:10024000B107E1F712E0CAE0D2E000E006C0229771
:100250000109FE010BBF0E94BC1FC430D10780E022
:100260000807A9F70E9443070C9456210C9400003C
:10027000A0E0B0E0EEE3F1E00C94891FFC01EA019C
:100280008081823008F438C1DB019C91923008F4FF
:1002900030C1843059F4943009F02EC19181119607
:1002A0008C911197981709F021C126C1943009F457
:1002B00020C19230B1F4823009F01EC1CA01AF01F1
:1002C00028E0DA010D90AD01DC010D92CD01215045
:1002D000C1F7DB0111968C91119791818923898354
:1002E0000AC1823009F405C1C280D380DB011296B5
:1002F0006D907C90139724813581468157811496A7
:10030000ED90FD900D911C911797C60186199709E4
:100310005C0197FF04C0AA24BB24A81AB90AB0E262
:10032000AB16B1040CF061C0181619066CF5370154
:1003300048010A2C04C096948794779467940A9491
:10034000D2F781E090E0A0E0B0E00A2C04C0880F72
:10035000991FAA1FBB1F0A94D2F70197A109B109DF
:100360008E219F21A023B123EE24FF248701E39453
:100370000097A105B10519F4EE24FF248701E628B2
:10038000F728082919293CC00097D1F1CA0CDB1CB9
:1003900039014A010A2C04C0969487947794679493
:1003A0000A94D2F781E090E0A0E0B0E00A2C04C00B
:1003B000880F991FAA1FBB1F0A94D2F70197A109A2
:1003C000B10982239323A423B52321E030E040E048
:1003D00050E00097A105B10519F420E030E0A90133
:1003E00026293729482959290BC06C147D0424F487
:1003F000EE24FF24870104C0630120E030E0A9015E
:100400008181FB019181891709F445C0882349F056
:10041000D801C701821B930BA40BB50B9C01AD0146
:1004200004C02E193F09400B510B57FD04C019821F
:10043000DB82CA820BC081E08983DB82CA8250954D
:100440004095309521953F4F4F4F5F4F2C833D8313
:100450004E835F830DC0880F991FAA1FBB1F8C831B
:100460009D83AE83BF838A819B8101979B838A830F
:100470008C819D81AE81BF819C01AD0121503040B6
:10048000404050402F3FEFEF3E07EFEF4E07EFE3C6
:100490005E0708F30BC08983DB82CA822E0D3F1DE5
:1004A000401F511F2C833D834E835F8383E08883ED
:1004B0002C813D814E815F8157FF1DC0DA01C9014A
:1004C00081709070A070B0705695479537952795BC
:1004D000822B932BA42BB52B8C839D83AE83BF8360
:1004E0008A819B8101969B838A8305C0EAE2F6E0BC
:1004F00003C0FB0101C0FE01CF01CDB7DEB7EEE0C6
:100500000C94A51FA0E2B0E0E8E8F2E00C94911F83
:1005100069837A838B839C832D833E834F835887A3
:1005200089E0E82EF12CEC0EFD1ECE010196B701FC
:100530000E94DA068E010F5E1F4FCE010596B801AC
:100540000E94DA06C701B801AE01475E5F4F0E9404
:1005500038010E940C06A096E6E00C94AD1FA0E2C4
:10056000B0E0E5EBF2E00C94911F69837A838B8312
:100570009C832D833E834F8358878E01075F1F4FD7
:10058000CE010196B8010E94DA0691E1E92EF12C24
:10059000EC0EFD1ECE010596B7010E94DA068A898F
:1005A00091E089278A8BC801B701AE01475E5F4F92
:1005B0000E9438010E940C06A096E6E00C94AD1F44
:1005C000A0E2B0E0E6EEF2E00C94851F69837A8346
:1005D0008B839C832D833E834F835887CE01019666
:1005E000BE01675F7F4F0E94DA06CE010596BE010D
:1005F0006F5E7F4F0E94DA069985923078F0898984
:100600008230C0F0943019F4823041F4CBC0843091
:1006100019F4923079F4C6C0923051F481E02A8501
:100620009A89291709F480E08A87CE010996BCC00F
:10063000823051F481E02A859A89291709F480E0F3
:100640008A8BCE014196B0C06D847E848F84988859
:10065000ED88FE880F89188DE0E2F0E080E090E000
:10066000DC01AA24BB24650120E030E0A901B3012C
:100670006170707061157105D1F02E0D3F1D401F26
:10068000511F15012601280E391E4A1E5B1E81E0EE
:1006900090E0A0E0B0E02E153F054007510718F0AC
:1006A00080E090E0DC01820D931DA41DB51DAA0C15
:1006B000BB1CCC1CDD1C17FF09C061E0262E312CB1
:1006C000412C512CA228B328C428D528319749F0B1
:1006D000EE0CFF1C001F111F96948794779467946B
:1006E000C6CF6B897C89EB85FC856E0F7F1F6E5FA3
:1006F0007F4F7C8F6B8F61E0EA857A89E71709F479
:1007000060E06A8F6B8D7C8D10C0FC01E170F07031
:10071000309729F056954795379527955068B695A7
:10072000A795979587956F5F7F4FB7FDEECF0CC06C
:10073000880F991FAA1FBB1F57FD8160220F331F0F
:10074000441F551F615070408030E0E09E07E0E09C
:10075000AE07E0E4BE0760F36B8F7C8F6FE7E62E99
:10076000F12C012D112DE822F9220A231B2360E42C
:10077000E616F1040105110561F487FD0AC0211593
:1007800031054105510529F0805C9F4FAF4FBF4FA8
:1007900080788D8F9E8FAF8FB8A383E0898FCE0135
:1007A000499602C08AE296E00E940C06A096E2E119
:1007B0000C94A11FA8E1B0E0E0EEF3E00C948D1FD3
:1007C00069837A838B839C832D833E834F835887F1
:1007D0008E01075F1F4FCE010196B8010E94DA0615
:1007E00081E1E82EF12CEC0EFD1ECE010596B7013D
:1007F0000E94DA069985923008F483C08989823094
:1008000008F47BC02A853A8923272A87943011F07F
:10081000923021F4981709F06CC071C0843039F41B
:100820001D861E861F86188A1C861B866AC082301B
:1008300019F484E0898765C08B859C852B893C8968
:10084000821B930B9C878B872D853E854F8558890E
:10085000ED88FE880F89188D2E153F05400751073A
:1008600038F4220F331F441F551F01979C878B8735
:100870006FE170E0A12CB12CC12CA0E4DA2E80E055
:1008800090E0DC012E153F054007510740F08A2912
:100890009B29AC29BD292E193F09400B510BD69439
:1008A000C794B794A794220F331F441F551F61505C
:1008B000704041F76FE7E62EF12C012D112DE82253
:1008C000F9220A231B2360E4E616F1040105110551
:1008D00061F487FD0AC0211531054105510529F054
:1008E000805C9F4FAF4FBF4F80788D879E87AF87CB
:1008F000B88B8E01075F1F4F04C0870102C00AE258
:1009000016E0C8010E940C066896EAE00C94A91F44
:10091000A8E0B0E0EEE8F4E00C94911F7B018C01BC
:1009200083E08983D801C7018827B7FD839599277C
:10093000AA27BB27282F8A83E114F104010511059A
:1009400019F482E0898337C08EE190E09C838B8329
:10095000222389F080E0E81680E0F80680E00807AE
:1009600080E8180769F110950095F094E094E11C77
:10097000F11C011D111DED82FE820F831887C80135
:10098000B7010E94B2059C01215030401216130697
:1009900094F4022E04C0EE0CFF1C001F111F0A94D9
:1009A000D2F7ED82FE820F8318878EE190E0821BE2
:1009B000930B9C838B83CE0101960E940C0604C08E
:1009C00060E070E080E09FEC2896E6E00C94AD1FBC
:1009D000ACE0B0E0EEEEF4E00C94951F69837A830E
:1009E0008B839C83CE010196BE016B5F7F4F0E947B
:1009F000DA068D81823081F1823070F1843021F409
:100A00008E81882369F10AC02F81388537FD24C083
:100A10006E812F3131053CF0662311F120E030E08A
:100A200040E050E821C08EE190E0821B930B2985C5
:100A30003A854B855C8504C0569547953795279533
:100A40008A95D2F7662381F050954095309521958F
:100A50003F4F4F4F5F4F08C020E030E0A90104C076
:100A60002FEF3FEF4FEF5FE7B901CA012C96E2E0AD
:100A70000C94B11FA8E0B0E0E0E4F5E00C948F1F07
:100A80007B018C011A82611571058105910519F4AC
:100A900082E089835FC083E089838EE1C82ED12CF8
:100AA000DC82CB82ED82FE820F831887C801B701FA
:100AB0000E94B205FC013197F7FF3AC0AA27BB2775
:100AC000AE1BBF0B21E030E040E050E00A2E04C036
:100AD000220F331F441F551F0A94D2F72150304074
:100AE000404050402E213F214023512361E070E0DF
:100AF00080E090E0211531054105510519F460E0D1
:100B000070E0CB0104C016950795F794E794AA9579
:100B1000D2F7E62AF72A082B192BED82FE820F83E3
:100B200018878EE190E08E1B9F0B9C838B8312C0F5
:100B3000309781F00E2E04C0EE0CFF1C001F111F19
:100B40000A94D2F7ED82FE820F831887CE1ADF0A4D
:100B5000DC82CB82CE0101960E940C062896E8E04A
:100B60000C94AB1FAF92BF92CF92DF92EF92FF92A5
:100B70000F931F937B018C0180E0E81680E0F8065C
:100B800081E0080780E0180758F4EFEFEE16F10453
:100B90000105110509F090F480E090E0DC0117C038
:100BA000F0E0EF16F0E0FF06F0E00F07F1E01F07BE
:100BB00050F480E190E0A0E0B0E009C088E090E06F
:100BC000A0E0B0E004C088E190E0A0E0B0E020E266
:100BD00030E040E050E0281B390B4A0B5B0B57011B
:100BE000680104C0D694C794B794A7948A95D2F7A5
:100BF000D601C5018E5C994FFC018081281B31090B
:100C000041095109C9011F910F91FF90EF90DF90A9
:100C1000CF90BF90AF900895EF92FF920F931F93E4
:100C2000CF93DF93FC012481358146815781618117
:100C30008081823020F44061EFEFF0E0A3C0843087
:100C400009F49BC0823009F492C021153105410599
:100C5000510509F48FC00280F381E02D8FEFE23857
:100C6000F8070CF05AC0C2E8DFEFCE1BDF0BCA3129
:100C7000D1056CF579018A010C2E04C016950795F3
:100C8000F794E7940A94D2F781E090E0A0E0B0E016
:100C90000C2E04C0880F991FAA1FBB1F0A94D2F7FD
:100CA0000197A109B10982239323A423B52321E04D
:100CB00030E040E050E00097A105B10519F420E0D4
:100CC00030E0A9012E293F29402B512B03C020E001
:100CD00030E0A901DA01C9018F779070A070B0707F
:100CE00080349105A105B10539F427FF09C0205CC6
:100CF0003F4F4F4F5F4F04C0215C3F4F4F4F5F4FFF
:100D0000E1E0F0E0203080E0380780E0480780E450
:100D1000580728F5E0E0F0E022C0E038F1056CF576
:100D2000E158FF4FDA01C9018F779070A070B07061
:100D300080349105A105B10539F427FF09C0205C75
:100D40003F4F4F4F5F4F04C0215C3F4F4F4F5F4FAE
:100D500057FF05C05695479537952795319687E0FB
:100D600056954795379527958A95D1F70BC0E0E0C2
:100D7000F0E005C0E0E0F0E005C0EFEFF0E020E0DB
:100D800030E0A9018E2F879588278795942F9F772C
:100D9000679566276795E695E22EA92FA82BFE2F6B
:100DA000F62B622F732F8A2F9F2FCDB7DEB7E6E089
:100DB0000C94AD1FDC01FB012C9111963C91119715
:100DC00012968C911297482F4F7750E0982F991FC9
:100DD0009927991F13966C911397862F880F892B4B
:100DE00090E0661F6627661F6183009739F521151D
:100DF00031054105510511F482E029C082E89FEFD9
:100E00009383828367E0220F331F441F551F6A9527
:100E1000D1F783E0808309C0220F331F441F551F81
:100E200082819381019793838283203080E0380709
:100E300080E0480780E4580778F320C08F3F910591
:100E400079F4211531054105510519F484E08083B9
:100E5000089544FF03C081E0808310C010820EC05B
:100E60008F5790409383828383E0808387E0220FB3
:100E7000331F441F551F8A95D1F75064248335834F
:100E80004683578308950E940D080E94C80A0E9455
:100E90004C0D0E944C0E80E090E00E94021080E019
:100EA00060E00E94E30881E060E00E94E3080E94A5
:100EB00035119093660B8093650B0E948309FDCFDB
:100EC0001F920F920FB60F9211242F933F938F937F
:100ED0009F93AF93BF938091620790916307A09116
:100EE0006407B0916507309166070196A11DB11D99
:100EF000232F2D5F2D3720F02D570196A11DB11DF9
:100F0000209366078093620790936307A09364071A
:100F1000B093650780915E0790915F07A09160078D
:100F2000B09161070196A11DB11D80935E0790935A
:100F30005F07A0936007B0936107BF91AF919F9146
:100F40008F913F912F910F900FBE0F901F9018958A
:100F50008FB7F8942091620730916307409164073E
:100F6000509165078FBFB901CA0108959FB7F894E2
:100F700020915E0730915F074091600750916107B3
:100F800086B5A89B06C08F3F21F02F5F3F4F4F4F84
:100F90005F4F9FBF542F432F322F2227280F311D21
:100FA000411D511D82E0220F331F441F551F8A959A
:100FB000D1F7B901CA010895EF92FF920F931F93E1
:100FC000CF93DF937B018C010E94B607EB010FC02A
:100FD0000E94B6076C1B7D0B83E0683E780738F0F3
:100FE0000894E108F10801091109C851DC4FE11426
:100FF000F1040105110561F7DF91CF911F910F9168
:10100000FF90EF900895019739F0880F991F880F8E
:10101000991F02970197F1F70895789484B582603B
:1010200084BD84B5816084BD85B5826085BD85B58C
:10103000816085BDEEE6F0E0808181608083E1E83B
:10104000F0E0108280818260808380818160808373
:10105000E0E8F0E0808181608083E1EBF0E0808176
:1010600084608083E0EBF0E0808181608083E1E94F
:10107000F0E0808182608083808181608083E0E90C
:10108000F0E0808181608083E1EAF0E0808182602D
:101090008083808181608083E0EAF0E080818160EC
:1010A0008083E1E2F1E080818260808380818160E1
:1010B0008083E0E2F1E0808181608083EAE7F0E014
:1010C0008081846080838081826080838081816070
:1010D00080838081806880831092C1000895893068
:1010E00009F449C08A30A0F4843051F1853040F4CD
:1010F000823079F1833000F5813009F063C026C079
:10110000873079F1883098F5863009F05BC025C0CA
:101110008D3009F442C08E3028F48B30B1F18C3020
:10112000C0F52DC0803109F442C0813109F445C0B9
:101130008F3009F047C037C0809180008F7703C09F
:10114000809180008F7D80938000089584B58F7793
:1011500002C084B58F7D84BD08958091B0008F77E3
:1011600003C08091B0008F7D8093B000089580917E
:1011700090008F7707C0809190008F7D03C0809191
:101180009000877F8093900008958091A0008F77D2
:1011900007C08091A0008F7D03C08091A000877F51
:1011A0008093A0000895809120018F7703C08091E3
:1011B00020018F7D80932001089580912001877FF9
:1011C00080932001089590E0FC01E858FE4F24919F
:1011D000FC01EE5CFE4FE491EE23C1F0F0E0EE0F77
:1011E000FF1FEC51FF4F85919491DC01662341F480
:1011F0009FB7F8948C91209582238C939FBF08957C
:101200009FB7F8948C91822B8C939FBF08950F9376
:101210001F93DF93CF930F92CDB7DEB7282F30E027
:10122000F901E254FE4F8491F901E858FE4F149100
:101230002E5C3E4FF90104910023D9F0882321F060
:1012400069830E946F086981E02FF0E0EE0FFF1FB5
:10125000E250FF4F85919491DC019FB7F89466238B
:1012600021F48C911095812302C08C91812B8C9359
:101270009FBF0F90CF91DF911F910F91089581E053
:1012800090E066E070E00E94C01FFC019093680748
:10129000809367071582148208950F931F93DF933D
:1012A000CF93CDB7DEB72A970FB6F894DEBF0FBE47
:1012B000CDBF8E010F5F1F4F11C0C8010E949E0A53
:1012C00099818A812B813C81ED81FE81913019F4D5
:1012D000F901199503C0923009F4199560916707D7
:1012E00070916807FB0184819581181619062CF30B
:1012F0002A960FB6F894DEBF0FBECDBFCF91DF9117
:101300001F910F9108950E943F090E94A20C8091A5
:10131000650B9091660B0E945F118091650B909117
:10132000660B0E94BD110E94CD0A0E944D09EDCFAF
:10133000AF92BF92CF92DF92EF92FF920F931F93E3
:10134000DF93CF93CDB7DEB72A970FB6F894DEBF01
:101350000FBECDBFC02E0983D12E1A83E22E2B8360
:10136000F32E3C834D835E836F83788789879A87CA
:10137000A0906707B09068078601970175010E94E9
:10138000D2092A960FB6F894DEBF0FBECDBFCF911B
:10139000DF911F910F91FF90EF90DF90CF90BF9062
:1013A000AF900895EF92FF920F931F93DF93CF9327
:1013B000CDB7DEB72A970FB6F894DEBF0FBECDBF0C
:1013C00009831A832B833C834D835E836F837887E5
:1013D00089879A870F81188581E090E06EE070E040
:1013E0000E94C01FFC01009709F49BC0AE014F5F33
:1013F0005F4F2AE0DA010D90AD01DC010D92CD01C5
:101400002150C1F717830683D70114968D919C91C3
:1014100015978230910594F18D919C911197AC01B3
:1014200029C0DA0116962D913C91179720173107A4
:10143000E0F4538742871C962D913C911D97358788
:1014400024878417950729F4D701ED93FC93DC01D9
:101450003EC0DA011C968D919C911D97DC011B9674
:10146000FC93EE931A97DA0132C0DA011A964D9185
:101470005C911B9741155105A1F63FC08130910544
:1014800059F5D7012D913C91D90116968D919C91DA
:1014900017978017910778F013861286358724876F
:1014A000D7011396FC93EE931297D9011B96FC93E8
:1014B000EE931A971BC01586148633872287D701AF
:1014C00013963C932E931297ED93FC93D9011D969E
:1014D000FC93EE931C970AC0009741F4D701119634
:1014E000FC93EE931386128615861486F701848189
:1014F000958101969583848314C013861286D70143
:1015000012968D919C91139795878487DC011B9689
:10151000FC93EE931A97D7011396FC93EE931297D0
:10152000E5CF2A960FB6F894DEBF0FBECDBFCF91A0
:10153000DF911F910F91FF90EF9008950F931F93EC
:10154000CF93DF938C01FB01A081B181982F292FCC
:10155000312FAD018AE0EA010990AE01E90109925B
:101560009E018150C1F7248135812150304035835F
:1015700024831A968D919C911B9791838083CD0132
:101580000E947F20C801DF91CF911F910F91089594
:101590000E94DF0C0E94470D0895DF93CF930F92B6
:1015A0000F92CDB7DEB79A838983CE0101960E9450
:1015B000210D89819A810E94190D8DE492E00E948B
:1015C0002B0D8FEF0F900F90CF91DF910895CF9358
:1015D000DF93EC018AE090E00E94E51F009719F488
:1015E0008FE792E052C0CE010E94C50C823019F103
:1015F000833030F4882359F0813009F044C011C0A1
:10160000843069F1843008F18530E9F532C080E03A
:1016100090E00E94021085E992E00E942B0D80E08C
:1016200037C081E090E00E9402108FE992E00E94B2
:101630002B0D81E02DC082E090E00E9402108AEA2A
:1016400092E00E942B0D82E023C083E090E00E9494
:10165000021086EB92E00E942B0D83E019C084E01B
:1016600090E00E94021082EC92E00E942B0D84E038
:101670000FC085E090E00E9402108DEC92E00E9485
:101680002B0D85E005C084ED92E00E942B0D8FEFBD
:10169000DF91CF910895EF92FF920F931F93CF9315
:1016A000DF938C018AE090E00E94E51FE82EE701BD
:1016B0007E01F92EE701209719F48FE792E064C0CC
:1016C000C8010E94BA0C8130910509F043C0C801DD
:1016D0000E94C90C882319F08130C9F51BC08DE622
:1016E0009EE0282F9B838A8381E088838EE190E0AF
:1016F000682F9F838E831986188601E019813B81AC
:101700004C815D817F8180E099850E94980985EEFA
:1017100092E02AC040E65EE0242F5B834A83888300
:101720008EE190E0682F9F838E831986188601E0F2
:1017300019813B814C815D817F8180E099850E9488
:10174000980983E093E00E942B0D81E020C080E2A5
:1017500093E01AC0C8010E94C90C882319F0873091
:1017600069F406C08EE393E00E942B0D80E00FC069
:101770008EE593E00E942B0D87E009C08FE793E090
:101780000E942B0D8CEA93E00E942B0D8FEFDF91CE
:10179000CF911F910F91FF90EF900895EF92FF92DC
:1017A0000F931F93CF93DF938C018AE090E00E9408
:1017B000E51FE82EE7017E01F92EE701209719F4D5
:1017C0008FE792E081C0C8010E94BA0C8130910578
:1017D00009F04EC0C8010E94C90C882321F0813055
:1017E00009F043C021C08EEA9DE0282F9B838A83A5
:1017F00081E088838EE190E0682F9F838E83198635
:10180000188601E019813B814C815D817F8180E0F8
:1018100099850E9498098BEC93E00E942B0D0E9401
:10182000F60D0E94190D3CC048E65DE0242F5B8355
:101830004A8388838EE190E0682F9F838E83198688
:10184000188601E019813B814C815D817F8180E0B8
:1018500099850E94980986EF93E00E942B0D0E94C3
:10186000F60D0E94190D81E032C081E294E02CC097
:10187000C8010E94C90C882319F08730F9F412C0FE
:1018800080E090E00E94530D0E94600E0E94600E66
:1018900080E090E00E9402108EE394E00E942B0D05
:1018A00080E015C088E790E00E94530D0E94550E1D
:1018B0008DE594E00E942B0D87E009C08DE794E050
:1018C0000E942B0D89EA94E00E942B0D8FEFDF918F
:1018D000CF911F910F91FF90EF900895CF93DF93D9
:1018E000EC010E94DC0C8F3FD1F0813051F081304F
:1018F00018F0823081F40AC0CE010E94CE0B80E045
:101900000FC0CE010E944B0B81E00AC0CE010E94A5
:10191000E70A82E005C088EC94E00E942B0D8FEF6F
:10192000DF91CF910895CF93DF93EC010E94FD0CDE
:1019300088838E3F18F4CE010E946E0C8881DF915F
:10194000CF9108950F931F93DF93CF930F92CDB74D
:10195000DEB78FEF89838E010F5F1F4FC8010E9492
:10196000930C89818F3FD1F70F90CF91DF911F9119
:101970000F910895FC01808190E08870907023E0C1
:10198000959587952A95E1F70895FC0180818770E8
:101990000895FC01808187700895FC018081829503
:1019A0008F7090E08630910528F4885C984FFC0198
:1019B000808108958FEF08950E94CD0C089589EEDF
:1019C0009AE040E855E260E070E00E949C1D88E0EB
:1019D0009BE040E855E260E070E00E949C1D89E0D9
:1019E00060E00E94E3080895FC0189EE9AE06081BE
:1019F0004AE050E00E94721A0895DF93CF930F924D
:101A0000CDB7DEB788E09BE00E94081B18161906C8
:101A10005CF488E09BE00E94371B8983CE0101962D
:101A20000E94F40C898101C08FEF0F90CF91DF915C
:101A30000895BC0189EE9AE04AE050E00E94B51A90
:101A40000895FC016081718188E09BE04AE050E0EC
:101A50000E94B51A0895EF92FF92CF93DF93E82E7C
:101A6000E7017E01F92EE70104C089EE9AE00E94A9
:101A7000011A69916623C9F789EE9AE065EF74E06F
:101A80000E94FE19DF91CF91FF90EF90089587EFAC
:101A900094E00E942B0D08950E94FB0D0E941E0EE3
:101AA00080E090E00895EF92FF92CF93DF93EC01F6
:101AB0008937910528F00E94470ECFEFDFEF02C073
:101AC0000E942F0ECE01DF91CF91FF90EF900895ED
:101AD000EF92FF92CF93DF930E942A0EEC01809148
:101AE000690790916A07019790936A078093690745
:101AF000009759F480E090E00E94530D87E061E088
:101B00000E940709C0E0D0E023C0181619064CF463
:101B1000C630D105DCF087E061E00E940709269716
:101B200011C0C837D1056CF088E790E00E942F0EF5
:101B30008CEE9FEF90936A0780936907C8E7D0E027
:101B400007C02696CE010E942F0E02C0CFEFDFEF16
:101B5000CE01DF91CF91FF90EF900895EF92FF9229
:101B6000CF93DF930E942A0EEC0180916907909138
:101B70006A07019690936A0780936907009759F462
:101B800080E090E00E94530D87E060E00E9407092A
:101B9000C0E0D0E025C018161906DCF4C837D1051E
:101BA00094F088E790E00E942F0E80916907909151
:101BB0006A071816190694F484E190E090936A0776
:101BC000809369070BC087E060E00E9407092696B2
:101BD00001C02697CE010E942F0E02C0C8E7D0E0B8
:101BE000CE01DF91CF91FF90EF900895809169072A
:101BF00090916A07089587E061E00E94E30880E021
:101C000090E0089580916B07813029F0813018F0C1
:101C1000823089F404C08BE064E670E00AC0609111
:101C20006C0770916D076A3771052CF46C577F4F04
:101C30008BE00E94E81880916B0708958BE061E0CB
:101C40000E94E30881E080936B070E94020E80E00F
:101C500090E0089580916C0790916D0708958B37FF
:101C6000910510F081E00EC0009739F410926D07D5
:101C700010926C0710926B0707C090936D078093CA
:101C80006C0782E080936B070E94020E0895109209
:101C90006B070E94020E08958AE090E067E070E012
:101CA0000E94380F80E090E0089582E99EE06AE0AB
:101CB00070E047E050E00E947A0E80E090E00895E6
:101CC0008EEF9EE06AE070E047E050E02AE030E00E
:101CD0000E94810E80E090E008958BE19FE06AE031
:101CE00070E047E050E02AE030E00E94810E80E0A2
:101CF00090E00895FC01CB01BA01199580E090E0D5
:101D00000895FC01CB01BA01A901199580E090E08A
:101D1000089540916E0750916F070E945E0F80E01A
:101D200090E00895CF93DF93EB012EEF30E03093F6
:101D30006F0720936E074EEF50E00E94890ECE0190
:101D40000E94D60F80E090E0DF91CF910895CF936D
:101D5000DF93EB012BE930E030936F0720936E07A0
:101D60004BE950E00E94890ECE010E94CB0F80E02B
:101D700090E0DF91CF91089524E630E030936F0733
:101D800020936E0744E650E00E94890E68EE73E0EF
:101D900080E090E00E94DC0780E090E00895CF931F
:101DA000DF93EB0120916E0730916F0724363105E8
:101DB00014F40E94BC0ECE010E94C00F80E090E09F
:101DC000DF91CF9108950F931F93CF93DF93EC0191
:101DD0008B0150936F0740936E070E946C0F4091E8
:101DE0006E0750916F07CE01B8010E94890E80E006
:101DF00090E0DF91CF911F910F9108950F931F9362
:101E0000CF93DF93EC018B019A0140916E075091C3
:101E10006F070E94AC0FAC0190936F0780936E0721
:101E2000CE01B8010E94E30E80E090E0DF91CF91F7
:101E30001F910F9108950F931F93CF93DF93EC01A0
:101E40008B019A0140916E0750916F070E948E0F8F
:101E5000AC0190936F0780936E07CE01B8010E948A
:101E6000E30E80E090E0DF91CF911F910F910895F4
:101E70000F931F93DF93CF930F920F92CDB7DEB7DF
:101E8000182F092FAB01862F61E049835A830E94E6
:101E9000E308812F61E00E94E3088FEC9EE0612F50
:101EA000702F49815A810E947A0E80E090E00F9055
:101EB0000F90CF91DF911F910F910895CF93DF93F2
:101EC000EB01BA010E94E818CE010E94E10F80E008
:101ED00090E0DF91CF9108950F931F93CF93DF93FD
:101EE0008C01EB014B39510544F4CB010E94EC0FFE
:101EF000C801BE010E94A70E0AC04F3F51053CF029
:101F0000CB010E94F70FC801BE010E94920E80E033
:101F100090E0DF91CF911F910F910895EF92FF9282
:101F20000F931F93CF93DF937C018B01EA014F3F07
:101F3000510544F0CB010E94F70FC701B8010E9480
:101F4000920E02C0C20FD31FCE01DF91CF911F911D
:101F50000F91FF90EF900895EF92FF92CF93DF9350
:101F6000CB01EA014B3951051CF40E94EC0F02C071
:101F7000C21BD30BCE01DF91CF91FF90EF9008955C
:101F80000F931F938C018EE095E00E941F21C801E2
:101F90001F910F9108950F931F938C018AE395E091
:101FA0000E941F21C8011F910F9108950F931F9345
:101FB0008C0182E595E00E941F21C8011F910F91BD
:101FC00008950F931F938C0189E695E00E941F21CD
:101FD000C8011F910F9108950F931F938C018EE7F5
:101FE00095E00E941F21C8011F910F9108950F9342
:101FF0001F938C018EE895E00E941F21C8011F915C
:102000000F9108950F931F93CF93DF938C010E943C
:102010001510EC01B8010E941B11CE010E941A108C
:10202000DF91CF911F910F91089581E090E00E9480
:10203000F01E08950E94F31E08950F931F93CF93EF
:10204000DF93C0E7D7E0CE0162E070E00E94B615F2
:1020500003E717E0C80163E070E00E94B615CE0107
:102060006FE570E00E94F115C8016EE670E00E9415
:10207000F11580E090E0DF91CF911F910F910895CD
:1020800080E797E06EE170E00E94F11583E797E04A
:102090006DE270E00E94F11582E090E0089580E723
:1020A00097E066E970E00E94F11583E797E065EA42
:1020B00070E00E94F11583E090E00895CF93DF93E4
:1020C000C0E7D7E0CE010E947416BC01CE010E9489
:1020D000F115C3E7D7E0CE010E947416BC01CE0112
:1020E0000E94F11584E090E0DF91CF91089580E7A0
:1020F00097E06FE570E00E94F11583E797E06EE6E8
:1021000070E00E94F11585E090E0089580E797E087
:1021100064EB70E00E94F11583E797E06FE070E0F8
:102120000E94F11586E090E008950F931F93CF93DE
:10213000DF9380E797E00E9474168C01EC012F96E4
:10214000863991057CF480E797E0BE010E94F11585
:10215000B801625E7F4F83E797E00E94F11527E0A8
:1021600030E00CC080E797E0B8010E94F11583E7EA
:1021700097E0BE010E94F11528E030E0C901DF912F
:10218000CF911F910F910895CF93DF9380E797E050
:102190000E947416EC018F3191057CF0BC016F50E8
:1021A000704080E797E00E94F11583E797E0BE0159
:1021B0000E94F11529E030E00CC080E797E0BE01F5
:1021C0000E94F11583E797E0BE010E94F1152AE015
:1021D00030E0C901DF91CF91089562307105D1F0EF
:1021E000633071053CF46115710571F06130710562
:1021F000E9F40DC06430710599F0643071056CF03C
:102200006530710599F40FC00E94771011C00E94CB
:102210004F100EC00E9440100BC00E94C41008C096
:102220000E94951005C00E94861002C00E945E1098
:102230008BE090E008950F931F93CF93DF938C0171
:10224000EB010E941D10C801BE010E94ED10DF913C
:10225000CF911F910F91089580E797E00E94EC14B1
:1022600083E797E00E94EC140895EF92FF92CF93DA
:10227000DF938CE090E00E94E51FE82EE7017E01ED
:10228000F92EE7012097A9F00E94C6110E945D1265
:10229000688779878A879B8780E090E0DC01888364
:1022A0009983AA83BB830E94A8076C837D838E8356
:1022B0009F83CE01DF91CF91FF90EF9008952F92F1
:1022C0003F924F925F926F927F928F929F92AF92C6
:1022D000BF92CF92DF92EF92FF920F931F93CF9313
:1022E000DF93EC010E94A8073B014C018C819D818A
:1022F000AE81BF8184017301E81AF90A0A0B1B0B36
:10230000288039804A805B80688579858A859B85AD
:102310000E9416125B016C01C801B7010E943A05C8
:102320009B01AC01C601B5010E94E00220E030E053
:102330004AE754E40E94DA039B01AC01C201B101F7
:102340000E948202688379838A839B836C827D8268
:102350008E829F82DF91CF911F910F91FF90EF901E
:10236000DF90CF90BF90AF909F908F907F906F90B5
:102370005F904F903F902F900895FC016081718194
:10238000828193810E94E804CB010895CF93DF936B
:10239000CCEBD7E0CE010E941F13CE0160E470E0C9
:1023A0000E944413CE0160E10E94EF12CE0166EB61
:1023B0000E94EF12CE010E9447136AE070E080E0B5
:1023C00090E00E94DC07CE0160E470E00E944413BC
:1023D000CE016DE00E94EF12CE0160E10E94EF128B
:1023E000CE010E944713CE0160E470E00E944413C6
:1023F000CE0160E20E94EF12CE0160E70E94EF1270
:10240000CE010E944713CE0160E470E00E944413A5
:10241000CE0165E30E94EF12CE0164E00E94EF124C
:10242000CE010E944713DF91CF910895CF92DF92A2
:10243000EF92FF920F931F93CF93DF936B017C0179
:10244000CCEBD7E0CE0160E470E00E944413CE01F3
:1024500062E00E94EF12CE010E944713CE0160E4B9
:1024600070E042E050E00E943713CE010E949812C3
:102470008C01CE010E949812782F60E0602B712BA6
:102480007595679575956795882777FD8095982F41
:102490000E9488042EE230E940E25BE30E94E00201
:1024A000A70196010E948202DF91CF911F910F91A7
:1024B000FF90EF90DF90CF900895EF92FF920F93EF
:1024C0001F93CF93DF93C0E9D1E0EE24FF2400E017
:1024D00010E060E070E0CB010E9416129B01AC019D
:1024E0006E2D7F2D802F912F0E9482027B018C0107
:1024F00081E792E00E940308219759F76E2D7F2D06
:10250000802F912F20E030E048EC53EC0E94DA035A
:10251000DF91CF911F910F91FF90EF90089520913F
:10252000970730E080919607281B3109C90108956B
:102530008091960790919707891750F4E82FF0E063
:10254000EA58F84F208130E08F5F8093960702C0F1
:102550002FEF3FEFC9010895E0919607809197070B
:10256000E81730F4F0E0EA58F84F208130E002C07C
:102570002FEF3FEFC90108950895CF92DF92EF92B8
:10258000FF920F931F93CF93DF936C01CB01EA016E
:102590002091BB072223B1F0E62EF92E00E010E0D7
:1025A0000DC0D7016D917D01D601ED91FC91019097
:1025B000F081E02DC60119950F5F1F4F0C171D0705
:1025C00080F303C0642F0E945C17CE01DF91CF918E
:1025D0001F910F91FF90EF90DF90CF900895DF93C0
:1025E000CF930F92CDB7DEB769832091BB0722232B
:1025F000D1F02091BA07203240F021E030E0FC0118
:102600003383228320E030E015C08091B907E82FA2
:10261000F0E0E756F84F998190838F5F8093B90778
:102620008093BA0705C0CE01019661E00E945C1755
:1026300021E030E0C9010F90CF91DF910895109211
:102640009607109297071092B9071092BA070E9446
:10265000CD160895862F413208F040E266E777E014
:102660000E94E616109296078093970708950E949D
:102670002A13089581E08093BB0760939807109216
:10268000B9071092BA0708950E943A1308958091ED
:10269000980769E977E04091BA0721E00E941C178A
:1026A0001092B9071092BA071092BB0708951092C2
:1026B000BF071092BE0788EE93E0A0E0B0E08093E1
:1026C000C0079093C107A093C207B093C30782E4E9
:1026D00097E09093BD078093BC070895EF92FF9217
:1026E0000F931F93CF93DF93EB017A018C01DC01F1
:1026F000A75AB74F8C9187FF03C01982188237C041
:10270000C801880F991F800F911F880F991F880F8C
:10271000991F2C91332727FD3095280F391F4091A1
:10272000C80750E02417350714F52C91332727FDEF
:102730003095280F391FF901EE0FFF1FE20FF31F2D
:10274000E753F84F208126FF12C02C91332727FD35
:102750003095280F391FF901EE0FFF1FE20FF31F0D
:10276000E753F84F80818F7360E00E940709F801FA
:10277000E75AF74F80818F5F8083C801880F991FC8
:10278000800F911F880F991F880F991F2081332771
:1027900027FD3095280F391F4091C80750E02417B6
:1027A00035070CF053C020812C300CF04FC048810D
:1027B00059812081332727FD3095280F391FD901F2
:1027C000AA0FBB1FA20FB31FA753B84F11962D918D
:1027D0003C911297420F531FD70111965C934E9371
:1027E0002081332727FD3095280F391FD901AA0FE3
:1027F000BB1FA20FB31FA753B84F2C9126FF2DC0AC
:102800002081332727FD3095280F391FF901EE0F5E
:10281000FF1FE20FF31FE753F84F80818F7361E0D2
:102820000E9407091AC080E49CE9F7019183808324
:1028300007C0888199810496D70111969C938E9345
:10284000F801E75AF74F8FEF808307C0888199819D
:10285000BCE984349B0738F3ECCFDF91CF911F9113
:102860000F91FF90EF9008951F920F920FB60F9265
:102870000BB60F9211242F933F934F935F936F9357
:102880007F938F939F93AF93BF93EF93FF9381E0D9
:1028900090E064E870E048E850E00E946E13FF9119
:1028A000EF91BF91AF919F918F917F916F915F91C8
:1028B0004F913F912F910F900BBE0F900FBE0F9035
:1028C0001F9018951F920F920FB60F920BB60F9292
:1028D00011242F933F934F935F936F937F938F9325
:1028E0009F93AF93BF93EF93FF9382E090E064E9EF
:1028F00070E048E950E00E946E13FF91EF91BF91A4
:10290000AF919F918F917F916F915F914F913F9187
:102910002F910F900BBE0F900FBE0F901F90189528
:102920001F920F920FB60F920BB60F9211242F9396
:102930003F934F935F936F937F938F939F93AF9347
:10294000BF93EF93FF9383E090E064EA70E048EA7E
:1029500050E00E946E13FF91EF91BF91AF919F9154
:102960008F917F916F915F914F913F912F910F9038
:102970000BBE0F900FBE0F901F9018951F920F92D5
:102980000FB60F920BB60F9211242F933F934F93D4
:102990005F936F937F938F939F93AF93BF93EF93C7
:1029A000FF9380E090E064E271E048E251E00E9431
:1029B0006E13FF91EF91BF91AF919F918F917F9196
:1029C0006F915F914F913F912F910F900BBE0F90A0
:1029D0000FBE0F901F901895FC018091C80780339F
:1029E00090F480838F5F8093C807808190E0FC0122
:1029F000EE0FFF1FE80FF91FE753F84F88EB9BE03E
:102A00009283818308958FEF80830895DF92EF9200
:102A1000FF920F931F93CF93DF93EC01D62E8A0181
:102A200079018881803308F093C0862F61E00E948D
:102A3000E3084881842F90E0FC01EE0FFF1FE80FB0
:102A4000F91FE753F84F9D2D9F738081807C892B60
:102A5000808380E292E0801B910B24E030E0B9019A
:102A60000E94211F698380E699E08E199F09B901B0
:102A70000E94211F6A83842F6CE00E94151F90E042
:102A80009C01220F331F280F391F220F331F220FE3
:102A9000331F40E050E0BA01620F731FFB01EE0FDD
:102AA000FF1FE60FF71FE753F84F608166FD44C034
:102AB0004F5F5F4F4C30510571F753C0109280004B
:102AC00082E0809381001092850010928400B19A78
:102AD00080916F00826080936F002EC082309105DC
:102AE00069F41092900082E080939100109295001A
:102AF0001092940088BB809371001EC083309105B2
:102B000069F41092A00082E08093A1001092A500C9
:102B10001092A40089BB809372000EC0009761F4EC
:102B20001092200182E080932101109225011092E1
:102B300024018ABB80937300888190E0FC01EE0F32
:102B4000FF1FE80FF91FE753F84F808180648083EF
:102B50008881DF91CF911F910F91FF90EF90DF90CF
:102B600008958130910509F0B9CFA8CF40E252E035
:102B700020E639E00E9406150895FC0120812033EB
:102B800078F54181552747FD509588E890E0841BF2
:102B9000950B880F991F880F991F6817790784F084
:102BA0004281552747FD509588E592E0841B950B9F
:102BB000880F991F880F991F681779070CF4CB01AC
:102BC0004FB7F89430E0F901EE0FFF1FE20FF31F4B
:102BD000E753F84F0297880F991F928381834FBF65
:102BE0000895AF92BF92CF92DF92EF92FF920F9330
:102BF0001F93CF93DF93EC0182E0603278070CF0F3
:102C000046C077FD04C0653B710524F405C060E053
:102C100070E002C064EB70E000D00F92882777FD6F
:102C20008095982F4981552747FD509528E830E039
:102C3000241B350B220F331F220F331F5901CC24C5
:102C4000B7FCC094DC2C4A81552747FD509528E5F8
:102C500032E0241B350B220F331F220F331F442772
:102C600037FD4095542FEDB7FEB721833283438360
:102C7000548320E030E0A901B4EBEB2EF12C012DC0
:102C8000112D0E94BF1A0F900F900F900F90CE0140
:102C90000E94BD15DF91CF911F910F91FF90EF9092
:102CA000DF90CF90BF90AF900895FC0180818F3F5F
:102CB000B9F090E0FC01EE0FFF1FE80FF91FE7539A
:102CC000F84F2181328193E0220F331F9A95E1F76B
:102CD00084E0369527958A95E1F72E5F3F4F02C035
:102CE00020E030E0C9010895AF92BF92CF92DF9209
:102CF000EF92FF920F931F93CF93DF93EC010E940B
:102D0000551600D00F92BC016F5F7F4F882777FD6B
:102D10008095982F4981552747FD509528E830E048
:102D2000241B350B220F331F220F331F442737FD7F
:102D30004095542FAA81BB27A7FDB095E8E5F2E0A6
:102D4000EA1BFB0BEE0FFF1FEE0FFF1F5F01CC24F2
:102D5000B7FCC094DC2CE4EBEE2EF12C012D112DF0
:102D6000EDB7FEB7E182F282038314838601750119
:102D7000AA24BB2465010E94BF1A0F900F900F90E8
:102D80000F90CB01DF91CF911F910F91FF90EF90AA
:102D9000DF90CF90BF90AF9008951092810884E1AA
:102DA00061E00E94070985E161E00E940709E9EB03
:102DB000F0E080818E7F808380818D7F808388E4B6
:102DC0008093B80085E48093BC000895413288F573
:102DD000909181089923E1F791E0909381089FEF0A
:102DE0009093800810925E08942F915090935F0802
:102DF000880F816080935D0885EE8093BC00809190
:102E000081088130E1F380915E08841710F44091CD
:102E10005E08E0E6F8E0262F372FD901242F30E0B6
:102E20002E0F3F1F02C081918D93E217F307D9F750
:102E300001C040E0842F08954132B0F5909181089F
:102E40009923E1F792E0909381089FEF9093800897
:102E500010925E0840935F08DB01E0E6F8E050E086
:102E60004E0F5F1F02C09D919193E417F507D9F7AC
:102E700090E0880F991F80935D0885EE8093BC00D9
:102E8000222321F0809181088230E1F38091800833
:102E90008F3F61F080918008803251F080918008EE
:102EA000803341F483E0089581E0089580E008953F
:102EB00082E0089584E008956132A0F420918108B1
:102EC000243091F46093A608DC01E9EAF8E070E0B0
:102ED0006E0F7F1F02C08D918193E617F707D9F718
:102EE00080E0089581E0089582E00895882311F03C
:102EF00085EC01C085E88093BC00089585ED809342
:102F0000BC008091BC0084FDFCCF10928108089524
:102F100085EC8093BC001092810808951F920F9257
:102F20000FB60F920BB60F9211242F933F934F932E
:102F30005F936F937F938F939F93AF93BF93EF9321
:102F4000FF938091B90090E0887F90708036910562
:102F500009F4C2C081369105E4F58832910509F47F
:102F60007EC089329105C4F48031910509F472C0A4
:102F70008131910544F4009709F413C1883091051B
:102F800009F013C167C08831910509F468C0803227
:102F9000910509F00AC178C08034910509F48AC00E
:102FA000813491054CF48033910509F46FC0883366
:102FB000910509F0FAC06EC08035910509F46EC024
:102FC0008835910509F47BC08834910509F0EDC07E
:102FD000EAC08839910509F4DAC089399105ECF421
:102FE0008837910509F478C0893791054CF4883603
:102FF000910509F471C08037910509F0D6C06CC005
:103000008838910509F4C3C08039910509F46AC074
:103010008038910509F0C9C065C0803B910509F46D
:103020008EC0813B91054CF4803A910509F46CC047
:10303000883A910509F0B9C082C0803C910509F435
:10304000AAC0883C910509F4A6C0883B910509F007
:10305000ACC08AC080915D088093BB0013C0909182
:103060005E0880915F08981708F09DC080915E0807
:10307000E82FF0E0E05AF74F90819093BB008F5F0C
:1030800080935E0881E084C080E201C080E3809389
:10309000800889C088E3809380084EC080915E08D4
:1030A0009091BB00E82FF0E0E05AF74F90838F5FDC
:1030B00080935E0890915E0880915F0865C0809162
:1030C0005E089091BB00E82FF0E0E05AF74F908344
:1030D0008F5F80935E0867C083E0809381081092C1
:1030E0008208D0CF80918208803208F050C0809151
:1030F00082089091BB00E82FF0E0ED57F74F9083E6
:103100008F5F80938208BECF80918208803230F436
:10311000E0918208F0E0ED57F74F10820E947E1791
:1031200060918208E091A308F091A40883E898E0F8
:1031300070E01995109282080E94881736C084E0CA
:10314000809381081092A5081092A608E091A70824
:10315000F091A80819958091A608882329F481E0A8
:103160008093A6081092A9088091A508E82FF0E0A6
:10317000E755F74F90819093BB008F5F8093A50830
:103180009091A5088091A608981708F47BCF80E05D
:103190000E9476170AC081E00E947617109281087B
:1031A00004C0109280080E947E17FF91EF91BF919A
:1031B000AF919F918F917F916F915F914F913F91CF
:1031C0002F910F900BBE0F900FBE0F901F90189570
:1031D0001F93CF93DF93182FEB0161E00E94E30868
:1031E000209709F4C5C0CF3FD10509F4C4C0E12F31
:1031F000F0E0E254FE4FE491E93009F466C0EA30B1
:10320000B0F4E430F1F1E53040F4E23059F1E3306C
:1032100070F5E13009F0A9C020C0E73009F443C0DF
:10322000E83008F048C0E63009F09FC034C0ED3007
:1032300009F473C0EE3038F4EB3009F45AC0EC30C6
:1032400008F061C04CC0E03109F47BC0E13109F401
:1032500082C0EF3009F089C06AC084B5806884BD3F
:10326000C7BD8DC084B5806284BDC8BD88C0809153
:103270008000806880938000D0938900C09388008C
:103280007EC080918000806280938000D0938B000C
:10329000C0938A0074C08091B00080688093B000B1
:1032A000C093B3006CC08091B00080628093B00086
:1032B000C093B40064C080919000806880939000B7
:1032C000D0939900C09398005AC08091900080627A
:1032D00080939000D0939B00C0939A0050C080913F
:1032E0009000886080939000D0939D00C0939C00D4
:1032F00046C08091A00080688093A000D093A90070
:10330000C093A8003CC08091A00080628093A00080
:10331000D093AB00C093AA0032C08091A000886017
:103320008093A000D093AD00C093AC0028C08091E2
:103330002001806880932001D0932901C093280147
:103340001EC080912001806280932001D0932B01C8
:10335000C0932A0114C080912001886080932001CD
:10336000D0932D01C0932C010AC0C038D1051CF4A4
:10337000812F60E002C0812F61E00E940709DF9188
:10338000CF911F910895CF92DF92EF92FF920F930A
:103390001F93CF93DF936C017B018A01C0E0D0E0E3
:1033A0000FC0D7016D917D01D601ED91FC91019087
:1033B000F081E02DC6011995C80FD91F01501040AA
:1033C0000115110571F7CE01DF91CF911F910F917A
:1033D000FF90EF90DF90CF900895DB010D900020DB
:1033E000E9F7AD0141505040461B570BDC01ED9110
:1033F000FC910280F381E02D199508950E94ED194A
:103400000895DC01ED91FC910190F081E02D19957A
:1034100008958F929F92AF92BF92CF92DF92EF92D8
:10342000FF920F931F93DF93CF93CDB7DEB7A19792
:103430000FB6F894DEBF0FBECDBF6C01042FE52F91
:10344000CB01122F19A2223008F41AE021E2E22E59
:10345000F12CEC0EFD1E812E9924AA24BB2403C05E
:10346000022FE32FCA01602F7E2FA50194010E9435
:10347000341F129F802D1124081B0894E108F108C5
:103480000A3014F4005D01C0095CF70100832115C6
:1034900031054105510521F7C601B7010E94ED191B
:1034A000A1960FB6F894DEBF0FBECDBFCF91DF91CE
:1034B0001F910F91FF90EF90DF90CF90BF90AF9052
:1034C0009F908F9008952115310549F4DC01ED910D
:1034D000FC910190F081E02D642F199508950E94D0
:1034E000091A08959A01462F50E060E070E00E94AA
:1034F000631A0895CF92DF92EF92FF920F931F937A
:10350000CF93DF93EC017A018B012115310541F452
:10351000E881F9810190F081E02D642F19951AC09E
:103520002A303105A9F477FF12C06DE20E94011A1A
:103530006C0144275527BA014E195F09600B710BC6
:10354000CE012AE00E94091AC80ED91E04C02AE042
:103550000E94091A6C01C601DF91CF911F910F9152
:10356000FF90EF90DF90CF9008959A01FB01AF019B
:10357000662757FD6095762F0E947A1A08952F923C
:103580003F924F925F926F927F928F929F92AF92F3
:10359000BF92CF92DF92EF92FF920F931F93DF9330
:1035A000CF93CDB7DEB73B014C0119012A016E89DB
:1035B0007F89888D998D6A197B098C099D09621A0A
:1035C000730A840A950AA40193010E94F61EE21868
:1035D000F30804091509A80197010E94561F2A0D36
:1035E0003B1D4C1D5D1DB901CA01CF91DF911F919B
:1035F0000F91FF90EF90DF90CF90BF90AF909F9092
:103600008F907F906F905F904F903F902F90089594
:10361000FC0184859585FC01E05CFF4F20813181B0
:103620008E5B9F4FFC0180819181281B390B2F738A
:103630003070C9010895FC0184859585FC01E05C2A
:10364000FF4F40815181FC01EE5BFF4F20813181B2
:103650004217530741F00190F081E02DE80FF91F68
:10366000208130E002C02FEF3FEFC9010895FC0137
:1036700084859585FC01E05CFF4F40815181FC0110
:10368000EE5BFF4F208131814217530771F0A0811B
:10369000B181A80FB91F2C918081918101968F7300
:1036A00090709183808330E002C02FEF3FEFC9011B
:1036B0000895DC011E968D919C911F97FC01E05CA2
:1036C000FF4F8E5B9F4F40815181DC012D913C91DA
:1036D000119742175307B9F70895CF93FC01C62FEE
:1036E00026853785D901A05CBF4F8D919C910196AD
:1036F00060E470E00E94211FD901AE5BBF4F4D9185
:103700005C91119784179507D1F3D901A05CBF4F45
:103710000D90BC91A02DA20FB31FCC93A685B785A9
:10372000A05CBF4F11969C938E93A689B7892C916C
:1037300081E090E0058C02C0880F991F0A94E2F79F
:10374000282B2C9381E090E0CF910895FB01E05C61
:10375000FF4F208131812F5F3F4F2F733070DB018E
:10376000AE5BBF4F4D915C9111972417350739F02F
:10377000A081B181A60FB71F8C9331832083089558
:103780001F920F920FB60F920BB60F9211242F9328
:103790003F934F935F936F937F938F939F93AF93D9
:1037A000BF93EF93FF938091C60069EC78E00E948D
:1037B000A61BFF91EF91BF91AF919F918F917F9148
:1037C0006F915F914F913F912F910F900BBE0F9092
:1037D0000FBE0F901F9018951F920F920FB60F9269
:1037E0000BB60F9211242F933F934F935F936F93D8
:1037F0007F938F939F93AF93BF93EF93FF938091AA
:10380000CE0061E579E00E94A61BFF91EF91BF9188
:10381000AF919F918F917F916F915F914F913F9168
:103820002F910F900BBE0F900FBE0F901F90189509
:103830001F920F920FB60F920BB60F9211242F9377
:103840003F934F935F936F937F938F939F93AF9328
:10385000BF93EF93FF938091D60069ED79E00E94CA
:10386000A61BFF91EF91BF91AF919F918F917F9197
:103870006F915F914F913F912F910F900BBE0F90E1
:103880000FBE0F901F9018951F920F920FB60F92B8
:103890000BB60F9211242F933F934F935F936F9327
:1038A0007F938F939F93AF93BF93EF93FF938091F9
:1038B000360161E67AE00E94A61BFF91EF91BF916D
:1038C000AF919F918F917F916F915F914F913F91B8
:1038D0002F910F900BBE0F900FBE0F901F90189559
:1038E0001F920F920FB60F920BB60F9211242F93C7
:1038F0003F935F936F937F938F939F93AF93BF9308
:10390000EF93FF9320914D0930914E0980914F091B
:10391000909150092817390731F48091C1008F7DAB
:103920008093C10016C0E0914F09F0915009E35F08
:10393000F64F208180914F0990915009019660E4E3
:1039400070E00E94211F9093500980934F092093AB
:10395000C600FF91EF91BF91AF919F918F917F91A1
:103960006F915F913F912F910F900BBE0F900FBE03
:103970000F901F9018951F920F920FB60F920BB6D3
:103980000F9211242F933F935F936F937F938F93A5
:103990009F93AF93BF93EF93FF932091D5093091FD
:1039A000D6098091D7099091D8092817390731F4A1
:1039B0008091C9008F7D8093C90016C0E091D7091E
:1039C000F091D809EB56F64F20818091D70990915C
:1039D000D809019660E470E00E94211F9093D809F5
:1039E0008093D7092093CE00FF91EF91BF91AF91C3
:1039F0009F918F917F916F915F913F912F910F9048
:103A00000BBE0F900FBE0F901F9018951F920F9234
:103A10000FB60F920BB60F9211242F933F935F9323
:103A20006F937F938F939F93AF93BF93EF93FF9386
:103A300020915D0A30915E0A80915F0A9091600A40
:103A40002817390731F48091D1008F7D8093D10000
:103A500016C0E0915F0AF091600AE35EF54F2081A5
:103A600080915F0A9091600A019660E470E00E9484
:103A7000211F9093600A80935F0A2093D600FF91E4
:103A8000EF91BF91AF919F918F917F916F915F91D6
:103A90003F912F910F900BBE0F900FBE0F901F9074
:103AA00018951F920F920FB60F920BB60F9211241A
:103AB0002F933F935F936F937F938F939F93AF93D6
:103AC000BF93EF93FF932091E50A3091E60A80912E
:103AD000E70A9091E80A2817390731F480913101FB
:103AE0008F7D8093310116C0E091E70AF091E80ADA
:103AF000EB55F54F20818091E70A9091E80A0196F5
:103B000060E470E00E94211F9093E80A8093E70A26
:103B100020933601FF91EF91BF91AF919F918F91CB
:103B20007F916F915F913F912F910F900BBE0F90FE
:103B30000FBE0F901F901895DF92EF92FF920F9398
:103B40001F93CF93DF93EC017A018B01DD24D39493
:103B5000403081EE580780E0680780E0780749F43C
:103B6000DD24EC89FD89108260E874E88EE190E044
:103B70000FC0EC89FD8981E090E00E8C02C0880FB7
:103B8000991F0A94E2F7808360E079E08DE390E08A
:103B9000A80197010E94341F2150304040405040FE
:103BA000569547953795279580E12030380710F0D6
:103BB000DD20B1F6E889F9893083EA89FB89208321
:103BC000EE89FF89408181E090E09C010A8C02C06F
:103BD000220F331F0A94E2F7422B4083EE89FF89BC
:103BE00040819C010B8C02C0220F331F0A94E2F724
:103BF000422B4083EE89FF8940819C010C8C02C0DE
:103C0000220F331F0A94E2F7422B4083EE89FF898B
:103C100020810D8C02C0880F991F0A94E2F78095CD
:103C200082238083DF91CF911F910F91FF90EF90BE
:103C3000DF9008950F931F93CF931092EC0A109288
:103C4000EB0A88EE93E0A0E0B0E08093ED0A909359
:103C5000EE0AA093EF0AB093F00AEBEEFAE022E549
:103C600037E03293229349EC58E0558744874DE082
:103C700059E05787468745EC50E0518B408B44EC28
:103C800050E0538B428B40EC50E0558B448B41EC21
:103C900050E0578B468B46EC50E0518F408FC4E08C
:103CA000C28F73E0738F67E0648F55E0558F41E0FA
:103CB000468F10920B0B10920A0B80930C0B909373
:103CC0000D0BA0930E0BB0930F0BEAE0FBE03293C9
:103CD000229301E519E01587048705E919E01787A4
:103CE00006870DEC10E0118B008B0CEC10E0138BB1
:103CF000028B08EC10E0158B048B09EC10E0178B9D
:103D0000068B0EEC10E0118F008FC28F738F648FC3
:103D1000558F468F10922A0B1092290B80932B0BF4
:103D200090932C0BA0932D0BB0932E0BE9E2FBE0AC
:103D30003293229309ED19E0158704870DE11AE00B
:103D40001787068705ED10E0118B008B04ED10E05E
:103D5000138B028B00ED10E0158B048B01ED10E04E
:103D6000178B068B06ED10E0118F008FC28F738FBB
:103D7000648F558F468F1092490B1092480B809399
:103D80004A0B90934B0BA0934C0BB0934D0BE8E474
:103D9000FBE03293229381E69AE09587848785EA57
:103DA0009AE09787868785E391E0918B808B84E307
:103DB00091E0938B828B80E391E0958B848B81E300
:103DC00091E0978B868B86E391E0918F808FC28FF5
:103DD000738F648F558F468FCF911F910F910895E8
:103DE0000E94E51F08950E947F200895629FD001E0
:103DF000739FF001829FE00DF11D649FE00DF11DA6
:103E0000929FF00D839FF00D749FF00D659FF00D54
:103E10009927729FB00DE11DF91F639FB00DE11D41
:103E2000F91FBD01CF0111240895991B79E004C049
:103E3000991F961708F0961B881F7A95C9F78095E9
:103E4000089597FB092E07260AD077FD04D049D0A4
:103E500006D000201AF4709561957F4F0895F6F70B
:103E6000909581959F4F0895A1E21A2EAA1BBB1B26
:103E7000FD010DC0AA1FBB1FEE1FFF1FA217B30736
:103E8000E407F50720F0A21BB30BE40BF50B661F4C
:103E9000771F881F991F1A9469F760957095809510
:103EA00090959B01AC01BD01CF01089597FB092EB0
:103EB00005260ED057FD04D0D7DF0AD0001C38F4F9
:103EC00050954095309521953F4F4F4F5F4F089546
:103ED000F6F790958095709561957F4F8F4F9F4F26
:103EE0000895AA1BBB1B51E107C0AA1FBB1FA61741
:103EF000B70710F0A61BB70B881F991F5A95A9F793
:103F000080959095BC01CD0108952F923F924F92DC
:103F10005F926F927F928F929F92AF92BF92CF9259
:103F2000DF92EF92FF920F931F93CF93DF93CDB762
:103F3000DEB7CA1BDB0B0FB6F894DEBF0FBECDBFDA
:103F400019942A88398848885F846E847D848C849B
:103F50009B84AA84B984C884DF80EE80FD800C81B4
:103F60001B81AA81B981CE0FD11D0FB6F894DEBF97
:103F70000FBECDBFED0108950790F691E02D199485
:103F8000EF92FF920F931F93CF93DF93689F80016F
:103F9000699F100D789F100D1124C8010E94E51F24
:103FA000E82EE7017E01F92EE701209731F08E2DF2
:103FB00060E070E0A8010E941821CE01DF91CF914E
:103FC0001F910F91FF90EF900895CF93DF93823070
:103FD000910510F482E090E0E091690BF0916A0B9A
:103FE00040E050E020E030E026C060817181681739
:103FF0007907E0F06817790781F4828193812115B0
:10400000310531F0D90113969C938E9312972BC0F2
:1040100090936A0B8093690B26C04115510519F0E6
:104020006417750718F4AB01E901DF019F01728184
:104030006381E72FF62F3097C1F64115510501F145
:10404000481B590B4430510580F412968D919C9178
:104050001397209719F09B838A8304C090936A0B6F
:104060008093690BFD01329646C0FD01E40FF51FF8
:10407000819391934250504011965C934E933BC074
:104080002091670B3091680B2115310541F4209187
:104090003407309135073093680B2093670B2091DC
:1040A0003607309137072115310541F42DB73EB75A
:1040B0004091320750913307241B350BE091670B79
:1040C000F091680BE217F307A0F42E1B3F0B2817A3
:1040D000390778F0AC014E5F5F4F2417350748F081
:1040E0004E0F5F1F5093680B4093670B8193919322
:1040F00002C0E0E0F0E0CF01DF91CF910895CF93CF
:10410000DF93009709F491C0FC0132971382128269
:104110006091690B70916A0B6115710581F42081C2
:104120003181280F391F8091670B9091680B82179E
:10413000930799F5F093680BE093670B76C0DB016A
:1041400080E090E002C0CD01D901AE17BF0748F46E
:1041500012962D913C91139721153105A1F7CD01B0
:1041600021C0B383A283EF01499159919E01240F8D
:10417000351FA217B30779F42D913C911197240FA5
:10418000351F2E5F3F4F3183208312962D913C9136
:10419000139733832283009729F4F0936A0BE093FB
:1041A000690B43C0DC011396FC93EE9312974D917B
:1041B0005D91A40FB51FEA17FB0769F420813181D7
:1041C000240F351F2E5F3F4FEC0139832883228156
:1041D00033813B832A83E0E0F0E002C0FB01BC01B5
:1041E000DB0112968D919C9113970097B9F79B0173
:1041F0002E5F3F4F8D919C911197820F931F40919D
:10420000670B5091680B4817590779F4309729F4D8
:1042100010926A0B1092690B02C013821282225014
:1042200030403093680B2093670BDF91CF91089556
:10423000DC0101C06D9341505040E0F70895EF92CA
:10424000FF920F931F93CF93DF938C01E0916D0B3F
:10425000F0916E0B838181FF1FC0C0E0D0E00AC0E7
:10426000DB011896ED91FC9119971995009711F0C3
:10427000CFEFDFEFF80181918F0160916D0B7091AD
:104280006E0B882369F7DB011896ED91FC91199765
:104290008AE01995009711F0CFEFDFEFCE01DF91A3
:1042A000CF911F910F91FF90EF900895F894FFCF59
:1042B00066616E5F666F72776172645F7370656569
:1042C000642063616C6C65640A0066616E5F686F90
:1042D000766572696E675F73706565642063616C93
:1042E0006C65640A0072756465725F646972656307
:1042F00074696F6E2063616C6C65640A00686F7628
:10430000657263726166745F737065656420636172
:104310006C6C65640A00520A00626174746572799B
:104320005F6C6576656C2063616C6C65640A005532
:104330006E61626C6520746F20676574206D656DB9
:104340006F72790A0053545241494748540A004851
:104350004152445F4C4546540A00484152445F5222
:10436000494748540A00534F46545F5249474854FE
:104370000A00534F46545F4C4546540A004252418E
:104380004B450A00646972656374696F6E2045521B
:10439000524F520A007075742046616E20486F7645
:1043A0006572696E6720696E6372656173696E67B5
:1043B000200A007075742046616E20486F76657221
:1043C000696E672064656372656173696E670A0070
:1043D0007075742046616E20486F766572696E67ED
:1043E000205370656564204552524F520A00707523
:1043F000742046616E20486F766572696E6720533F
:10440000544F5020696E2071756575650A0070758E
:10441000742046616E20486F766572696E6720541D
:104420005552424F20696E2071756575650A0046C8
:10443000616E20486F766572696E67206E6F7420BA
:10444000696D706C656D656E74656420636F6D6D0C
:10445000616E6473204552524F520A007075742089
:1044600065786163742046414E5F484F5645524916
:104470004E475F5350454544200A007075742046EE
:10448000616E20466F727761726420696E63726537
:104490006173696E6720537065656420696E207171
:1044A000756575650A007075742046616E20466FEB
:1044B00072776172642064656372656173696E67A7
:1044C00020537065656420696E2071756575650A95
:1044D000007075742046616E20466F727761726459
:1044E000205370656564204552524F520A00707522
:1044F000742046616E20466F727761726420535457
:104500004F5020696E2071756575650A007075746D
:104510002046616E20466F72776172642054555256
:10452000424F20696E2071756575650A0046616E9F
:1045300020466F7277617264206E6F7420696D70AF
:104540006C656D656E74656420636F6D6D616E641E
:1045500073204552524F520A00707574206578617D
:10456000637420466F72776172642073706565644E
:104570002076616C75650A00536F6D657468696EAD
:1045800067206E6F74206261736564206F6E2070A7
:10459000726F746F636F6C206973207265636569F5
:1045A0007665640A000A00426C7565746F6F746802
:1045B0002069732061637469766174656400090918
:1045C00054657374206D6F746F72207374617274AC
:1045D00065642000090954657374206D6F746F72EF
:1045E0002073746F707065642000090954657374DA
:1045F000206C6576656C206973206E6F726D616CDE
:104600002000090954657374206C6576656C206917
:104610007320747572626F200009095465737420E9
:10462000616E616C6F67207772697465200009099B
:104630005465737420546F6F206C6F7720000909E4
:104640005465737420546F6F20686967682000098F
:1046500009546573742054205320697320626F7469
:10466000746F6D2000090954657374206D6F746F49
:10467000722068617320616C726561647920626583
:10468000656E207374617274656420000909546555
:10469000737420494E43204E6577202020204C3AE9
:1046A000202564200A000909546573742044454399
:1046B000204E6577202020204C3A202564200A00D7
:1046C00009095465737420736574204E6577202042
:1046D00020204C3A202564200A0000000000000041
:1046E00000000001020203030303040404040404A1
:1046F000040405050505050505050505050505056C
:10470000050506060606060606060606060606064B
:104710000606060606060606060606060606060639
:10472000060607070707070707070707070707071B
:104730000707070707070707070707070707070709
:1047400007070707070707070707070707070707F9
:1047500007070707070707070707070707070707E9
:1047600007070808080808080808080808080808CB
:1047700008080808080808080808080808080808B9
:1047800008080808080808080808080808080808A9
:104790000808080808080808080808080808080899
:1047A0000808080808080808080808080808080889
:1047B0000808080808080808080808080808080879
:1047C0000808080808080808080808080808080869
:1047D0000808080808080808080808080808080859
:1047E00008082000710B000000010203040500000E
:1047F0000000EF12BD128F129812AC12BC12000012
:0E48000000006D1BC319081B371B1B1B591B27
:0400000300001D9E3E
:00000001FF
