:100000000C9406010C9437010C9437010C943701C1
:100010000C9437010C9437010C9437010C94370180
:100020000C9437010C9437010C9437010C94370170
:100030000C9437010C94A8200C9437010C943701D0
:100040000C9437010C94AF160C9437010C943701C3
:100050000C9437010C9437010C9437010C9463070E
:100060000C9437010C9409220C94B9220C9437019A
:100070000C9437010C9437010C9437010C94370120
:100080000C94DD160C9437010C9437010C94370155
:100090000C9435220C9404230C9437010C94091A07
:1000A0000C9437010C9437010C940B170C94370106
:1000B0000C9437010C9437010C9437010C943917C8
:1000C0000C9437010C9437010C9437010C94612285
:1000D0000C944F230C9437010C948D220C949A238A
:1000E0000C94370100002100240027002A002D0075
:1000F0003000330001010000040107010A01000083
:100100002200250028002B002E00310034000201BF
:100110000000050108010B0100002000230026005B
:1001200029002C002F00320000010000030106010D
:10013000090105050505070508080808020202026D
:100140000A0A080804040404010101010101010173
:100150000303030303030303040707070C0C0C0C3E
:100160000C0C0C0C02020202060606060606060627
:100170000B0B0B0B0B0B0B0B0102102020080810B4
:100180002040102040800201020108040201010207
:1001900004081020408080402010080402018004E0
:1001A000020180402010080402010804020101023B
:1001B0000408102040800102040810204080000044
:1001C000090A02080B0C0D070603040100000000D9
:1001D000000000000000000000000000000000001F
:1001E0000000000000000000000011100F000000DF
:1001F00000000000000000000000000000000000FF
:100200000000000002005911D215632411241FBE02
:10021000CFEFD1E2DEBFCDBF00E00CBF17E0A0E022
:10022000B2E0E6ECF4E500E00BBF02C007900D92EF
:10023000AC37B107D9F71BE0ACE7B7E001C01D92BE
:10024000A13CB107E1F712E0CCE0D2E000E006C04B
:1002500022970109FE010BBF0E940526C630D10777
:1002600080E00807A9F70E9444070C94612A0C94C7
:100270000000A0E0B0E0EFE3F1E00C94D225FC0137
:10028000EA018081823008F438C1DB019C91923010
:1002900008F430C1843059F4943009F02EC19181B2
:1002A00011968C911197981709F021C126C19430AD
:1002B00009F420C19230B1F4823009F01EC1CA01A4
:1002C000AF0128E0DA010D90AD01DC010D92CD0106
:1002D0002150C1F7DB0111968C91119791818923EF
:1002E00089830AC1823009F405C1C280D380DB0151
:1002F00012966D907C9013972481358146815781A9
:100300001496ED90FD900D911C911797C6018619DA
:1003100097095C0197FF04C0AA24BB24A81AB90A54
:10032000B0E2AB16B1040CF061C0181619066CF5FA
:10033000370148010A2C04C09694879477946794F7
:100340000A94D2F781E090E0A0E0B0E00A2C04C06B
:10035000880F991FAA1FBB1F0A94D2F70197A10902
:10036000B1098E219F21A023B123EE24FF24870110
:10037000E3940097A105B10519F4EE24FF24870149
:10038000E628F728082919293CC00097D1F1CA0CA2
:10039000DB1C39014A010A2C04C096948794779497
:1003A00067940A94D2F781E090E0A0E0B0E00A2CD4
:1003B00004C0880F991FAA1FBB1F0A94D2F7019788
:1003C000A109B10982239323A423B52321E030E0BE
:1003D00040E050E00097A105B10519F420E030E0BD
:1003E000A90126293729482959290BC06C147D04F5
:1003F00024F4EE24FF24870104C0630120E030E0F0
:10040000A9018181FB019181891709F445C08823E5
:1004100049F0D801C701821B930BA40BB50B9C01BB
:10042000AD0104C02E193F09400B510B57FD04C00C
:100430001982DB82CA820BC081E08983DB82CA8297
:1004400050954095309521953F4F4F4F5F4F2C83EE
:100450003D834E835F830DC0880F991FAA1FBB1F6A
:100460008C839D83AE83BF838A819B8101979B830D
:100470008A838C819D81AE81BF819C01AD01215019
:100480003040404050402F3FEFEF3E07EFEF4E0728
:10049000EFE35E0708F30BC08983DB82CA822E0D6F
:1004A0003F1D401F511F2C833D834E835F8383E09C
:1004B00088832C813D814E815F8157FF1DC0DA0109
:1004C000C90181709070A070B070569547953795AE
:1004D0002795822B932BA42BB52B8C839D83AE83E6
:1004E000BF838A819B8101969B838A8305C0E5E453
:1004F000F6E003C0FB0101C0FE01CF01CDB7DEB7BE
:10050000EEE00C94EE25A0E2B0E0E9E8F2E00C9415
:10051000DA2569837A838B839C832D833E834F8383
:10052000588789E0E82EF12CEC0EFD1ECE010196D5
:10053000B7010E94DB068E010F5E1F4FCE010596AC
:10054000B8010E94DB06C701B801AE01475E5F4FEC
:100550000E9439010E940D06A096E6E00C94F62553
:10056000A0E2B0E0E6EBF2E00C94DA2569837A834E
:100570008B839C832D833E834F8358878E01075F37
:100580001F4FCE010196B8010E94DB0691E1E92ED2
:10059000F12CEC0EFD1ECE010596B7010E94DB0684
:1005A0008A8991E089278A8BC801B701AE01475E2D
:1005B0005F4F0E9439010E940D06A096E6E00C9460
:1005C000F625A0E2B0E0E7EEF2E00C94CE256983D8
:1005D0007A838B839C832D833E834F835887CE0100
:1005E0000196BE01675F7F4F0E94DB06CE01059634
:1005F000BE016F5E7F4F0E94DB069985923078F0D6
:1006000089898230C0F0943019F4823041F4CBC033
:10061000843019F4923079F4C6C0923051F481E0FC
:100620002A859A89291709F480E08A87CE010996DC
:10063000BCC0823051F481E02A859A89291709F4D7
:1006400080E08A8BCE014196B0C06D847E848F8419
:100650009888ED88FE880F89188DE0E2F0E080E050
:1006600090E0DC01AA24BB24650120E030E0A90170
:10067000B3016170707061157105D1F02E0D3F1DD1
:10068000401F511F15012601280E391E4A1E5B1EF0
:1006900081E090E0A0E0B0E02E153F054007510753
:1006A00018F080E090E0DC01820D931DA41DB51DC3
:1006B000AA0CBB1CCC1CDD1C17FF09C061E0262E58
:1006C000312C412C512CA228B328C428D52831978D
:1006D00049F0EE0CFF1C001F111F9694879477942D
:1006E0006794C6CF6B897C89EB85FC856E0F7F1F75
:1006F0006E5F7F4F7C8F6B8F61E0EA857A89E717A9
:1007000009F460E06A8F6B8D7C8D10C0FC01E17094
:10071000F070309729F05695479537952795506892
:10072000B695A795979587956F5F7F4FB7FDEECFED
:100730000CC0880F991FAA1FBB1F57FD8160220F95
:10074000331F441F551F615070408030E0E09E070A
:10075000E0E0AE07E0E4BE0760F36B8F7C8F6FE7ED
:10076000E62EF12C012D112DE822F9220A231B235C
:1007700060E4E616F1040105110561F487FD0AC085
:10078000211531054105510529F0805C9F4FAF4F80
:10079000BF4F80788D8F9E8FAF8FB8A383E0898FF6
:1007A000CE01499602C085E496E00E940D06A0960F
:1007B000E2E10C94EA25A8E1B0E0E1EEF3E00C946C
:1007C000D62569837A838B839C832D833E834F83D5
:1007D00058878E01075F1F4FCE010196B8010E9416
:1007E000DB0681E1E82EF12CEC0EFD1ECE01059614
:1007F000B7010E94DB069985923008F483C089898D
:10080000823008F47BC02A853A8923272A879430CE
:1008100011F0923021F4981709F06CC071C0843047
:1008200039F41D861E861F86188A1C861B866AC0A0
:10083000823019F484E0898765C08B859C852B897B
:100840003C89821B930B9C878B872D853E854F852A
:100850005889ED88FE880F89188D2E153F054007B1
:10086000510738F4220F331F441F551F01979C87EF
:100870008B876FE170E0A12CB12CC12CA0E4DA2EA3
:1008800080E090E0DC012E153F054007510740F065
:100890008A299B29AC29BD292E193F09400B510BF0
:1008A000D694C794B794A794220F331F441F551FA3
:1008B0006150704041F76FE7E62EF12C012D112DAC
:1008C000E822F9220A231B2360E4E616F10401055D
:1008D000110561F487FD0AC0211531054105510557
:1008E00029F0805C9F4FAF4FBF4F80788D879E87E8
:1008F000AF87B88B8E01075F1F4F04C0870102C00E
:1009000005E416E0C8010E940D066896EAE00C9422
:10091000F225A8E0B0E0EFE8F4E00C94DA257B01E2
:100920008C0183E08983D801C7018827B7FD8395AF
:100930009927AA27BB27282F8A83E114F1040105F0
:10094000110519F482E0898337C08EE190E09C8321
:100950008B83222389F080E0E81680E0F80680E0AF
:10096000080780E8180769F110950095F094E09465
:10097000E11CF11C011D111DED82FE820F83188701
:10098000C801B7010E94B3059C01215030401216E6
:10099000130694F4022E04C0EE0CFF1C001F111F5E
:1009A0000A94D2F7ED82FE820F8318878EE190E0E1
:1009B000821B930B9C838B83CE0101960E940D06B4
:1009C00004C060E070E080E09FEC2896E6E00C94C4
:1009D000F625ACE0B0E0EFEEF4E00C94DE256983A0
:1009E0007A838B839C83CE010196BE016B5F7F4F20
:1009F0000E94DB068D81823081F1823070F184307B
:100A000021F48E81882369F10AC02F81388537FD52
:100A100024C06E812F3131053CF0662311F120E0B6
:100A200030E040E050E821C08EE190E0821B930B63
:100A300029853A854B855C8504C056954795379541
:100A400027958A95D2F7662381F050954095309589
:100A500021953F4F4F4F5F4F08C020E030E0A90184
:100A600004C02FEF3FEF4FEF5FE7B901CA012C96AB
:100A7000E2E00C94FA25A8E0B0E0E1E4F5E00C94A3
:100A8000D8257B018C011A826115710581059105BC
:100A900019F482E089835FC083E089838EE1C82EE8
:100AA000D12CDC82CB82ED82FE820F831887C801B5
:100AB000B7010E94B305FC013197F7FF3AC0AA279E
:100AC000BB27AE1BBF0B21E030E040E050E00A2E18
:100AD00004C0220F331F441F551F0A94D2F7215020
:100AE0003040404050402E213F214023512361E0BF
:100AF00070E080E090E0211531054105510519F4C1
:100B000060E070E0CB0104C016950795F794E79478
:100B1000AA95D2F7E62AF72A082B192BED82FE8236
:100B20000F8318878EE190E08E1B9F0B9C838B8335
:100B300012C0309781F00E2E04C0EE0CFF1C001F77
:100B4000111F0A94D2F7ED82FE820F831887CE1A06
:100B5000DF0ADC82CB82CE0101960E940D06289628
:100B6000E8E00C94F425AF92BF92CF92DF92EF921F
:100B7000FF920F931F937B018C0180E0E81680E0C9
:100B8000F80681E0080780E0180758F4EFEFEE164A
:100B9000F1040105110509F090F480E090E0DC011A
:100BA00017C0F0E0EF16F0E0FF06F0E00F07F1E00D
:100BB0001F0750F480E190E0A0E0B0E009C088E0B9
:100BC00090E0A0E0B0E004C088E190E0A0E0B0E0F8
:100BD00020E230E040E050E0281B390B4A0B5B0B71
:100BE0005701680104C0D694C794B794A7948A9516
:100BF000D2F7D601C501835B994FFC018081281B88
:100C0000310941095109C9011F910F91FF90EF90DE
:100C1000DF90CF90BF90AF900895EF92FF920F9327
:100C20001F93CF93DF93FC01248135814681578147
:100C300061818081823020F44061EFEFF0E0A3C059
:100C4000843009F49BC0823009F492C0211531052B
:100C50004105510509F48FC00280F381E02D8FEF2B
:100C6000E238F8070CF05AC0C2E8DFEFCE1BDF0B0A
:100C7000CA31D1056CF579018A010C2E04C0169594
:100C80000795F794E7940A94D2F781E090E0A0E00A
:100C9000B0E00C2E04C0880F991FAA1FBB1F0A9436
:100CA000D2F70197A109B10982239323A423B52385
:100CB00021E030E040E050E00097A105B10519F4D3
:100CC00020E030E0A9012E293F29402B512B03C001
:100CD00020E030E0A901DA01C9018F779070A0709F
:100CE000B07080349105A105B10539F427FF09C022
:100CF000205C3F4F4F4F5F4F04C0215C3F4F4F4F31
:100D00005F4FE1E0F0E0203080E0380780E0480706
:100D100080E4580728F5E0E0F0E022C0E038F10573
:100D20006CF5E158FF4FDA01C9018F779070A07020
:100D3000B07080349105A105B10539F427FF09C0D1
:100D4000205C3F4F4F4F5F4F04C0215C3F4F4F4FE0
:100D50005F4F57FF05C056954795379527953196B4
:100D600087E056954795379527958A95D1F70BC01B
:100D7000E0E0F0E005C0E0E0F0E005C0EFEFF0E01B
:100D800020E030E0A9018E2F879588278795942F42
:100D90009F77679566276795E695E22EA92FA82B82
:100DA000FE2FF62B622F732F8A2F9F2FCDB7DEB722
:100DB000E6E00C94F625DC01FB012C9111963C91A8
:100DC000119712968C911297482F4F7750E0982FD9
:100DD000991F9927991F13966C911397862F880F47
:100DE000892B90E0661F6627661F6183009739F59F
:100DF000211531054105510511F482E029C082E831
:100E00009FEF9383828367E0220F331F441F551F98
:100E10006A95D1F783E0808309C0220F331F441FF6
:100E2000551F82819381019793838283203080E0D4
:100E3000380780E0480780E4580778F320C08F3FE8
:100E4000910579F4211531054105510519F484E026
:100E50008083089544FF03C081E0808310C0108226
:100E60000EC08F5790409383828383E0808387E016
:100E7000220F331F441F551F8A95D1F750642483D6
:100E800035834683578308950E9410080E94D20A32
:100E90000E94790D0E94790E80E090E00E942F1050
:100EA00080E060E00E94E60881E060E00E94E608E1
:100EB0000E9462119093B40B8093B30B0E94BC12FA
:100EC0000E948609FDCF1F920F920FB60F92112438
:100ED0002F933F938F939F93AF93BF9380918007FE
:100EE00090918107A0918207B09183073091840788
:100EF0000196A11DB11D232F2D5F2D3720F02D57F9
:100F00000196A11DB11D20938407809380079093C3
:100F10008107A0938207B093830780917C0790910B
:100F20007D07A0917E07B0917F070196A11DB11D9D
:100F300080937C0790937D07A0937E07B0937F07F3
:100F4000BF91AF919F918F913F912F910F900FBEC5
:100F50000F901F9018958FB7F894209180073091CB
:100F6000810740918207509183078FBFB901CA0161
:100F700008959FB7F89420917C0730917D074091A8
:100F80007E0750917F0786B5A89B06C08F3F21F052
:100F90002F5F3F4F4F4F5F4F9FBF542F432F322F35
:100FA0002227280F311D411D511D82E0220F331FC2
:100FB000441F551F8A95D1F7B901CA010895EF92D0
:100FC000FF920F931F93CF93DF937B018C010E94BD
:100FD000B907EB010FC00E94B9076C1B7D0B83E0C2
:100FE000683E780738F00894E108F1080109110912
:100FF000C851DC4FE114F1040105110561F7DF91DF
:10100000CF911F910F91FF90EF900895019739F0C4
:10101000880F991F880F991F02970197F1F708957C
:10102000789484B5826084BD84B5816084BD85B5C3
:10103000826085BD85B5816085BDEEE6F0E080818A
:1010400081608083E1E8F0E01082808182608083AB
:10105000808181608083E0E8F0E08081816080832E
:10106000E1EBF0E0808184608083E0EBF0E0808160
:1010700081608083E1E9F0E080818260808380810B
:1010800081608083E0E9F0E0808181608083E1EA33
:10109000F0E0808182608083808181608083E0EAEB
:1010A000F0E0808181608083E1E2F1E08081826014
:1010B0008083808181608083E0E2F1E080818160D3
:1010C0008083EAE7F0E080818460808380818260B1
:1010D000808380818160808380818068808310929A
:1010E000C1000895893009F449C08A30A0F48430E1
:1010F00051F1853040F4823079F1833000F5813050
:1011000009F063C026C0873079F1883098F58630C1
:1011100009F05BC025C08D3009F442C08E3028F440
:101120008B30B1F18C30C0F52DC0803109F442C054
:10113000813109F445C08F3009F047C037C0809134
:1011400080008F7703C0809180008F7D8093800026
:10115000089584B58F7702C084B58F7D84BD0895CE
:101160008091B0008F7703C08091B0008F7D809315
:10117000B0000895809190008F7707C08091900013
:101180008F7D03C080919000877F809390000895A9
:101190008091A0008F7707C08091A0008F7D03C051
:1011A0008091A000877F8093A00008958091200106
:1011B0008F7703C0809120018F7D80932001089557
:1011C00080912001877F80932001089590E0FC01A9
:1011D000E858FE4F2491FC01EE5CFE4FE491EE23B3
:1011E000C1F0F0E0EE0FFF1FEC51FF4F859194919D
:1011F000DC01662341F49FB7F8948C9120958223FB
:101200008C939FBF08959FB7F8948C91822B8C93F9
:101210009FBF08950F931F93DF93CF930F92CDB786
:10122000DEB7282F30E0F901E254FE4F8491F90136
:10123000E858FE4F14912E5C3E4FF90104910023B3
:10124000D9F0882321F069830E9472086981E02F18
:10125000F0E0EE0FFF1FE250FF4F85919491DC010B
:101260009FB7F894662321F48C911095812302C0D6
:101270008C91812B8C939FBF0F90CF91DF911F9109
:101280000F91089581E090E066E070E00E940926E9
:10129000FC01909386078093850715821482089538
:1012A0000F931F93DF93CF93CDB7DEB72A970FB677
:1012B000F894DEBF0FBECDBF8E010F5F1F4F11C070
:1012C000C8010E94A80A99818A812B813C81ED8105
:1012D000FE81913019F4F901199503C0923009F497
:1012E00019956091850770918607FB01848195812E
:1012F000181619062CF32A960FB6F894DEBF0FBE07
:10130000CDBFCF91DF911F910F9108950E944209A7
:101310000E94C70C8091B30B9091B40B0E948C116A
:101320008091B30B9091B40B0E94EA110E94D70AEE
:1013300081E090E00E94101390E00E94F10A0E9468
:101340005009E6CFAF92BF92CF92DF92EF92FF9219
:101350000F931F93DF93CF93CDB7DEB72A970FB6C6
:10136000F894DEBF0FBECDBFC02E0983D12E1A83E5
:10137000E22E2B83F32E3C834D835E836F8378872D
:1013800089879A87A0908507B09086078601970184
:1013900075010E94DC092A960FB6F894DEBF0FBED5
:1013A000CDBFCF91DF911F910F91FF90EF90DF9014
:1013B000CF90BF90AF900895EF92FF920F931F933D
:1013C000DF93CF93CDB7DEB72A970FB6F894DEBF81
:1013D0000FBECDBF09831A832B833C834D835E836D
:1013E0006F83788789879A870F81188581E090E0DD
:1013F0006EE070E00E940926FC01009709F49BC092
:10140000AE014F5F5F4F2AE0DA010D90AD01DC01C4
:101410000D92CD012150C1F717830683D701149691
:101420008D919C9115978230910594F18D919C91AD
:101430001197AC0129C0DA0116962D913C911797AE
:1014400020173107E0F4538742871C962D913C9179
:101450001D97358724878417950729F4D701ED93C5
:10146000FC93DC013EC0DA011C968D919C911D9786
:10147000DC011B96FC93EE931A97DA0132C0DA0175
:101480001A964D915C911B9741155105A1F63FC0ED
:101490008130910559F5D7012D913C91D9011696CE
:1014A0008D919C9117978017910778F0138612867B
:1014B00035872487D7011396FC93EE931297D901B1
:1014C0001B96FC93EE931A971BC0158614863387E0
:1014D0002287D70113963C932E931297ED93FC939A
:1014E000D9011D96FC93EE931C970AC0009741F416
:1014F000D7011196FC93EE931386128615861486F7
:10150000F7018481958101969583848314C01386A5
:101510001286D70112968D919C9113979587848797
:10152000DC011B96FC93EE931A97D7011396FC935C
:10153000EE931297E5CF2A960FB6F894DEBF0FBE52
:10154000CDBFCF91DF911F910F91FF90EF90089544
:101550000F931F93CF93DF938C01FB01A081B18187
:10156000982F292F312FAD018AE0EA010990AE01B1
:10157000E90109929E018150C1F7248135812150F2
:101580003040358324831A968D919C911B979183CB
:101590008083CD010E94C826C801DF91CF911F91A1
:1015A0000F9108950E940C0D0E94740D0895DF9311
:1015B000CF930F920F92CDB7DEB79A838983CE0176
:1015C00001960E944E0D89819A810E94460D8DE4FC
:1015D00092E00E94580D8FEF0F900F90CF91DF9106
:1015E00008950F931F93DF93CF930F92CDB7DEB77C
:1015F00089838E010F5F1F4FC8010E94210D89E66C
:1016000092E00E94580DC8010E94040D0F90CF91E6
:10161000DF911F910F910895CF93DF93EC018AE042
:1016200090E00E942E26009719F48FE792E052C0B6
:10163000CE010E94EA0C823019F1833030F4882305
:1016400059F0813009F044C011C0843069F1843010
:1016500008F18530E9F532C080E090E00E942F105B
:1016600085E992E00E94580D80E037C081E090E06B
:101670000E942F108FE992E00E94580D81E02DC04A
:1016800082E090E00E942F108AEA92E00E94580DBA
:1016900082E023C083E090E00E942F1086EB92E06E
:1016A0000E94580D83E019C084E090E00E942F1042
:1016B00082EC92E00E94580D84E00FC085E090E03B
:1016C0000E942F108DEC92E00E94580D85E005C01D
:1016D00084ED92E00E94580D8FEFDF91CF91089535
:1016E000EF92FF920F931F93CF93DF938C018AE0C9
:1016F00090E00E942E26E82EE7017E01F92EE701F8
:10170000209719F48FE792E064C0C8010E94DF0CB3
:101710008130910509F043C0C8010E94EE0C882376
:1017200019F08130C9F51BC08AE99EE0282F9B8300
:101730008A8381E088838EE190E0682F9F838E8387
:101740001986188601E019813B814C815D817F817A
:1017500080E099850E94A20985EE92E02AC04DE8BA
:101760005EE0242F5B834A8388838EE190E0682FBC
:101770009F838E831986188601E019813B814C81F5
:101780005D817F8180E099850E94A20983E093E0DA
:101790000E94580D81E020C080E293E01AC0C80189
:1017A0000E94EE0C882319F0873069F406C08EE39E
:1017B00093E00E94580D80E00FC08EE593E00E94F8
:1017C000580D87E009C08FE793E00E94580D8CEA1E
:1017D00093E00E94580D8FEFDF91CF911F910F91F1
:1017E000FF90EF900895EF92FF920F931F93CF9386
:1017F000DF938C018AE090E00E942E26E82EE7011C
:101800007E01F92EE701209719F48FE792E081C05D
:10181000C8010E94DF0C8130910509F04EC0C8015B
:101820000E94EE0C882321F0813009F043C021C0D2
:101830008BED9DE0282F9B838A8381E088838EE156
:1018400090E0682F9F838E831986188601E01981A6
:101850003B814C815D817F8180E099850E94A20956
:101860008BEC93E00E94580D0E94230E0E94460DBF
:101870003CC045E95DE0242F5B834A8388838EE189
:1018800090E0682F9F838E831986188601E0198166
:101890003B814C815D817F8180E099850E94A20916
:1018A00086EF93E00E94580D0E94230E0E94460D81
:1018B00081E032C081E294E02CC0C8010E94EE0CAD
:1018C000882319F08730F9F412C080E090E00E947C
:1018D000800D0E948D0E0E948D0E80E090E00E948F
:1018E0002F108EE394E00E94580D80E015C088E729
:1018F00090E00E94800D0E94820E8DE594E00E948F
:10190000580D87E009C08DE794E00E94580D89EAE0
:1019100094E00E94580D8FEFDF91CF911F910F91AE
:10192000FF90EF900895CF93DF93EC010E94010D9B
:101930008F3FD1F0813051F0813018F0823081F446
:101940000AC0CE010E94F30B80E00FC0CE010E94BE
:10195000700B81E00AC0CE010E940C0B82E005C032
:1019600088EC94E00E94580D8FEFDF91CF9108959D
:10197000CF93DF93EC010E942A0D88838E3F18F4E9
:10198000CE010E94930C8881DF91CF9108950F932F
:101990001F93DF93CF930F92CDB7DEB78FEF89837D
:1019A0008E010F5F1F4FC8010E94B80C89818F3FC5
:1019B000D1F70F90CF91DF911F910F910895FC0106
:1019C000808190E08870907023E0959587952A95A6
:1019D000E1F70895FC01808187700895FC01808102
:1019E00087700895FC01808182958F7090E0863029
:1019F000910528F48B5A984FFC01808108958FEF50
:101A000008950E94F20C0895FC018081803110F04D
:101A10008FEF08958065089587E39BE040E855E2E5
:101A200060E070E00E94E52386E59BE040E855E237
:101A300060E070E00E94E52389E060E00E94E60833
:101A40000895FC0187E39BE060814AE050E00E943A
:101A5000201D0895DF93CF930F92CDB7DEB786E5B3
:101A60009BE00E945121181619065CF486E59BE064
:101A70000E9480218983CE0101960E94210D8981D7
:101A800001C08FEF0F90CF91DF910895BC0187E3E4
:101A90009BE04AE050E00E94631D0895FC016081D4
:101AA000718186E59BE04AE050E00E94631D089545
:101AB000EF92FF92CF93DF93E82EE7017E01F92E9C
:101AC000E70104C087E39BE00E94AF1C6991662395
:101AD000C9F787E39BE065EF74E00E94AC1CDF91DF
:101AE000CF91FF90EF90089587EF94E00E94580DFA
:101AF00008950E94280E0E944B0E80E090E0089509
:101B0000EF92FF92CF93DF93EC018937910528F094
:101B10000E94740ECFEFDFEF02C00E945C0ECE0178
:101B2000DF91CF91FF90EF900895EF92FF92CF93C6
:101B3000DF930E94570EEC018091870790918807F0
:101B400001979093880780938707009759F480E066
:101B500090E00E94800D87E061E00E940A09C0E0E9
:101B6000D0E023C0181619064CF4C630D105DCF0BD
:101B700087E061E00E940A09269711C0C837D105A5
:101B80006CF088E790E00E945C0E8CEE9FEF9093E3
:101B9000880780938707C8E7D0E007C02696CE0164
:101BA0000E945C0E02C0CFEFDFEFCE01DF91CF913C
:101BB000FF90EF900895EF92FF92CF93DF930E94F2
:101BC000570EEC01809187079091880701969093BA
:101BD000880780938707009759F480E090E00E947F
:101BE000800D87E060E00E940A09C0E0D0E025C0D7
:101BF00018161906DCF4C837D10594F088E790E090
:101C00000E945C0E8091870790918807181619062C
:101C100094F484E190E090938807809387070BC049
:101C200087E060E00E940A09269601C02697CE014F
:101C30000E945C0E02C0C8E7D0E0CE01DF91CF91D8
:101C4000FF90EF90089580918707909188070895FD
:101C500087E061E00E94E60880E090E008958091CE
:101C60008907813029F0813018F0823089F404C06E
:101C70008BE064E670E00AC060918A0770918B0780
:101C80006A3771052CF46C577F4F8BE00E94961BCE
:101C90008091890708958BE061E00E94E60881E069
:101CA000809389070E942F0E80E090E00895809134
:101CB0008A0790918B0708958B37910510F081E08A
:101CC0000EC0009739F410928B0710928A07109279
:101CD000890707C090938B0780938A0782E08093DF
:101CE00089070E942F0E0895109289070E942F0ED7
:101CF00008958AE090E067E070E00E94650F80E060
:101D000090E008958FEB9EE06AE070E047E050E0DD
:101D10000E94A70E80E090E008958BE29FE06AE0C9
:101D200070E047E050E02AE030E00E94AE0E80E034
:101D300090E0089588E49FE06AE070E047E050E0BA
:101D40002AE030E00E94AE0E80E090E00895FC01B1
:101D5000CB01BA01199580E090E00895FC01CB0118
:101D6000BA01A901199580E090E0089540918C078F
:101D700050918D070E948B0F80E090E00895CF93E3
:101D8000DF93EB012EEF30E030938D0720938C072B
:101D90004EEF50E00E94B60ECE010E94031080E08C
:101DA00090E0DF91CF910895CF93DF93EB012BE982
:101DB00030E030938D0720938C074BE950E00E9470
:101DC000B60ECE010E94F80F80E090E0DF91CF9137
:101DD000089524E630E030938D0720938C0744E685
:101DE00050E00E94B60E68EE73E080E090E00E9442
:101DF000DF0780E090E00895CF93DF93EB0120911F
:101E00008C0730918D072436310514F40E94E90EB9
:101E1000CE010E94ED0F80E090E0DF91CF91089518
:101E20000F931F93CF93DF93EC018B0150938D079A
:101E300040938C070E94990F40918C0750918D0719
:101E4000CE01B8010E94B60E80E090E0DF91CF9104
:101E50001F910F9108950F931F93CF93DF93EC0180
:101E60008B019A0140918C0750918D070E94D90FE8
:101E7000AC0190938D0780938C07CE01B8010E942E
:101E8000100F80E090E0DF91CF911F910F910895A6
:101E90000F931F93CF93DF93EC018B019A01409135
:101EA0008C0750918D070E94BB0FAC0190938D075A
:101EB00080938C07CE01B8010E94100F80E090E063
:101EC000DF91CF911F910F9108950F931F93DF938F
:101ED000CF930F920F92CDB7DEB7182F092FAB011A
:101EE000862F61E049835A830E94E608812F61E0D2
:101EF0000E94E6088CEF9EE0612F702F49815A8185
:101F00000E94A70E80E090E00F900F90CF91DF919C
:101F10001F910F910895CF93DF93EB01BA010E94B7
:101F2000961BCE010E940E1080E090E0DF91CF91D1
:101F300008950F931F93CF93DF938C01EB014B39DF
:101F4000510544F4CB010E941910C801BE010E9442
:101F5000D40E0AC04F3F51053CF0CB010E94241023
:101F6000C801BE010E94BF0E80E090E0DF91CF91DA
:101F70001F910F910895EF92FF920F931F93CF93AC
:101F8000DF937C018B01EA014F3F510544F0CB0107
:101F90000E942410C701B8010E94BF0E02C0C20FE8
:101FA000D31FCE01DF91CF911F910F91FF90EF9042
:101FB0000895EF92FF92CF93DF93CB01EA014B3963
:101FC00051051CF40E94191002C0C21BD30BCE0194
:101FD000DF91CF91FF90EF9008950F931F938C01A5
:101FE0008EE095E00E947A27C8011F910F91089515
:101FF0000F931F938C018AE395E00E947A27C80112
:102000001F910F9108950F931F938C0182E595E026
:102010000E947A27C8011F910F9108950F931F9373
:102020008C0189E695E00E947A27C8011F910F91E3
:1020300008950F931F938C018EE795E00E947A27F5
:10204000C8011F910F9108950F931F938C018EE883
:1020500095E00E947A27C8011F910F9108950F9370
:102060001F93CF93DF938C010E944210EC01B801C3
:102070000E944811CE010E944710DF91CF911F911D
:102080000F91089581E090E00E94392508950E9403
:102090003C2508950F931F93CF93DF93CEE8D7E0AD
:1020A000CE0162E070E00E94311801E917E0C8013A
:1020B00063E070E00E943118CE016FE570E00E948D
:1020C0006C18C8016EE670E00E946C1880E090E029
:1020D000DF91CF911F910F9108958EE897E06EE107
:1020E00070E00E946C1881E997E06DE270E00E9458
:1020F0006C1882E090E008958EE897E066E970E061
:102100000E946C1881E997E065EA70E00E946C1803
:1021100083E090E00895CF93DF93CEE8D7E0CE013F
:102120000E94EF18BC01CE010E946C18C1E9D7E0F3
:10213000CE010E94EF18BC01CE010E946C1884E011
:1021400090E0DF91CF9108958EE897E06FE570E021
:102150000E946C1881E997E06EE670E00E946C18AE
:1021600085E090E008958EE897E064EB70E00E94CF
:102170006C1881E997E06FE070E00E946C1886E0CF
:1021800090E008950F931F93CF93DF938EE897E02D
:102190000E94EF188C01EC012F96863991057CF492
:1021A0008EE897E0BE010E946C18B801625E7F4F16
:1021B00081E997E00E946C1827E030E00CC08EE8BF
:1021C00097E0B8010E946C1881E997E0BE010E9477
:1021D0006C1828E030E0C901DF91CF911F910F9179
:1021E0000895CF93DF938EE897E00E94EF18EC01FB
:1021F0008F3191057CF0BC016F5070408EE897E004
:102200000E946C1881E997E0BE010E946C1829E0D9
:1022100030E00CC08EE897E0BE010E946C1881E9A6
:1022200097E0BE010E946C182AE030E0C901DF91FE
:10223000CF91089562307105D1F0633071053CF49F
:102240006115710571F061307105E9F40DC06430FC
:10225000710599F0643071056CF06530710599F481
:102260000FC00E94A41011C00E947C100EC00E94DA
:102270006D100BC00E94F11008C00E94C21005C072
:102280000E94B31002C00E948B108BE090E0089572
:102290000F931F93CF93DF938C01EB010E944A10A1
:1022A000C801BE010E941A11DF91CF911F910F91B9
:1022B00008958EE897E00E94671781E997E00E94F1
:1022C00067170895EF92FF92CF93DF938CE090E031
:1022D0000E942E26E82EE7017E01F92EE7012097C5
:1022E000A9F00E94F3110E948A12688779878A8771
:1022F0009B8780E090E0DC0188839983AA83BB837D
:102300000E94AB076C837D838E839F83CE01DF9118
:10231000CF91FF90EF9008952F923F924F925F924E
:102320006F927F928F929F92AF92BF92CF92DF92E5
:10233000EF92FF920F931F93CF93DF93EC010E94D4
:10234000AB073B014C018C819D81AE81BF81840133
:102350007301E81AF90A0A0B1B0B288039804A809E
:102360005B80688579858A859B850E9443125B0125
:102370006C01C801B7010E943B059B01AC01C6017D
:10238000B5010E94E10220E030E04AE754E40E94F7
:10239000DB039B01AC01C201B1010E94830268838F
:1023A00079838A839B836C827D828E829F82DF9178
:1023B000CF911F910F91FF90EF90DF90CF90BF9042
:1023C000AF909F908F907F906F905F904F903F90D5
:1023D0002F900895FC0160817181828193810E9418
:1023E000E904CB010895CF93DF93C0EED7E0CE018F
:1023F0000E949A15CE0160E470E00E94BF15CE01E4
:1024000060E10E946A15CE0166EB0E946A15CE015A
:102410000E94C2156AE070E080E090E00E94DF0751
:10242000CE0160E470E00E94BF15CE016DE00E9415
:102430006A15CE0160E10E946A15CE010E94C215A4
:10244000CE0160E470E00E94BF15CE0160E20E9400
:102450006A15CE0160E70E946A15CE010E94C2157E
:10246000CE0160E470E00E94BF15CE0165E30E94DA
:102470006A15CE0164E00E946A15CE010E94C21561
:10248000DF91CF910895CF92DF92EF92FF920F9359
:102490001F93CF93DF936B017C01C0EED7E0CE0199
:1024A00060E470E00E94BF15CE0162E00E946A15F0
:1024B000CE010E94C215CE0160E470E042E050E01F
:1024C0000E94B215CE010E9413158C01CE010E940C
:1024D0001315782F60E0602B712B759567957595B6
:1024E0006795882777FD8095982F0E9489042EE2B2
:1024F00030E940E25BE30E94E102A70196010E94FD
:102500008302DF91CF911F910F91FF90EF90DF90A9
:10251000CF900895EF92FF920F931F93CF93DF9385
:10252000C0E9D1E0EE24FF2400E010E060E070E0BC
:10253000CB010E9443129B01AC016E2D7F2D802F99
:10254000912F0E9483027B018C0181E792E00E941F
:102550000608219759F76E2D7F2D802F912F20E0AF
:1025600030E048EC53EC0E94DB03DF91CF911F91E8
:102570000F91FF90EF9008950E942B130E949E14DC
:1025800080E090E008958730910560F18E309105EC
:102590005CF18431910554F18B3191054CF182321B
:1025A000910544F1883291053CF18F32910534F167
:1025B000853391052CF18C33910524F183349105F9
:1025C0001CF18934910514F1803591050CF18635A3
:1025D000910504F18D359105FCF085369105F4F4F3
:1025E0008EE0089580E0089581E0089582E00895E6
:1025F00083E0089584E0089585E0089586E00895D5
:1026000087E0089588E0089589E008958AE00895B4
:102610008BE008958CE008958DE0089580E00895A2
:102620000F931F93CF93DF93EC010E948214182F16
:10263000092FC130D10531F40E94FD14812F902F54
:102640000E944C13812F902F0E94C312DF91CF91D3
:102650001F910F91089582E061E00E94E60884E0F6
:1026600061E00E94E60887E061E00E94E60888E0F9
:1026700061E00E94E60882E061E00E940A0984E0CD
:1026800061E00E940A0987E061E00E940A0988E08F
:1026900061E00E940A090895EF92FF920F931F9341
:1026A000CF93DF93EC010E94AB079E012155304090
:1026B0002431310518F482E061E008C09E012D53F9
:1026C00030402431310538F482E060E00E940A098C
:1026D00084E061E00CC09E01295230402431310574
:1026E00058F482E060E00E940A0984E060E00E9401
:1026F0000A0987E061E010C09E0125513040243175
:10270000310578F482E060E00E940A0984E060E02C
:102710000E940A0987E060E00E940A0988E061E0FF
:102720005BC09E01215030402431310508F044C087
:1027300020919607309197074091980750919907FB
:102740007B018C01E21AF30A040B150BA801970117
:10275000253F01E0300700E0400700E05007F0F1BE
:1027600060939607709397078093980790939907C3
:102770008091940790919507009739F481E090E05B
:10278000909395078093940704C010929507109238
:10279000940782E0609194070E940A0984E06091A6
:1027A00094070E940A0987E0609194070E940A0931
:1027B00088E06091940710C0209781F482E060E087
:1027C0000E940A0984E060E00E940A0987E060E054
:1027D0000E940A0988E060E00E940A09DF91CF9117
:1027E0001F910F91FF90EF90089581E00E94631B6D
:1027F00023E08B34920724F181E00E94631B6FEF8A
:1028000073E0681B790B882777FD8095982F0E94CD
:10281000890420E030E044E353E40E94DB0320E03D
:1028200030E048EC52E40E94E1029B01AC0160E020
:1028300070E088EC92E40E94B0020E94E90402C0B9
:1028400060E070E0CB01089582E00E94631B23E00A
:102850008B34920724F182E00E94631B6FEF73E0D8
:10286000681B790B882777FD8095982F0E94890433
:1028700020E030E044E353E40E94DB0320E030E05A
:1028800048EC52E40E94E1029B01AC0160E070E080
:1028900088EC92E40E94B0020E94E90402C060E069
:1028A00070E0CB01089583E00E94631B23E08B342A
:1028B000920724F183E00E94631B6FEF73E0681BB3
:1028C000790B882777FD8095982F0E94890420E056
:1028D00030E044E353E40E94DB0320E030E048ECC6
:1028E00052E40E94E1029B01AC0160E070E088ECE0
:1028F00092E40E94B0020E94E90402C060E070E02D
:10290000CB0108958130910519F40E94F5130895C3
:102910008230910519F40E942414089583309105A2
:1029200019F40E945314089508958BE061E00E9409
:10293000E6081092B60B1092B50B08950E949514FC
:1029400008958530910561F08035910591F48BE013
:1029500090E064E971E10E94001520E030E00AC0D7
:102960008BE090E068E873E10E9400152FEF3FEFE5
:1029700001C00895C90108951F93182F00D00F9228
:102980002AE236E0EDB7FEB7328321832091B50B02
:102990003091B60B348323830E9468270F900F90E9
:1029A0000F900F901035B9F48091B50B9091B60B44
:1029B00084319105CCF480E590E00E94A1148091CF
:1029C000B50B9091B60B01969093B60B8093B50B17
:1029D00021E030E00FC0163038F485E090E00E942E
:1029E000A11420E030E006C08BE090E00E940715C3
:1029F0002FEF3FEFC9011F9108950E94BC14089565
:102A000022E030E040E050E00E946D1D08950E94F9
:102A1000922008952091BB0730E08091BA07281BCF
:102A20003109C90108958091BA079091BB078917B0
:102A300050F4E82FF0E0E656F84F208130E08F5F49
:102A40008093BA0702C02FEF3FEFC9010895E091CC
:102A5000BA078091BB07E81730F4F0E0E656F84F6C
:102A6000208130E002C02FEF3FEFC90108950895A3
:102A7000CF92DF92EF92FF920F931F93CF93DF934A
:102A80006C01CB01EA012091DF072223B1F0E62E91
:102A9000F92E00E010E00DC0D7016D917D01D60147
:102AA000ED91FC910190F081E02DC60119950F5F29
:102AB0001F4F0C171D0780F303C0642F0E94D71906
:102AC000CE01DF91CF911F910F91FF90EF90DF909A
:102AD000CF900895DF93CF930F92CDB7DEB7698380
:102AE0002091DF072223D1F02091DE07203240F031
:102AF00021E030E0FC013383228320E030E015C088
:102B00008091DD07E82FF0E0E354F84F998190833E
:102B10008F5F8093DD078093DE0705C0CE010196AD
:102B200061E00E94D71921E030E0C9010F90CF91F8
:102B3000DF9108951092BA071092BB071092DD073B
:102B40001092DE070E9448190895862F413208F03E
:102B500040E26AE977E00E9461191092BA07809317
:102B6000BB0708950E94A515089581E08093DF07B3
:102B70006093BC071092DD071092DE0708950E9453
:102B8000B51508958091BC076DEB77E04091DE07A5
:102B900021E00E9497191092DD071092DE07109233
:102BA000DF0708951092E3071092E20788EE93E0A2
:102BB000A0E0B0E08093E4079093E507A093E607D8
:102BC000B093E7078FE597E09093E1078093E007E4
:102BD0000895EF92FF920F931F93CF93DF93EB0132
:102BE0007A018C01DC01A358B74F8C9187FF03C099
:102BF0001982188237C0C801880F991F800F911F52
:102C0000880F991F880F991F2C91332727FD309526
:102C1000280F391F4091EC0750E02417350714F5B1
:102C20002C91332727FD3095280F391FF901EE0F1E
:102C3000FF1FE20FF31FE351F84F208126FF12C060
:102C40002C91332727FD3095280F391FF901EE0FFE
:102C5000FF1FE20FF31FE351F84F80818F7360E095
:102C60000E940A09F801E358F74F80818F5F808343
:102C7000C801880F991F800F911F880F991F880F17
:102C8000991F2081332727FD3095280F391F409148
:102C9000EC0750E0241735070CF053C020812C308E
:102CA0000CF04FC0488159812081332727FD309592
:102CB000280F391FD901AA0FBB1FA20FB31FA351A1
:102CC000B84F11962D913C911297420F531FD70187
:102CD00011965C934E932081332727FD3095280F62
:102CE000391FD901AA0FBB1FA20FB31FA351B84FA1
:102CF0002C9126FF2DC02081332727FD3095280FEA
:102D0000391FF901EE0FFF1FE20FF31FE351F84FD8
:102D100080818F7361E00E940A091AC080E49CE9F7
:102D2000F7019183808307C0888199810496D70138
:102D300011969C938E93F801E358F74F8FEF8083A1
:102D400007C088819981BCE984349B0738F3ECCFB4
:102D5000DF91CF911F910F91FF90EF9008951F92F7
:102D60000F920FB60F920BB60F9211242F933F9331
:102D70004F935F936F937F938F939F93AF93BF9383
:102D8000EF93FF9381E090E064E870E048E850E062
:102D90000E94E915FF91EF91BF91AF919F918F91A3
:102DA0007F916F915F914F913F912F910F900BBE4B
:102DB0000F900FBE0F901F9018951F920F920FB695
:102DC0000F920BB60F9211242F933F934F935F9363
:102DD0006F937F938F939F93AF93BF93EF93FF93E3
:102DE00082E090E064E970E048E950E00E94E91573
:102DF000FF91EF91BF91AF919F918F917F916F91D3
:102E00005F914F913F912F910F900BBE0F900FBE8E
:102E10000F901F9018951F920F920FB60F920BB63E
:102E20000F9211242F933F934F935F936F937F9350
:102E30008F939F93AF93BF93EF93FF9383E090E0C3
:102E400064EA70E048EA50E00E94E915FF91EF91D2
:102E5000BF91AF919F918F917F916F915F914F91B2
:102E60003F912F910F900BBE0F900FBE0F901F90B0
:102E700018951F920F920FB60F920BB60F92112456
:102E80002F933F934F935F936F937F938F939F9372
:102E9000AF93BF93EF93FF9380E090E064E271E023
:102EA00048E251E00E94E915FF91EF91BF91AF9187
:102EB0009F918F917F916F915F914F913F912F9152
:102EC0000F900BBE0F900FBE0F901F901895FC0136
:102ED0008091EC07803390F480838F5F8093EC07C0
:102EE000808190E0FC01EE0FFF1FE80FF91FE35116
:102EF000F84F88EB9BE09283818308958FEF808366
:102F00000895DF92EF92FF920F931F93CF93DF9379
:102F1000EC01D62E8A0179018881803308F093C0B4
:102F2000862F61E00E94E6084881842F90E0FC0132
:102F3000EE0FFF1FE80FF91FE351F84F9D2D9F7310
:102F40008081807C892B808380E292E0801B910BC2
:102F500024E030E0B9010E946A25698380E699E0A7
:102F60008E199F09B9010E946A256A83842F6CE03B
:102F70000E945E2590E09C01220F331F280F391F0D
:102F8000220F331F220F331F40E050E0BA01620FBF
:102F9000731FFB01EE0FFF1FE60FF71FE351F84F02
:102FA000608166FD44C04F5F5F4F4C30510571F743
:102FB00053C01092800082E08093810010928500BF
:102FC00010928400B19A80916F00826080936F00AC
:102FD0002EC08230910569F41092900082E08093B7
:102FE0009100109295001092940088BB809371001C
:102FF0001EC08330910569F41092A00082E0809396
:10300000A1001092A5001092A40089BB80937200C9
:103010000EC0009761F41092200182E0809321019C
:1030200010922501109224018ABB8093730088813D
:1030300090E0FC01EE0FFF1FE80FF91FE351F84F7E
:103040008081806480838881DF91CF911F910F916F
:10305000FF90EF90DF9008958130910509F0B9CF8E
:10306000A8CF40E252E020E639E00E94811708959F
:10307000FC012081203378F54181552747FD50958B
:1030800088E890E0841B950B880F991F880F991F83
:103090006817790784F04281552747FD509588E5E8
:1030A00092E0841B950B880F991F880F991F681752
:1030B00079070CF4CB014FB7F89430E0F901EE0F2B
:1030C000FF1FE20FF31FE351F84F0297880F991F7C
:1030D000928381834FBF0895AF92BF92CF92DF92C8
:1030E000EF92FF920F931F93CF93DF93EC0182E057
:1030F000603278070CF046C077FD04C0653B71056F
:1031000024F405C060E070E002C064EB70E000D021
:103110000F92882777FD8095982F4981552747FD85
:10312000509528E830E0241B350B220F331F220F67
:10313000331F5901CC24B7FCC094DC2C4A8155279D
:1031400047FD509528E532E0241B350B220F331F35
:10315000220F331F442737FD4095542FEDB7FEB79C
:10316000218332834383548320E030E0A901B4EB10
:10317000EB2EF12C012D112D0E9408210F900F90A4
:103180000F900F90CE010E943818DF91CF911F91C0
:103190000F91FF90EF90DF90CF90BF90AF90089588
:1031A000FC0180818F3FB9F090E0FC01EE0FFF1F22
:1031B000E80FF91FE351F84F2181328193E0220F8C
:1031C000331F9A95E1F784E0369527958A95E1F7C4
:1031D0002E5F3F4F02C020E030E0C9010895AF925A
:1031E000BF92CF92DF92EF92FF920F931F93CF93F4
:1031F000DF93EC010E94D01800D00F92BC016F5FEA
:103200007F4F882777FD8095982F4981552747FD67
:10321000509528E830E0241B350B220F331F220F76
:10322000331F442737FD4095542FAA81BB27A7FDA4
:10323000B095E8E5F2E0EA1BFB0BEE0FFF1FEE0F87
:10324000FF1F5F01CC24B7FCC094DC2CE4EBEE2E16
:10325000F12C012D112DEDB7FEB7E182F28203832F
:10326000148386017501AA24BB2465010E940821EC
:103270000F900F900F900F90CB01DF91CF911F9186
:103280000F91FF90EF90DF90CF90BF90AF90089597
:103290001092A50884E161E00E940A0985E161E0DD
:1032A0000E940A09E9EBF0E080818E7F80838081B3
:1032B0008D7F808388E48093B80085E48093BC0090
:1032C0000895413288F59091A5089923E1F791E09E
:1032D0009093A5089FEF9093A40810928208942FD2
:1032E000915090938308880F81608093810885EEC8
:1032F0008093BC008091A5088130E1F38091820821
:10330000841710F440918208E4E8F8E0262F372F64
:10331000D901242F30E02E0F3F1F02C081918D93E1
:10332000E217F307D9F701C040E0842F0895413236
:10333000B0F59091A5089923E1F792E09093A50844
:103340009FEF9093A4081092820840938308DB01BA
:10335000E4E8F8E050E04E0F5F1F02C09D919193AA
:10336000E417F507D9F790E0880F991F809381083B
:1033700085EE8093BC00222321F08091A508823045
:10338000E1F38091A4088F3F61F08091A40880321E
:1033900051F08091A408803341F483E0089581E0E6
:1033A000089580E0089582E0089584E008956132F0
:1033B000A0F42091A508243091F46093CA08DC01A0
:1033C000EDECF8E070E06E0F7F1F02C08D918193ED
:1033D000E617F707D9F780E0089581E0089582E0C5
:1033E0000895882311F085EC01C085E88093BC0026
:1033F000089585ED8093BC008091BC0084FDFCCFD6
:103400001092A508089585EC8093BC001092A50841
:1034100008951F920F920FB60F920BB60F921124C0
:103420002F933F934F935F936F937F938F939F93CC
:10343000AF93BF93EF93FF938091B90090E0887FA3
:1034400090708036910509F4C2C081369105E4F58B
:103450008832910509F47EC089329105C4F4803127
:10346000910509F472C08131910544F4009709F483
:1034700013C18830910509F013C167C088319105E7
:1034800009F468C08032910509F00AC178C080341F
:10349000910509F48AC0813491054CF4803391057B
:1034A00009F46FC08833910509F0FAC06EC0803509
:1034B000910509F46EC08835910509F47BC0883404
:1034C000910509F0EDC0EAC08839910509F4DAC028
:1034D00089399105ECF48837910509F478C089376A
:1034E00091054CF48836910509F471C08037910537
:1034F00009F0D6C06CC08838910509F4C3C0803982
:10350000910509F46AC08038910509F0C9C065C009
:10351000803B910509F48EC0813B91054CF4803AC3
:10352000910509F46CC0883A910509F0B9C082C0D0
:10353000803C910509F4AAC0883C910509F4A6C015
:10354000883B910509F0ACC08AC0809181088093C6
:10355000BB0013C09091820880918308981708F0EF
:103560009DC080918208E82FF0E0EC57F74F9081E2
:103570009093BB008F5F8093820881E084C080E2DB
:1035800001C080E38093A40889C088E38093A408E5
:103590004EC0809182089091BB00E82FF0E0EC577C
:1035A000F74F90838F5F809382089091820880917B
:1035B000830865C0809182089091BB00E82FF0E0FD
:1035C000EC57F74F90838F5F8093820867C083E04A
:1035D0008093A5081092A608D0CF8091A6088032CB
:1035E00008F050C08091A6089091BB00E82FF0E051
:1035F000E955F74F90838F5F8093A608BECF8091E7
:10360000A608803230F4E091A608F0E0E955F74FC3
:1036100010820E94F9196091A608E091C708F09104
:10362000C80887EA98E070E019951092A6080E94F1
:10363000031A36C084E08093A5081092C90810923E
:10364000CA08E091CB08F091CC0819958091CA087E
:10365000882329F481E08093CA081092CD088091D4
:10366000C908E82FF0E0E353F74F90819093BB0037
:103670008F5F8093C9089091C9088091CA089817F4
:1036800008F47BCF80E00E94F1190AC081E00E941B
:10369000F1191092A50804C01092A4080E94F9190B
:1036A000FF91EF91BF91AF919F918F917F916F911A
:1036B0005F914F913F912F910F900BBE0F900FBED6
:1036C0000F901F901895863308F0865390917B00D9
:1036D000282F26952695269530E02170307043E0FE
:1036E000220F331F4A95E1F7977F922B90937B002F
:1036F0008770909153079295990F990F907C982B12
:1037000090937C0080917A00806480937A0080910D
:103710007A0086FDFCCF2091780030917900932FBC
:1037200080E030E0282B392BC90108951F93CF93F7
:10373000DF93182FEB0161E00E94E608209709F45F
:10374000C5C0CF3FD10509F4C4C0E12FF0E0E25479
:10375000FE4FE491E93009F466C0EA30B0F4E43099
:10376000F1F1E53040F4E23059F1E33070F5E13049
:1037700009F0A9C020C0E73009F443C0E83008F0E0
:1037800048C0E63009F09FC034C0ED3009F473C082
:10379000EE3038F4EB3009F45AC0EC3008F061C078
:1037A0004CC0E03109F47BC0E13109F482C0EF3054
:1037B00009F089C06AC084B5806884BDC7BD8DC06A
:1037C00084B5806284BDC8BD88C080918000806857
:1037D00080938000D0938900C09388007EC0809140
:1037E0008000806280938000D0938B00C0938A0019
:1037F00074C08091B00080688093B000C093B30023
:103800006CC08091B00080628093B000C093B4001F
:1038100064C080919000806880939000D09399005C
:10382000C09398005AC0809190008062809390006D
:10383000D0939B00C0939A0050C080919000886004
:1038400080939000D0939D00C0939C0046C08091CF
:10385000A00080688093A000D093A900C093A80026
:103860003CC08091A00080628093A000D093AB0008
:10387000C093AA0032C08091A00088608093A0000D
:10388000D093AD00C093AC0028C080912001806827
:1038900080932001D0932901C09328011EC08091FC
:1038A0002001806280932001D0932B01C0932A01D4
:1038B00014C080912001886080932001D0932D0155
:1038C000C0932C010AC0C038D1051CF4812F60E0E0
:1038D00002C0812F61E00E940A09DF91CF911F9100
:1038E0000895CF92DF92EF92FF920F931F93CF93A1
:1038F000DF936C017B018A01C0E0D0E00FC0D701EB
:103900006D917D01D601ED91FC910190F081E02D4A
:10391000C6011995C80FD91F015010400115110596
:1039200071F7CE01DF91CF911F910F91FF90EF9032
:10393000DF90CF900895DB010D900020E9F7AD01F5
:1039400041505040461B570BDC01ED91FC91028029
:10395000F381E02D199508950E949B1C0895DC01C8
:10396000ED91FC910190F081E02D199508958F92D1
:103970009F92AF92BF92CF92DF92EF92FF920F93FE
:103980001F93DF93CF93CDB7DEB7A1970FB6F8940F
:10399000DEBF0FBECDBF6C01042FE52FCB01122F70
:1039A00019A2223008F41AE021E2E22EF12CEC0EEA
:1039B000FD1E812E9924AA24BB2403C0022FE32FCD
:1039C000CA01602F7E2FA50194010E947D25129FC0
:1039D000802D1124081B0894E108F1080A3014F422
:1039E000005D01C0095CF701008321153105410527
:1039F000510521F7C601B7010E949B1CA1960FB685
:103A0000F894DEBF0FBECDBFCF91DF911F910F9114
:103A1000FF90EF90DF90CF90BF90AF909F908F90EE
:103A200008952115310549F4DC01ED91FC910190D7
:103A3000F081E02D642F199508950E94B71C089518
:103A40009A01462F50E060E070E00E94111D089539
:103A5000CF92DF92EF92FF920F931F93CF93DF935A
:103A6000EC017A018B012115310541F4E881F981DE
:103A70000190F081E02D642F19951AC02A3031058C
:103A8000A9F477FF12C06DE20E94AF1C6C014427BD
:103A90005527BA014E195F09600B710BCE012AE060
:103AA0000E94B71CC80ED91E04C02AE00E94B71C91
:103AB0006C01C601DF91CF911F910F91FF90EF90A4
:103AC000DF90CF9008959A01FB01AF01662757FD63
:103AD0006095762F0E94281D08953F924F925F9225
:103AE0006F927F928F929F92AF92BF92CF92DF920E
:103AF000EF92FF920F931F93DF93CF9300D00F921B
:103B0000CDB7DEB74B0129833A834B835C83909119
:103B10005407981721F09F3F09F0BBC204C0E4E0AE
:103B2000F2E03490FDC080935407E4E0F2E034907A
:103B3000932D9F3F09F4ADC2923009F459C09330E0
:103B400034F4332079F0913009F0EAC02BC0A32D72
:103B5000A43009F499C0A4300CF470C0A53009F069
:103B6000DFC0B8C014BC15BC94B5926094BD95B5C7
:103B7000916095BD282F30E0F901EE5CFE4FE49195
:103B8000F0E0EE0FFF1FE250FF4F4591549140933C
:103B9000F1085093F20828583E4FF90124912093E0
:103BA000F308C0C0109280001092810090918100B3
:103BB0009860909381009091810091609093810032
:103BC000282F30E0F901EE5CFE4FE491F0E0EE0FBB
:103BD000FF1FE250FF4F459154914093F8085093D6
:103BE000F90828583E4FF90124912093FA089AC009
:103BF0001092B0001092B1009091B000926090933A
:103C0000B0009091B10091609093B100282F30E006
:103C1000F901EE5CFE4FE491F0E0EE0FFF1FE25081
:103C2000FF4F459154914093FF0850930009285845
:103C30003E4FF90124912093010974C01092900025
:103C400010929100909191009860909391009091C2
:103C50009100916090939100282F30E0F901EE5C83
:103C6000FE4FE491F0E0EE0FFF1FE250FF4F459151
:103C70005491409306095093070928583E4FF90183
:103C80002491209308094EC01092A0001092A10028
:103C90009091A10098609093A1009091A1009160F3
:103CA0009093A100282F30E0F901EE5CFE4FE491E3
:103CB000F0E0EE0FFF1FE250FF4F4591549140930B
:103CC0000D0950930E0928583E4FF9012491209375
:103CD0000F0928C01092200110922101909121011A
:103CE000986090932101909121019160909321011E
:103CF000282F30E0F901EE5CFE4FE491F0E0EE0F8A
:103D0000FF1FE250FF4F4591549140931409509387
:103D1000150928583E4FF90124912093160902C035
:103D200037FCB7C161E00E94E608332021F0F32D93
:103D3000F23009F0C1C05401CC24DD2460E072E10E
:103D40008AE790E0A60195010E949F2529013A018A
:103D500079018A010894E108F108010911098FEF3E
:103D6000E816F1040105110509F008F498C060E4B3
:103D700072E48FE090E0A60195010E949F257901F1
:103D80008A010894E108F10801091109932D923084
:103D9000C9F4AFEFEA16F1040105110509F008F4C2
:103DA00085C060E970ED83E090E0A60195010E9476
:103DB0009F2579018A010894E108F1080109110998
:103DC00083E001C082E0BFEFEB16F10401051105AD
:103DD00009F008F465C068E478EE81E090E0A6019F
:103DE00095010E949F2579018A010894E108F10854
:103DF000010911093320E1F0E32DE230D9F4FFEF9E
:103E0000EF16F1040105110509F008F451C064E250
:103E100074EF80E090E0A60195010E949F25790152
:103E20008A010894E108F1080109110985E003C03D
:103E300083E001C084E09FEFE916F104010511055C
:103E400079F170F162E17AE780E090E0A6019501F6
:103E50000E949F2579018A010894E108F10801096F
:103E60001109332011F484E001C086E0AFEFEA16B7
:103E7000F10401051105A1F098F0830172019AE0A7
:103E800015950795F794E7949A95D1F70894E1086A
:103E9000F10801091109332031F087E00AC081E0FF
:103EA000332011F006C085E085BD5AC082E001C014
:103EB00084E08093B10054C05401CC24DD2460E040
:103EC00072E18AE790E0A60195010E949F257901A1
:103ED0008A010894E108F10801091109B0E0EB1624
:103EE000B0E0FB06B1E00B07B0E01B0788F068E428
:103EF00078EE81E090E0A60195010E949F2579016E
:103F00008A010894E108F1080109110993E001C050
:103F100091E0E32DE13039F480918100887F892B95
:103F2000809381001DC0F32DF33039F4809191000E
:103F3000887F892B8093910013C0832D843039F4BE
:103F40008091A100887F892B8093A10009C0A32DB7
:103F5000A53031F480912101887F892B8093210144
:103F600089819A81AB81BC810097A105B10591F04F
:103F7000880C991CB40180E090E029813A814B8142
:103F80005C810E943F2528EE33E040E050E00E9433
:103F90007D2504C02FEF3FEF4FEF5FEF932D923061
:103FA00099F1933034F4332071F0913009F071C0FD
:103FB00019C0A32DA43009F449C0A430ACF1A53038
:103FC00009F067C055C0E7BC2093ED083093EE08B8
:103FD0004093EF085093F00880916E0082608093C8
:103FE0006E0057C0F0928900E09288002093F40898
:103FF0003093F5084093F6085093F70880916F00CE
:10400000826080936F0045C0E092B3002093FB086C
:104010003093FC084093FD085093FE088091700097
:1040200082608093700035C0F0929900E092980011
:104030002093020930930309409304095093050922
:104040008091710082608093710023C0F092A9007A
:10405000E092A8002093090930930A0940930B09C4
:1040600050930C098091720082608093720011C09D
:10407000F0922901E0922801209310093093110950
:1040800040931209509313098091730082608093CA
:1040900073000F900F900F900F90CF91DF911F91B1
:1040A0000F91FF90EF90DF90CF90BF90AF909F90D7
:1040B0008F907F906F905F904F903F9008958230E7
:1040C000B9F0833028F4882351F0813051F50AC0CB
:1040D000843011F18430E8F0853019F520C0109259
:1040E0006E00089580916F008D7F80936F0008951A
:1040F000809170008D7F8093700081E08093B0008C
:104100008091B100887F84608093B1001092B300E9
:1041100008951092710008951092720008951092FF
:1041200073000895CF93C82F809154078C1739F4EA
:10413000E4E0F2E084919FEF9093540701C08FEF89
:104140000E945F208C2F60E00E940A09CF910895A1
:104150001F920F920FB60F920BB60F9211242F934E
:104160003F934F935F936F937F938F939F93AF93FF
:10417000BF93EF93FF938091FB089091FC08A0916F
:10418000FD08B091FE080097A105B10551F1E0913D
:10419000FF08F091000980819091010989278083AF
:1041A0008091FB089091FC08A091FD08B091FE0859
:1041B000181619061A061B06C4F48091FB08909184
:1041C000FC08A091FD08B091FE080197A109B10972
:1041D0008093FB089093FC08A093FD08B093FE0821
:1041E00004C0809154070E949220FF91EF91BF91EB
:1041F000AF919F918F917F916F915F914F913F917F
:104200002F910F900BBE0F900FBE0F901F9018951F
:104210002F923F924F925F926F927F928F929F92D6
:10422000AF92BF92CF92DF92EF92FF920F931F93C4
:10423000DF93CF93CDB7DEB73B014C0119012A01C3
:104240006E897F89888D998D6A197B098C099D09F2
:10425000621A730A840A950AA40193010E943F25F9
:10426000E218F30804091509A80197010E949F2587
:104270002A0D3B1D4C1D5D1DB901CA01CF91DF9177
:104280001F910F91FF90EF90DF90CF90BF90AF9074
:104290009F908F907F906F905F904F903F902F9066
:1042A0000895FC0184859585FC01E05CFF4F208129
:1042B00031818E5B9F4FFC0180819181281B390BDE
:1042C0002F733070C9010895FC0184859585FC0128
:1042D000E05CFF4F40815181FC01EE5BFF4F20818C
:1042E00031814217530741F00190F081E02DE80F32
:1042F000F91F208130E002C02FEF3FEFC901089580
:10430000FC0184859585FC01E05CFF4F4081518173
:10431000FC01EE5BFF4F208131814217530771F0A2
:10432000A081B181A80FB91F2C9180819181019644
:104330008F7390709183808330E002C02FEF3FEF46
:10434000C9010895DC011E968D919C911F97FC0177
:10435000E05CFF4F8E5B9F4F40815181DC012D91CE
:104360003C91119742175307B9F70895CF93FC0179
:10437000C62F26853785D901A05CBF4F8D919C91B2
:10438000019660E470E00E946A25D901AE5BBF4FE0
:104390004D915C91119784179507D1F3D901A05CD9
:1043A000BF4F0D90BC91A02DA20FB31FCC93A6853B
:1043B000B785A05CBF4F11969C938E93A689B78951
:1043C0002C9181E090E0058C02C0880F991F0A941F
:1043D000E2F7282B2C9381E090E0CF910895FB0128
:1043E000E05CFF4F208131812F5F3F4F2F73307092
:1043F000DB01AE5BBF4F4D915C91119724173507E0
:1044000039F0A081B181A60FB71F8C93318320832F
:1044100008951F920F920FB60F920BB60F921124B0
:104420002F933F934F935F936F937F938F939F93BC
:10443000AF93BF93EF93FF938091C60067E179E05C
:104440000E94EF21FF91EF91BF91AF919F918F91CA
:104450007F916F915F914F913F912F910F900BBE84
:104460000F900FBE0F901F9018951F920F920FB6CE
:104470000F920BB60F9211242F933F934F935F939C
:104480006F937F938F939F93AF93BF93EF93FF931C
:104490008091CE006FE979E00E94EF21FF91EF91CA
:1044A000BF91AF919F918F917F916F915F914F914C
:1044B0003F912F910F900BBE0F900FBE0F901F904A
:1044C00018951F920F920FB60F920BB60F921124F0
:1044D0002F933F934F935F936F937F938F939F930C
:1044E000AF93BF93EF93FF938091D60067E27AE09A
:1044F0000E94EF21FF91EF91BF91AF919F918F911A
:104500007F916F915F914F913F912F910F900BBED3
:104510000F900FBE0F901F9018951F920F920FB61D
:104520000F920BB60F9211242F933F934F935F93EB
:104530006F937F938F939F93AF93BF93EF93FF936B
:10454000809136016FEA7AE00E94EF21FF91EF91AE
:10455000BF91AF919F918F917F916F915F914F919B
:104560003F912F910F900BBE0F900FBE0F901F9099
:1045700018951F920F920FB60F920BB60F9211243F
:104580002F933F935F936F937F938F939F93AF93FB
:10459000BF93EF93FF9320919B0930919C098091E9
:1045A0009D0990919E092817390731F48091C10027
:1045B0008F7D8093C10016C0E0919D09F0919E0906
:1045C000E55AF64F208180919D0990919E090196B0
:1045D00060E470E00E946A2590939E0980939D0993
:1045E0002093C600FF91EF91BF91AF919F918F9162
:1045F0007F916F915F913F912F910F900BBE0F9024
:104600000FBE0F901F9018951F920F920FB60F922A
:104610000BB60F9211242F933F935F936F937F9369
:104620008F939F93AF93BF93EF93FF932091230AB0
:104630003091240A8091250A9091260A281739077B
:1046400031F48091C9008F7D8093C90016C0E0913C
:10465000250AF091260AED51F64F20818091250A16
:104660009091260A019660E470E00E946A2590937A
:10467000260A8093250A2093CE00FF91EF91BF91E7
:10468000AF919F918F917F916F915F913F912F910A
:104690000F900BBE0F900FBE0F901F9018951F929A
:1046A0000F920FB60F920BB60F9211242F933F93D8
:1046B0005F936F937F938F939F93AF93BF93EF938A
:1046C000FF932091AB0A3091AC0A8091AD0A909192
:1046D000AE0A2817390731F48091D1008F7D80937D
:1046E000D10016C0E091AD0AF091AE0AE559F54F40
:1046F00020818091AD0A9091AE0A019660E470E04D
:104700000E946A259093AE0A8093AD0A2093D6004A
:10471000FF91EF91BF91AF919F918F917F916F9199
:104720005F913F912F910F900BBE0F900FBE0F9096
:104730001F9018951F920F920FB60F920BB60F9203
:1047400011242F933F935F936F937F938F939F9346
:10475000AF93BF93EF93FF932091330B3091340BC2
:104760008091350B9091360B2817390731F48091E1
:1047700031018F7D8093310116C0E091350BF091AE
:10478000360BED50F54F20818091350B9091360B13
:10479000019660E470E00E946A259093360B809346
:1047A000350B20933601FF91EF91BF91AF919F910F
:1047B0008F917F916F915F913F912F910F900BBEE1
:1047C0000F900FBE0F901F901895DF92EF92FF92FF
:1047D0000F931F93CF93DF93EC017A018B01DD24BC
:1047E000D394403081EE580780E0680780E0780776
:1047F00049F4DD24EC89FD89108260E874E88EE1DB
:1048000090E00FC0EC89FD8981E090E00E8C02C041
:10481000880F991F0A94E2F7808360E079E08DE3C6
:1048200090E0A80197010E947D2521503040404032
:104830005040569547953795279580E120303807A9
:1048400010F0DD20B1F6E889F9893083EA89FB8927
:104850002083EE89FF89408181E090E09C010A8CF1
:1048600002C0220F331F0A94E2F7422B4083EE89E5
:10487000FF8940819C010B8C02C0220F331F0A94D8
:10488000E2F7422B4083EE89FF8940819C010C8C2A
:1048900002C0220F331F0A94E2F7422B4083EE89B5
:1048A000FF8920810D8C02C0880F991F0A94E2F7BE
:1048B000809582238083DF91CF911F910F91FF908C
:1048C000EF90DF9008950F931F93CF9310923A0BC0
:1048D0001092390B88EE93E0A0E0B0E080933B0BA0
:1048E00090933C0BA0933D0BB0933E0BE9E3FBE0B0
:1048F0002FE637E03293229347E159E0558744870A
:104900004BE559E05787468745EC50E0518B408B8B
:1049100044EC50E0538B428B40EC50E0558B448B81
:1049200041EC50E0578B468B46EC50E0518F408F66
:10493000C4E0C28F73E0738F67E0648F55E0558FDA
:1049400041E0468F1092590B1092580B80935A0BEE
:1049500090935B0BA0935C0BB0935D0BE8E5FBE0E1
:10496000329322930FE919E01587048703EE19E0CB
:10497000178706870DEC10E0118B008B0CEC10E014
:10498000138B028B08EC10E0158B048B09EC10E004
:10499000178B068B0EEC10E0118F008FC28F738F78
:1049A000648F558F468F1092780B1092770B8093FF
:1049B000790B90937A0BA0937B0BB0937C0BE7E77A
:1049C000FBE03293229307E21AE0158704870BE697
:1049D0001AE01787068705ED10E0118B008B04EDB8
:1049E00010E0138B028B00ED10E0158B048B01EDB2
:1049F00010E0178B068B06ED10E0118F008FC28F31
:104A0000738F648F558F468F1092970B1092960B71
:104A10008093980B9093990BA0939A0BB0939B0B58
:104A2000E6E9FBE0329322938FEA9AE09587848748
:104A300083EF9AE09787868785E391E0918B808B5F
:104A400084E391E0938B828B80E391E0958B848B60
:104A500081E391E0978B868B86E391E0918F808F45
:104A6000C28F738F648F558F468FCF911F910F9197
:104A700008950E942E2608950E94C8260895629FD8
:104A8000D001739FF001829FE00DF11D649FE00D46
:104A9000F11D929FF00D839FF00D749FF00D659FA7
:104AA000F00D9927729FB00DE11DF91F639FB00DA6
:104AB000E11DF91FBD01CF0111240895991B79E073
:104AC00004C0991F961708F0961B881F7A95C9F79E
:104AD0008095089597FB092E07260AD077FD04D00C
:104AE00049D006D000201AF4709561957F4F089543
:104AF000F6F7909581959F4F0895A1E21A2EAA1B73
:104B0000BB1BFD010DC0AA1FBB1FEE1FFF1FA2177D
:104B1000B307E407F50720F0A21BB30BE40BF50B7A
:104B2000661F771F881F991F1A9469F76095709503
:104B3000809590959B01AC01BD01CF01089597FB35
:104B4000092E05260ED057FD04D0D7DF0AD0001C51
:104B500038F450954095309521953F4F4F4F5F4F1A
:104B60000895F6F790958095709561957F4F8F4FDA
:104B70009F4F0895AA1BBB1B51E107C0AA1FBB1F73
:104B8000A617B70710F0A61BB70B881F991F5A95D9
:104B9000A9F780959095BC01CD0108952F923F9281
:104BA0004F925F926F927F928F929F92AF92BF923D
:104BB000CF92DF92EF92FF920F931F93CF93DF93E9
:104BC000CDB7DEB7CA1BDB0B0FB6F894DEBF0FBE46
:104BD000CDBF19942A88398848885F846E847D8483
:104BE0008C849B84AA84B984C884DF80EE80FD8095
:104BF0000C811B81AA81B981CE0FD11D0FB6F8940B
:104C0000DEBF0FBECDBFED0108950790F691E02DF8
:104C10001994EF92FF920F931F93CF93DF93689FA6
:104C20008001699F100D789F100D1124C8010E940A
:104C30002E26E82EE7017E01F92EE701209731F0BC
:104C40008E2D60E070E0A8010E946127CE01DF9107
:104C5000CF911F910F91FF90EF900895CF93DF9325
:104C60008230910510F482E090E0E091B90BF09170
:104C7000BA0B40E050E020E030E026C06081718156
:104C800068177907E0F06817790781F482819381CA
:104C90002115310531F0D90113969C938E9312970B
:104CA0002BC09093BA0B8093B90B26C041155105C8
:104CB00019F06417750718F4AB01E901DF019F01D2
:104CC00072816381E72FF62F3097C1F641155105A8
:104CD00001F1481B590B4430510580F412968D9117
:104CE0009C911397209719F09B838A8304C090931B
:104CF000BA0B8093B90BFD01329646C0FD01E40F5B
:104D0000F51F819391934250504011965C934E93BE
:104D10003BC02091B70B3091B80B2115310541F400
:104D200020914F07309150073093B80B2093B70B69
:104D300020915107309152072115310541F42DB7CB
:104D40003EB740914D0750914E07241B350BE09123
:104D5000B70BF091B80BE217F307A0F42E1B3F0B33
:104D60002817390778F0AC014E5F5F4F24173507DD
:104D700048F04E0F5F1F5093B80B4093B70B8193D1
:104D8000919302C0E0E0F0E0CF01DF91CF91089570
:104D9000CF93DF93009709F491C0FC0132971382FF
:104DA00012826091B90B7091BA0B6115710581F493
:104DB00020813181280F391F8091B70B9091B80B5A
:104DC0008217930799F5F093B80BE093B70B76C071
:104DD000DB0180E090E002C0CD01D901AE17BF0732
:104DE00048F412962D913C91139721153105A1F7A6
:104DF000CD0121C0B383A283EF01499159919E0156
:104E0000240F351FA217B30779F42D913C91119708
:104E1000240F351F2E5F3F4F3183208312962D9133
:104E20003C91139733832283009729F4F093BA0BB4
:104E3000E093B90B43C0DC011396FC93EE931297F9
:104E40004D915D91A40FB51FEA17FB0769F420810E
:104E50003181240F351F2E5F3F4FEC0139832883AA
:104E6000228133813B832A83E0E0F0E002C0FB0132
:104E7000BC01DB0112968D919C9113970097B9F7B5
:104E80009B012E5F3F4F8D919C911197820F931F35
:104E90004091B70B5091B80B4817590779F43097E8
:104EA00029F41092BA0B1092B90B02C0138212822D
:104EB000225030403093B80B2093B70BDF91CF9145
:104EC0000895DC0101C06D9341505040E0F7089512
:104ED000DF93CF93CDB7DEB7FE0136966191719126
:104EE0008091BD0B9091BE0BAF010E94B127CF9175
:104EF000DF910895EF92FF920F931F93CF93DF936B
:104F00008C01E091BD0BF091BE0B838181FF1FC02E
:104F1000C0E0D0E00AC0DB011896ED91FC91199732
:104F20001995009711F0CFEFDFEFF80181918F0114
:104F30006091BD0B7091BE0B882369F7DB01189659
:104F4000ED91FC9119978AE01995009711F0CFEF38
:104F5000DFEFCE01DF91CF911F910F91FF90EF9086
:104F600008952F923F924F925F926F927F928F920D
:104F70009F92AF92BF92CF92DF92EF92FF920F93E8
:104F80001F93DF93CF93CDB7DEB72C970FB6F8946E
:104F9000DEBF0FBECDBF6C011B018A01FC01178271
:104FA0001682838181FFD1C12E010894411C511CBE
:104FB000F6019381F10193FD859193FF81911F018A
:104FC000882309F4BEC1853239F493FD859193FF9E
:104FD00081911F01853229F490E0B6010E94D72902
:104FE000E7CFEE24FF2420E02032B0F48B3269F0CA
:104FF0008C3228F4803251F0833271F40BC08D3240
:1050000039F0803349F421602CC02260246029C02B
:10501000286027C0206125C027FD2CC0382F3053C1
:105020003A3098F426FF08C08E2D880FE82EEE0C3B
:10503000EE0CE80EE30E15C08F2D880FF82EFF0C36
:10504000FF0CF80EF30E20620CC08E3221F426FD08
:1050500078C1206406C08C3611F4206802C08836FE
:1050600049F4F10193FD859193FF81911F018823FC
:1050700009F0BACF982F9554933018F0905293308E
:1050800028F40C5F1F4FFFE3F9830DC0833631F026
:10509000833771F0833509F060C022C0F801808148
:1050A00089830E5F1F4F420171E0A72EB12C16C0FD
:1050B00062E0662E712C600E711EF8018080918076
:1050C00026FF03C06E2D70E002C06FEF7FEFC401BA
:1050D0002C870E94CC295C0183012C852F7717C077
:1050E00052E0652E712C600E711EF8018080918057
:1050F00026FF03C06E2D70E002C06FEF7FEFC4018A
:105100002C870E94C1295C012C852068830123FD26
:1051100020C008C080E290E0B6012C870E94D72909
:10512000FA942C858F2D90E0A816B90698F311C03B
:10513000F40127FD859127FF81914F0190E0B60191
:105140002C870E94D7292C85F110FA940894A10885
:10515000B108A114B10461F7F1C0843611F08936A9
:1051600049F527FF08C0F801608171818281938130
:105170000C5F1F4F09C0F80160817181882777FD9E
:105180008095982F0E5F1F4F4FE6B42EB22297FFE7
:1051900009C090958095709561957F4F8F4F9F4F77
:1051A000F0E8BF2AA2012AE030E00E94032A782E0C
:1051B000741845C0853731F43FEEB32EB2222AE091
:1051C00030E025C099EFB92EB2228F36C1F080377A
:1051D00020F4883509F0B5C00DC0803721F088373C
:1051E00009F0AFC002C020E1B22AB4FE0BC084E0D7
:1051F000B82A08C0B4FE09C0E6E0BE2A06C028E00E
:1052000030E005C020E130E002C020E132E0B7FE2E
:1052100008C0F80160817181828193810C5F1F4F0A
:1052200007C0F8016081718180E090E00E5F1F4F40
:10523000A2010E94032A782E7418FFE7BF22B6FE4F
:105240000BC02EEFB2227E1438F4B4FE07C0B2FCBD
:1052500005C08FEEB82202C0A72C01C0AE2C8B2D4A
:1052600090E0B4FE0DC0FE01E70DF11D208120335A
:1052700019F4E9EEBE2209C0A394B2FE06C004C030
:1052800086789070009709F0A3948B2C9924B3FC36
:1052900014C0B0FE0FC0AF1428F4E72CEF0CEA18CE
:1052A000AF2C08C0E72C06C080E290E0B6010E9457
:1052B000D729A394AF14C0F304C0AF1410F4FA18A4
:1052C00001C0FF2484FE0FC080E390E0B6010E947D
:1052D000D72982FE1FC081FE03C088E590E010C080
:1052E00088E790E00DC0C40186789070009791F037
:1052F00081FC02C080E201C08BE2B7FC8DE290E04D
:10530000B6010E94D72906C080E390E0B6010E9452
:10531000D729EA947E14C0F37A94F201E70DF11DC7
:10532000808190E0B6010E94D7297720A9F706C0B6
:1053300080E290E0B6010E94D729FA94FF20C1F7DD
:1053400037CEF6012681378102C02FEF3FEFC9012A
:105350002C960FB6F894DEBF0FBECDBFCF91DF9174
:105360001F910F91FF90EF90DF90CF90BF90AF9083
:105370009F908F907F906F905F904F903F902F9075
:105380000895FC010590615070400110D8F7809598
:1053900090958E0F9F1F0895FC0161507040019001
:1053A0000110D8F7809590958E0F9F1F08950F9349
:1053B0001F93CF93DF938C01EB018B8181FF1BC087
:1053C00082FF0DC02E813F818C819D812817390776
:1053D00064F4E881F9810193F983E88306C0E885E4
:1053E000F985802F1995009731F48E819F81019660
:1053F0009F838E8302C00FEF1FEFC801DF91CF9113
:105400001F910F910895FA01AA27283051F12031F8
:1054100081F1E8946F936E7F6E5F7F4F8F4F9F4F48
:10542000AF4FB1E03ED0B4E03CD0670F781F891F8A
:105430009A1FA11D680F791F8A1F911DA11D6A0F58
:10544000711D811D911DA11D20D009F468943F910B
:105450002AE0269F11243019305D3193DEF6CF010A
:105460000895462F4770405D4193B3E00FD0C9F7D0
:10547000F6CF462F4F70405D4A3318F0495D31FD3D
:105480004052419302D0A9F7EACFB4E0A695979590
:10549000879577956795BA95C9F700976105710566
:1054A00008959B01AC010A2E0694579547953795B0
:1054B0002795BA95C9F7620F731F841F951FA01D0A
:0654C0000895F894FFCFEF
:1054C60066616E5F666F72776172645F7370656541
:1054D600642063616C6C65640A0066616E5F686F68
:1054E600766572696E675F73706565642063616C6B
:1054F6006C65640A0072756465725F6469726563DF
:1055060074696F6E2063616C6C65640A00686F76FF
:10551600657263726166745F73706565642063614A
:105526006C6C65640A00520A006261747465727973
:105536005F6C6576656C2063616C6C65640A00550A
:105546006E61626C6520746F20676574206D656D91
:105556006F72790A0053545241494748540A004829
:105566004152445F4C4546540A00484152445F52FA
:10557600494748540A00534F46545F5249474854D6
:105586000A00534F46545F4C4546540A0042524166
:105596004B450A00646972656374696F6E204552F3
:1055A600524F520A007075742046616E20486F761D
:1055B6006572696E6720696E6372656173696E678D
:1055C600200A007075742046616E20486F766572F9
:1055D600696E672064656372656173696E670A0048
:1055E6007075742046616E20486F766572696E67C5
:1055F600205370656564204552524F520A007075FB
:10560600742046616E20486F766572696E67205316
:10561600544F5020696E2071756575650A00707566
:10562600742046616E20486F766572696E672054F5
:105636005552424F20696E2071756575650A0046A0
:10564600616E20486F766572696E67206E6F742092
:10565600696D706C656D656E74656420636F6D6DE4
:10566600616E6473204552524F520A007075742061
:1056760065786163742046414E5F484F56455249EE
:105686004E475F5350454544200A007075742046C6
:10569600616E20466F727761726420696E6372650F
:1056A6006173696E6720537065656420696E207149
:1056B600756575650A007075742046616E20466FC3
:1056C60072776172642064656372656173696E677F
:1056D60020537065656420696E2071756575650A6D
:1056E600007075742046616E20466F727761726431
:1056F600205370656564204552524F520A007075FA
:10570600742046616E20466F72776172642053542E
:105716004F5020696E2071756575650A0070757445
:105726002046616E20466F7277617264205455522E
:10573600424F20696E2071756575650A0046616E77
:1057460020466F7277617264206E6F7420696D7087
:105756006C656D656E74656420636F6D6D616E64F6
:1057660073204552524F520A007075742065786155
:10577600637420466F727761726420737065656426
:105786002076616C75650A00536F6D657468696E85
:1057960067206E6F74206261736564206F6E20707F
:1057A600726F746F636F6C206973207265636569CD
:1057B6007665640A000A00426C7565746F6F7468DA
:1057C60020697320616374697661746564000909F0
:1057D60054657374206D6F746F7220737461727484
:1057E60065642000090954657374206D6F746F72C7
:1057F6002073746F707065642000090954657374B2
:10580600206C6576656C206973206E6F726D616CB5
:105816002000090954657374206C6576656C2069EF
:105826007320747572626F200009095465737420C1
:10583600616E616C6F672077726974652000090973
:105846005465737420546F6F206C6F7720000909BC
:105856005465737420546F6F206869676820000967
:1058660009546573742054205320697320626F7441
:10587600746F6D2000090954657374206D6F746F21
:10588600722068617320616C72656164792062655B
:10589600656E20737461727465642000090954652D
:1058A600737420494E43204E6577202020204C3AC1
:1058B600202564200A000909546573742044454371
:1058C600204E6577202020204C3A202564200A00AF
:1058D60009095465737420736574204E657720201A
:1058E60020204C3A202564200A00426174746572B7
:1058F600792062656570206475726174696F6E3AAD
:105906002025640A000000000000000000000102DB
:105916000203030303040404040404040405050544
:10592600050505050505050505050505050606061E
:105936000606060606060606060606060606060601
:1059460006060606060606060606060606070707EE
:1059560007070707070707070707070707070707D1
:1059660007070707070707070707070707070707C1
:1059760007070707070707070707070707070707B1
:10598600070707070707070707070707070808089E
:105996000808080808080808080808080808080881
:1059A6000808080808080808080808080808080871
:1059B6000808080808080808080808080808080861
:1059C6000808080808080808080808080808080851
:1059D6000808080808080808080808080808080841
:1059E6000808080808080808080808080808080831
:1059F6000808080808080808080808080808080821
:105A0600080808080808080808080808082000C147
:105A16000B000001FF000102030405000000006AFC
:105A26001538150A1513152715371500000000B689
:0C5A360021711C512180216421A221005B
:0400000300001DF8E4
:00000001FF
