:100000000C944F010C9480010C9480010C9480019D
:100010000C9480010C9480010C9480010C9480015C
:100020000C9480010C94DB150C9403160C942B1685
:100030000C9480010C9480010C9480010C9480013C
:100040000C9480010C949B180C9480010C948001FA
:100050000C9480010C9480010C9480010C94AA07EC
:100060000C9480010C9427200C94D7200C948001D0
:100070000C9480010C9480010C9480010C948001FC
:100080000C94C9180C9480010C9480010C9480018C
:100090000C9453200C9422210C9480010C94F51B99
:1000A0000C9480010C9480010C94F7180C9480013E
:1000B0000C9480010C9480010C9480010C942519FF
:1000C0000C9480010C9480010C9480010C947F208E
:1000D0000C946D210C9480010C94AB200C94B821ED
:1000E0000C94800100002100240027002A002D002C
:1000F0003000330001010000040107010A01000083
:100100002200250028002B002E00310034000201BF
:100110000000050108010B0100002000230026005B
:1001200029002C002F00320000010000030106010D
:10013000090105050505070508080808020202026D
:100140000A0A080804040404010101010101010173
:100150000303030303030303040707070C0C0C0C3E
:100160000C0C0C0C02020202060606060606060627
:100170000B0B0B0B0B0B0B0B0102102020080810B4
:100180002040102040800201020108040201010207
:1001900004081020408080402010080402018004E0
:1001A000020180402010080402010804020101023B
:1001B0000408102040800102040810204080000044
:1001C000090A02080B0C0D070603040100000000D9
:1001D000000000000000000000000000000000001F
:1001E0000000000000000000000011100F000000DF
:1001F00000000000000000000000000000000000FF
:100200000000000000C201000100110011000C00FC
:1002100000E100000A0025002500210000960000F2
:100220001900390039003600127A00001F0046001C
:10023000460044008070000022004D004D004A003E
:10024000004B000036007500750072004038000059
:100250004A009C009C009900802500007200EC0080
:10026000EC00E900C0120000E900DA01DA01D70170
:1002700060090000D701B603B603B303B004000061
:10028000B3036E076E076B072C010000DC0EC11D67
:10029000C11DBE1D8C11AC115D148122B111112440
:1002A0001FBECFEFD1E2DEBFCDBF00E00CBF17E035
:1002B000A0E0B2E0ECEAFBE400E00BBF02C0079074
:1002C0000D92A23EB107D9F71CE0A2EEB7E001C043
:1002D0001D92AF37B107E1F712E0CCE9D2E000E0C0
:1002E00006C022970109FE010BBF0E942324C439D6
:1002F000D10780E00807A9F70E948D070C94C42558
:100300000C940000A0E0B0E0E8E8F1E00C94F023E9
:10031000FC01EA018081823008F438C1DB019C9144
:10032000923008F430C1843059F4943009F02EC171
:10033000918111968C911197981709F021C126C1CE
:10034000943009F420C19230B1F4823009F01EC11A
:10035000CA01AF0128E0DA010D90AD01DC010D9278
:10036000CD012150C1F7DB0111968C91119791813C
:10037000892389830AC1823009F405C1C280D380F0
:10038000DB0112966D907C90139724813581468114
:1003900057811496ED90FD900D911C911797C60111
:1003A000861997095C0197FF04C0AA24BB24A81AE8
:1003B000B90AB0E2AB16B1040CF061C01816190608
:1003C0006CF5370148010A2C04C096948794779401
:1003D00067940A94D2F781E090E0A0E0B0E00A2CA4
:1003E00004C0880F991FAA1FBB1F0A94D2F7019758
:1003F000A109B1098E219F21A023B123EE24FF245E
:100400008701E3940097A105B10519F4EE24FF24B8
:100410008701E628F728082919293CC00097D1F15F
:10042000CA0CDB1C39014A010A2C04C0969487943B
:10043000779467940A94D2F781E090E0A0E0B0E06E
:100440000A2C04C0880F991FAA1FBB1F0A94D2F759
:100450000197A109B10982239323A423B52321E0A5
:1004600030E040E050E00097A105B10519F420E02C
:1004700030E0A90126293729482959290BC06C14D5
:100480007D0424F4EE24FF24870104C0630120E0EE
:1004900030E0A9018181FB019181891709F445C0F0
:1004A000882349F0D801C701821B930BA40BB50B1D
:1004B0009C01AD0104C02E193F09400B510B57FDA3
:1004C00004C01982DB82CA820BC081E08983DB828F
:1004D000CA8250954095309521953F4F4F4F5F4FC1
:1004E0002C833D834E835F830DC0880F991FAA1F05
:1004F000BB1F8C839D83AE83BF838A819B810197C1
:100500009B838A838C819D81AE81BF819C01AD01DB
:1005100021503040404050402F3FEFEF3E07EFEF7B
:100520004E07EFE35E0708F30BC08983DB82CA82C4
:100530002E0D3F1D401F511F2C833D834E835F8333
:1005400083E088832C813D814E815F8157FF1DC0F0
:10055000DA01C90181709070A070B070569547950E
:1005600037952795822B932BA42BB52B8C839D83BA
:10057000AE83BF838A819B8101969B838A8305C05A
:10058000E9E7F6E003C0FB0101C0FE01CF01CDB7F2
:10059000DEB7EEE00C940C24A0E2B0E0E2EDF2E075
:1005A0000C94F82369837A838B839C832D833E8309
:1005B0004F83588789E0E82EF12CEC0EFD1ECE010A
:1005C0000196B7010E9424078E010F5E1F4FCE01D6
:1005D0000596B8010E942407C701B801AE01475E25
:1005E0005F4F0E9482010E945606A096E6E00C949E
:1005F0001424A0E2B0E0EFEFF2E00C94F82369835A
:100600007A838B839C832D833E834F8358878E010F
:10061000075F1F4FCE010196B8010E94240791E1A8
:10062000E92EF12CEC0EFD1ECE010596B7010E94BD
:1006300024078A8991E089278A8BC801B701AE0116
:10064000475E5F4F0E9482010E945606A096E6E038
:100650000C941424A0E2B0E0E0E3F3E00C94EC236B
:1006600069837A838B839C832D833E834F83588752
:10067000CE010196BE01675F7F4F0E942407CE0125
:100680000596BE016F5E7F4F0E94240799859230C8
:1006900078F089898230C0F0943019F4823041F4C6
:1006A000CBC0843019F4923079F4C6C0923051F442
:1006B00081E02A859A89291709F480E08A87CE018A
:1006C0000996BCC0823051F481E02A859A892917A5
:1006D00009F480E08A8BCE014196B0C06D847E849F
:1006E0008F849888ED88FE880F89188DE0E2F0E00D
:1006F00080E090E0DC01AA24BB24650120E030E02A
:10070000A901B3016170707061157105D1F02E0DF2
:100710003F1D401F511F15012601280E391E4A1E7C
:100720005B1E81E090E0A0E0B0E02E153F054007A1
:10073000510718F080E090E0DC01820D931DA41DAC
:10074000B51DAA0CBB1CCC1CDD1C17FF09C061E049
:10075000262E312C412C512CA228B328C428D52870
:10076000319749F0EE0CFF1C001F111F96948794DF
:1007700077946794C6CF6B897C89EB85FC856E0F77
:100780007F1F6E5F7F4F7C8F6B8F61E0EA857A8978
:10079000E71709F460E06A8F6B8D7C8D10C0FC0157
:1007A000E170F070309729F0569547953795279569
:1007B0005068B695A795979587956F5F7F4FB7FD62
:1007C000EECF0CC0880F991FAA1FBB1F57FD816079
:1007D000220F331F441F551F615070408030E0E0EE
:1007E0009E07E0E0AE07E0E4BE0760F36B8F7C8F0E
:1007F0006FE7E62EF12C012D112DE822F9220A23B4
:100800001B2360E4E616F1040105110561F487FD80
:100810000AC0211531054105510529F0805C9F4F23
:10082000AF4FBF4F80788D8F9E8FAF8FB8A383E07F
:10083000898FCE01499602C089E796E00E9456064C
:10084000A096E2E10C940824A8E1B0E0EAE2F4E02A
:100850000C94F42369837A838B839C832D833E835A
:100860004F8358878E01075F1F4FCE010196B80155
:100870000E94240781E1E82EF12CEC0EFD1ECE0132
:100880000596B7010E9424079985923008F483C029
:100890008989823008F47BC02A853A8923272A87F0
:1008A000943011F0923021F4981709F06CC071C0A7
:1008B000843039F41D861E861F86188A1C861B8686
:1008C0006AC0823019F484E0898765C08B859C8575
:1008D0002B893C89821B930B9C878B872D853E85BA
:1008E0004F855889ED88FE880F89188D2E153F0594
:1008F0004007510738F4220F331F441F551F01973B
:100900009C878B876FE170E0A12CB12CC12CA0E4F7
:10091000DA2E80E090E0DC012E153F0540075107FC
:1009200040F08A299B29AC29BD292E193F09400B8B
:10093000510BD694C794B794A794220F331F441F2A
:10094000551F6150704041F76FE7E62EF12C012DE5
:10095000112DE822F9220A231B2360E4E616F10494
:100960000105110561F487FD0AC021153105410516
:10097000510529F0805C9F4FAF4FBF4F80788D8726
:100980009E87AF87B88B8E01075F1F4F04C087011A
:1009900002C009E716E0C8010E9456066896EAE020
:1009A0000C941024A8E0B0E0E8EDF4E00C94F823F7
:1009B0007B018C0183E08983D801C7018827B7FDBB
:1009C00083959927AA27BB27282F8A83E114F1044E
:1009D0000105110519F482E0898337C08EE190E0AA
:1009E0009C838B83222389F080E0E81680E0F80660
:1009F00080E0080780E8180769F110950095F094E9
:100A0000E094E11CF11C011D111DED82FE820F839B
:100A10001887C801B7010E94FC059C012150304095
:100A20001216130694F4022E04C0EE0CFF1C001FD5
:100A3000111F0A94D2F7ED82FE820F8318878EE190
:100A400090E0821B930B9C838B83CE0101960E94C6
:100A5000560604C060E070E080E09FEC2896E6E077
:100A60000C941424ACE0B0E0E8E3F5E00C94FC2333
:100A700069837A838B839C83CE010196BE016B5F71
:100A80007F4F0E9424078D81823081F1823070F186
:100A9000843021F48E81882369F10AC02F81388542
:100AA00037FD24C06E812F3131053CF0662311F1F2
:100AB00020E030E040E050E821C08EE190E0821B71
:100AC000930B29853A854B855C8504C056954795DF
:100AD000379527958A95D2F7662381F050954095F2
:100AE000309521953F4F4F4F5F4F08C020E030E0D9
:100AF000A90104C02FEF3FEF4FEF5FE7B901CA0133
:100B00002C96E2E00C941824A8E0B0E0EAE8F5E0C6
:100B10000C94F6237B018C011A8261157105810505
:100B2000910519F482E089835FC083E089838EE1B7
:100B3000C82ED12CDC82CB82ED82FE820F831887F7
:100B4000C801B7010E94FC05FC013197F7FF3AC0CC
:100B5000AA27BB27AE1BBF0B21E030E040E050E0EE
:100B60000A2E04C0220F331F441F551F0A94D2F7C8
:100B700021503040404050402E213F2140235123FE
:100B800061E070E080E090E02115310541055105FC
:100B900019F460E070E0CB0104C016950795F79456
:100BA000E794AA95D2F7E62AF72A082B192BED82AB
:100BB000FE820F8318878EE190E08E1B9F0B9C8333
:100BC0008B8312C0309781F00E2E04C0EE0CFF1CF8
:100BD000001F111F0A94D2F7ED82FE820F8318873F
:100BE000CE1ADF0ADC82CB82CE0101960E94560625
:100BF0002896E8E00C941224AF92BF92CF92DF9235
:100C0000EF92FF920F931F937B018C0180E0E81617
:100C100080E0F80681E0080780E0180758F4EFEF5D
:100C2000EE16F1040105110509F090F480E090E062
:100C3000DC0117C0F0E0EF16F0E0FF06F0E00F0770
:100C4000F1E01F0750F480E190E0A0E0B0E009C0BF
:100C500088E090E0A0E0B0E004C088E190E0A0E08F
:100C6000B0E020E230E040E050E0281B390B4A0BB6
:100C70005B0B5701680104C0D694C794B794A7943E
:100C80008A95D2F7D601C5018F57994FFC01808113
:100C9000281B310941095109C9011F910F91FF908A
:100CA000EF90DF90CF90BF90AF900895EF92FF92BA
:100CB0000F931F93CF93DF93FC01248135814681ED
:100CC000578161818081823020F44061EFEFF0E054
:100CD000A3C0843009F49BC0823009F492C021156E
:100CE00031054105510509F48FC00280F381E02DE3
:100CF0008FEFE238F8070CF05AC0C2E8DFEFCE1BE6
:100D0000DF0BCA31D1056CF579018A010C2E04C0C4
:100D100016950795F794E7940A94D2F781E090E04E
:100D2000A0E0B0E00C2E04C0880F991FAA1FBB1FC3
:100D30000A94D2F70197A109B10982239323A4232E
:100D4000B52321E030E040E050E00097A105B10577
:100D500019F420E030E0A9012E293F29402B512B26
:100D600003C020E030E0A901DA01C9018F7790705B
:100D7000A070B07080349105A105B10539F427FF4A
:100D800009C0205C3F4F4F4F5F4F04C0215C3F4F75
:100D90004F4F5F4FE1E0F0E0203080E0380780E027
:100DA000480780E4580728F5E0E0F0E022C0E0388A
:100DB000F1056CF5E158FF4FDA01C9018F779070AA
:100DC000A070B07080349105A105B10539F427FFFA
:100DD00009C0205C3F4F4F4F5F4F04C0215C3F4F25
:100DE0004F4F5F4F57FF05C056954795379527954D
:100DF000319687E056954795379527958A95D1F78F
:100E00000BC0E0E0F0E005C0E0E0F0E005C0EFEF8F
:100E1000F0E020E030E0A9018E2F879588278795A4
:100E2000942F9F77679566276795E695E22EA92F01
:100E3000A82BFE2FF62B622F732F8A2F9F2FCDB753
:100E4000DEB7E6E00C941424DC01FB012C91119632
:100E50003C91119712968C911297482F4F7750E042
:100E6000982F991F9927991F13966C911397862F86
:100E7000880F892B90E0661F6627661F61830097A5
:100E800039F5211531054105510511F482E029C0DC
:100E900082E89FEF9383828367E0220F331F441F12
:100EA000551F6A95D1F783E0808309C0220F331F55
:100EB000441F551F82819381019793838283203041
:100EC00080E0380780E0480780E4580778F320C0C6
:100ED0008F3F910579F4211531054105510519F42C
:100EE00084E08083089544FF03C081E0808310C0C4
:100EF00010820EC08F5790409383828383E080835B
:100F000087E0220F331F441F551F8A95D1F7506485
:100F1000248335834683578308950E9457080E948F
:100F20003C0B0E94CE0D0E94AC0E80E090E00E942F
:100F3000621080E060E00E942D0981E060E00E9484
:100F40002D090E943B129093740C8093730C0E94A5
:100F5000F709FDCF1F920F920FB60F9211242F9316
:100F60003F938F939F93AF93BF938091E6079091A8
:100F7000E707A091E807B091E9073091EA070196E9
:100F8000A11DB11D232F2D5F2D3720F02D57019668
:100F9000A11DB11D2093EA078093E6079093E70710
:100FA000A093E807B093E9078091E2079091E307E7
:100FB000A091E407B091E5070196A11DB11D8093B2
:100FC000E2079093E307A093E407B093E507BF918E
:100FD000AF919F918F913F912F910F900FBE0F90E6
:100FE0001F9018958FB7F8942091E6073091E70786
:100FF0004091E8075091E9078FBFB901CA010895F0
:101000009FB7F8942091E2073091E3074091E407FD
:101010005091E50786B5A89B06C08F3F21F02F5F52
:101020003F4F4F4F5F4F9FBF542F432F322F2227E9
:10103000280F311D411D511D82E0220F331F441F17
:10104000551F8A95D1F7B901CA010895EF92FF9211
:101050000F931F93CF93DF937B018C010E940008B5
:10106000EB010FC00E9400086C1B7D0B83E0683E03
:10107000780738F00894E108F10801091109C8510E
:10108000DC4FE114F1040105110561F7DF91CF9107
:101090001F910F91FF90EF900895019739F0880FFD
:1010A000991F880F991F02970197F1F70895789477
:1010B00084B5826084BD84B5816084BD85B582605D
:1010C00085BD85B5816085BDEEE6F0E080818160FB
:1010D0008083E1E8F0E010828081826080838081FB
:1010E00081608083E0E8F0E0808181608083E1EBD3
:1010F000F0E0808184608083E0EBF0E080818160BB
:101100008083E1E9F0E0808182608083808181607A
:101110008083E0E9F0E0808181608083E1EAF0E0B3
:10112000808182608083808181608083E0EAF0E05A
:10113000808181608083E1E2F1E080818260808350
:10114000808181608083E0E2F1E080818160808342
:10115000EAE7F0E080818460808380818260808320
:101160008081816080838081806880831092C1004B
:101170000895893009F449C08A30A0F4843051F1CF
:10118000853040F4823079F1833000F5813009F008
:1011900063C026C0873079F1883098F5863009F031
:1011A0005BC025C08D3009F442C08E3028F48B30EE
:1011B000B1F18C30C0F52DC0803109F442C08131CD
:1011C00009F445C08F3009F047C037C080918000D6
:1011D0008F7703C0809180008F7D80938000089579
:1011E00084B58F7702C084B58F7D84BD08958091CA
:1011F000B0008F7703C08091B0008F7D8093B000E6
:101200000895809190008F7707C0809190008F7D26
:1012100003C080919000877F809390000895809113
:10122000A0008F7707C08091A0008F7D03C08091C0
:10123000A000877F8093A0000895809120018F7780
:1012400003C0809120018F7D8093200108958091BB
:101250002001877F80932001089590E0FC01E858E9
:10126000FE4F2491FC01EE5CFE4FE491EE23C1F0B1
:10127000F0E0EE0FFF1FEC51FF4F85919491DC01E0
:10128000662341F49FB7F8948C91209582238C9328
:101290009FBF08959FB7F8948C91822B8C939FBF2A
:1012A00008950F931F93DF93CF930F92CDB7DEB7BF
:1012B000282F30E0F901E254FE4F8491F901E858FB
:1012C000FE4F14912E5C3E4FF90104910023D9F09A
:1012D000882321F069830E94B9086981E02FF0E03A
:1012E000EE0FFF1FE250FF4F85919491DC019FB7F5
:1012F000F894662321F48C911095812302C08C917F
:10130000812B8C939FBF0F90CF91DF911F910F91F5
:101310000895CF93DF93282F30E0F901E254FE4F78
:101320008491F901E858FE4FD4912E5C3E4FF901AB
:10133000C491CC2391F0882311F00E94B908EC2FBE
:10134000F0E0EE0FFF1FE85EFE4F85919491DC0107
:101350008C918D2321E030E011F420E030E0C901D0
:10136000DF91CF91089581E090E066E070E00E9407
:101370002724FC019093EC078093EB0715821482DD
:1013800008950F931F93DF93CF93CDB7DEB72A97BE
:101390000FB6F894DEBF0FBECDBF8E010F5F1F4F9B
:1013A00011C0C8010E94120B99818A812B813C8156
:1013B000ED81FE81913019F4F901199503C0923045
:1013C00009F419956091EB077091EC07FB0184819A
:1013D0009581181619062CF32A960FB6F894DEBFDD
:1013E0000FBECDBFCF91DF911F910F9108950E9445
:1013F000B3090E94240D8091730C9091740C0E948B
:1014000065128091730C9091740C0E94C3120E941B
:10141000410B0E94C109EDCFAF92BF92CF92DF92F4
:10142000EF92FF920F931F93DF93CF93CDB7DEB769
:101430002A970FB6F894DEBF0FBECDBFC02E09832A
:10144000D12E1A83E22E2B83F32E3C834D835E83B1
:101450006F83788789879A87A090EB07B090EC0715
:101460008601970175010E94460A2A960FB6F894E4
:10147000DEBF0FBECDBFCF91DF911F910F91FF90C7
:10148000EF90DF90CF90BF90AF900895EF92FF92D2
:101490000F931F93DF93CF93CDB7DEB72A970FB685
:1014A000F894DEBF0FBECDBF09831A832B833C8324
:1014B0004D835E836F83788789879A870F8118852C
:1014C00081E090E06EE070E00E942724FC0100972C
:1014D00009F49BC0AE014F5F5F4F2AE0DA010D9027
:1014E000AD01DC010D92CD012150C1F717830683B8
:1014F000D70114968D919C9115978230910594F1A6
:101500008D919C911197AC0129C0DA0116962D910D
:101510003C91179720173107E0F4538742871C96B8
:101520002D913C911D97358724878417950729F4C1
:10153000D701ED93FC93DC013EC0DA011C968D913E
:101540009C911D97DC011B96FC93EE931A97DA0190
:1015500032C0DA011A964D915C911B9741155105E5
:10156000A1F63FC08130910559F5D7012D913C91ED
:10157000D90116968D919C9117978017910778F055
:101580001386128635872487D7011396FC93EE9332
:101590001297D9011B96FC93EE931A971BC01586E0
:1015A000148633872287D70113963C932E93129784
:1015B000ED93FC93D9011D96FC93EE931C970AC002
:1015C000009741F4D7011196FC93EE93138612868F
:1015D00015861486F701848195810196958384830D
:1015E00014C013861286D70112968D919C91139781
:1015F00095878487DC011B96FC93EE931A97D7019D
:101600001396FC93EE931297E5CF2A960FB6F894B3
:10161000DEBF0FBECDBFCF91DF911F910F91FF9025
:10162000EF9008950F931F93CF93DF938C01FB01ED
:10163000A081B181982F292F312FAD018AE0EA01D5
:101640000990AE01E90109929E018150C1F7248100
:10165000358121503040358324831A968D919C9199
:101660001B9791838083CD010E94E624C801DF91FE
:10167000CF911F910F9108950E94610D0E94C90D95
:101680000895DF93CF930F920F92CDB7DEB79A8371
:101690008983CE0101960E94A30D89819A810E94BF
:1016A0009B0D8DE492E00E94AD0D8FEF0F900F9097
:1016B000CF91DF910895CF93DF93EC018AE090E022
:1016C0000E944C24009719F48FE792E052C0CE019B
:1016D0000E94470D823019F1833030F4882359F08D
:1016E000813009F044C011C0843069F1843008F1C0
:1016F0008530E9F532C080E090E00E94621085E913
:1017000092E00E94AD0D80E037C081E090E00E9441
:1017100062108FE992E00E94AD0D81E02DC082E061
:1017200090E00E9462108AEA92E00E94AD0D82E091
:1017300023C083E090E00E94621086EB92E00E945A
:10174000AD0D83E019C084E090E00E94621082EC4D
:1017500092E00E94AD0D84E00FC085E090E00E9411
:1017600062108DEC92E00E94AD0D85E005C084ED25
:1017700092E00E94AD0D8FEFDF91CF910895EF922F
:10178000FF920F931F93CF93DF938C018AE090E039
:101790000E944C24E82EE7017E01F92EE7012097F4
:1017A00019F48FE792E064C0C8010E943C0D8130BB
:1017B000910509F043C0C8010E944B0D882319F020
:1017C0008130C9F51BC08DEC9EE0282F9B838A8356
:1017D00081E088838EE190E0682F9F838E83198655
:1017E000188601E019813B814C815D817F8180E019
:1017F00099850E940C0A85EE92E02AC040EC5EE0DA
:10180000242F5B834A8388838EE190E0682F9F8337
:101810008E831986188601E019813B814C815D8198
:101820007F8180E099850E940C0A83E093E00E940A
:10183000AD0D81E020C080E293E01AC0C8010E9493
:101840004B0D882319F0873069F406C08EE393E0CE
:101850000E94AD0D80E00FC08EE593E00E94AD0DBB
:1018600087E009C08FE793E00E94AD0D8BEA93E01B
:101870000E94AD0D8FEFDF91CF911F910F91FF90DF
:10188000EF90089588EC93E00E94AD0D0E94430E06
:1018900080E00895EF92FF920F931F93CF93DF9311
:1018A0008C018AE090E00E944C24E82EE7017E0142
:1018B000F92EE701209719F48FE792E081C0C80163
:1018C0000E943C0D8130910509F04EC0C8010E9474
:1018D0004B0D882321F0813009F043C021C085EDF4
:1018E0009DE0282F9B838A8381E088838EE190E0AE
:1018F000682F9F838E831986188601E019813B81AA
:101900004C815D817F8180E099850E940C0A81ED88
:1019100093E00E94AD0D0E943E0E0E949B0D3CC0C4
:1019200040E05EE0242F5B834A8388838EE190E071
:10193000682F9F838E831986188601E019813B8169
:101940004C815D817F8180E099850E940C0A8CEF3B
:1019500093E00E94AD0D0E943E0E0E949B0D81E01F
:1019600032C087E294E02CC0C8010E944B0D88234E
:1019700019F08730F9F412C080E090E00E94290E3F
:101980000E94C00E0E94C00E80E090E00E94621093
:1019900084E494E00E94AD0D80E015C088E790E0FB
:1019A0000E94290E0E94B50E83E694E00E94AD0DC0
:1019B00087E009C083E894E00E94AD0D8FEA94E0CF
:1019C0000E94AD0D8FEFDF91CF911F910F91FF908E
:1019D000EF900895CF93DF93EC010E945E0D8F3F4F
:1019E00001F1813061F0813028F0823069F0883077
:1019F000A1F40FC0CE010E944A0C80E013C0CE01BA
:101A00000E94BF0B81E00EC0CE010E945B0B82E002
:101A100009C00E94420C88E005C08EEC94E00E9450
:101A2000AD0D8FEFDF91CF910895CF93DF93EC0150
:101A30000E947F0D88838E3F18F4CE010E94EA0C2D
:101A40008881DF91CF9108950F931F93DF93CF93F8
:101A50000F92CDB7DEB78FEF89838E010F5F1F4FD7
:101A6000C8010E94150D89818F3FD1F70F90CF914A
:101A7000DF911F910F910895FC01808190E08870A3
:101A8000907023E0959587952A95E1F70895FC01DC
:101A9000808187700895FC01808187700895FC0122
:101AA000808182958F7090E08930910528F4875667
:101AB000984FFC01808108958FEF08950E944F0D8B
:101AC000089587EF9BE040E855E260E070E00E94F7
:101AD000032286E19CE040E855E260E070E00E946D
:101AE000032289E060E00E942D090895FC0187EF40
:101AF0009BE060814AE050E00E94D91E0895DF9388
:101B0000CF930F92CDB7DEB786E19CE00E946F1FA6
:101B1000181619065CF486E19CE00E949E1F8983DA
:101B2000CE0101960E94760D898101C08FEF0F9042
:101B3000CF91DF910895BC0187EF9BE04AE050E030
:101B40000E941C1F0895FC016081718186E19CE068
:101B50004AE050E00E941C1F0895EF92FF92CF933D
:101B6000DF93E82EE7017E01F92EE70104C087EF3D
:101B70009BE00E94681E69916623C9F787EF9BE08E
:101B80006BEF74E00E94651EDF91CF91FF90EF90A4
:101B900008958DEF94E00E94AD0D08950E945B0EB4
:101BA0000E947E0E80E090E00895EF92FF92CF9326
:101BB000DF930E948A0E2091ED073091EE072F5F90
:101BC0003F4F3093EE072093ED078C3891056CF072
:101BD0008CE890E00E948F0E84E190E09093EE07F5
:101BE0008093ED07CCE8D0E005C0EC012796CE014C
:101BF0000E948F0ECE01DF91CF91FF90EF9008955C
:101C0000EF92FF92CF93DF930E948A0E2091ED070F
:101C10003091EE07215030403093EE072093ED07CE
:101C20008830910534F0EC012797CE010E948F0E89
:101C30000AC080E090E00E948F0E1092EE07109292
:101C4000ED07C0E0D0E0CE01DF91CF91FF90EF90A3
:101C50000895EF92FF92CF93DF93EC0189379105BE
:101C600028F00E94A70ECFEFDFEF02C00E948F0E78
:101C7000CE01DF91CF91FF90EF9008958091ED0715
:101C80009091EE0708950E948A0E009781F487E0F4
:101C90000E9489098130910519F487E060E002C053
:101CA00087E061E00E94510920E030E002C02FEFA0
:101CB0003FEFC901089587E061E00E942D0980E0AF
:101CC00090E008958091EF07813029F0813018F07D
:101CD000823089F404C08BE064E670E00AC0609151
:101CE000F0077091F107633971052CF465597F4F46
:101CF0008BE00E944F1D8091EF0708958BE061E01B
:101D00000E942D0981E08093EF070E94620E80E01F
:101D100090E008958091F0079091F107089584393B
:101D2000910510F081E00EC0009739F41092F10790
:101D30001092F0071092EF0707C09093F10780937D
:101D4000F00782E08093EF070E94620E08951092E0
:101D5000EF070E94620E08958AE090E067E070E06D
:101D60000E94980F80E090E0089582EF9EE06AE084
:101D700070E047E050E00E94DA0E80E090E00895C5
:101D80008EE59FE06AE070E047E050E02AE030E056
:101D90000E94E10E80E090E008958BE79FE06AE00A
:101DA00070E047E050E02AE030E00E94E10E80E081
:101DB00090E00895FC01CB01BA01199580E090E014
:101DC0000895FC01CB01BA01A901199580E090E0CA
:101DD00008954091F2075091F3070E94BE0F80E0F2
:101DE00090E00895CF93DF93EB012EEF30E0309336
:101DF000F3072093F2074EEF50E00E94E90ECE0168
:101E00000E94361080E090E0DF91CF910895CF934B
:101E1000DF93EB012BE930E03093F3072093F207D7
:101E20004BE950E00E94E90ECE010E942B1080E0A9
:101E300090E0DF91CF91089524E630E03093F307EE
:101E40002093F20744E650E00E94E90E68EE73E04A
:101E500080E090E00E94260880E090E00895CF9313
:101E6000DF93EB012091F2073091F307243631051F
:101E700014F40E941C0FCE010E94201080E090E01C
:101E8000DF91CF9108950F931F93CF93DF93EC01D0
:101E90008B015093F3074093F2070E94CC0F4091BF
:101EA000F2075091F307CE01B8010E94E90E80E0DD
:101EB00090E0DF91CF911F910F9108950F931F93A1
:101EC000CF93DF93EC018B019A014091F20750917F
:101ED000F3070E940C10AC019093F3078093F20774
:101EE000CE01B8010E94430F80E090E0DF91CF91D6
:101EF0001F910F9108950F931F93CF93DF93EC01E0
:101F00008B019A014091F2075091F3070E94EE0F66
:101F1000AC019093F3078093F207CE01B8010E94C1
:101F2000430F80E090E0DF91CF911F910F910895D2
:101F30000F931F93DF93CF930F920F92CDB7DEB71E
:101F4000182F092FAB01862F61E049835A830E9425
:101F50002D09812F61E00E942D098FE29FE0612F02
:101F6000702F49815A810E94DA0E80E090E00F9034
:101F70000F90CF91DF911F910F910895CF93DF9331
:101F8000EB01BA010E944F1DCE010E94411080E07A
:101F900090E0DF91CF9108950F931F93CF93DF933C
:101FA0008C01EB014B39510544F4CB010E944C10DC
:101FB000C801BE010E94070F0AC04F3F51053CF007
:101FC000CB010E945710C801BE010E94F20E80E0B2
:101FD00090E0DF91CF911F910F910895EF92FF92C2
:101FE0000F931F93CF93DF937C018B01EA014F3F47
:101FF000510544F0CB010E945710C701B8010E945F
:10200000F20E02C0C20FD31FCE01DF91CF911F91FC
:102010000F91FF90EF900895EF92FF92CF93DF938F
:10202000CB01EA014B3951051CF40E944C1002C04F
:10203000C21BD30BCE01DF91CF91FF90EF9008959B
:102040000F931F938C0184E195E00E948D25C801B8
:102050001F910F9108950F931F938C0180E495E0D9
:102060000E948D25C8011F910F9108950F931F9312
:102070008C0188E595E00E948D25C8011F910F9184
:1020800008950F931F938C018FE695E00E948D2594
:10209000C8011F910F9108950F931F938C0184E83D
:1020A00095E00E948D25C8011F910F9108950F930F
:1020B0001F938C0184E995E00E948D25C8011F9132
:1020C0000F9108950F931F93CF93DF938C010E947C
:1020D0007510EC01B8010E947B11CE010E947A10AC
:1020E000DF91CF911F910F91089581E090E00E94C0
:1020F000572308950E945A2308950F931F93CF9357
:10210000DF93C4EFD7E0CE0162E070E00E941D1AB9
:1021100007EF17E0C80163E070E00E941D1ACE01CE
:102120006FE570E00E94581AC8016EE670E00E94E8
:10213000581A80E090E0DF91CF911F910F910895A0
:1021400084EF97E06EE170E00E94581A87EF97E005
:102150006DE270E00E94581A82E090E0089584EFEA
:1021600097E066E970E00E94581A87EF97E065EA09
:1021700070E00E94581A83E090E00895CF93DF93B7
:10218000C4EFD7E0CE010E94DB1ABC01CE010E9451
:10219000581AC7EFD7E0CE010E94DB1ABC01CE016E
:1021A0000E94581A84E090E0DF91CF91089584EF67
:1021B00097E06FE570E00E94581A87EF97E06EE6AF
:1021C00070E00E94581A85E090E0089584EF97E04F
:1021D00064EB70E00E94581A87EF97E06FE070E0C0
:1021E0000E94581A86E090E008950F931F93CF93B2
:1021F000DF9384EF97E00E94DB1A8C01EC012F96AD
:10220000863991057CF484EF97E0BE010E94581A4C
:10221000B801625E7F4F87EF97E00E94581A27E06F
:1022200030E00CC084EF97E0B8010E94581A87EFA5
:1022300097E0BE010E94581A28E030E0C901DF9102
:10224000CF911F910F910895CF93DF9384EF97E083
:102250000E94DB1AEC018F3191057CF0BC016F50BC
:10226000704084EF97E00E94581A87EF97E0BE0114
:102270000E94581A29E030E00CC084EF97E0BE01BC
:102280000E94581A87EF97E0BE010E94581A2AE070
:1022900030E0C901DF91CF91089562307105D1F02E
:1022A000633071053CF46115710571F061307105A1
:1022B000E9F40DC06430710599F0643071056CF07B
:1022C0006530710599F40FC00E94D71011C00E94AB
:1022D000AF100EC00E94A0100BC00E94241108C0B5
:1022E0000E94F51005C00E94E61002C00E94BE10B8
:1022F0008BE090E008950F931F93CF93DF938C01B1
:10230000EB010E947D10C801BE010E944D11DF91BA
:10231000CF911F910F91089584EF97E00E94531978
:1023200087EF97E00E94531908958130910539F4A1
:102330008AEF97E062E043E00E94E8110895009779
:1023400051F486EA97E09093FB078093FA0786E0C2
:1023500098E00E94CD17089581E090E00E949511C9
:10236000089580E090E00E94951108950C960E94D7
:10237000AF1408950C960E9495140895CF93DF939F
:10238000EC010C960E9474149C01EEADFFAD8081AF
:10239000992787FD90952817390741F4CF010196B9
:1023A0009FAF8EAF8181882339F41DAE8091930752
:1023B000909194079FAF8EAFC901DF91CF9108959F
:1023C0000C960E946A1508950C960E94C0140895F8
:1023D0000F931F93CF93DF93EC011B821A8288EE39
:1023E00093E0A0E0B0E08C839D83AE83BF8386EA58
:1023F00097E0998388838E01045F1F4FC80120E016
:102400000E94A1161CAE1DAE18AE19AE1AAE1BAEC0
:102410006091910770919207CE0188960E9486255F
:10242000FE01EE5BFF4F80ED97E091838083FE011C
:10243000E05CFF4F80E590E091838083FE01EC5BE0
:10244000FF4F1182108280919307909194079FAF64
:102450008EAFC80140E855E260E070E00E94CE1601
:10246000C8010E94E214C8010E94AF14DF91CF910D
:102470001F910F910895EF92FF92CF93DF938CE01D
:1024800090E00E944C24E82EE7017E01F92EE7013E
:102490002097A9F00E94CC120E9463136887798765
:1024A0008A879B8780E090E0DC0188839983AA83F8
:1024B000BB830E94F2076C837D838E839F83CE0152
:1024C000DF91CF91FF90EF9008952F923F924F921E
:1024D0005F926F927F928F929F92AF92BF92CF92B4
:1024E000DF92EF92FF920F931F93CF93DF93EC0154
:1024F0000E94F2073B014C018C819D81AE81BF811E
:1025000084017301E81AF90A0A0B1B0B2880398031
:102510004A805B80688579858A859B850E941C132B
:102520005B016C01C801B7010E9484059B01AC01ED
:10253000C601B5010E942A0320E030E04AE754E4D6
:102540000E9424049B01AC01C201B1010E94CC0293
:10255000688379838A839B836C827D828E829F824B
:10256000DF91CF911F910F91FF90EF90DF90CF906F
:10257000BF90AF909F908F907F906F905F904F90A3
:102580003F902F900895FC01608171818281938139
:102590000E943205CB010895CF93DF93C6E8D8E0BF
:1025A000CE010E942514CE0160E470E00E944A141E
:1025B000CE0160E10E94F513CE0166EB0E94F51397
:1025C000CE010E944D146AE070E080E090E00E942D
:1025D0002608CE0160E470E00E944A14CE016DE04E
:1025E0000E94F513CE0160E10E94F513CE010E9416
:1025F0004D14CE0160E470E00E944A14CE0160E206
:102600000E94F513CE0160E70E94F513CE010E94EF
:102610004D14CE0160E470E00E944A14CE0165E3DF
:102620000E94F513CE0164E00E94F513CE010E94D2
:102630004D14DF91CF910895CF92DF92EF92FF92E8
:102640000F931F93CF93DF936B017C01C6E8D8E013
:10265000CE0160E470E00E944A14CE0162E00E9464
:10266000F513CE010E944D14CE0160E470E042E00B
:1026700050E00E943D14CE010E949E138C01CE01B9
:102680000E949E13782F60E0602B712B75956795E3
:1026900075956795882777FD8095982F0E94D204BD
:1026A0002EE230E940E25BE30E942A03A701960193
:1026B0000E94CC02DF91CF911F910F91FF90EF907C
:1026C000DF90CF900895EF92FF920F931F93CF93D7
:1026D000DF93C0E9D1E0EE24FF2400E010E060E0E9
:1026E00070E0CB010E941C139B01AC016E2D7F2D6D
:1026F000802F912F0E94CC027B018C0181E792E018
:102700000E944D08219759F76E2D7F2D802F912F14
:1027100020E030E048EC53EC0E942404DF91CF919C
:102720001F910F91FF90EF9008952091610830E084
:1027300080916008281B3109C901089580916008C3
:1027400090916108891750F4E82FF0E0E05CF74FB2
:10275000208130E08F5F8093600802C02FEF3FEF51
:10276000C9010895E091600880916108E81730F48C
:10277000F0E0E05CF74F208130E002C02FEF3FEF48
:10278000C90108950895CF92DF92EF92FF920F93BF
:102790001F93CF93DF936C01CB01EA012091850851
:1027A0002223B1F0E62EF92E00E010E00DC0D70193
:1027B0006D917D01D601ED91FC910190F081E02DAC
:1027C000C60119950F5F1F4F0C171D0780F303C03B
:1027D000642F0E94C31BCE01DF91CF911F910F91F7
:1027E000FF90EF90DF90CF900895DF93CF930F92FB
:1027F000CDB7DEB76983209185082223D1F02091DF
:102800008408203240F021E030E0FC013383228351
:1028100020E030E015C080918308E82FF0E0ED590A
:10282000F74F998190838F5F80938308809384080A
:1028300005C0CE01019661E00E94C31B21E030E09B
:10284000C9010F90CF91DF91089510926008109206
:10285000610810928308109284080E94341B089526
:10286000862F413208F040E260E478E00E944D1B80
:10287000109260088093610808950E9430140895B2
:1028800081E080938508609362081092830810921B
:10289000840808950E94401408958091620863E6B8
:1028A00078E04091840821E00E94831B1092830805
:1028B0001092840810928508089510928908109249
:1028C000880888EE93E0A0E0B0E080938A089093B7
:1028D0008B08A0938C08B0938D0886EB97E09093BB
:1028E0008708809386080895209192083091930874
:1028F00028173907B1F49091D5088091D40898171A
:1029000081F0E091D508F0E0EC56F74F20818091FE
:10291000D50890E001968F7390708093D50830E0D1
:1029200002C02FEF3FEFC901089520919208309126
:1029300093082817390779F48091D4082091D50895
:1029400090E0805C9F4F821B910960E470E00E94E0
:1029500088239C0102C020E030E0C9010895209145
:102960009208309193082817390749F48FB7F894E3
:102970001092D4089091D4089093D5088FBF0895F1
:1029800020919208309193082817390781F490918B
:10299000D5088091D408981751F0E091D508F0E05F
:1029A000EC56F74F2081332727FD309502C02FEFDB
:1029B0003FEFC901089520E001972FEF8F3F920765
:1029C000D9F70895FC0180919208909193088E1791
:1029D0009F0791F0838D8E7F838F8FB7F89410922D
:1029E000D4089091D4089093D508F0939308E0937D
:1029F00092088FBF81E0089580E00895EF92FF92E2
:102A00000F931F93CF93DF93EC018B8DEE85FF85A2
:102A10009D8581FF04C08081892329F445C0808180
:102A2000892309F041C08B899C890E94DB1408E04E
:102A300010E0EE24E394FF248D899E890E94DB142C
:102A4000EE85FF8580819D85892311F0FE2803C0D6
:102A50008E2D8095F822EE0C0150104069F78F8979
:102A6000988D0E94DB148B8D81FDF0948091D408A9
:102A70002091D50890E001968F73907030E0821716
:102A8000930779F0E091D408F0E0EC56F74FF0822C
:102A90008091D40890E001968F7390708093D40851
:102AA00003C08B8D81608B8FDF91CF911F910F9130
:102AB000FF90EF900895FC01A189B2899089662367
:102AC00029F42C91892F8095822302C08C91892B27
:102AD0008C930895DF92EF92FF920F931F93CF9301
:102AE000DF93EC01E62E898D9A8D009739F481E011
:102AF00090E09B838A8320E030E04BC0DFB6F894FF
:102B00008B8D61E081FF60E0CE010E945B15898DB5
:102B10009A8D05960E94DB148B8D81FF19C008E009
:102B200010E0FF24F3948F2D8E2119F0CE0160E088
:102B300002C0CE0161E00E945B15898D9A8D0E94D2
:102B4000DB14FF0C0150104071F7CE0160E018C09B
:102B500008E010E0FF24F3948F2D8E2119F0CE01B0
:102B600061E002C0CE0160E00E945B15898D9A8D04
:102B70000E94DB14FF0C0150104071F7CE0161E0A0
:102B80000E945B15DFBE898D9A8D0E94DB1421E0C7
:102B900030E0C901DF91CF911F910F91FF90EF902D
:102BA000DF9008958091920890919308009711F01A
:102BB0000E94FE1408951F920F920FB60F920BB64B
:102BC0000F9211242F933F934F935F936F937F93B3
:102BD0008F939F93AF93BF93EF93FF930E94D21570
:102BE000FF91EF91BF91AF919F918F917F916F91E5
:102BF0005F914F913F912F910F900BBE0F900FBEA1
:102C00000F901F9018951F920F920FB60F920BB650
:102C10000F9211242F933F934F935F936F937F9362
:102C20008F939F93AF93BF93EF93FF930E94D2151F
:102C3000FF91EF91BF91AF919F918F917F916F9194
:102C40005F914F913F912F910F900BBE0F900FBE50
:102C50000F901F9018951F920F920FB60F920BB600
:102C60000F9211242F933F934F935F936F937F9312
:102C70008F939F93AF93BF93EF93FF930E94D215CF
:102C8000FF91EF91BF91AF919F918F917F916F9144
:102C90005F914F913F912F910F900BBE0F900FBE00
:102CA0000F901F9018951F93CF93DF93EC01162F71
:102CB000862F61E00E942D09812F61E00E94510959
:102CC000812F90E0FC01E858FE4FE491E88BFC0175
:102CD000EE5CFE4FE491F0E0EE0FFF1FE250FF4F7D
:102CE00085919491898B9A8BDF91CF911F91089553
:102CF0001F93CF93DF93EC01162F862F60E00E9485
:102D00002D098B8D81FD04C0812F61E00E94510946
:102D10001C87812F90E0FC01E858FE4FE491ED877D
:102D2000FC01EE5CFE4FE491F0E0EE0FFF1FE85E69
:102D3000FE4F859194918E879F87DF91CF911F9150
:102D400008951F93CF93DF93EC01162F1B821A82F5
:102D500088EE93E0A0E0B0E08C839D83AE83BF83D8
:102D600086EC97E0998388831C8A1B8A1E8A1D8AB9
:102D7000188E1F8A1A8E198E8B8D2170220F8C7FD0
:102D8000822B8B8FCE01642F0E945316CE01612FB0
:102D90000E947816DF91CF911F910895EF92FF92D4
:102DA0000F931F93CF93DF93EC017A018B011A8E5F
:102DB000198E188E1F8A1E8A1D8A1C8A1B8A40E063
:102DC00050E09A01220F331F240F351F220F331FAB
:102DD000220F331FF901EC5FFD4F85919591A5916D
:102DE000B4918E159F05A007B107E9F4F901E85FDA
:102DF000FD4F859194918B8B9C8BF901E65FFD4F84
:102E0000859194918D8B9E8BF901E45FFD4F8591A7
:102E100094918F8B988F225F3D4FF901859194910A
:102E2000898F9A8F06C04F5F5F4F4C30510509F074
:102E3000C8CF8F89988D009709F466C08C85982F2C
:102E40009A50943040F0282F2253243020F02C50F8
:102E5000283008F055C020916800943048F0982F31
:102E60009253943028F08E53883010F484E001C0DF
:102E700081E0822B809368002C85922F9A509430A9
:102E800088F0822F8253843068F08C50883018F498
:102E9000EDE6F0E002C0E0E0F0E0883040F4ADE6BE
:102EA000B0E007C0EBE6F0E0ABE6B0E002C0A0E0C7
:102EB000B0E04C91943020F430E0265030400FC008
:102EC0002233A9F02333A9F02433A9F02533A9F044
:102ED000822F8E53883088F430E02E53304081E0CA
:102EE00090E002C0880F991F2A95E2F707C088E09A
:102EF00005C084E003C082E001C081E0842B8083B0
:102F0000898D9A8D0E94DB14CE010E94E214DF911C
:102F1000CF911F910F91FF90EF900895FC012485B0
:102F2000922F9A50943060F0822F8253843040F078
:102F30008C50883088F5EDE6F0E0ADE6B0E004C0F6
:102F4000EBE6F0E0ABE6B0E04C91943020F430E0FA
:102F5000265030400FC02233B1F02333B1F0243378
:102F6000B1F02533B1F0822F8E53883090F430E0E9
:102F70002E53304081E090E002C0880F991F2A95BF
:102F8000E2F7809507C087EF05C08BEF03C08DEF98
:102F900001C08EEF84238083089526EC37E0FC0186
:102FA000318320830E948E170895EF92FF920F9332
:102FB0001F93CF93DF93EB017A018C01DC01A959B8
:102FC000B64F8C9187FF03C01982188237C0C801A1
:102FD000880F991F800F911F880F991F880F991FC5
:102FE0002C91332727FD3095280F391F4091D608A3
:102FF00050E02417350714F52C91332727FD309521
:10300000280F391FF901EE0FFF1FE20FF31FE952DE
:10301000F74F208126FF12C02C91332727FD3095D2
:10302000280F391FF901EE0FFF1FE20FF31FE952BE
:10303000F74F80818F7360E00E945109F801E959D0
:10304000F64F80818F5F8083C801880F991F800FA2
:10305000911F880F991F880F991F2081332727FD03
:103060003095280F391F4091D60850E024173507B6
:103070000CF053C020812C300CF04FC04881598196
:103080002081332727FD3095280F391FD901AA0F3A
:10309000BB1FA20FB31FA952B74F11962D913C91A0
:1030A0001297420F531FD70111965C934E932081C4
:1030B000332727FD3095280F391FD901AA0FBB1FD1
:1030C000A20FB31FA952B74F2C9126FF2DC020810C
:1030D000332727FD3095280F391FF901EE0FFF1F09
:1030E000E20FF31FE952F74F80818F7361E00E9476
:1030F00051091AC080E49CE9F7019183808307C0DD
:10310000888199810496D70111969C938E93F8013A
:10311000E959F64F8FEF808307C088819981BCE918
:1031200084349B0738F3ECCFDF91CF911F910F913F
:10313000FF90EF9008951F920F920FB60F920BB66B
:103140000F9211242F933F934F935F936F937F932D
:103150008F939F93AF93BF93EF93FF9381E090E0A2
:1031600064E870E048E850E00E94D517FF91EF91C5
:10317000BF91AF919F918F917F916F915F914F918F
:103180003F912F910F900BBE0F900FBE0F901F908D
:1031900018951F920F920FB60F920BB60F92112433
:1031A0002F933F934F935F936F937F938F939F934F
:1031B000AF93BF93EF93FF9382E090E064E970E0F8
:1031C00048E950E00E94D517FF91EF91BF91AF9170
:1031D0009F918F917F916F915F914F913F912F912F
:1031E0000F900BBE0F900FBE0F901F9018951F925F
:1031F0000F920FB60F920BB60F9211242F933F939D
:103200004F935F936F937F938F939F93AF93BF93EE
:10321000EF93FF9383E090E064EA70E048EA50E0C7
:103220000E94D517FF91EF91BF91AF919F918F9120
:103230007F916F915F914F913F912F910F900BBEB6
:103240000F900FBE0F901F9018951F920F920FB600
:103250000F920BB60F9211242F933F934F935F93CE
:103260006F937F938F939F93AF93BF93EF93FF934E
:1032700080E090E064E271E048E251E00E94D517FE
:10328000FF91EF91BF91AF919F918F917F916F913E
:103290005F914F913F912F910F900BBE0F900FBEFA
:1032A0000F901F901895FC018091D608803390F400
:1032B00080838F5F8093D608808190E0FC01EE0FC1
:1032C000FF1FE80FF91FE952F74F88EB9BE092834D
:1032D000818308958FEF80830895DF92EF92FF92AC
:1032E0000F931F93CF93DF93EC01D62E8A017901C0
:1032F0008881803308F093C0862F61E00E942D09F9
:103300004881842F90E0FC01EE0FFF1FE80FF91FAA
:10331000E952F74F9D2D9F738081807C892B80839C
:1033200080E292E0801B910B24E030E0B9010E9422
:103330008823698380E699E08E199F09B9010E946C
:1033400088236A83842F6CE00E947C2390E09C0198
:10335000220F331F280F391F220F331F220F331F55
:1033600040E050E0BA01620F731FFB01EE0FFF1F38
:10337000E60FF71FE952F74F608166FD44C04F5FCB
:103380005F4F4C30510571F753C01092800082E0BE
:10339000809381001092850010928400B19A8091F0
:1033A0006F00826080936F002EC08230910569F4B7
:1033B0001092900082E080939100109295001092FC
:1033C000940088BB809371001EC08330910569F41E
:1033D0001092A00082E08093A1001092A5001092AC
:1033E000A40089BB809372000EC0009761F4109214
:1033F000200182E080932101109225011092240186
:103400008ABB80937300888190E0FC01EE0FFF1F60
:10341000E80FF91FE952F74F80818064808388812B
:10342000DF91CF911F910F91FF90EF90DF90089562
:103430008130910509F0B9CFA8CF40E252E020E6F3
:1034400039E00E946D190895FC012081203378F540
:103450004181552747FD509588E890E0841B950BE6
:10346000880F991F880F991F6817790784F0428188
:10347000552747FD509588E592E0841B950B880FF2
:10348000991F880F991F681779070CF4CB014FB764
:10349000F89430E0F901EE0FFF1FE20FF31FE9523D
:1034A000F74F0297880F991F928381834FBF08952A
:1034B000AF92BF92CF92DF92EF92FF920F931F9342
:1034C000CF93DF93EC0182E0603278070CF046C0C6
:1034D00077FD04C0653B710524F405C060E070E031
:1034E00002C064EB70E000D00F92882777FD8095D2
:1034F000982F4981552747FD509528E830E0241B37
:10350000350B220F331F220F331F5901CC24B7FC78
:10351000C094DC2C4A81552747FD509528E532E0C0
:10352000241B350B220F331F220F331F442737FD77
:103530004095542FEDB7FEB72183328343835483E4
:1035400020E030E0A901B4EBEB2EF12C012D112D80
:103550000E94261F0F900F900F900F90CE010E9497
:10356000241ADF91CF911F910F91FF90EF90DF9080
:10357000CF90BF90AF900895FC0180818F3FB9F04C
:1035800090E0FC01EE0FFF1FE80FF91FE952F74F23
:103590002181328193E0220F331F9A95E1F784E075
:1035A000369527958A95E1F72E5F3F4F02C020E0C0
:1035B00030E0C9010895AF92BF92CF92DF92EF92AF
:1035C000FF920F931F93CF93DF93EC010E94BC1ADD
:1035D00000D00F92BC016F5F7F4F882777FD8095E9
:1035E000982F4981552747FD509528E830E0241B46
:1035F000350B220F331F220F331F442737FD409511
:10360000542FAA81BB27A7FDB095E8E5F2E0EA1B9D
:10361000FB0BEE0FFF1FEE0FFF1F5F01CC24B7FC6B
:10362000C094DC2CE4EBEE2EF12C012D112DEDB726
:10363000FEB7E182F2820383148386017501AA2416
:10364000BB2465010E94261F0F900F900F900F90D2
:10365000CB01DF91CF911F910F91FF90EF90DF9001
:10366000CF90BF90AF90089510928F0984E161E0F0
:103670000E94510985E161E00E945109E9EBF0E007
:1036800080818E7F808380818D7F808388E480939A
:10369000B80085E48093BC000895413288F590918C
:1036A0008F099923E1F791E090938F099FEF909311
:1036B0008E0910926C09942F915090936D09880F88
:1036C000816080936B0985EE8093BC0080918F09A7
:1036D0008130E1F380916C09841710F440916C09FA
:1036E000EEE6F9E0262F372FD901242F30E02E0FF8
:1036F0003F1F02C081918D93E217F307D9F701C0F4
:1037000040E0842F08954132B0F590918F099923BC
:10371000E1F792E090938F099FEF90938E091092BA
:103720006C0940936D09DB01EEE6F9E050E04E0FC5
:103730005F1F02C09D919193E417F507D9F790E0C0
:10374000880F991F80936B0985EE8093BC0022231C
:1037500021F080918F098230E1F380918E098F3FB3
:1037600061F080918E09803251F080918E09803312
:1037700041F483E0089581E0089580E0089582E0B7
:10378000089584E008956132A0F420918F092430D7
:1037900091F46093B409DC01E7EBF9E070E06E0F9F
:1037A0007F1F02C08D918193E617F707D9F780E05C
:1037B000089581E0089582E00895882311F085EC52
:1037C00001C085E88093BC00089585ED8093BC001E
:1037D0008091BC0084FDFCCF10928F09089585EC88
:1037E0008093BC0010928F0908951F920F920FB61C
:1037F0000F920BB60F9211242F933F934F935F9329
:103800006F937F938F939F93AF93BF93EF93FF93A8
:103810008091B90090E0887F90708036910509F41E
:10382000C2C081369105E4F58832910509F47EC065
:1038300089329105C4F48031910509F472C0813157
:10384000910544F4009709F413C18830910509F0FB
:1038500013C167C08831910509F468C080329105B1
:1038600009F00AC178C08034910509F48AC0813416
:1038700091054CF48033910509F46FC088339105AC
:1038800009F0FAC06EC08035910509F46EC0883524
:10389000910509F47BC08834910509F0EDC0EAC0B8
:1038A0008839910509F4DAC089399105ECF4883733
:1038B000910509F478C0893791054CF48836910553
:1038C00009F471C08037910509F0D6C06CC0883802
:1038D000910509F4C3C08039910509F46AC08038A4
:1038E000910509F0C9C065C0803B910509F48EC0FF
:1038F000813B91054CF4803A910509F46CC0883AFB
:10390000910509F0B9C082C0803C910509F4AAC0B4
:10391000883C910509F4A6C0883B910509F0ACC02C
:103920008AC080916B098093BB0013C090916C0991
:1039300080916D09981708F09DC080916C09E82F5F
:10394000F0E0E259F64F90819093BB008F5F809337
:103950006C0981E084C080E201C080E380938E091D
:1039600089C088E380938E094EC080916C09909144
:10397000BB00E82FF0E0E259F64F90838F5F809311
:103980006C0990916C0980916D0965C080916C09FA
:103990009091BB00E82FF0E0E259F64F90838F5FE3
:1039A00080936C0967C083E080938F09109290091F
:1039B000D0CF80919009803208F050C0809190095A
:1039C0009091BB00E82FF0E0EF56F64F90838F5FA9
:1039D00080939009BECF80919009803230F4E091BD
:1039E0009009F0E0EF56F64F10820E94E51B6091BF
:1039F0009009E091B109F091B20981E999E070E094
:103A00001995109290090E94EF1B36C084E08093B4
:103A10008F091092B3091092B409E091B509F091A1
:103A2000B60919958091B409882329F481E080931F
:103A3000B4091092B7098091B309E82FF0E0E95476
:103A4000F64F90819093BB008F5F8093B309909164
:103A5000B3098091B409981708F47BCF80E00E94E5
:103A6000DD1B0AC081E00E94DD1B10928F0904C09B
:103A700010928E090E94E51BFF91EF91BF91AF91CB
:103A80009F918F917F916F915F914F913F912F9176
:103A90000F900BBE0F900FBE0F901F9018951F93A5
:103AA000CF93DF93182FEB0161E00E942D0920973F
:103AB00009F4C5C0CF3FD10509F4C4C0E12FF0E03F
:103AC000E254FE4FE491E93009F466C0EA30B0F404
:103AD000E430F1F1E53040F4E23059F1E33070F5D3
:103AE000E13009F0A9C020C0E73009F443C0E83054
:103AF00008F048C0E63009F09FC034C0ED3009F44A
:103B000073C0EE3038F4EB3009F45AC0EC3008F0F2
:103B100061C04CC0E03109F47BC0E13109F482C0DE
:103B2000EF3009F089C06AC084B5806884BDC7BD24
:103B30008DC084B5806284BDC8BD88C0809180007E
:103B4000806880938000D0938900C09388007EC0F5
:103B500080918000806280938000D0938B00C0931E
:103B60008A0074C08091B00080688093B000C093D8
:103B7000B3006CC08091B00080628093B000C093AD
:103B8000B40064C080919000806880939000D093CE
:103B90009900C09398005AC08091900080628093F1
:103BA0009000D0939B00C0939A0050C080919000E9
:103BB000886080939000D0939D00C0939C0046C085
:103BC0008091A00080688093A000D093A900C0934A
:103BD000A8003CC08091A00080628093A000D09398
:103BE000AB00C093AA0032C08091A000886080938F
:103BF000A000D093AD00C093AC0028C080912001FC
:103C0000806880932001D0932901C09328011EC0B1
:103C100080912001806280932001D0932B01C0937A
:103C20002A0114C080912001886080932001D093E4
:103C30002D01C0932C010AC0C038D1051CF4812F7E
:103C400060E002C0812F61E00E945109DF91CF91B5
:103C50001F910895CF92DF92EF92FF920F931F93DF
:103C6000CF93DF936C017B018A01C0E0D0E00FC0ED
:103C7000D7016D917D01D601ED91FC910190F0810C
:103C8000E02DC6011995C80FD91F0150104001152C
:103C9000110571F7CE01DF91CF911F910F91FF9028
:103CA000EF90DF90CF900895DB010D900020E9F7B1
:103CB000AD0141505040461B570BDC01ED91FC918A
:103CC0000280F381E02D199508950E94541E0895F5
:103CD000DC01ED91FC910190F081E02D19950895A2
:103CE0008F929F92AF92BF92CF92DF92EF92FF920C
:103CF0000F931F93DF93CF93CDB7DEB7A1970FB686
:103D0000F894DEBF0FBECDBF6C01042FE52FCB01B1
:103D1000122F19A2223008F41AE021E2E22EF12C2F
:103D2000EC0EFD1E812E9924AA24BB2403C0022F71
:103D3000E32FCA01602F7E2FA50194010E949B23CF
:103D4000129F802D1124081B0894E108F1080A3005
:103D500014F4005D01C0095CF701008321153105F1
:103D60004105510521F7C601B7010E94541EA196D5
:103D70000FB6F894DEBF0FBECDBFCF91DF911F917C
:103D80000F91FF90EF90DF90CF90BF90AF909F90FA
:103D90008F9008952115310549F4DC01ED91FC91D6
:103DA0000190F081E02D642F199508950E94701EF6
:103DB00008959A01462F50E060E070E00E94CA1E0C
:103DC0000895CF92DF92EF92FF920F931F93CF93BC
:103DD000DF93EC017A018B012115310541F4E88173
:103DE000F9810190F081E02D642F19951AC02A30D5
:103DF0003105A9F477FF12C06DE20E94681E6C01C4
:103E000044275527BA014E195F09600B710BCE018B
:103E10002AE00E94701EC80ED91E04C02AE00E942B
:103E2000701E6C01C601DF91CF911F910F91FF9021
:103E3000EF90DF90CF9008959A01FB01AF016627C4
:103E400057FD6095762F0E94E11E08952F923F92B4
:103E50004F925F926F927F928F929F92AF92BF929A
:103E6000CF92DF92EF92FF920F931F93DF93CF9346
:103E7000CDB7DEB73B014C0119012A016E897F895C
:103E8000888D998D6A197B098C099D09621A730ABC
:103E9000840A950AA40193010E945D23E218F308A5
:103EA00004091509A80197010E94BD232A0D3B1D95
:103EB0004C1D5D1DB901CA01CF91DF911F910F917A
:103EC000FF90EF90DF90CF90BF90AF909F908F903A
:103ED0007F906F905F904F903F902F900895FC01DE
:103EE00084859585FC01E05CFF4F208131818E5BEC
:103EF0009F4FFC0180819181281B390B2F733070FB
:103F0000C9010895FC0184859585FC01E05CFF4FA3
:103F100040815181FC01EE5BFF4F208131814217CE
:103F2000530741F00190F081E02DE80FF91F208147
:103F300030E002C02FEF3FEFC9010895FC018485F6
:103F40009585FC01E05CFF4F40815181FC01EE5BF7
:103F5000FF4F208131814217530771F0A081B18159
:103F6000A80FB91F2C918081918101968F73907059
:103F70009183808330E002C02FEF3FEFC9010895A5
:103F8000DC011E968D919C911F97FC01E05CFF4F18
:103F90008E5B9F4F40815181DC012D913C911197A7
:103FA00042175307B9F70895CF93FC01C62F268512
:103FB0003785D901A05CBF4F8D919C91019660E43B
:103FC00070E00E948823D901AE5BBF4F4D915C9198
:103FD000119784179507D1F3D901A05CBF4F0D90BD
:103FE000BC91A02DA20FB31FCC93A685B785A05C72
:103FF000BF4F11969C938E93A689B7892C9181E02F
:1040000090E0058C02C0880F991F0A94E2F7282BD4
:104010002C9381E090E0CF910895FB01E05CFF4F8D
:10402000208131812F5F3F4F2F733070DB01AE5BFA
:10403000BF4F4D915C9111972417350739F0A0813E
:10404000B181A60FB71F8C933183208308951F92EF
:104050000F920FB60F920BB60F9211242F933F932E
:104060004F935F936F937F938F939F93AF93BF9380
:10407000EF93FF938091C60067ED79E00E940D20D9
:10408000FF91EF91BF91AF919F918F917F916F9130
:104090005F914F913F912F910F900BBE0F900FBEEC
:1040A0000F901F9018951F920F920FB60F920BB69C
:1040B0000F9211242F933F934F935F936F937F93AE
:1040C0008F939F93AF93BF93EF93FF938091CE0015
:1040D0006FE57AE00E940D20FF91EF91BF91AF91C3
:1040E0009F918F917F916F915F914F913F912F9110
:1040F0000F900BBE0F900FBE0F901F9018951F9240
:104100000F920FB60F920BB60F9211242F933F937D
:104110004F935F936F937F938F939F93AF93BF93CF
:10412000EF93FF938091D60067EE7AE00E940D2016
:10413000FF91EF91BF91AF919F918F917F916F917F
:104140005F914F913F912F910F900BBE0F900FBE3B
:104150000F901F9018951F920F920FB60F920BB6EB
:104160000F9211242F933F934F935F936F937F93FD
:104170008F939F93AF93BF93EF93FF9380913601FB
:104180006FE67BE00E940D20FF91EF91BF91AF9110
:104190009F918F917F916F915F914F913F912F915F
:1041A0000F900BBE0F900FBE0F901F9018951F928F
:1041B0000F920FB60F920BB60F9211242F933F93CD
:1041C0005F936F937F938F939F93AF93BF93EF937F
:1041D000FF9320915B0A30915C0A80915D0A909177
:1041E0005E0A2817390731F48091C1008F7D8093D2
:1041F000C10016C0E0915D0AF0915E0AE55EF54FE0
:10420000208180915D0A90915E0A019660E470E0E1
:104210000E94882390935E0A80935D0A2093C600D3
:10422000FF91EF91BF91AF919F918F917F916F918E
:104230005F913F912F910F900BBE0F900FBE0F908B
:104240001F9018951F920F920FB60F920BB60F92F8
:1042500011242F933F935F936F937F938F939F933B
:10426000AF93BF93EF93FF932091E30A3091E40A59
:104270008091E50A9091E60A2817390731F4809178
:10428000C9008F7D8093C90016C0E091E50AF091C6
:10429000E60AED55F54F20818091E50A9091E60AF6
:1042A000019660E470E00E9488239093E60A809370
:1042B000E50A2093CE00FF91EF91BF91AF919F91BE
:1042C0008F917F916F915F913F912F910F900BBED6
:1042D0000F900FBE0F901F9018951F920F920FB660
:1042E0000F920BB60F9211242F933F935F936F930E
:1042F0007F938F939F93AF93BF93EF93FF932091FF
:104300006B0B30916C0B80916D0B90916E0B28179D
:10431000390731F48091D1008F7D8093D10016C090
:10432000E0916D0BF0916E0BE55DF44F2081809173
:104330006D0B90916E0B019660E470E00E948823F3
:1043400090936E0B80936D0B2093D600FF91EF91AD
:10435000BF91AF919F918F917F916F915F913F91AD
:104360002F910F900BBE0F900FBE0F901F901895BE
:104370001F920F920FB60F920BB60F9211242F932C
:104380003F935F936F937F938F939F93AF93BF936D
:10439000EF93FF932091F30B3091F40B8091F50B89
:1043A0009091F60B2817390731F4809131018F7DF8
:1043B0008093310116C0E091F50BF091F60BED54AE
:1043C000F44F20818091F50B9091F60B019660E4FB
:1043D00070E00E9488239093F60B8093F50B209356
:1043E0003601FF91EF91BF91AF919F918F917F9196
:1043F0006F915F913F912F910F900BBE0F900FBE69
:104400000F901F901895DF92EF92FF920F931F93DA
:10441000CF93DF93EC017A018B01DD24D3944030FC
:1044200081EE580780E0680780E0780749F4DD24D2
:10443000EC89FD89108260E874E88EE190E00FC09D
:10444000EC89FD8981E090E00E8C02C0880F991FF5
:104450000A94E2F7808360E079E08DE390E0A801C0
:1044600097010E949B232150304040405040569578
:1044700047953795279580E12030380710F0DD20EB
:10448000B1F6E889F9893083EA89FB892083EE89CE
:10449000FF89408181E090E09C010A8C02C0220FDC
:1044A000331F0A94E2F7422B4083EE89FF89408153
:1044B0009C010B8C02C0220F331F0A94E2F7422B9F
:1044C0004083EE89FF8940819C010C8C02C0220F41
:1044D000331F0A94E2F7422B4083EE89FF89208143
:1044E0000D8C02C0880F991F0A94E2F780958223F1
:1044F0008083DF91CF911F910F91FF90EF90DF901C
:1045000008950F931F93CF931092FA0B1092F90B0B
:1045100088EE93E0A0E0B0E08093FB0B9093FC0B5F
:10452000A093FD0BB093FE0BE9EFFBE026ED37E027
:104530003293229347ED59E0558744874BE15AE087
:104540005787468745EC50E0518B408B44EC50E058
:10455000538B428B40EC50E0558B448B41EC50E048
:10456000578B468B46EC50E0518F408FC4E0C28F92
:1045700073E0738F67E0648F55E0558F41E0468F9D
:104580001092190C1092180C80931A0C90931B0C1B
:10459000A0931C0CB0931D0CE8E1FCE03293229335
:1045A0000FE51AE01587048703EA1AE017870687E4
:1045B0000DEC10E0118B008B0CEC10E0138B028BD8
:1045C00008EC10E0158B048B09EC10E0178B068BC0
:1045D0000EEC10E0118F008FC28F738F648F558F98
:1045E000468F1092380C1092370C8093390C9093B0
:1045F0003A0CA0933B0CB0933C0CE7E3FCE0329305
:10460000229307EE1AE0158704870BE21BE0178759
:10461000068705ED10E0118B008B04ED10E0138B85
:10462000028B00ED10E0158B048B01ED10E0178B71
:10463000068B06ED10E0118F008FC28F738F648F91
:10464000558F468F1092570C1092560C8093580C31
:104650009093590CA0935A0CB0935B0CE6E5FCE0E8
:10466000329322938FE69BE09587848783EB9BE0D0
:104670009787868785E391E0918B808B84E391E037
:10468000938B828B80E391E0958B848B81E391E027
:10469000978B868B86E391E0918F808FC28F738F8B
:1046A000648F558F468FCF911F910F9108950E946F
:1046B0004C2408950E94E6240895629FD001739FC0
:1046C000F001829FE00DF11D649FE00DF11D929FAE
:1046D000F00D839FF00D749FF00D659FF00D9927ED
:1046E000729FB00DE11DF91F639FB00DE11DF91F11
:1046F000BD01CF0111240895991B79E004C0991FD1
:10470000961708F0961B881F7A95C9F7809508952B
:1047100097FB092E07260AD077FD04D049D006D092
:1047200000201AF4709561957F4F0895F6F79095E3
:1047300081959F4F0895A1E21A2EAA1BBB1BFD0174
:104740000DC0AA1FBB1FEE1FFF1FA217B307E40770
:10475000F50720F0A21BB30BE40BF50B661F771FC8
:10476000881F991F1A9469F76095709580959095A8
:104770009B01AC01BD01CF01089597FB092E0526D1
:104780000ED057FD04D0D7DF0AD0001C38F4509566
:104790004095309521953F4F4F4F5F4F0895F6F765
:1047A00090958095709561957F4F8F4F9F4F08959D
:1047B000AA1BBB1B51E107C0AA1FBB1FA617B70747
:1047C00010F0A61BB70B881F991F5A95A9F7809563
:1047D0009095BC01CD0108952F923F924F925F9228
:1047E0006F927F928F929F92AF92BF92CF92DF9201
:1047F000EF92FF920F931F93CF93DF93CDB7DEB766
:10480000CA1BDB0B0FB6F894DEBF0FBECDBF1994E9
:104810002A88398848885F846E847D848C849B8450
:10482000AA84B984C884DF80EE80FD800C811B815E
:10483000AA81B981CE0FD11D0FB6F894DEBF0FBE8D
:10484000CDBFED0108950790F691E02D1994EF92F8
:10485000FF920F931F93CF93DF93689F8001699F0F
:10486000100D789F100D1124C8010E944C24E82ED1
:10487000E7017E01F92EE701209731F08E2D60E0EF
:1048800070E0A8010E947F25CE01DF91CF911F919A
:104890000F91FF90EF900895CF93DF9382309105B1
:1048A00010F482E090E0E091770CF091780C40E019
:1048B00050E020E030E026C0608171816817790700
:1048C000E0F06817790781F4828193812115310521
:1048D00031F0D90113969C938E9312972BC090932D
:1048E000780C8093770C26C04115510519F0641798
:1048F000750718F4AB01E901DF019F017281638143
:10490000E72FF62F3097C1F64115510501F1481BED
:10491000590B4430510580F412968D919C91139758
:10492000209719F09B838A8304C09093780C80931E
:10493000770CFD01329646C0FD01E40FF51F81930F
:1049400091934250504011965C934E933BC02091FE
:10495000750C3091760C2115310541F420918307B7
:10496000309184073093760C2093750C2091850745
:10497000309186072115310541F42DB73EB740919E
:10498000810750918207241B350BE091750CF09143
:10499000760CE217F307A0F42E1B3F0B28173907FC
:1049A00078F0AC014E5F5F4F2417350748F04E0F8B
:1049B0005F1F5093760C4093750C8193919302C0C6
:1049C000E0E0F0E0CF01DF91CF910895CF93DF9346
:1049D000009709F491C0FC01329713821282609112
:1049E000770C7091780C6115710581F4208131810B
:1049F000280F391F8091750C9091760C82179307C0
:104A000099F5F093760CE093750C76C0DB0180E0AD
:104A100090E002C0CD01D901AE17BF0748F412964D
:104A20002D913C91139721153105A1F7CD0121C09E
:104A3000B383A283EF01499159919E01240F351F41
:104A4000A217B30779F42D913C911197240F351FCC
:104A50002E5F3F4F3183208312962D913C91139707
:104A600033832283009729F4F093780CE093770C3A
:104A700043C0DC011396FC93EE9312974D915D9128
:104A8000A40FB51FEA17FB0769F420813181240FB9
:104A9000351F2E5F3F4FEC013983288322813381FC
:104AA0003B832A83E0E0F0E002C0FB01BC01DB01B4
:104AB00012968D919C9113970097B9F79B012E5FE9
:104AC0003F4F8D919C911197820F931F4091750CD0
:104AD0005091760C4817590779F4309729F41092C1
:104AE000780C1092770C02C0138212822250304050
:104AF0003093760C2093750CDF91CF910895DC01F3
:104B000001C06D9341505040E0F70895FB01DC0176
:104B100001900D920020E1F70895EF92FF920F931C
:104B20001F93CF93DF938C01E0917B0CF0917C0C71
:104B3000838181FF1FC0C0E0D0E00AC0DB0118966E
:104B4000ED91FC9119971995009711F0CFEFDFEFD8
:104B5000F80181918F0160917B0C70917C0C88230E
:104B600069F7DB011896ED91FC9119978AE0199588
:104B7000009711F0CFEFDFEFCE01DF91CF911F91C2
:104B80000F91FF90EF90089512E0CCE9D2E000E0A1
:104B900006C022970109FE010BBF0E942324CE39D3
:0C4BA000D10780E00807A9F7F894FFCFC8
:104BAC0066616E5F666F72776172645F7370656564
:104BBC00642063616C6C65640A0066616E5F686F8B
:104BCC00766572696E675F73706565642063616C8E
:104BDC006C65640A0072756465725F646972656302
:104BEC0074696F6E2063616C6C65640A00686F7623
:104BFC00657263726166745F73706565642063616E
:104C0C006C6C65640A00520A006261747465727996
:104C1C005F6C6576656C2063616C6C65640A00552D
:104C2C006E61626C6520746F20676574206D656DB4
:104C3C006F72790A0053545241494748540A00484C
:104C4C004152445F4C4546540A00484152445F521D
:104C5C00494748540A00534F46545F5249474854F9
:104C6C000A00534F46545F4C4546540A0042524189
:104C7C004B450A00646972656374696F6E20455216
:104C8C00524F520A007075742046616E20486F7640
:104C9C006572696E6720696E6372656173696E67B0
:104CAC00200A007075742046616E20486F7665721C
:104CBC00696E672064656372656173696E670A006B
:104CCC007075742046616E20486F766572696E67E8
:104CDC00205370656564204552524F520A0070751E
:104CEC00742046616E20486F766572696E6720533A
:104CFC00544F5020696E2071756575650A0070758A
:104D0C00742046616E20486F766572696E67205418
:104D1C005552424F20696E2071756575650A0046C3
:104D2C00616E20486F766572696E67206E6F7420B5
:104D3C00696D706C656D656E74656420636F6D6D07
:104D4C00616E6473204552524F5200707574206529
:104D5C00786163742046414E5F484F564552494E28
:104D6C00475F5350454544004261636B7761726401
:104D7C00007075742046616E20466F7277617264A4
:104D8C0020696E6372656173696E67205370656527
:104D9C006420696E2071756575650A0070757420E4
:104DAC0046616E20466F727761726420646563722F
:104DBC00656173696E6720537065656420696E2048
:104DCC0071756575650A007075742046616E2046B4
:104DDC006F7277617264205370656564204552521E
:104DEC004F520A007075742046616E20466F7277C0
:104DFC006172642053544F5020696E207175657533
:104E0C00650A007075742046616E20466F7277617A
:104E1C00726420545552424F20696E20717565752D
:104E2C00650A0046616E20466F7277617264206E6F
:104E3C006F7420696D706C656D656E74656420634C
:104E4C006F6D6D616E6473204552524F520A007043
:104E5C00757420657861637420466F727761726433
:104E6C002073706565642076616C75650A00536FFC
:104E7C006D657468696E67206E6F7420626173650E
:104E8C0064206F6E2070726F746F636F6C20697327
:104E9C002072656365697665640A000A00426C7568
:104EAC0065746F6F746820697320616374697661CF
:104EBC0074656400090954657374206D6F746F72A6
:104ECC0020737461727465642000090954657374ED
:104EDC00206D6F746F722073746F70706564200036
:104EEC00090954657374206C6576656C20697320B0
:104EFC006E6F726D616C2000090954657374206CBF
:104F0C006576656C20697320747572626F20000978
:104F1C00095465737420616E616C6F6720777269D8
:104F2C007465200009095465737420546F6F206CEC
:104F3C006F77200009095465737420546F6F2068D3
:104F4C006967682000090954657374205420532044
:104F5C00697320626F74746F6D2000090954657356
:104F6C0074206D6F746F722068617320616C726550
:104F7C00616479206265656E207374617274656416
:104F8C00200009095465737420494E43204E6577FF
:104F9C00202020204C3A202564200A000909546561
:104FAC00737420444543204E6577202020204C3AD2
:104FBC00202564200A0009095465737420736574F4
:104FCC00204E6577202020204C3A202564200A00B2
:104FDC002E000D000D0D00436D643A00200073632C
:104FEC00616E00270000000055500000414F4B003F
:104FFC00434D44004552523A203F003E002A434C58
:10500C004F532A002A4F50454E2A004552523A43DC
:10501C006F6E6E6563746564000000000000000034
:10502C000000010202030303030404040404040447
:10503C000405050505050505050505050505050515
:10504C0005060606060606060606060606060606F5
:10505C0006060606060606060606060606060606E4
:10506C0006070707070707070707070707070707C5
:10507C0007070707070707070707070707070707B4
:10508C0007070707070707070707070707070707A4
:10509C000707070707070707070707070707070794
:1050AC000708080808080808080808080808080875
:1050BC000808080808080808080808080808080864
:1050CC000808080808080808080808080808080854
:1050DC000808080808080808080808080808080844
:1050EC000808080808080808080808080808080834
:1050FC000808080808080808080808080808080824
:10510C000808080808080808080808080808080813
:10511C000808080808080808080808080808080803
:10512C000820007F0C00004B064C06500654064B22
:10513C00065B065D0664066B06000102030405FFB0
:10514C00FF0800000000E0112A1EBA11BE11E41184
:10515C00B61100000000F513C31395139E13B21380
:10516C00C213000000006A152A1E95147414C01492
:10517C00AF1400000000D41F2A1E6F1F9E1F821F39
:02518C00C01F42
:0400000300001E5E7D
:00000001FF
