:100000000C9404010C9435010C9435010C943501C9
:100010000C9435010C9435010C9435010C94350188
:100020000C9435010C9435010C9435010C94350178
:100030000C9435010C9435010C9435010C94350168
:100040000C9435010C947E110C9435010C943501FF
:100050000C9435010C9435010C9435010C94FC067C
:100060000C9435010C9429170C94D9170C94350174
:100070000C9435010C9435010C9435010C94350128
:100080000C94AC110C9435010C9435010C94350191
:100090000C9455170C9424180C9435010C943501CC
:1000A0000C9435010C9435010C94DA110C94350143
:1000B0000C9435010C9435010C9435010C94081204
:1000C0000C9435010C9435010C9435010C94811776
:1000D0000C946F180C9435010C94AD170C94BA184D
:1000E0000C94350100002100240027002A002D0077
:1000F0003000330001010000040107010A01000083
:100100002200250028002B002E00310034000201BF
:100110000000050108010B0100002000230026005B
:1001200029002C002F00320000010000030106010D
:10013000090105050505070508080808020202026D
:100140000A0A080804040404010101010101010173
:100150000303030303030303040707070C0C0C0C3E
:100160000C0C0C0C02020202060606060606060627
:100170000B0B0B0B0B0B0B0B0102102020080810B4
:100180002040102040800201020108040201010207
:1001900004081020408080402010080402018004E0
:1001A000020180402010080402010804020101023B
:1001B0000408102040800102040810204080000044
:1001C000090A02080B0C0D070603040100000000D9
:1001D000000000000000000000000000000000001F
:1001E0000000000000000000000011100F000000DF
:1001F00000000000000000000000000000000000FF
:10020000000000002A10831911241FBECFEFD1E295
:10021000DEBFCDBF00E00CBF17E0A0E0B2E0E2E837
:10022000F9E300E00BBF02C007900D92A635B107BD
:10023000D9F71AE0A6E5B7E001C01D92A73AB107C9
:10024000E1F712E0C8E0D2E000E006C02297010921
:10025000FE010BBF0E94251BC430D10780E00807B8
:10026000A9F70E94E5060C94BF1C0C940000EF92C5
:10027000FF920F931F937B018C0120E030E040E060
:100280005FE40E94E90387FD11C0C801B70120E0C7
:1002900030E040E05FE40E94DA020E94A9049B0182
:1002A000AC01205030404040504806C0C801B70162
:1002B0000E94A9049B01AC01B901CA011F910F91D1
:1002C000FF90EF900895A0E0B0E0E9E6F1E00C9433
:1002D000F21AFC01EA018081823008F438C1DB01A6
:1002E0009C91923008F430C1843059F4943009F074
:1002F0002EC1918111968C911197981709F021C107
:1003000026C1943009F420C19230B1F4823009F052
:100310001EC1CA01AF0128E0DA010D90AD01DC0178
:100320000D92CD012150C1F7DB0111968C911197EF
:100330009181892389830AC1823009F405C1C28071
:10034000D380DB0112966D907C90139724813581C8
:10035000468157811496ED90FD900D911C91179751
:10036000C601861997095C0197FF04C0AA24BB2423
:10037000A81AB90AB0E2AB16B1040CF061C01816A5
:1003800019066CF5370148010A2C04C0969487942D
:10039000779467940A94D2F781E090E0A0E0B0E00F
:1003A0000A2C04C0880F991FAA1FBB1F0A94D2F7FA
:1003B0000197A109B1098E219F21A023B123EE2429
:1003C000FF248701E3940097A105B10519F4EE24F9
:1003D000FF248701E628F728082919293CC000973F
:1003E000D1F1CA0CDB1C39014A010A2C04C09694D5
:1003F0008794779467940A94D2F781E090E0A0E024
:10040000B0E00A2C04C0880F991FAA1FBB1F0A94D2
:10041000D2F70197A109B10982239323A423B5231D
:1004200021E030E040E050E00097A105B10519F46B
:1004300020E030E0A90126293729482959290BC095
:100440006C147D0424F4EE24FF24870104C06301AE
:1004500020E030E0A9018181FB019181891709F435
:1004600045C0882349F0D801C701821B930BA40B18
:10047000B50B9C01AD0104C02E193F09400B510B77
:1004800057FD04C01982DB82CA820BC081E08983D8
:10049000DB82CA8250954095309521953F4F4F4F52
:1004A0005F4F2C833D834E835F830DC0880F991F60
:1004B000AA1FBB1F8C839D83AE83BF838A819B81D0
:1004C00001979B838A838C819D81AE81BF819C0132
:1004D000AD0121503040404050402F3FEFEF3E07EC
:1004E000EFEF4E07EFE35E0708F30BC08983DB8273
:1004F000CA822E0D3F1D401F511F2C833D834E830A
:100500005F8383E088832C813D814E815F8157FF2B
:100510001DC0DA01C90181709070A070B07056954D
:10052000479537952795822B932BA42BB52B8C833E
:100530009D83AE83BF838A819B8101969B838A833F
:1005400005C0E0E3F6E003C0FB0101C0FE01CF01FE
:10055000CDB7DEB7EEE00C940E1BA0E2B0E0E3EB0B
:10056000F2E00C94FA1A69837A838B839C832D833F
:100570003E834F83588789E0E82EF12CEC0EFD1E58
:10058000CE010196B7010E9423068E010F5E1F4F18
:10059000CE010596B8010E942306C701B801AE013D
:1005A000475E5F4F0E9463010E945505A096E6E0FA
:1005B0000C94161BA0E2B0E0E0EEF2E00C94FA1A04
:1005C00069837A838B839C832D833E834F835887F3
:1005D0008E01075F1F4FCE010196B8010E942306CE
:1005E00091E1E92EF12CEC0EFD1ECE010596B7012E
:1005F0000E9423068A8991E089278A8BC801B70166
:10060000AE01475E5F4F0E9463010E945505A096B0
:10061000E6E00C94161BA8E1B0E0E1E1F3E00C94F5
:10062000F61A69837A838B839C832D833E834F8361
:1006300058878E01075F1F4FCE010196B8010E94B7
:10064000230681E1E82EF12CEC0EFD1ECE0105966D
:10065000B7010E9423069985923008F483C08989E6
:10066000823008F47BC02A853A8923272A87943070
:1006700011F0923021F4981709F06CC071C08430E9
:1006800039F41D861E861F86188A1C861B866AC042
:10069000823019F484E0898765C08B859C852B891D
:1006A0003C89821B930B9C878B872D853E854F85CC
:1006B0005889ED88FE880F89188D2E153F05400753
:1006C000510738F4220F331F441F551F01979C8791
:1006D0008B876FE170E0A12CB12CC12CA0E4DA2E45
:1006E00080E090E0DC012E153F054007510740F007
:1006F0008A299B29AC29BD292E193F09400B510B92
:10070000D694C794B794A794220F331F441F551F44
:100710006150704041F76FE7E62EF12C012D112D4D
:10072000E822F9220A231B2360E4E616F1040105FE
:10073000110561F487FD0AC02115310541055105F8
:1007400029F0805C9F4FAF4FBF4F80788D879E8789
:10075000AF87B88B8E01075F1F4F04C0870102C0AF
:1007600000E316E0C8010E9455056896EAE00C9483
:10077000121BA8E1B0E0EFEBF3E00C94FA1A6983E6
:100780007A838B839C832D833E834F8358878E018E
:10079000075F1F4FCE010196B8010E94230681E139
:1007A000E82EF12CEC0EFD1ECE010596B7010E943D
:1007B00023068985823040F08989823028F0C8017B
:1007C000B7010E948C0601C08FEF6896E6E00C949A
:1007D000161BA8E1B0E0EFEEF3E00C94FA1A69837F
:1007E0007A838B839C832D833E834F8358878E012E
:1007F000075F1F4FCE010196B8010E94230681E1D9
:10080000E82EF12CEC0EFD1ECE010596B7010E94DC
:1008100023068985823040F08989823028F0C8011A
:10082000B7010E948C0601C08FEF6896E6E00C9439
:10083000161BA8E1B0E0EFE1F4E00C94FA1A69832A
:100840007A838B839C832D833E834F8358878E01CD
:10085000075F1F4FCE010196B8010E94230681E178
:10086000E82EF12CEC0EFD1ECE010596B7010E947C
:1008700023068985823040F08989823028F0C801BA
:10088000B7010E948C0601C081E06896E6E00C94F6
:10089000161BA8E0B0E0EFE4F4E00C94FA1A7B0138
:1008A0008C0183E08983D801C7018827B7FD839530
:1008B0009927AA27BB27282F8A83E114F104010571
:1008C000110519F482E0898337C08EE190E09C83A2
:1008D0008B83222389F080E0E81680E0F80680E030
:1008E000080780E8180769F110950095F094E094E6
:1008F000E11CF11C011D111DED82FE820F83188782
:10090000C801B7010E94FB049C012150304012161F
:10091000130694F4022E04C0EE0CFF1C001F111FDE
:100920000A94D2F7ED82FE820F8318878EE190E061
:10093000821B930B9C838B83CE0101960E945505ED
:1009400004C060E070E080E09FEC2896E6E00C9444
:10095000161BACE0B0E0EFEAF4E00C94FE1A6983F9
:100960007A838B839C83CE010196BE016B5F7F4FA0
:100970000E9423068D81823081F1823070F18430B3
:1009800021F48E81882369F10AC02F81388537FDD3
:1009900024C06E812F3131053CF0662311F120E037
:1009A00030E040E050E821C08EE190E0821B930BE4
:1009B00029853A854B855C8504C0569547953795C2
:1009C00027958A95D2F7662381F05095409530950A
:1009D00021953F4F4F4F5F4F08C020E030E0A90105
:1009E00004C02FEF3FEF4FEF5FE7B901CA012C962C
:1009F000E2E00C941A1BAF92BF92CF92DF92EF927B
:100A0000FF920F931F937B018C0180E0E81680E03A
:100A1000F80681E0080780E0180758F4EFEFEE16BB
:100A2000F1040105110509F090F480E090E0DC018B
:100A300017C0F0E0EF16F0E0FF06F0E00F07F1E07E
:100A40001F0750F480E190E0A0E0B0E009C088E02A
:100A500090E0A0E0B0E004C088E190E0A0E0B0E069
:100A600020E230E040E050E0281B390B4A0B5B0BE2
:100A70005701680104C0D694C794B794A7948A9587
:100A8000D2F7D601C501885C994FFC018081281BF3
:100A9000310941095109C9011F910F91FF90EF9050
:100AA000DF90CF90BF90AF900895EF92FF920F9399
:100AB0001F93CF93DF93FC012481358146815781B9
:100AC00061818081823020F44061EFEFF0E0A3C0CB
:100AD000843009F49BC0823009F492C0211531059D
:100AE0004105510509F48FC00280F381E02D8FEF9D
:100AF000E238F8070CF05AC0C2E8DFEFCE1BDF0B7C
:100B0000CA31D1056CF579018A010C2E04C0169505
:100B10000795F794E7940A94D2F781E090E0A0E07B
:100B2000B0E00C2E04C0880F991FAA1FBB1F0A94A7
:100B3000D2F70197A109B10982239323A423B523F6
:100B400021E030E040E050E00097A105B10519F444
:100B500020E030E0A9012E293F29402B512B03C072
:100B600020E030E0A901DA01C9018F779070A07010
:100B7000B07080349105A105B10539F427FF09C093
:100B8000205C3F4F4F4F5F4F04C0215C3F4F4F4FA2
:100B90005F4FE1E0F0E0203080E0380780E0480778
:100BA00080E4580728F5E0E0F0E022C0E038F105E5
:100BB0006CF5E158FF4FDA01C9018F779070A07092
:100BC000B07080349105A105B10539F427FF09C043
:100BD000205C3F4F4F4F5F4F04C0215C3F4F4F4F52
:100BE0005F4F57FF05C05695479537952795319626
:100BF00087E056954795379527958A95D1F70BC08D
:100C0000E0E0F0E005C0E0E0F0E005C0EFEFF0E08C
:100C100020E030E0A9018E2F879588278795942FB3
:100C20009F77679566276795E695E22EA92FA82BF3
:100C3000FE2FF62B622F732F8A2F9F2FCDB7DEB793
:100C4000E6E00C94161BDC01FB012C9111963C9103
:100C5000119712968C911297482F4F7750E0982F4A
:100C6000991F9927991F13966C911397862F880FB8
:100C7000892B90E0661F6627661F6183009739F510
:100C8000211531054105510511F482E029C082E8A2
:100C90009FEF9383828367E0220F331F441F551F0A
:100CA0006A95D1F783E0808309C0220F331F441F68
:100CB000551F82819381019793838283203080E046
:100CC000380780E0480780E4580778F320C08F3F5A
:100CD000910579F4211531054105510519F484E098
:100CE0008083089544FF03C081E0808310C0108298
:100CF0000EC08F5790409383828383E0808387E088
:100D0000220F331F441F551F8A95D1F75064248347
:100D10003583468357830895FC01DB01908192302F
:100D200008F449C08C91823008F445C0943051F4E5
:100D300061818430B1F511962C91119730E0261B1A
:100D4000310941C0843021F0923041F48230B1F158
:100D500011968C9111978823A1F12DC06181823069
:100D600001F111968C9111976817D9F42281338182
:100D700012968D919C9113978217930794F02817E0
:100D80003907BCF0248135814681578114968D91B5
:100D90009D910D90BC91A02D82179307A407B507D4
:100DA00018F4662341F00DC0281739074A075B077E
:100DB00028F4662331F021E030E005C020E030E087
:100DC00002C02FEF3FEFC90108950E9491070E94D2
:100DD000420A0E94BD0C0E94550D80E090E00E94E6
:100DE000000F80E060E00E94670881E060E00E9400
:100DF00067080E940709FDCF1F920F920FB60F924E
:100E000011242F933F938F939F93AF93BF93809120
:100E10005A0790915B07A0915C07B0915D073091F4
:100E20005E070196A11DB11D232F2D5F2D3720F0E8
:100E30002D570196A11DB11D20935E0780935A077F
:100E400090935B07A0935C07B0935D078091560772
:100E500090915707A0915807B09159070196A11D8D
:100E6000B11D8093560790935707A0935807B093EE
:100E70005907BF91AF919F918F913F912F910F9003
:100E80000FBE0F901F9018959FB7F89420915607AA
:100E900030915707409158075091590786B5A89B44
:100EA00006C08F3F21F02F5F3F4F4F4F5F4F9FBFD7
:100EB000542F432F322F2227280F311D411D511D42
:100EC00082E0220F331F441F551F8A95D1F7B901C5
:100ED000CA010895EF92FF920F931F93CF93DF9370
:100EE0007B018C010E944407EB010FC00E94440764
:100EF0006C1B7D0B83E0683E780738F00894E108AE
:100F0000F10801091109C851DC4FE114F104010590
:100F1000110561F7DF91CF911F910F91FF90EF9035
:100F20000895789484B5826084BD84B5816084BD61
:100F300085B5826085BD85B5816085BDEEE6F0E052
:100F4000808181608083E1E8F0E0108280818260AE
:100F50008083808181608083E0E8F0E0808181602F
:100F60008083E1EBF0E0808184608083E0EBF0E05F
:100F7000808181608083E1E9F0E08081826080830C
:100F8000808181608083E0E9F0E0808181608083FE
:100F9000E1EAF0E0808182608083808181608083EB
:100FA000E0EAF0E0808181608083E1E2F1E080812D
:100FB00082608083808181608083E0E2F1E08081D3
:100FC00081608083EAE7F0E08081846080838081B3
:100FD000826080838081816080838081806880835B
:100FE0001092C1000895893009F449C08A30A0F4F4
:100FF000843051F1853040F4823079F1833000F54E
:10100000813009F063C026C0873079F1883098F5C7
:10101000863009F05BC025C08D3009F442C08E30A7
:1010200028F48B30B1F18C30C0F52DC0803109F43B
:1010300042C0813109F445C08F3009F047C037C044
:10104000809180008F7703C0809180008F7D809396
:101050008000089584B58F7702C084B58F7D84BDEC
:1010600008958091B0008F7703C08091B0008F7D8C
:101070008093B0000895809190008F7707C0809191
:1010800090008F7D03C080919000877F80939000B7
:1010900008958091A0008F7707C08091A0008F7D78
:1010A00003C08091A000877F8093A0000895809165
:1010B00020018F7703C0809120018F7D80932001D4
:1010C000089580912001877F80932001089590E00A
:1010D000FC01E858FE4F2491FC01EE5CFE4FE491C8
:1010E000EE23C1F0F0E0EE0FFF1FEC51FF4F8591B2
:1010F0009491DC01662341F49FB7F8948C9120957C
:1011000082238C939FBF08959FB7F8948C91822B74
:101110008C939FBF08950F931F93DF93CF930F92EC
:10112000CDB7DEB7282F30E0F901E254FE4F8491AD
:10113000F901E858FE4F14912E5C3E4FF9010491DD
:101140000023D9F0882321F069830E94F307698185
:10115000E02FF0E0EE0FFF1FE250FF4F85919491DA
:10116000DC019FB7F894662321F48C9110958123BC
:1011700002C08C91812B8C939FBF0F90CF91DF91F8
:101180001F910F91089581E090E066E070E00E9469
:10119000291BFC019093600780935F0715821482DE
:1011A00008950F931F93DF93CF93CDB7DEB72A97A0
:1011B0000FB6F894DEBF0FBECDBF8E010F5F1F4F7D
:1011C00011C0C8010E94180A99818A812B813C8133
:1011D000ED81FE81913019F4F901199503C0923027
:1011E00009F4199560915F0770916007FB01848194
:1011F0009581181619062CF32A960FB6F894DEBFBF
:101200000FBECDBFCF91DF911F910F9108950E9426
:10121000C3080E940B0C0E9433100E94470A0E94D0
:10122000D108F7CFAF92BF92CF92DF92EF92FF92A9
:101230000F931F93DF93CF93CDB7DEB72A970FB6E7
:10124000F894DEBF0FBECDBFC02E0983D12E1A8306
:10125000E22E2B83F32E3C834D835E836F8378874E
:1012600089879A87A0905F07B090600786019701F1
:1012700075010E944C092A960FB6F894DEBF0FBE86
:10128000CDBFCF91DF911F910F91FF90EF90DF9035
:10129000CF90BF90AF900895EF92FF920F931F935E
:1012A000DF93CF93CDB7DEB72A970FB6F894DEBFA2
:1012B0000FBECDBF09831A832B833C834D835E838E
:1012C0006F83788789879A870F81188581E090E0FE
:1012D0006EE070E00E94291BFC01009709F49BC09E
:1012E000AE014F5F5F4F2AE0DA010D90AD01DC01E6
:1012F0000D92CD012150C1F717830683D7011496B3
:101300008D919C9115978230910594F18D919C91CE
:101310001197AC0129C0DA0116962D913C911797CF
:1013200020173107E0F4538742871C962D913C919A
:101330001D97358724878417950729F4D701ED93E6
:10134000FC93DC013EC0DA011C968D919C911D97A7
:10135000DC011B96FC93EE931A97DA0132C0DA0196
:101360001A964D915C911B9741155105A1F63FC00E
:101370008130910559F5D7012D913C91D9011696EF
:101380008D919C9117978017910778F0138612869C
:1013900035872487D7011396FC93EE931297D901D2
:1013A0001B96FC93EE931A971BC015861486338701
:1013B0002287D70113963C932E931297ED93FC93BB
:1013C000D9011D96FC93EE931C970AC0009741F437
:1013D000D7011196FC93EE93138612861586148618
:1013E000F7018481958101969583848314C01386C7
:1013F0001286D70112968D919C91139795878487B9
:10140000DC011B96FC93EE931A97D7011396FC937D
:10141000EE931297E5CF2A960FB6F894DEBF0FBE73
:10142000CDBFCF91DF911F910F91FF90EF90089565
:101430000F931F93CF93DF938C01FB01A081B181A8
:10144000982F292F312FAD018AE0EA010990AE01D2
:10145000E90109929E018150C1F724813581215013
:101460003040358324831A968D919C911B979183EC
:101470008083CD010E94E81BC801DF91CF911F91AD
:101480000F9108950E94500C0E94B80C08950F937C
:101490001F93DF93CF930F920F92CDB7DEB79A834E
:1014A00089838E010F5F1F4FC8010E948A0C86E658
:1014B00092E00E949C0CC8010E94480C0F900F9073
:1014C000CF91DF911F910F910895CF93DF93EC019E
:1014D0008AE090E00E944E1B009719F48FE792E09B
:1014E00052C0CE010E942E0C823019F1833030F4AC
:1014F000882359F0813009F044C011C0843069F16B
:10150000843008F18530E9F532C080E090E00E9437
:10151000000F85E992E00E949C0C80E037C081E0DA
:1015200090E00E94000F8FE992E00E949C0C81E005
:101530002DC082E090E00E94000F8AEA92E00E94B3
:101540009C0C82E023C083E090E00E94000F86EBB9
:1015500092E00E949C0C83E019C084E090E00E941D
:10156000000F82EC92E00E949C0C84E00FC085E0AA
:1015700090E00E94000F8DEC92E00E949C0C85E0B0
:1015800005C084ED92E00E949C0C8FEFDF91CF911B
:101590000895EF92FF920F931F93CF93DF938C01E7
:1015A0008AE090E00E944E1BE82EE7017E01F92EB2
:1015B000E701209719F48FE792E064C0C8010E9408
:1015C000230C8130910509F043C0C8010E94320C00
:1015D000882319F08130C9F51BC08BE69DE0282FC8
:1015E0009B838A8381E088838EE190E0682F9F83CC
:1015F0008E831986188601E019813B814C815D81BB
:101600007F8180E099850E94120985EE92E02AC0D0
:101610004EE55DE0242F5B834A8388838EE190E072
:10162000682F9F838E831986188601E019813B817C
:101630004C815D817F8180E099850E94120983E061
:1016400093E00E949C0C81E020C080E293E01AC0ED
:10165000C8010E94320C882319F0873069F406C053
:101660008EE393E00E949C0C80E00FC08EE593E037
:101670000E949C0C87E009C08FE793E00E949C0CBD
:101680008CEA93E00E949C0C8FEFDF91CF911F9129
:101690000F91FF90EF900895EF92FF920F931F9399
:1016A000CF93DF938C018AE090E00E944E1BE82EDE
:1016B000E7017E01F92EE701209719F48FE792E008
:1016C0006CC0C8010E94230C8130910509F043C011
:1016D000C8010E94320C882319F08130C9F51BC063
:1016E00082EC9CE0282F9B838A8381E088838EE1B3
:1016F00090E0682F9F838E831986188601E01981F8
:101700003B814C815D817F8180E099850E94120937
:101710008BEC93E032C04DED5CE0242F5B834A8379
:1017200088838EE190E0682F9F838E8319861886C8
:1017300001E019813B814C815D817F8180E0998549
:101740000E94120986EF93E00E949C0C81E028C061
:1017500081E294E022C0C8010E94320C882319F073
:101760008730A9F40EC080E090E00E94F40C80E085
:1017700090E00E94000F8EE394E00E949C0C80E0B9
:101780000FC08DE594E00E949C0C87E009C08DE7B6
:1017900094E00E949C0C89EA94E00E949C0C8FEFDC
:1017A000DF91CF911F910F91FF90EF900895CF930C
:1017B000DF93EC010E94450C8F3FD1F0813051F056
:1017C000813018F0823081F40AC0CE010E944C0BA7
:1017D00080E00FC0CE010E94C90A81E00AC0CE019C
:1017E0000E94650A82E005C088EC94E00E949C0C8F
:1017F0008FEFDF91CF910895CF93DF93EC010E949B
:101800006E0C88838E3F18F4CE010E94D70B88811E
:10181000DF91CF9108950F931F93DF93CF930F9292
:10182000CDB7DEB78FEF89838E010F5F1F4FC801E1
:101830000E94FC0B89818F3FD1F70F90CF91DF91F0
:101840001F910F910895FC01808190E08870907045
:1018500023E0959587952A95E1F70895FC0180810D
:1018600087700895FC01808187700895FC01808154
:1018700082958F7090E08630910528F4815C984FB6
:10188000FC01808108958FEF08950E94360C089521
:10189000FC018081803110F08FEF089580640895FD
:1018A00081E29AE040E855E260E070E00E940519AC
:1018B00080E49AE040E855E260E070E00E9405199B
:1018C00089E060E00E9467080895FC0181E29AE0E7
:1018D00060814AE050E00E94DB150895DF93CF93CA
:1018E0000F92CDB7DEB780E49AE00E947116181609
:1018F00019065CF480E49AE00E94A0168983CE0168
:1019000001960E94650C898101C08FEF0F90CF91E5
:10191000DF910895FC016081718181E29AE04AE0E3
:1019200050E00E94D4150895BC0181E29AE04AE09B
:1019300050E00E941E160895EF92FF92CF93DF931E
:10194000E82EE7017E01F92EE70104C081E29AE06A
:101950000E94631569916623C9F781E29AE065EFF9
:1019600074E00E946015DF91CF91FF90EF90089591
:1019700087EF94E00E949C0C08950E94250D80E062
:1019800090E00895EF92FF92CF93DF930E94310D84
:10199000883791053CF088E790E00E94360DC8E753
:1019A000D0E005C0EC012696CE010E94360DCE0196
:1019B000DF91CF91FF90EF900895EF92FF92CF9338
:1019C000DF930E94310DEC01873091051CF486E015
:1019D00090E002C02697CE010E94360DCE01DF9125
:1019E000CF91FF90EF900895EF92FF92CF93DF9306
:1019F000EC018937910528F00E944F0DCFEFDFEF02
:101A000002C00E94360DCE01DF91CF91FF90EF9082
:101A1000089580916107813029F0813018F082307B
:101A200089F404C08BE064E670E00AC0609162074C
:101A3000709163076A3771052CF46C577F4F8BE008
:101A40000E944A148091610708958BE061E00E9432
:101A5000670881E0809361070E94090D80E090E0B3
:101A60000895809162079091630708958B379105DF
:101A70001CF08AE790E009C01816190634F010929D
:101A800063071092620781E005C09093630780931B
:101A9000620782E0809361070E94090D089581E04A
:101AA000809361070E94090D08958AE090E067E045
:101AB00070E00E94360E80E090E008958CEF9DE08B
:101AC0006AE070E047E050E02AE030E00E947F0DDD
:101AD00080E090E0089589E19EE06AE070E047E0F0
:101AE00050E02AE030E00E947F0D80E090E0089511
:101AF000FC01CB01BA01199580E090E00895FC014A
:101B0000CB01BA01A901199580E090E008954091B8
:101B10006407509165070E945C0E80E090E0089594
:101B2000CF93DF93EB012EEF30E0309365072093E6
:101B300064074EEF50E00E94870DCE010E94D40E44
:101B400080E090E0DF91CF910895CF93DF93EB0198
:101B50002BE930E030936507209364074BE950E0B0
:101B60000E94870DCE010E94C90E80E090E0DF91B7
:101B7000CF91089524E630E0309365072093640701
:101B800044E650E00E94870D68EE73E080E090E04C
:101B90000E946A0780E090E00895CF93DF93EB0105
:101BA00020916407309165072436310514F40E94B2
:101BB000BA0DCE010E94BE0E80E090E0DF91CF9181
:101BC00008950F931F93CF93DF93EC018B015093F4
:101BD0006507409364070E946A0E40916407509124
:101BE0006507CE01B8010E94870D80E090E0DF918B
:101BF000CF911F910F9108950F931F93CF93DF9370
:101C0000EC018B019A0140916407509165070E9495
:101C1000AA0EAC019093650780936407CE01B801CA
:101C20000E94E10D80E090E0DF91CF911F910F9134
:101C300008950F931F93CF93DF93EC018B019A01CB
:101C400040916407509165070E948C0EAC019093FF
:101C5000650780936407CE01B8010E94E10D80E022
:101C600090E0DF91CF911F910F9108950F931F93F3
:101C7000DF93CF930F920F92CDB7DEB7182F092FB6
:101C8000AB01862F61E049835A830E946708812F48
:101C900061E00E9467088DEC9DE0612F702F498103
:101CA0005A810E94780D80E090E00F900F90CF91C4
:101CB000DF911F910F910895CF93DF93EB01BA014C
:101CC0000E944A14CE010E94DF0E80E090E0DF9176
:101CD000CF9108950F931F93CF93DF938C01EB0166
:101CE0004B39510544F4CB010E94EA0EC801BE01F4
:101CF0000E94A50D0AC04F3F51053CF0CB010E9448
:101D0000F50EC801BE010E94900D80E090E0DF91C9
:101D1000CF911F910F910895EF92FF920F931F9310
:101D2000CF93DF937C018B01EA014F3F510544F0D3
:101D3000CB010E94F50EC701B8010E94900D02C0B0
:101D4000C20FD31FCE01DF91CF911F910F91FF9052
:101D5000EF900895EF92FF92CF93DF93CB01EA01CA
:101D60004B3951051CF40E94EA0E02C0C21BD30B72
:101D7000CE01DF91CF91FF90EF9008950F931F93C5
:101D80008C018EE095E00E94881CC8011F910F9184
:101D900008950F931F938C018AE395E00E94881C9D
:101DA000C8011F910F9108950F931F938C0182E535
:101DB00095E00E94881CC8011F910F9108950F9310
:101DC0001F938C0189E695E00E94881CC8011F9131
:101DD0000F9108950F931F938C018EE795E00E9459
:101DE000881CC8011F910F9108950F931F938C01B8
:101DF0008EE895E00E94881CC8011F910F910895FC
:101E00000F931F93CF93DF938C010E94130FEC016C
:101E1000B8010E941910CE010E94180FDF91CF91D6
:101E20001F910F91089581E090E00E94591A089542
:101E30000E945C1A08950F931F93CF93DF93C6E619
:101E4000D7E0CE0162E070E00E94001309E617E0DF
:101E5000C80163E070E00E940013CE016FE570E0FE
:101E60000E943B13C8016EE670E00E943B1380E0C5
:101E700090E0DF91CF911F910F91089586E697E052
:101E80006EE170E00E943B1389E697E06DE270E03E
:101E90000E943B1382E090E0089586E697E066E9B1
:101EA00070E00E943B1389E697E065EA70E00E94CB
:101EB0003B1383E090E00895CF93DF93C6E6D7E02D
:101EC000CE010E94BE13BC01CE010E943B13C9E6A5
:101ED000D7E0CE010E94BE13BC01CE010E943B138D
:101EE00084E090E0DF91CF91089586E697E06FE57A
:101EF00070E00E943B1389E697E06EE670E00E9476
:101F00003B1385E090E0089586E697E064EB70E08F
:101F10000E943B1389E697E06FE070E00E943B135C
:101F200086E090E008950F931F93CF93DF9386E6AA
:101F300097E00E94BE138C01EC012F968639910523
:101F40007CF486E697E0BE010E943B13B801625E16
:101F50007F4F89E697E00E943B1327E030E00CC0FA
:101F600086E697E0B8010E943B1389E697E0BE0140
:101F70000E943B1328E030E0C901DF91CF911F910F
:101F80000F910895CF93DF9386E697E00E94BE13EA
:101F9000EC018F3191057CF0BC016F50704086E6FA
:101FA00097E00E943B1389E697E0BE010E943B1335
:101FB00029E030E00CC086E697E0BE010E943B13AA
:101FC00089E697E0BE010E943B132AE030E0C90198
:101FD000DF91CF91089562307105D1F063307105C2
:101FE0003CF46115710571F061307105E9F40DC0C3
:101FF0006430710599F0643071056CF065307105DD
:1020000099F40FC00E94750F11C00E944D0F0EC0B1
:102010000E943E0F0BC00E94C20F08C00E94930F87
:1020200005C00E94840F02C00E945C0F8BE090E00C
:1020300008950F931F93CF93DF938C01EB010E94C0
:102040001B0FC801BE010E94EB0FDF91CF911F91C2
:102050000F91089586E697E00E94361289E697E090
:102060000E9436120895EF92FF920F931F93CF9321
:10207000DF9380E00E9417147C0180E00E94171417
:102080000E94940C8AE296E00E949C0C81E00E94DF
:102090001714EC0181E00E9417140E94940C8DE249
:1020A00096E00E949C0CB701882777FD8095982FB9
:1020B0000E94490420E030EC4FE754E40E940B03F7
:1020C0002AE037ED43E25DE30E94AD022DEB37E3FA
:1020D00046E856E30E940B037B018C01BE01882772
:1020E00077FD8095982F0E94490420E030EC4FE75F
:1020F00054E40E940B032AE037ED43E25DE30E94C3
:10210000AD022DEB37E346E856E30E940B039B013B
:10211000AC01C801B7010E94DA02F62E072F182F72
:10212000E92E20E03FEF4FE757E40E94B90318166D
:1021300094F06F2D702F812F9E2D20E030E0A901AB
:102140000E94190487FD0AC06F2D702F812F9E2DCC
:102150000E94370105C06FEF7FEF02C060E070E0C2
:10216000CB01DF91CF911F910F91FF90EF900895D8
:10217000EF92FF920F931F93CF93DF93EB017A01BE
:102180008C01DC01A350B84F8C9187FF03C01982EA
:10219000188237C0C801880F991F800F911F880FC0
:1021A000991F880F991F2C91332727FD3095280FF1
:1021B000391F40916C0750E02417350714F52C9116
:1021C000332727FD3095280F391FF901EE0FFF1F28
:1021D000E20FF31FE359F84F208126FF12C02C9124
:1021E000332727FD3095280F391FF901EE0FFF1F08
:1021F000E20FF31FE359F84F80818F7360E00E9474
:102200008B08F801E350F84F80818F5F8083C8010D
:10221000880F991F800F911F880F991F880F991F92
:102220002081332727FD3095280F391F40916C07F7
:1022300050E0241735070CF053C020812C300CF0EF
:102240004FC0488159812081332727FD3095280FC1
:10225000391FD901AA0FBB1FA20FB31FA359B84F33
:1022600011962D913C911297420F531FD701119651
:102270005C934E932081332727FD3095280F391F1B
:10228000D901AA0FBB1FA20FB31FA359B84F2C919E
:1022900026FF2DC02081332727FD3095280F391FB9
:1022A000F901EE0FFF1FE20FF31FE359F84F808192
:1022B0008F7361E00E948B081AC080E49CE9F701EB
:1022C0009183808307C0888199810496D7011196F4
:1022D0009C938E93F801E350F84F8FEF808307C0F3
:1022E00088819981BCE984349B0738F3ECCFDF9176
:1022F000CF911F910F91FF90EF9008951F920F9231
:102300000FB60F920BB60F9211242F933F934F935A
:102310005F936F937F938F939F93AF93BF93EF934D
:10232000FF9381E090E064E870E048E850E00E94AC
:10233000B810FF91EF91BF91AF919F918F917F91D5
:102340006F915F914F913F912F910F900BBE0F9026
:102350000FBE0F901F9018951F920F920FB60F92FD
:102360000BB60F9211242F933F934F935F936F936C
:102370007F938F939F93AF93BF93EF93FF9382E0ED
:1023800090E064E970E048E950E00E94B810FF91E5
:10239000EF91BF91AF919F918F917F916F915F91DD
:1023A0004F913F912F910F900BBE0F900FBE0F904A
:1023B0001F9018951F920F920FB60F920BB60F92A7
:1023C00011242F933F934F935F936F937F938F933A
:1023D0009F93AF93BF93EF93FF9383E090E064EA02
:1023E00070E048EA50E00E94B810FF91EF91BF9171
:1023F000AF919F918F917F916F915F914F913F919D
:102400002F910F900BBE0F900FBE0F901F9018953D
:102410001F920F920FB60F920BB60F9211242F93AB
:102420003F934F935F936F937F938F939F93AF935C
:10243000BF93EF93FF9380E090E064E271E048E2A5
:1024400051E00E94B810FF91EF91BF91AF919F9121
:102450008F917F916F915F914F913F912F910F904D
:102460000BBE0F900FBE0F901F901895FC0180912E
:102470006C07803390F480838F5F80936C0780813A
:1024800090E0FC01EE0FFF1FE80FF91FE359F84F32
:1024900088EB9BE09283818308958FEF808308957A
:1024A000DF92EF92FF920F931F93CF93DF93EC0194
:1024B000D62E8A0179018881803308F093C0862F57
:1024C00061E00E9467084881842F90E0FC01EE0FD4
:1024D000FF1FE80FF91FE359F84F9D2D9F7380816F
:1024E000807C892B808380E292E0801B910B24E02A
:1024F00030E0B9010E948A1A698380E699E08E195A
:102500009F09B9010E948A1A6A83842F6CE00E9495
:102510007E1A90E09C01220F331F280F391F220FD3
:10252000331F220F331F40E050E0BA01620F731FC8
:10253000FB01EE0FFF1FE60FF71FE359F84F608115
:1025400066FD44C04F5F5F4F4C30510571F753C07B
:102550001092800082E0809381001092850010929A
:102560008400B19A80916F00826080936F002EC0CA
:102570008230910569F41092900082E0809391007E
:10258000109295001092940088BB809371001EC039
:102590008330910569F41092A00082E08093A1003D
:1025A0001092A5001092A40089BB809372000EC007
:1025B000009761F41092200182E080932101109233
:1025C0002501109224018ABB80937300888190E0DA
:1025D000FC01EE0FFF1FE80FF91FE359F84F808150
:1025E000806480838881DF91CF911F910F91FF904C
:1025F000EF90DF9008958130910509F0B9CFA8CF11
:1026000040E252E020E639E00E9450120895FC01B9
:102610002081203378F54181552747FD509588E882
:1026200090E0841B950B880F991F880F991F6817DE
:10263000790784F04281552747FD509588E592E05F
:10264000841B950B880F991F880F991F68177907AE
:102650000CF4CB014FB7F89430E0F901EE0FFF1FF7
:10266000E20FF31FE359F84F0297880F991F9283E7
:1026700081834FBF0895AF92BF92CF92DF92EF92C6
:10268000FF920F931F93CF93DF93EC0182E06032B0
:1026900078070CF046C077FD04C0653B710524F453
:1026A00005C060E070E002C064EB70E000D00F9203
:1026B000882777FD8095982F4981552747FD5095AC
:1026C00028E830E0241B350B220F331F220F331F65
:1026D0005901CC24B7FCC094DC2C4A81552747FD16
:1026E000509528E532E0241B350B220F331F220FB3
:1026F000331F442737FD4095542FEDB7FEB7218394
:1027000032834383548320E030E0A901B4EBEB2E05
:10271000F12C012D112D0E9428160F900F900F9073
:102720000F90CE010E940713DF91CF911F910F915F
:10273000FF90EF90DF90CF90BF90AF900895FC0195
:1027400080818F3FB9F090E0FC01EE0FFF1FE80F92
:10275000F91FE359F84F2181328193E0220F331F93
:102760009A95E1F784E0369527958A95E1F72E5FF3
:102770003F4F02C020E030E0C9010895AF92BF9200
:10278000CF92DF92EF92FF920F931F93CF93DF933D
:10279000EC010E949F1300D00F92BC016F5F7F4F2E
:1027A000882777FD8095982F4981552747FD5095BB
:1027B00028E830E0241B350B220F331F220F331F74
:1027C000442737FD4095542FAA81BB27A7FDB0951C
:1027D000E8E5F2E0EA1BFB0BEE0FFF1FEE0FFF1F19
:1027E0005F01CC24B7FCC094DC2CE4EBEE2EF12C82
:1027F000012D112DEDB7FEB7E182F2820383148320
:1028000086017501AA24BB2465010E9428160F9039
:102810000F900F900F90CB01DF91CF911F910F91EF
:10282000FF90EF90DF90CF90BF90AF9008958633E8
:1028300008F0865390917B00282F269526952695A3
:1028400030E02170307043E0220F331F4A95E1F7EA
:10285000977F922B90937B00877090913E07929583
:10286000990F990F907C982B90937C0080917A001F
:10287000806480937A0080917A0086FDFCCF20915D
:10288000780030917900932F80E030E0282B392BAD
:10289000C90108951F93CF93DF93182FEB0161E0D7
:1028A0000E946708209709F4C5C0CF3FD10509F4FD
:1028B000C4C0E12FF0E0E254FE4FE491E93009F4A6
:1028C00066C0EA30B0F4E430F1F1E53040F4E230D3
:1028D00059F1E33070F5E13009F0A9C020C0E730CC
:1028E00009F443C0E83008F048C0E63009F09FC062
:1028F00034C0ED3009F473C0EE3038F4EB3009F435
:102900005AC0EC3008F061C04CC0E03109F47BC023
:10291000E13109F482C0EF3009F089C06AC084B5A2
:10292000806884BDC7BD8DC084B5806284BDC8BDCC
:1029300088C080918000806880938000D093890057
:10294000C09388007EC08091800080628093800068
:10295000D0938B00C0938A0074C08091B0008068CF
:102960008093B000C093B3006CC08091B0008062CF
:102970008093B000C093B40064C0809190008068E0
:1029800080939000D0939900C09398005AC0809192
:102990009000806280939000D0939B00C0939A0037
:1029A00050C080919000886080939000D0939D00EB
:1029B000C0939C0046C08091A00080688093A000D6
:1029C000D093A900C093A8003CC08091A000806271
:1029D0008093A000D093AB00C093AA0032C0809136
:1029E000A00088608093A000D093AD00C093AC009D
:1029F00028C080912001806880932001D093290114
:102A0000C09328011EC08091200180628093200124
:102A1000D0932B01C0932A0114C0809120018860BB
:102A200080932001D0932D01C0932C010AC0C0389F
:102A3000D1051CF4812F60E002C0812F61E00E946B
:102A40008B08DF91CF911F910895CF92DF92EF9283
:102A5000FF920F931F93CF93DF936C017B018A0149
:102A6000C0E0D0E00FC0D7016D917D01D601ED919E
:102A7000FC910190F081E02DC6011995C80FD91F76
:102A8000015010400115110571F7CE01DF91CF9172
:102A90001F910F91FF90EF90DF90CF900895DB0191
:102AA0000D900020E9F7AD0141505040461B570BF7
:102AB000DC01ED91FC910280F381E02D19950895E0
:102AC0000E944F150895DC01ED91FC910190F08179
:102AD000E02D199508958F929F92AF92BF92CF9259
:102AE000DF92EF92FF920F931F93DF93CF93CDB7B7
:102AF000DEB7A1970FB6F894DEBF0FBECDBF6C0155
:102B0000042FE52FCB01122F19A2223008F41AE06E
:102B100021E2E22EF12CEC0EFD1E812E9924AA2436
:102B2000BB2403C0022FE32FCA01602F7E2FA50113
:102B300094010E949D1A129F802D1124081B089455
:102B4000E108F1080A3014F4005D01C0095CF701E6
:102B50000083211531054105510521F7C601B70153
:102B60000E944F15A1960FB6F894DEBF0FBECDBFE1
:102B7000CF91DF911F910F91FF90EF90DF90CF9059
:102B8000BF90AF909F908F9008952115310549F423
:102B9000DC01ED91FC910190F081E02D642F1995FD
:102BA00008950E946B1508959A01AB0160E070E0F2
:102BB0000E94C51508959A01462F50E060E070E02C
:102BC0000E94C5150895CF92DF92EF92FF920F9366
:102BD0001F93CF93DF93EC017A018B01211531050F
:102BE00041F4E881F9810190F081E02D642F19957D
:102BF0001AC02A303105A9F477FF12C06DE20E9495
:102C000063156C0144275527BA014E195F09600B03
:102C1000710BCE012AE00E946B15C80ED91E04C0AC
:102C20002AE00E946B156C01C601DF91CF911F91C4
:102C30000F91FF90EF90DF90CF9008959A01FB01E4
:102C4000AF01662757FD6095762F0E94E315089522
:102C50002F923F924F925F926F927F928F929F92AC
:102C6000AF92BF92CF92DF92EF92FF920F931F939A
:102C7000DF93CF93CDB7DEB73B014C0119012A0199
:102C80006E897F89888D998D6A197B098C099D09C8
:102C9000621A730A840A950AA40193010E945F1ABA
:102CA000E218F30804091509A80197010E94BF1A48
:102CB0002A0D3B1D4C1D5D1DB901CA01CF91DF914D
:102CC0001F910F91FF90EF90DF90CF90BF90AF904A
:102CD0009F908F907F906F905F904F903F902F903C
:102CE0000895FC0184859585FC01E05CFF4F2081FF
:102CF00031818E5B9F4FFC0180819181281B390BB4
:102D00002F733070C9010895FC0184859585FC01FD
:102D1000E05CFF4F40815181FC01EE5BFF4F208161
:102D200031814217530741F00190F081E02DE80F07
:102D3000F91F208130E002C02FEF3FEFC901089555
:102D4000FC0184859585FC01E05CFF4F4081518149
:102D5000FC01EE5BFF4F208131814217530771F078
:102D6000A081B181A80FB91F2C918081918101961A
:102D70008F7390709183808330E002C02FEF3FEF1C
:102D8000C9010895DC011E968D919C911F97FC014D
:102D9000E05CFF4F8E5B9F4F40815181DC012D91A4
:102DA0003C91119742175307B9F70895CF93FC014F
:102DB000C62F26853785D901A05CBF4F8D919C9188
:102DC000019660E470E00E948A1AD901AE5BBF4FA1
:102DD0004D915C91119784179507D1F3D901A05CAF
:102DE000BF4F0D90BC91A02DA20FB31FCC93A68511
:102DF000B785A05CBF4F11969C938E93A689B78927
:102E00002C9181E090E0058C02C0880F991F0A94F4
:102E1000E2F7282B2C9381E090E0CF910895FB01FD
:102E2000E05CFF4F208131812F5F3F4F2F73307067
:102E3000DB01AE5BBF4F4D915C91119724173507B5
:102E400039F0A081B181A60FB71F8C933183208305
:102E500008951F920F920FB60F920BB60F92112486
:102E60002F933F934F935F936F937F938F939F9392
:102E7000AF93BF93EF93FF938091C60061E078E03A
:102E80000E940F17FF91EF91BF91AF919F918F918A
:102E90007F916F915F914F913F912F910F900BBE5A
:102EA0000F900FBE0F901F9018951F920F920FB6A4
:102EB0000F920BB60F9211242F933F934F935F9372
:102EC0006F937F938F939F93AF93BF93EF93FF93F2
:102ED0008091CE0069E878E00E940F17FF91EF9192
:102EE000BF91AF919F918F917F916F915F914F9122
:102EF0003F912F910F900BBE0F900FBE0F901F9020
:102F000018951F920F920FB60F920BB60F921124C5
:102F10002F933F934F935F936F937F938F939F93E1
:102F2000AF93BF93EF93FF938091D60061E179E077
:102F30000E940F17FF91EF91BF91AF919F918F91D9
:102F40007F916F915F914F913F912F910F900BBEA9
:102F50000F900FBE0F901F9018951F920F920FB6F3
:102F60000F920BB60F9211242F933F934F935F93C1
:102F70006F937F938F939F93AF93BF93EF93FF9341
:102F80008091360169E979E00E940F17FF91EF9176
:102F9000BF91AF919F918F917F916F915F914F9171
:102FA0003F912F910F900BBE0F900FBE0F901F906F
:102FB00018951F920F920FB60F920BB60F92112415
:102FC0002F933F935F936F937F938F939F93AF93D1
:102FD000BF93EF93FF9320918508309186088091ED
:102FE0008708909188082817390731F48091C1002B
:102FF0008F7D8093C10016C0E0918708F09188080A
:10300000EB5BF74F208180918708909188080196AB
:1030100060E470E00E948A1A909388088093870881
:103020002093C600FF91EF91BF91AF919F918F9137
:103030007F916F915F913F912F910F900BBE0F90F9
:103040000FBE0F901F9018951F920F920FB60F9200
:103050000BB60F9211242F933F935F936F937F933F
:103060008F939F93AF93BF93EF93FF9320910D099D
:1030700030910E0980910F09909110092817390796
:1030800031F48091C9008F7D8093C90016C0E09112
:103090000F09F0911009E353F74F208180910F0938
:1030A00090911009019660E470E00E948A1A909352
:1030B000100980930F092093CE00FF91EF91BF91EB
:1030C000AF919F918F917F916F915F913F912F91E0
:1030D0000F900BBE0F900FBE0F901F9018951F9270
:1030E0000F920FB60F920BB60F9211242F933F93AE
:1030F0005F936F937F938F939F93AF93BF93EF9360
:10310000FF932091950930919609809197099091AC
:1031100098092817390731F48091D1008F7D809369
:10312000D10016C0E0919709F0919809EB5AF64F3B
:1031300020818091970990919809019660E470E050
:103140000E948A1A90939809809397092093D60039
:10315000FF91EF91BF91AF919F918F917F916F916F
:103160005F913F912F910F900BBE0F900FBE0F906C
:103170001F9018951F920F920FB60F920BB60F92D9
:1031800011242F933F935F936F937F938F939F931C
:10319000AF93BF93EF93FF9320911D0A30911E0AC6
:1031A00080911F0A9091200A2817390731F48091E5
:1031B00031018F7D8093310116C0E0911F0AF0919B
:1031C000200AE352F64F208180911F0A9091200A35
:1031D000019660E470E00E948A1A9093200A80931E
:1031E0001F0A20933601FF91EF91BF91AF919F91FC
:1031F0008F917F916F915F913F912F910F900BBEB7
:103200000F900FBE0F901F901895DF92EF92FF92D4
:103210000F931F93CF93DF93EC017A018B01DD2491
:10322000D394403081EE580780E0680780E078074B
:1032300049F4DD24EC89FD89108260E874E88EE1B0
:1032400090E00FC0EC89FD8981E090E00E8C02C017
:10325000880F991F0A94E2F7808360E079E08DE39C
:1032600090E0A80197010E949D1A215030404040F3
:103270005040569547953795279580E1203038077F
:1032800010F0DD20B1F6E889F9893083EA89FB89FD
:103290002083EE89FF89408181E090E09C010A8CC7
:1032A00002C0220F331F0A94E2F7422B4083EE89BB
:1032B000FF8940819C010B8C02C0220F331F0A94AE
:1032C000E2F7422B4083EE89FF8940819C010C8C00
:1032D00002C0220F331F0A94E2F7422B4083EE898B
:1032E000FF8920810D8C02C0880F991F0A94E2F794
:1032F000809582238083DF91CF911F910F91FF9062
:10330000EF90DF9008950F931F93CF931092240AAC
:103310001092230A88EE93E0A0E0B0E08093250AA3
:103320009093260AA093270AB093280AE3E2FAE0D2
:1033300029E437E03293229341E058E055874487EF
:1033400045E458E05787468745EC50E0518B408B69
:1033500044EC50E0538B428B40EC50E0558B448B57
:1033600041EC50E0578B468B46EC50E0518F408F3C
:10337000C4E0C28F73E0738F67E0648F55E0558FB0
:1033800041E0468F1092430A1092420A8093440A09
:103390009093450AA093460AB093470AE2E4FAE004
:1033A0003293229309E818E0158704870DEC18E0A2
:1033B000178706870DEC10E0118B008B0CEC10E0EA
:1033C000138B028B08EC10E0158B048B09EC10E0DA
:1033D000178B068B0EEC10E0118F008FC28F738F4E
:1033E000648F558F468F1092620A1092610A809303
:1033F000630A9093640AA093650AB093660AE1E6B3
:10340000FAE03293229301E119E01587048705E57C
:1034100019E01787068705ED10E0118B008B04ED8E
:1034200010E0138B028B00ED10E0158B048B01ED87
:1034300010E0178B068B06ED10E0118F008FC28F06
:10344000738F648F558F468F1092810A1092800A75
:103450008093820A9093830AA093840AB093850A8A
:10346000E0E8FAE03293229389E999E0958784872E
:103470008DED99E09787868785E391E0918B808B2E
:1034800084E391E0938B828B80E391E0958B848B36
:1034900081E391E0978B868B86E391E0918F808F1B
:1034A000C28F738F648F558F468FCF911F910F916D
:1034B00008950E944E1B08950E94E81B0895629F84
:1034C000D001739FF001829FE00DF11D649FE00D1C
:1034D000F11D929FF00D839FF00D749FF00D659F7D
:1034E000F00D9927729FB00DE11DF91F639FB00D7C
:1034F000E11DF91FBD01CF0111240895991B79E049
:1035000004C0991F961708F0961B881F7A95C9F773
:103510008095089597FB092E07260AD077FD04D0E1
:1035200049D006D000201AF4709561957F4F089518
:10353000F6F7909581959F4F0895A1E21A2EAA1B48
:10354000BB1BFD010DC0AA1FBB1FEE1FFF1FA21753
:10355000B307E407F50720F0A21BB30BE40BF50B50
:10356000661F771F881F991F1A9469F760957095D9
:10357000809590959B01AC01BD01CF01089597FB0B
:10358000092E05260ED057FD04D0D7DF0AD0001C27
:1035900038F450954095309521953F4F4F4F5F4FF0
:1035A0000895F6F790958095709561957F4F8F4FB0
:1035B0009F4F0895AA1BBB1B51E107C0AA1FBB1F49
:1035C000A617B70710F0A61BB70B881F991F5A95AF
:1035D000A9F780959095BC01CD0108952F923F9257
:1035E0004F925F926F927F928F929F92AF92BF9213
:1035F000CF92DF92EF92FF920F931F93CF93DF93BF
:10360000CDB7DEB7CA1BDB0B0FB6F894DEBF0FBE1B
:10361000CDBF19942A88398848885F846E847D8458
:103620008C849B84AA84B984C884DF80EE80FD806A
:103630000C811B81AA81B981CE0FD11D0FB6F894E0
:10364000DEBF0FBECDBFED0108950790F691E02DCE
:103650001994EF92FF920F931F93CF93DF93689F7C
:103660008001699F100D789F100D1124C8010E94E0
:103670004E1BE82EE7017E01F92EE701209731F07D
:103680008E2D60E070E0A8010E94811CCE01DF91C8
:10369000CF911F910F91FF90EF900895CF93DF93FB
:1036A0008230910510F482E090E0E0919F0AF09161
:1036B000A00A40E050E020E030E026C06081718147
:1036C00068177907E0F06817790781F482819381A0
:1036D0002115310531F0D90113969C938E931297E1
:1036E0002BC09093A00A80939F0A26C041155105D4
:1036F00019F06417750718F4AB01E901DF019F01A8
:1037000072816381E72FF62F3097C1F6411551057D
:1037100001F1481B590B4430510580F412968D91EC
:103720009C911397209719F09B838A8304C09093F0
:10373000A00A80939F0AFD01329646C0FD01E40F66
:10374000F51F819391934250504011965C934E9394
:103750003BC020919D0A30919E0A2115310541F40C
:1037600020913A0730913B0730939E0A20939D0A9F
:1037700020913C0730913D072115310541F42DB7CB
:103780003EB74091380750913907241B350BE09123
:103790009D0AF0919E0AE217F307A0F42E1B3F0B3F
:1037A0002817390778F0AC014E5F5F4F24173507B3
:1037B00048F04E0F5F1F50939E0A40939D0A8193DD
:1037C000919302C0E0E0F0E0CF01DF91CF91089546
:1037D000CF93DF93009709F491C0FC0132971382D5
:1037E000128260919F0A7091A00A6115710581F49F
:1037F00020813181280F391F80919D0A90919E0A66
:103800008217930799F5F0939E0AE0939D0A76C07C
:10381000DB0180E090E002C0CD01D901AE17BF0707
:1038200048F412962D913C91139721153105A1F77B
:10383000CD0121C0B383A283EF01499159919E012B
:10384000240F351FA217B30779F42D913C911197DE
:10385000240F351F2E5F3F4F3183208312962D9109
:103860003C91139733832283009729F4F093A00AA5
:10387000E0939F0A43C0DC011396FC93EE931297EA
:103880004D915D91A40FB51FEA17FB0769F42081E4
:103890003181240F351F2E5F3F4FEC013983288380
:1038A000228133813B832A83E0E0F0E002C0FB0108
:1038B000BC01DB0112968D919C9113970097B9F78B
:1038C0009B012E5F3F4F8D919C911197820F931F0B
:1038D00040919D0A50919E0A4817590779F43097F4
:1038E00029F41092A00A10929F0A02C01382128239
:1038F0002250304030939E0A20939D0ADF91CF9151
:103900000895DC0101C06D9341505040E0F70895E7
:10391000EF92FF920F931F93CF93DF938C01E0916F
:10392000A30AF091A40A838181FF1FC0C0E0D0E008
:103930000AC0DB011896ED91FC9119971995009733
:1039400011F0CFEFDFEFF80181918F016091A30AB1
:103950007091A40A882369F7DB011896ED91FC9118
:1039600019978AE01995009711F0CFEFDFEFCE019C
:10397000DF91CF911F910F91FF90EF900895F894F0
:02398000FFCF77
:1039820066616E5F666F72776172645F73706565A0
:10399200642063616C6C65640A0066616E5F686FC7
:1039A200766572696E675F73706565642063616CCA
:1039B2006C65640A0072756465725F64697265633E
:1039C20074696F6E2063616C6C65640A00686F765F
:1039D200657263726166745F7370656564206361AA
:1039E2006C6C65640A00520A0062617474657279D3
:1039F2005F6C6576656C2063616C6C65640A00556A
:103A02006E61626C6520746F20676574206D656DF0
:103A12006F72790A0053545241494748540A004888
:103A22004152445F4C4546540A00484152445F5259
:103A3200494748540A00534F46545F524947485435
:103A42000A00534F46545F4C4546540A00425241C5
:103A52004B450A00646972656374696F6E20455252
:103A6200524F520A007075742046616E20486F767C
:103A72006572696E6720696E6372656173696E67EC
:103A8200200A007075742046616E20486F76657258
:103A9200696E672064656372656173696E670A00A7
:103AA2007075742046616E20486F766572696E6724
:103AB200205370656564204552524F520A0070755A
:103AC200742046616E20486F766572696E67205376
:103AD200544F5020696E2071756575650A007075C6
:103AE200742046616E20486F766572696E67205455
:103AF2005552424F20696E2071756575650A004600
:103B0200616E20486F766572696E67206E6F7420F1
:103B1200696D706C656D656E74656420636F6D6D43
:103B2200616E6473204552524F520A0070757420C0
:103B320065786163742046414E5F484F564552494D
:103B42004E475F5350454544200A00707574204625
:103B5200616E20466F727761726420696E6372656E
:103B62006173696E6720537065656420696E2071A8
:103B7200756575650A007075742046616E20466F22
:103B820072776172642064656372656173696E67DE
:103B920020537065656420696E2071756575650ACC
:103BA200007075742046616E20466F727761726490
:103BB200205370656564204552524F520A00707559
:103BC200742046616E20466F72776172642053548E
:103BD2004F5020696E2071756575650A00707574A5
:103BE2002046616E20466F7277617264205455528E
:103BF200424F20696E2071756575650A0046616ED7
:103C020020466F7277617264206E6F7420696D70E6
:103C12006C656D656E74656420636F6D6D616E6455
:103C220073204552524F520A0070757420657861B4
:103C3200637420466F727761726420737065656485
:103C42002076616C75650A00536F6D657468696EE4
:103C520067206E6F74206261736564206F6E2070DE
:103C6200726F746F636F6C2069732072656365692C
:103C72007665640A000A00426C7565746F6F746839
:103C8200206973206163746976617465640009094F
:103C920054657374206D6F746F72207374617274E3
:103CA20065642000090954657374206D6F746F7226
:103CB2002073746F70706564200009095465737411
:103CC200206C6576656C206973206E6F726D616C15
:103CD2002000090954657374206C6576656C20694F
:103CE2007320747572626F20000909546573742021
:103CF200616E616C6F6720777269746520000909D3
:103D02005465737420546F6F206C6F77200009091B
:103D12005465737420546F6F2068696768200009C6
:103D220009546573742054205320697320626F74A0
:103D3200746F6D2000090954657374206D6F746F80
:103D4200722068617320616C7265616479206265BA
:103D5200656E20737461727465642000090954658C
:103D6200737420494E43204E6577202020204C3A20
:103D7200202564200A0009095465737420444543D0
:103D8200204E6577202020204C3A202564200A000E
:103D920009095465737420736574204E6577202079
:103DA20020204C3A202564200A00500A00510A00C3
:103DB20000000000000000000001020203030303F0
:103DC20004040404040404040505050505050505A9
:103DD2000505050505050505060606060606060689
:103DE2000606060606060606060606060606060671
:103DF2000606060606060606070707070707070759
:103E02000707070707070707070707070707070740
:103E12000707070707070707070707070707070730
:103E22000707070707070707070707070707070720
:103E32000707070707070707080808080808080808
:103E420008080808080808080808080808080808F0
:103E520008080808080808080808080808080808E0
:103E620008080808080808080808080808080808D0
:103E720008080808080808080808080808080808C0
:103E820008080808080808080808080808080808B0
:103E920008080808080808080808080808080808A0
:103EA2000808080808080808080808080808080890
:103EB20008080808080808082000A70A00000100EE
:103EC200010203040500000000D61625157116A094
:063ED200168416C2160062
:0400000300001B9A44
:00000001FF
