:100000000C9450010C9481010C9481010C94810199
:100010000C9481010C9481010C9481010C94810158
:100020000C9481010C941C180C9444180C946C18BA
:100030000C9481010C94D5240C9481010C948101C1
:100040000C9481010C94DC1A0C9481010C948101B4
:100050000C9481010C9481010C9481010C94AD07E6
:100060000C9481010C9436260C94E6260C948101A4
:100070000C9481010C9481010C9481010C948101F8
:100080000C940A1B0C9481010C9481010C94810145
:100090000C9462260C9431270C9481010C94361E2A
:1000A0000C9481010C9481010C94381B0C948101F7
:1000B0000C9481010C9481010C9481010C94661BB9
:1000C0000C9481010C9481010C9481010C948E2676
:1000D0000C947C270C9481010C94BA260C94C727AD
:1000E0000C94810100002100240027002A002D002B
:1000F0003000330001010000040107010A01000083
:100100002200250028002B002E00310034000201BF
:100110000000050108010B0100002000230026005B
:1001200029002C002F00320000010000030106010D
:10013000090105050505070508080808020202026D
:100140000A0A080804040404010101010101010173
:100150000303030303030303040707070C0C0C0C3E
:100160000C0C0C0C02020202060606060606060627
:100170000B0B0B0B0B0B0B0B0102102020080810B4
:100180002040102040800201020108040201010207
:1001900004081020408080402010080402018004E0
:1001A000020180402010080402010804020101023B
:1001B0000408102040800102040810204080000044
:1001C000090A02080B0C0D070603040100000000D9
:1001D000000000000000000000000000000000001F
:1001E0000000000000000000000011100F000000DF
:1001F00000000000000000000000000000000000FF
:100200000000000000C201000100110011000C00FC
:1002100000E100000A0025002500210000960000F2
:100220001900390039003600127A00001F0046001C
:10023000460044008070000022004D004D004A003E
:10024000004B000036007500750072004038000059
:100250004A009C009C009900802500007200EC0080
:10026000EC00E900C0120000E900DA01DA01D70170
:1002700060090000D701B603B603B303B004000061
:10028000B3036E076E076B072C010000DC0EC11D67
:10029000C11DBE1D0200B111D1119E169028D611AC
:1002A00011241FBECFEFD1E2DEBFCDBF00E00CBFF7
:1002B00017E0A0E0B2E0EAECF7E500E00BBF02C017
:1002C00007900D92AC3CB107D9F71CE0ACECB7E05D
:1002D00001C01D92AB39B107E1F712E0CEE9D2E0DF
:1002E00000E006C022970109FE010BBF0E94322ADE
:1002F000C639D10780E00807A9F70E948E070C9441
:10030000D32B0C940000A0E0B0E0E9E8F1E00C94FD
:10031000FF29FC01EA018081823008F438C1DB0149
:100320009C91923008F430C1843059F4943009F033
:100330002EC1918111968C911197981709F021C1C6
:1003400026C1943009F420C19230B1F4823009F012
:100350001EC1CA01AF0128E0DA010D90AD01DC0138
:100360000D92CD012150C1F7DB0111968C911197AF
:100370009181892389830AC1823009F405C1C28031
:10038000D380DB0112966D907C9013972481358188
:10039000468157811496ED90FD900D911C91179711
:1003A000C601861997095C0197FF04C0AA24BB24E3
:1003B000A81AB90AB0E2AB16B1040CF061C0181665
:1003C00019066CF5370148010A2C04C096948794ED
:1003D000779467940A94D2F781E090E0A0E0B0E0CF
:1003E0000A2C04C0880F991FAA1FBB1F0A94D2F7BA
:1003F0000197A109B1098E219F21A023B123EE24E9
:10040000FF248701E3940097A105B10519F4EE24B8
:10041000FF248701E628F728082919293CC00097FE
:10042000D1F1CA0CDB1C39014A010A2C04C0969494
:100430008794779467940A94D2F781E090E0A0E0E3
:10044000B0E00A2C04C0880F991FAA1FBB1F0A9492
:10045000D2F70197A109B10982239323A423B523DD
:1004600021E030E040E050E00097A105B10519F42B
:1004700020E030E0A90126293729482959290BC055
:100480006C147D0424F4EE24FF24870104C063016E
:1004900020E030E0A9018181FB019181891709F4F5
:1004A00045C0882349F0D801C701821B930BA40BD8
:1004B000B50B9C01AD0104C02E193F09400B510B37
:1004C00057FD04C01982DB82CA820BC081E0898398
:1004D000DB82CA8250954095309521953F4F4F4F12
:1004E0005F4F2C833D834E835F830DC0880F991F20
:1004F000AA1FBB1F8C839D83AE83BF838A819B8190
:1005000001979B838A838C819D81AE81BF819C01F1
:10051000AD0121503040404050402F3FEFEF3E07AB
:10052000EFEF4E07EFE35E0708F30BC08983DB8232
:10053000CA822E0D3F1D401F511F2C833D834E83C9
:100540005F8383E088832C813D814E815F8157FFEB
:100550001DC0DA01C90181709070A070B07056950D
:10056000479537952795822B932BA42BB52B8C83FE
:100570009D83AE83BF838A819B8101969B838A83FF
:1005800005C0E0E6F6E003C0FB0101C0FE01CF01BB
:10059000CDB7DEB7EEE00C941B2AA0E2B0E0E3EDAD
:1005A000F2E00C94072A69837A838B839C832D83E2
:1005B0003E834F83588789E0E82EF12CEC0EFD1E18
:1005C000CE010196B7010E9425078E010F5E1F4FD5
:1005D000CE010596B8010E942507C701B801AE01FA
:1005E000475E5F4F0E9483010E945706A096E6E097
:1005F0000C94232AA0E2B0E0E0E0F3E00C94072A98
:1006000069837A838B839C832D833E834F835887B2
:100610008E01075F1F4FCE010196B8010E9425078A
:1006200091E1E92EF12CEC0EFD1ECE010596B701ED
:100630000E9425078A8991E089278A8BC801B70122
:10064000AE01475E5F4F0E9483010E945706A0964D
:10065000E6E00C94232AA0E2B0E0E1E3F3E00C949E
:10066000FB2969837A838B839C832D833E834F830D
:100670005887CE010196BE01675F7F4F0E94250714
:10068000CE010596BE016F5E7F4F0E9425079985BA
:10069000923078F089898230C0F0943019F4823039
:1006A00041F4CBC0843019F4923079F4C6C0923052
:1006B00051F481E02A859A89291709F480E08A8714
:1006C000CE010996BCC0823051F481E02A859A8916
:1006D000291709F480E08A8BCE014196B0C06D8461
:1006E0007E848F849888ED88FE880F89188DE0E2DB
:1006F000F0E080E090E0DC01AA24BB24650120E06A
:1007000030E0A901B3016170707061157105D1F01D
:100710002E0D3F1D401F511F15012601280E391EA9
:100720004A1E5B1E81E090E0A0E0B0E02E153F0580
:100730004007510718F080E090E0DC01820D931D26
:10074000A41DB51DAA0CBB1CCC1CDD1C17FF09C0C9
:1007500061E0262E312C412C512CA228B328C4282C
:10076000D528319749F0EE0CFF1C001F111F9694FD
:10077000879477946794C6CF6B897C89EB85FC85D9
:100780006E0F7F1F6E5F7F4F7C8F6B8F61E0EA85FE
:100790007A89E71709F460E06A8F6B8D7C8D10C051
:1007A000FC01E170F070309729F056954795379528
:1007B00027955068B695A795979587956F5F7F4F5A
:1007C000B7FDEECF0CC0880F991FAA1FBB1F57FDA6
:1007D0008160220F331F441F551F615070408030CD
:1007E000E0E09E07E0E0AE07E0E4BE0760F36B8F59
:1007F0007C8F6FE7E62EF12C012D112DE822F922D6
:100800000A231B2360E4E616F1040105110561F4D7
:1008100087FD0AC0211531054105510529F0805C8D
:100820009F4FAF4FBF4F80788D8F9E8FAF8FB8A3F4
:1008300083E0898FCE01499602C080E696E00E944F
:100840005706A096E2E10C94172AA8E1B0E0EBE28B
:10085000F4E00C94032A69837A838B839C832D8331
:100860003E834F8358878E01075F1F4FCE0101964D
:10087000B8010E94250781E1E82EF12CEC0EFD1E47
:10088000CE010596B7010E9425079985923008F49C
:1008900083C08989823008F47BC02A853A8923275E
:1008A0002A87943011F0923021F4981709F06CC027
:1008B00071C0843039F41D861E861F86188A1C86F6
:1008C0001B866AC0823019F484E0898765C08B85F5
:1008D0009C852B893C89821B930B9C878B872D855C
:1008E0003E854F855889ED88FE880F89188D2E1515
:1008F0003F054007510738F4220F331F441F551F8F
:1009000001979C878B876FE170E0A12CB12CC12CE3
:10091000A0E4DA2E80E090E0DC012E153F054007D0
:10092000510740F08A299B29AC29BD292E193F097E
:10093000400B510BD694C794B794A794220F331F42
:10094000441F551F6150704041F76FE7E62EF12CB0
:10095000012D112DE822F9220A231B2360E4E6165B
:10096000F1040105110561F487FD0AC02115310567
:100970004105510529F0805C9F4FAF4FBF4F8078F4
:100980008D879E87AF87B88B8E01075F1F4F04C08E
:10099000870102C000E616E0C8010E94570668966B
:1009A000EAE00C941F2AA8E0B0E0E9EDF4E00C9432
:1009B000072A7B018C0183E08983D801C70188273E
:1009C000B7FD83959927AA27BB27282F8A83E1148F
:1009D000F1040105110519F482E0898337C08EE125
:1009E00090E09C838B83222389F080E0E81680E0EE
:1009F000F80680E0080780E8180769F1109500956F
:100A0000F094E094E11CF11C011D111DED82FE82A9
:100A10000F831887C801B7010E94FD059C01215072
:100A200030401216130694F4022E04C0EE0CFF1C84
:100A3000001F111F0A94D2F7ED82FE820F831887E0
:100A40008EE190E0821B930B9C838B83CE010196F9
:100A50000E94570604C060E070E080E09FEC28969A
:100A6000E6E00C94232AACE0B0E0E9E3F5E00C9476
:100A70000B2A69837A838B839C83CE010196BE0106
:100A80006B5F7F4F0E9425078D81823081F182301C
:100A900070F1843021F48E81882369F10AC02F819E
:100AA000388537FD24C06E812F3131053CF0662337
:100AB00011F120E030E040E050E821C08EE190E00C
:100AC000821B930B29853A854B855C8504C056951E
:100AD0004795379527958A95D2F7662381F05095EB
:100AE0004095309521953F4F4F4F5F4F08C020E014
:100AF00030E0A90104C02FEF3FEF4FEF5FE7B901EE
:100B0000CA012C96E2E00C94272AA8E0B0E0EBE8BA
:100B1000F5E00C94052A7B018C011A8261157105A0
:100B20008105910519F482E089835FC083E08983A0
:100B30008EE1C82ED12CDC82CB82ED82FE820F8327
:100B40001887C801B7010E94FD05FC013197F7FF26
:100B50003AC0AA27BB27AE1BBF0B21E030E040E024
:100B600050E00A2E04C0220F331F441F551F0A9461
:100B7000D2F721503040404050402E213F214023A9
:100B8000512361E070E080E090E0211531054105DE
:100B9000510519F460E070E0CB0104C0169507958B
:100BA000F794E794AA95D2F7E62AF72A082B192B8F
:100BB000ED82FE820F8318878EE190E08E1B9F0BE3
:100BC0009C838B8312C0309781F00E2E04C0EE0CF4
:100BD000FF1C001F111F0A94D2F7ED82FE820F83C3
:100BE0001887CE1ADF0ADC82CB82CE0101960E94E2
:100BF00057062896E8E00C94212AAF92BF92CF9234
:100C0000DF92EF92FF920F931F937B018C0180E0A4
:100C1000E81680E0F80681E0080780E0180758F43D
:100C2000EFEFEE16F1040105110509F090F480E0F4
:100C300090E0DC0117C0F0E0EF16F0E0FF06F0E016
:100C40000F07F1E01F0750F480E190E0A0E0B0E072
:100C500009C088E090E0A0E0B0E004C088E190E046
:100C6000A0E0B0E020E230E040E050E0281B390B8B
:100C70004A0B5B0B5701680104C0D694C794B79424
:100C8000A7948A95D2F7D601C5018859994FFC01DE
:100C90008081281B310941095109C9011F910F9118
:100CA000FF90EF90DF90CF90BF90AF900895EF92BC
:100CB000FF920F931F93CF93DF93FC012481358123
:100CC0004681578161818081823020F44061EFEF5D
:100CD000F0E0A3C0843009F49BC0823009F492C0D4
:100CE000211531054105510509F48FC00280F381BA
:100CF000E02D8FEFE238F8070CF05AC0C2E8DFEFC2
:100D0000CE1BDF0BCA31D1056CF579018A010C2E9F
:100D100004C016950795F794E7940A94D2F781E0FA
:100D200090E0A0E0B0E00C2E04C0880F991FAA1F2D
:100D3000BB1F0A94D2F70197A109B109822393231B
:100D4000A423B52321E030E040E050E00097A10566
:100D5000B10519F420E030E0A9012E293F29402BEC
:100D6000512B03C020E030E0A901DA01C9018F77DF
:100D70009070A070B07080349105A105B10539F470
:100D800027FF09C0205C3F4F4F4F5F4F04C0215CDD
:100D90003F4F4F4F5F4FE1E0F0E0203080E03807F9
:100DA00080E0480780E4580728F5E0E0F0E022C042
:100DB000E038F1056CF5E158FF4FDA01C9018F7792
:100DC0009070A070B07080349105A105B10539F420
:100DD00027FF09C0205C3F4F4F4F5F4F04C0215C8D
:100DE0003F4F4F4F5F4F57FF05C05695479537957B
:100DF0002795319687E056954795379527958A959B
:100E0000D1F70BC0E0E0F0E005C0E0E0F0E005C0A5
:100E1000EFEFF0E020E030E0A9018E2F87958827E2
:100E20008795942F9F77679566276795E695E22EBD
:100E3000A92FA82BFE2FF62B622F732F8A2F9F2FFF
:100E4000CDB7DEB7E6E00C94232ADC01FB012C9140
:100E500011963C91119712968C911297482F4F77CB
:100E600050E0982F991F9927991F13966C9113970B
:100E7000862F880F892B90E0661F6627661F618387
:100E8000009739F5211531054105510511F482E02E
:100E900029C082E89FEF9383828367E0220F331F8C
:100EA000441F551F6A95D1F783E0808309C0220F44
:100EB000331F441F551F828193810197938382833F
:100EC000203080E0380780E0480780E4580778F356
:100ED00020C08F3F910579F4211531054105510559
:100EE00019F484E08083089544FF03C081E0808387
:100EF00010C010820EC08F5790409383828383E08E
:100F0000808387E0220F331F441F551F8A95D1F736
:100F10005064248335834683578308950E945A087A
:100F20000E94460B0E94F30D0E94D10E80E090E0DB
:100F30000E94871080E060E00E94300981E060E05C
:100F40000E9430090E94601290938E0C80938D0C49
:100F50000E94BA130E94FA09FDCF1F920F920FB69A
:100F60000F9211242F933F938F939F93AF93BF932F
:100F70008091D0079091D107A091D207B091D3076B
:100F80003091D4070196A11DB11D232F2D5F2D3760
:100F900020F02D570196A11DB11D2093D4078093F9
:100FA000D0079093D107A093D207B093D307809135
:100FB000CC079091CD07A091CE07B091CF070196B5
:100FC000A11DB11D8093CC079093CD07A093CE07B0
:100FD000B093CF07BF91AF919F918F913F912F9188
:100FE0000F900FBE0F901F9018958FB7F894209117
:100FF000D0073091D1074091D2075091D3078FBFCE
:10100000B901CA0108959FB7F8942091CC07309197
:10101000CD074091CE075091CF0786B5A89B06C05B
:101020008F3F21F02F5F3F4F4F4F5F4F9FBF542F98
:10103000432F322F2227280F311D411D511D82E0E1
:10104000220F331F441F551F8A95D1F7B901CA01DA
:101050000895EF92FF920F931F93CF93DF937B013D
:101060008C010E940308EB010FC00E9403086C1B57
:101070007D0B83E0683E780738F00894E108F108BA
:1010800001091109C851DC4FE114F10401051105F2
:1010900061F7DF91CF911F910F91FF90EF9008952D
:1010A000019739F0880F991F880F991F02970197B0
:1010B000F1F70895789484B5826084BD84B5816029
:1010C00084BD85B5826085BD85B5816085BDEEE650
:1010D000F0E0808181608083E1E8F0E0108280812F
:1010E00082608083808181608083E0E8F0E080819D
:1010F00081608083E1EBF0E0808184608083E0EBBD
:10110000F0E0808181608083E1E9F0E080818260AD
:101110008083808181608083E0E9F0E0808181606C
:101120008083E1EAF0E08081826080838081816059
:101130008083E0EAF0E0808181608083E1E2F1E099
:10114000808182608083808181608083E0E2F1E041
:10115000808181608083EAE7F0E080818460808321
:1011600080818260808380818160808380818068CB
:1011700080831092C1000895893009F449C08A30F3
:10118000A0F4843051F1853040F4823079F183301D
:1011900000F5813009F063C026C0873079F18830CE
:1011A00098F5863009F05BC025C08D3009F442C047
:1011B0008E3028F48B30B1F18C30C0F52DC08031E9
:1011C00009F442C0813109F445C08F3009F047C0AD
:1011D00037C0809180008F7703C0809180008F7D21
:1011E00080938000089584B58F7702C084B58F7D89
:1011F00084BD08958091B0008F7703C08091B000C6
:101200008F7D8093B0000895809190008F7707C004
:10121000809190008F7D03C080919000877F8093A4
:10122000900008958091A0008F7707C08091A00062
:101230008F7D03C08091A000877F8093A0000895D8
:10124000809120018F7703C0809120018F7D809352
:101250002001089580912001877F809320010895C7
:1012600090E0FC01E858FE4F2491FC01EE5CFE4F3B
:10127000E491EE23C1F0F0E0EE0FFF1FEC51FF4FC1
:1012800085919491DC01662341F49FB7F8948C9189
:10129000209582238C939FBF08959FB7F8948C91DB
:1012A000822B8C939FBF08950F931F93DF93CF934F
:1012B0000F92CDB7DEB7282F30E0F901E254FE4F90
:1012C0008491F901E858FE4F14912E5C3E4FF901CC
:1012D00004910023D9F0882321F069830E94BC087F
:1012E0006981E02FF0E0EE0FFF1FE250FF4F859184
:1012F0009491DC019FB7F894662321F48C911095AA
:10130000812302C08C91812B8C939FBF0F90CF9132
:10131000DF911F910F910895CF93DF93282F30E035
:10132000F901E254FE4F8491F901E858FE4FD4913F
:101330002E5C3E4FF901C491CC2391F0882311F02B
:101340000E94BC08EC2FF0E0EE0FFF1FE85EFE4F9E
:1013500085919491DC018C918D2321E030E011F492
:1013600020E030E0C901DF91CF91089581E090E065
:1013700066E070E00E94362AFC019093D6078093C5
:10138000D5071582148208950F931F93DF93CF938F
:10139000CDB7DEB72A970FB6F894DEBF0FBECDBF2C
:1013A0008E010F5F1F4F11C0C8010E941C0B998155
:1013B0008A812B813C81ED81FE81913019F4F90104
:1013C000199503C0923009F419956091D507709171
:1013D000D607FB0184819581181619062CF32A96ED
:1013E0000FB6F894DEBF0FBECDBFCF91DF911F9136
:1013F0000F9108950E94B6090E94410D80918D0CB5
:1014000090918E0C0E948A1280918D0C90918E0C7E
:101410000E94E8120E944B0B81E090E00E940E14A3
:1014200090E00E945D0B0E94C409E6CFAF92BF928C
:10143000CF92DF92EF92FF920F931F93DF93CF93A0
:10144000CDB7DEB72A970FB6F894DEBF0FBECDBF7B
:10145000C02E0983D12E1A83E22E2B83F32E3C83D8
:101460004D835E836F83788789879A87A090D5079D
:10147000B090D6078601970175010E94500A2A96FE
:101480000FB6F894DEBF0FBECDBFCF91DF911F9195
:101490000F91FF90EF90DF90CF90BF90AF900895A5
:1014A000EF92FF920F931F93DF93CF93CDB7DEB7E9
:1014B0002A970FB6F894DEBF0FBECDBF09831A83FB
:1014C0002B833C834D835E836F83788789879A87DC
:1014D0000F81188581E090E06EE070E00E94362A6E
:1014E000FC01009709F49BC0AE014F5F5F4F2AE0FB
:1014F000DA010D90AD01DC010D92CD012150C1F753
:1015000017830683D70114968D919C91159782308D
:10151000910594F18D919C911197AC0129C0DA014C
:1015200016962D913C91179720173107E0F45387B9
:1015300042871C962D913C911D97358724878417EF
:10154000950729F4D701ED93FC93DC013EC0DA0145
:101550001C968D919C911D97DC011B96FC93EE933C
:101560001A97DA0132C0DA011A964D915C911B97F5
:1015700041155105A1F63FC08130910559F5D701BC
:101580002D913C91D90116968D919C9117978017BA
:10159000910778F01386128635872487D701139632
:1015A000FC93EE931297D9011B96FC93EE931A9736
:1015B0001BC01586148633872287D70113963C9368
:1015C0002E931297ED93FC93D9011D96FC93EE9305
:1015D0001C970AC0009741F4D7011196FC93EE9333
:1015E0001386128615861486F701848195810196EB
:1015F0009583848314C013861286D70112968D9129
:101600009C91139795878487DC011B96FC93EE933E
:101610001A97D7011396FC93EE931297E5CF2A966B
:101620000FB6F894DEBF0FBECDBFCF91DF911F91F3
:101630000F91FF90EF9008950F931F93CF93DF9337
:101640008C01FB01A081B181982F292F312FAD0191
:101650008AE0EA010990AE01E90109929E018150F8
:10166000C1F72481358121503040358324831A9677
:101670008D919C911B9791838083CD010E94F52AC7
:10168000C801DF91CF911F910F9108950E94860D9F
:101690000E94EE0D0895DF93CF930F920F92CDB776
:1016A000DEB79A838983CE0101960E94C80D8FEF21
:1016B0000F900F90CF91DF9108950F931F93DF93B9
:1016C000CF930F92CDB7DEB789838E010F5F1F4F87
:1016D000C8010E949B0D80E592E00E94D20DC801D6
:1016E0000E947E0D0F90CF91DF911F910F91089571
:1016F000CF93DF93EC018AE090E00E945B2A009791
:1017000019F486E692E052C0CE010E94640D823048
:1017100019F1833030F4882359F0813009F044C046
:1017200011C0843069F1843008F18530E9F532C0A8
:1017300080E090E00E9487108CE792E00E94D20D3A
:1017400080E037C081E090E00E94871086E892E058
:101750000E94D20D81E02DC082E090E00E948710AF
:1017600081E992E00E94D20D82E023C083E090E004
:101770000E9487108DE992E00E94D20D83E019C08B
:1017800084E090E00E94871089EA92E00E94D20DE6
:1017900084E00FC085E090E00E94871084EB92E027
:1017A0000E94D20D85E005C08BEB92E00E94D20D25
:1017B0008FEFDF91CF910895EF92FF920F931F93D8
:1017C000CF93DF938C018AE090E00E945B2AE82EA1
:1017D000E7017E01F92EE701209719F486E692E0F1
:1017E00064C0C8010E94590D8130910509F043C0C1
:1017F000C8010E94680D882319F08130C9F51BC00B
:1018000082EF9EE0282F9B838A8381E088838EE18C
:1018100090E0682F9F838E831986188601E01981D6
:101820003B814C815D817F8180E099850E94160A11
:101830008CEC92E02AC045EE5EE0242F5B834A8365
:1018400088838EE190E0682F9F838E8319861886A7
:1018500001E019813B814C815D817F8180E0998528
:101860000E94160A8AEE92E00E94D20D81E020C00A
:1018700087E093E01AC0C8010E94680D882319F020
:10188000873069F406C085E293E00E94D20D80E0C3
:101890000FC085E493E00E94D20D87E009C086E680
:1018A00093E00E94D20D82E993E00E94D20D8FEF67
:1018B000DF91CF911F910F91FF90EF9008958FEAE4
:1018C00093E00E94D20D0E94680E80E00895EF928E
:1018D000FF920F931F93CF93DF938C018AE090E0E8
:1018E0000E945B2AE82EE7017E01F92EE70120978E
:1018F00019F486E692E081C0C8010E94590D81303A
:10190000910509F04EC0C8010E94680D882321F09E
:10191000813009F043C021C08AEF9DE0282F9B83CE
:101920008A8381E088838EE190E0682F9F838E8395
:101930001986188601E019813B814C815D817F8188
:1019400080E099850E94160A88EB93E00E94D20DF0
:101950000E94630E0E94C00D3CC045E25EE0242F51
:101960005B834A8388838EE190E0682F9F838E8318
:101970001986188601E019813B814C815D817F8148
:1019800080E099850E94160A83EE93E00E94D20DB2
:101990000E94630E0E94C00D81E032C08EE094E090
:1019A0002CC0C8010E94680D882319F08730F9F413
:1019B00012C080E090E00E944E0E0E94E50E0E9450
:1019C000E50E80E090E00E9487108BE294E00E9498
:1019D000D20D80E015C088E790E00E944E0E0E9474
:1019E000DA0E8AE494E00E94D20D87E009C08AE60C
:1019F00094E00E94D20D86E994E00E94D20D8FEF10
:101A0000DF91CF911F910F91FF90EF900895CF93A9
:101A1000DF93EC010E947B0D8F3F01F1813061F07B
:101A2000813028F0823069F08830A1F40FC0CE01F7
:101A30000E94670C80E013C0CE010E94DC0B81E0A5
:101A40000EC0CE010E94780B82E009C00E945F0C9C
:101A500088E005C085EB94E00E94D20D8FEFDF9106
:101A6000CF910895CF93DF93EC010E94A40D88835A
:101A70008E3F18F4CE010E94070D8881DF91CF912F
:101A800008950F931F93DF93CF930F92CDB7DEB7D7
:101A90008FEF89838E010F5F1F4FC8010E94320DA7
:101AA00089818F3FD1F70F90CF91DF911F910F91D7
:101AB0000895FC01808190E08870907023E09595F6
:101AC00087952A95E1F70895FC0180818770089534
:101AD000FC01808187700895FC01808182958F7060
:101AE00090E08930910528F48E57984FFC01808151
:101AF00008958FEF08950E946C0D0895FC01808178
:101B0000803110F08FEF08958065089581E19CE0A9
:101B100040E855E260E070E00E94122880E39CE01B
:101B200040E855E260E070E00E94122889E060E041
:101B30000E9430090895FC0181E19CE060814AE047
:101B400050E00E944D210895DF93CF930F92CDB7BF
:101B5000DEB780E39CE00E947E25181619065CF42F
:101B600080E39CE00E94AD258983CE0101960E940E
:101B70009B0D898101C08FEF0F90CF91DF91089568
:101B8000BC0181E19CE04AE050E00E949021089570
:101B9000FC016081718180E39CE04AE050E00E949A
:101BA00090210895EF92FF92CF93DF93E82EE70103
:101BB0007E01F92EE70104C081E19CE00E94DC2057
:101BC00069916623C9F781E19CE062EE74E00E94AE
:101BD000D920DF91CF91FF90EF90089584EE94E0AB
:101BE0000E94D20D08950E94800E0E94A30E80E0F4
:101BF00090E00895EF92FF92CF93DF930E94AF0E93
:101C00002091D7073091D8072F5F3F4F3093D807E7
:101C10002093D7078C3891056CF08CE890E00E94F7
:101C2000B40E84E190E09093D8078093D707CCE876
:101C3000D0E005C0EC012796CE010E94B40ECE0183
:101C4000DF91CF91FF90EF900895EF92FF92CF93A5
:101C5000DF930E94AF0E2091D7073091D807215013
:101C600030403093D8072093D7078830910534F05F
:101C7000EC012797CE010E94B40E0AC080E090E0EC
:101C80000E94B40E1092D8071092D707C0E0D0E09F
:101C9000CE01DF91CF91FF90EF900895EF92FF92E8
:101CA000CF93DF93EC018937910528F00E94CC0E89
:101CB000CFEFDFEF02C00E94B40ECE01DF91CF91D3
:101CC000FF90EF9008958091D7079091D8070895DD
:101CD0000E94AF0E009781F487E00E948C0981304A
:101CE000910519F487E060E002C087E061E00E949E
:101CF000540920E030E002C02FEF3FEFC901089502
:101D000087E061E00E94300980E090E008958091D2
:101D1000D907813029F0813018F0823089F404C06D
:101D20008BE064E670E00AC06091DA077091DB072F
:101D3000633971052CF465597F4F8BE00E94C31FF6
:101D40008091D90708958BE061E00E94300981E01D
:101D50008093D9070E94870E80E090E008958091DB
:101D6000DA079091DB0708958439910510F081E03E
:101D70000EC0009739F41092DB071092DA07109228
:101D8000D90707C09093DB078093DA0782E080933E
:101D9000D9070E94870E08951092D9070E94870ED6
:101DA00008958AE090E067E070E00E94BD0F80E057
:101DB00090E0089587E19FE06AE070E047E050E03E
:101DC0000E94FF0E80E090E0089583E89FE06AE0C3
:101DD00070E047E050E02AE030E00E94060F80E02B
:101DE00090E0089580EA9FE06AE070E047E050E00C
:101DF0002AE030E00E94060F80E090E00895FC01A8
:101E0000CB01BA01199580E090E00895FC01CB0167
:101E1000BA01A901199580E090E008954091DC078E
:101E20005091DD070E94E30F80E090E00895CF938A
:101E3000DF93EB012EEF30E03093DD072093DC07DA
:101E40004EEF50E00E940E0FCE010E945B1080E02A
:101E500090E0DF91CF910895CF93DF93EB012BE9D1
:101E600030E03093DD072093DC074BE950E00E941F
:101E70000E0FCE010E94501080E090E0DF91CF91D4
:101E8000089524E630E03093DD072093DC0744E634
:101E900050E00E940E0F68EE73E080E090E00E9438
:101EA000290880E090E00895CF93DF93EB01209123
:101EB000DC073091DD072436310514F40E94410F10
:101EC000CE010E94451080E090E0DF91CF9108950F
:101ED0000F931F93CF93DF93EC018B015093DD079A
:101EE0004093DC070E94F10F4091DC075091DD0721
:101EF000CE01B8010E940E0F80E090E0DF91CF91FB
:101F00001F910F9108950F931F93CF93DF93EC01CF
:101F10008B019A014091DC075091DD070E9431103E
:101F2000AC019093DD078093DC07CE01B8010E94DD
:101F3000680F80E090E0DF91CF911F910F9108959D
:101F40000F931F93CF93DF93EC018B019A01409184
:101F5000DC075091DD070E941310AC019093DD0760
:101F60008093DC07CE01B8010E94680F80E090E00A
:101F7000DF91CF911F910F9108950F931F93DF93DE
:101F8000CF930F920F92CDB7DEB7182F092FAB0169
:101F9000862F61E049835A830E943009812F61E0D6
:101FA0000E94300984E59FE0612F702F49815A819A
:101FB0000E94FF0E80E090E00F900F90CF91DF9194
:101FC0001F910F910895CF93DF93EB01BA010E9407
:101FD000C31FCE010E94661080E090E0DF91CF9198
:101FE00008950F931F93CF93DF938C01EB014B392F
:101FF000510544F4CB010E947110C801BE010E943A
:102000002C0F0AC04F3F51053CF0CB010E947C10C1
:10201000C801BE010E94170F80E090E0DF91CF91D0
:102020001F910F910895EF92FF920F931F93CF93FB
:10203000DF937C018B01EA014F3F510544F0CB0156
:102040000E947C10C701B8010E94170F02C0C20F86
:10205000D31FCE01DF91CF911F910F91FF90EF9091
:102060000895EF92FF92CF93DF93CB01EA014B39B2
:1020700051051CF40E94711002C0C21BD30BCE018B
:10208000DF91CF91FF90EF9008950F931F938C01F4
:102090008BEF94E00E949C2BC8011F910F91089533
:1020A0000F931F938C0187E295E00E949C2BC8013F
:1020B0001F910F9108950F931F938C018FE395E06B
:1020C0000E949C2BC8011F910F9108950F931F939D
:1020D0008C0186E595E00E949C2BC8011F910F9111
:1020E00008950F931F938C018BE695E00E949C2B23
:1020F000C8011F910F9108950F931F938C018BE7D7
:1021000095E00E949C2BC8011F910F9108950F9399
:102110001F93CF93DF938C010E949A10EC01B801BA
:102120000E94A011CE010E949F10DF91CF911F91BC
:102130000F91089581E090E00E94662908950E9421
:10214000692908950F931F93CF93DF93CEEDD7E0C6
:10215000CE0162E070E00E945E1C01EE17E0C80153
:1021600063E070E00E945E1CCE016FE570E00E94AB
:10217000991CC8016EE670E00E94991C80E090E016
:10218000DF91CF911F910F9108958EED97E06EE151
:1021900070E00E94991C81EE97E06DE270E00E9471
:1021A000991C82E090E008958EED97E066E970E07A
:1021B0000E94991C81EE97E065EA70E00E94991CEC
:1021C00083E090E00895CF93DF93CEEDD7E0CE018A
:1021D0000E941C1DBC01CE010E94991CC1EED7E0DB
:1021E000CE010E941C1DBC01CE010E94991C84E0FE
:1021F00090E0DF91CF9108958EED97E06FE570E06C
:102200000E94991C81EE97E06EE670E00E94991C96
:1022100085E090E008958EED97E064EB70E00E9419
:10222000991C81EE97E06FE070E00E94991C86E0B7
:1022300090E008950F931F93CF93DF938EED97E077
:102240000E941C1D8C01EC012F96863991057CF4AF
:102250008EED97E0BE010E94991CB801625E7F4F2F
:1022600081EE97E00E94991C27E030E00CC08EEDD3
:1022700097E0B8010E94991C81EE97E0BE010E9490
:10228000991C28E030E0C901DF91CF911F910F9197
:102290000895CF93DF938EED97E00E941C1DEC0113
:1022A0008F3191057CF0BC016F5070408EED97E04E
:1022B0000E94991C81EE97E0BE010E94991C29E0C2
:1022C00030E00CC08EED97E0BE010E94991C81EEBB
:1022D00097E0BE010E94991C2AE030E0C901DF911D
:1022E000CF91089562307105D1F0633071053CF4EF
:1022F0006115710571F061307105E9F40DC064304C
:10230000710599F0643071056CF06530710599F4D0
:102310000FC00E94FC1011C00E94D4100EC00E9479
:10232000C5100BC00E94491108C00E941A1105C0B7
:102330000E940B1102C00E94E3108BE090E0089510
:102340000F931F93CF93DF938C01EB010E94A21098
:10235000C801BE010E947211DF91CF911F910F91B0
:1023600008958EED97E00E94941B81EE97E00E9405
:10237000941B08958130910539F484EE97E062E072
:1023800043E00E940D120895009751F48FE897E002
:102390009093E5078093E40780EF97E00E940E1A80
:1023A000089581E090E00E94BA11089580E090E0E5
:1023B0000E94BA1108950C960E94F01608950C968A
:1023C0000E94D6160895CF93DF93EC010C960E94DD
:1023D000B5169C01EEADFFAD8081992787FD9095E4
:1023E0002817390741F4CF0101969FAF8EAF818145
:1023F000882339F41DAE80917A0790917B079FAFB7
:102400008EAFC901DF91CF9108950C960E94AB1752
:1024100008950C960E94011708950F931F93CF9370
:10242000DF93EC011B821A8288EE93E0A0E0B0E01B
:102430008C839D83AE83BF838FE897E099838883E5
:102440008E01045F1F4FC80120E00E94E2181CAEFD
:102450001DAE18AE19AE1AAE1BAE60917807709122
:102460007907CE0188960E94952BFE01EE5BFF4F07
:1024700080ED97E091838083FE01E05CFF4F80E573
:1024800090E091838083FE01EC5BFF4F118210820C
:1024900080917A0790917B079FAF8EAFC80140E88B
:1024A00055E260E070E00E940F19C8010E942317F6
:1024B000C8010E94F016DF91CF911F910F910895EE
:1024C000EF92FF92CF93DF938CE090E00E945B2A23
:1024D000E82EE7017E01F92EE7012097A9F00E947E
:1024E000F1120E948813688779878A879B8780E02A
:1024F00090E0DC0188839983AA83BB830E94F5075F
:102500006C837D838E839F83CE01DF91CF91FF907B
:10251000EF9008952F923F924F925F926F927F9229
:102520008F929F92AF92BF92CF92DF92EF92FF92E3
:102530000F931F93CF93DF93EC010E94F5073B01AC
:102540004C018C819D81AE81BF8184017301E81AA9
:10255000F90A0A0B1B0B288039804A805B8068854A
:1025600079858A859B850E9441135B016C01C801B6
:10257000B7010E9485059B01AC01C601B5010E940F
:102580002B0320E030E04AE754E40E9425049B013D
:10259000AC01C201B1010E94CD02688379838A83B4
:1025A0009B836C827D828E829F82DF91CF911F916F
:1025B0000F91FF90EF90DF90CF90BF90AF909F90E2
:1025C0008F907F906F905F904F903F902F900895E5
:1025D000FC0160817181828193810E943305CB016E
:1025E0000895CF93DF93C6E7D8E0CE010E94661628
:1025F000CE0160E470E00E948B16CE0160E10E9483
:102600003616CE0166EB0E943616CE010E948E165B
:102610006AE070E080E090E00E942908CE0160E46A
:1026200070E00E948B16CE016DE00E943616CE013E
:1026300060E10E943616CE010E948E16CE0160E443
:1026400070E00E948B16CE0160E20E943616CE0129
:1026500060E70E943616CE010E948E16CE0160E41D
:1026600070E00E948B16CE0165E30E943616CE0103
:1026700064E00E943616CE010E948E16DF91CF9143
:102680000895CF92DF92EF92FF920F931F93CF9313
:10269000DF936B017C01C6E7D8E0CE0160E470E017
:1026A0000E948B16CE0162E00E943616CE010E9477
:1026B0008E16CE0160E470E042E050E00E947E168B
:1026C000CE010E94DF158C01CE010E94DF15782F0C
:1026D00060E0602B712B75956795759567958827D8
:1026E00077FD8095982F0E94D3042EE230E940E2D6
:1026F0005BE30E942B03A70196010E94CD02DF91AC
:10270000CF911F910F91FF90EF90DF90CF900895A0
:10271000EF92FF920F931F93CF93DF93C0E9D1E025
:10272000EE24FF2400E010E060E070E0CB010E94A6
:1027300041139B01AC016E2D7F2D802F912F0E94A4
:10274000CD027B018C0181E792E00E945008219725
:1027500059F76E2D7F2D802F912F20E030E048EC2F
:1027600053EC0E942504DF91CF911F910F91FF90B0
:10277000EF9008950E9429140E94811580E090E056
:1027800008958730910560F18E3091055CF18431B8
:10279000910554F18B3191054CF18232910544F150
:1027A000883291053CF18F32910534F185339105E2
:1027B0002CF18C33910524F1833491051CF189347B
:1027C000910514F1803591050CF18635910504F1E0
:1027D0008D359105FCF085369105F4F48EE0089571
:1027E00080E0089581E0089582E0089583E00895EF
:1027F00084E0089585E0089586E0089587E00895CF
:1028000088E0089589E008958AE008958BE00895AE
:102810008CE008958DE0089580E008950F931F9354
:10282000CF93DF93EC010E946515182F092FC1305B
:10283000D10531F40E94C915812F902F0E944A14AE
:10284000812F902F0E94C113DF91CF911F910F9183
:10285000089585E361E00E94300984E361E00E940D
:10286000300983E361E00E94300982E361E00E9465
:10287000300985E361E00E94540984E361E00E942D
:10288000540983E361E00E94540982E361E00E94FD
:1028900054090895EF92FF920F931F93CF93DF9304
:1028A000EC010E94F5079E0121553040243131058D
:1028B00018F485E361E008C09E012D5330402431B7
:1028C000310538F485E360E00E94540984E361E057
:1028D0000CC09E01295230402431310558F485E363
:1028E00060E00E94540984E360E00E94540983E39D
:1028F00061E010C09E01255130402431310578F44B
:1029000085E360E00E94540984E360E00E9454097A
:1029100083E360E00E94540982E361E05BC09E01B2
:10292000215030402431310508F044C020912C085A
:1029300030912D0840912E0850912F087B018C0179
:10294000E21AF30A040B150BA8019701253F01E0D9
:10295000300700E0400700E05007F0F160932C08DA
:1029600070932D0880932E0890932F0880912A0849
:1029700090912B08009739F481E090E090932B0818
:1029800080932A0804C010922B0810922A0885E32D
:1029900060912A080E94540984E360912A080E94E9
:1029A000540983E360912A080E94540982E36091EC
:1029B0002A0810C0209781F485E360E00E94540942
:1029C00084E360E00E94540983E360E00E945409BC
:1029D00082E360E00E945409DF91CF911F910F9133
:1029E000FF90EF90089583E40E94901F22E08D3FB6
:1029F0009207DCF083E40E94901FBC016D5F72407F
:102A0000882777FD8095982F0E94D30420E030E03E
:102A100041E853E40E94250420E030E048EC52E411
:102A20000E942B030E94330502C060E070E0CB01DE
:102A3000089584E40E94901F22E08D3F9207DCF00D
:102A400083E40E94901FBC016D5F7240882777FD70
:102A50008095982F0E94D30420E030E041E853E4B1
:102A60000E94250420E030E048EC52E40E942B0351
:102A70000E94330502C060E070E0CB01089585E458
:102A80000E94901F22E08D3F9207DCF083E40E94B9
:102A9000901FBC016D5F7240882777FD8095982F4D
:102AA0000E94D30420E030E041E853E40E94250472
:102AB00020E030E048EC52E40E942B030E943305F2
:102AC00002C060E070E0CB0108958130910519F4F7
:102AD0000E94F31408958230910519F40E9419158B
:102AE00008958330910519F40E943F1508950895C3
:102AF00081E361E00E9430091092900C10928F0CDB
:102B000008950E94781508958530910561F080350B
:102B1000910591F481E390E064E971E10E94CC15A4
:102B200020E030E00AC081E390E068E873E10E94B1
:102B3000CC152FEF3FEF01C00895C90108958035EE
:102B4000B9F480918F0C9091900C84319105CCF464
:102B500080E590E00E94841580918F0C9091900CFC
:102B600001969093900C80938F0C21E030E00FC081
:102B7000863038F485E090E00E94841520E030E053
:102B800006C081E390E00E94D3152FEF3FEFC9010B
:102B900008950E949F15089522E030E040E050E043
:102BA0000E949A2108950E94BF24089520915108FF
:102BB00030E080915008281B3109C90108958091A7
:102BC000500890915108891750F4E82FF0E0E05D2B
:102BD000F74F208130E08F5F8093500802C02FEFC5
:102BE0003FEFC9010895E091500880915108E8171E
:102BF00030F4F0E0E05DF74F208130E002C02FEFCD
:102C00003FEFC90108950895CF92DF92EF92FF92AE
:102C10000F931F93CF93DF936C01CB01EA012091B7
:102C200075082223B1F0E62EF92E00E010E00DC069
:102C3000D7016D917D01D601ED91FC910190F0815C
:102C4000E02DC60119950F5F1F4F0C171D0780F36C
:102C500003C0642F0E94041ECE01DF91CF911F910B
:102C60000F91FF90EF90DF90CF900895DF93CF9377
:102C70000F92CDB7DEB76983209175082223D1F07A
:102C800020917408203240F021E030E0FC013383D1
:102C9000228320E030E015C080917308E82FF0E037
:102CA000ED5AF74F998190838F5F809373088093DB
:102CB000740805C0CE01019661E00E94041E21E067
:102CC00030E0C9010F90CF91DF9108951092500824
:102CD0001092510810927308109274080E94751D8A
:102CE0000895862F413208F040E260E378E00E94C8
:102CF0008E1D109250088093510808950E947116FD
:102D0000089581E0809375086093520810927308CB
:102D10001092740808950E948116089580915208B7
:102D200063E578E04091740821E00E94C41D109290
:102D3000730810927408109275080895109279081B
:102D40001092780888EE93E0A0E0B0E080937A08D3
:102D500090937B08A0937C08B0937D088FE997E05F
:102D60009093770880937608089520918208309197
:102D7000830828173907B1F49091C5088091C408D9
:102D8000981781F0E091C508F0E0EC57F74F2081EB
:102D90008091C50890E001968F7390708093C5086C
:102DA00030E002C02FEF3FEFC90108952091820863
:102DB000309183082817390779F48091C40820914D
:102DC000C50890E0805C9F4F821B910960E470E031
:102DD0000E9497299C0102C020E030E0C9010895BB
:102DE00020918208309183082817390749F48FB75A
:102DF000F8941092C4089091C4089093C5088FBFAE
:102E0000089520918208309183082817390781F4AA
:102E10009091C5088091C408981751F0E091C508B9
:102E2000F0E0EC57F74F2081332727FD309502C0A3
:102E30002FEF3FEFC901089520E001972FEF8F3F5B
:102E40009207D9F70895FC01809182089091830838
:102E50008E179F0791F0838D8E7F838F8FB7F894A5
:102E60001092C4089091C4089093C508F093830809
:102E7000E09382088FBF81E0089580E00895EF928B
:102E8000FF920F931F93CF93DF93EC018B8DEE8511
:102E9000FF859D8581FF04C08081892329F445C079
:102EA0008081892309F041C08B899C890E941C176D
:102EB00008E010E0EE24E394FF248D899E890E94AF
:102EC0001C17EE85FF8580819D85892311F0FE28E2
:102ED00003C08E2D8095F822EE0C0150104069F74A
:102EE0008F89988D0E941C178B8D81FDF0948091A5
:102EF000C4082091C50890E001968F73907030E06F
:102F00008217930779F0E091C408F0E0EC57F74F8F
:102F1000F0828091C40890E001968F739070809346
:102F2000C40803C08B8D81608B8FDF91CF911F917F
:102F30000F91FF90EF900895FC01A189B2899089CB
:102F4000662329F42C91892F8095822302C08C91CD
:102F5000892B8C930895DF92EF92FF920F931F932A
:102F6000CF93DF93EC01E62E898D9A8D009739F48B
:102F700081E090E09B838A8320E030E04BC0DFB6A5
:102F8000F8948B8D61E081FF60E0CE010E949C1778
:102F9000898D9A8D05960E941C178B8D81FF19C013
:102FA00008E010E0FF24F3948F2D8E2119F0CE015C
:102FB00060E002C0CE0161E00E949C17898D9A8D6D
:102FC0000E941C17FF0C0150104071F7CE0160E009
:102FD00018C008E010E0FF24F3948F2D8E2119F023
:102FE000CE0161E002C0CE0160E00E949C17898D95
:102FF0009A8D0E941C17FF0C0150104071F7CE01F2
:1030000061E00E949C17DFBE898D9A8D0E941C177B
:1030100021E030E0C901DF91CF911F910F91FF9026
:10302000EF90DF9008958091820890918308009737
:1030300011F00E943F1708951F920F920FB60F9242
:103040000BB60F9211242F933F934F935F936F937F
:103050007F938F939F93AF93BF93EF93FF930E94C0
:103060001318FF91EF91BF91AF919F918F917F9135
:103070006F915F914F913F912F910F900BBE0F90E9
:103080000FBE0F901F9018951F920F920FB60F92C0
:103090000BB60F9211242F933F934F935F936F932F
:1030A0007F938F939F93AF93BF93EF93FF930E9470
:1030B0001318FF91EF91BF91AF919F918F917F91E5
:1030C0006F915F914F913F912F910F900BBE0F9099
:1030D0000FBE0F901F9018951F920F920FB60F9270
:1030E0000BB60F9211242F933F934F935F936F93DF
:1030F0007F938F939F93AF93BF93EF93FF930E9420
:103100001318FF91EF91BF91AF919F918F917F9194
:103110006F915F914F913F912F910F900BBE0F9048
:103120000FBE0F901F9018951F93CF93DF93EC0164
:10313000162F862F61E00E943009812F61E00E94E6
:103140005409812F90E0FC01E858FE4FE491E88B90
:10315000FC01EE5CFE4FE491F0E0EE0FFF1FE25049
:10316000FF4F85919491898B9A8BDF91CF911F911D
:1031700008951F93CF93DF93EC01162F862F60E005
:103180000E9430098B8D81FD04C0812F61E00E9477
:1031900054091C87812F90E0FC01E858FE4FE49110
:1031A000ED87FC01EE5CFE4FE491F0E0EE0FFF1FB7
:1031B000E85EFE4F859194918E879F87DF91CF9136
:1031C0001F9108951F93CF93DF93EC01162F1B825D
:1031D0001A8288EE93E0A0E0B0E08C839D83AE83FA
:1031E000BF838FEA97E0998388831C8A1B8A1E8A93
:1031F0001D8A188E1F8A1A8E198E8B8D2170220FB0
:103200008C7F822B8B8FCE01642F0E949418CE016D
:10321000612F0E94B918DF91CF911F910895EF920D
:10322000FF920F931F93CF93DF93EC017A018B01F1
:103230001A8E198E188E1F8A1E8A1D8A1C8A1B8A56
:1032400040E050E09A01220F331F240F351F220F58
:10325000331F220F331FF901EC5FFD4F85919591CC
:10326000A591B4918E159F05A007B107E9F4F90166
:10327000E85FFD4F859194918B8B9C8BF901E65F04
:10328000FD4F859194918D8B9E8BF901E45FFD4FED
:10329000859194918F8B988F225F3D4FF901859195
:1032A0009491898F9A8F06C04F5F5F4F4C305105C4
:1032B00009F0C8CF8F89988D009709F466C08C8576
:1032C000982F9A50943040F0282F2253243020F029
:1032D0002C50283008F055C020916800943048F0F8
:1032E000982F9253943028F08E53883010F484E055
:1032F00001C081E0822B809368002C85922F9A5028
:10330000943088F0822F8253843068F08C5088305B
:1033100018F4EDE6F0E002C0E0E0F0E0883040F4C0
:10332000ADE6B0E007C0EBE6F0E0ABE6B0E002C02F
:10333000A0E0B0E04C91943020F430E026503040D2
:103340000FC02233A9F02333A9F02433A9F0253389
:10335000A9F0822F8E53883088F430E02E5330400D
:1033600081E090E002C0880F991F2A95E2F707C01C
:1033700088E005C084E003C082E001C081E0842BC6
:103380008083898D9A8D0E941C17CE010E9423177D
:10339000DF91CF911F910F91FF90EF900895FC0165
:1033A0002485922F9A50943060F0822F825384307B
:1033B00040F08C50883088F5EDE6F0E0ADE6B0E006
:1033C00004C0EBE6F0E0ABE6B0E04C91943020F4C2
:1033D00030E0265030400FC02233B1F02333B1F03B
:1033E0002433B1F02533B1F0822F8E53883090F41E
:1033F00030E02E53304081E090E002C0880F991FEA
:103400002A95E2F7809507C087EF05C08BEF03C0D0
:103410008DEF01C08EEF8423808308952FEA37E07B
:10342000FC01318320830E94CF190895EF92FF920F
:103430000F931F93CF93DF93EB017A018C01DC0193
:10344000A95AB64F8C9187FF03C01982188237C0E2
:10345000C801880F991F800F911F880F991F880F2F
:10346000991F2C91332727FD3095280F391F409144
:10347000C60850E02417350714F52C91332727FD93
:103480003095280F391FF901EE0FFF1FE20FF31FD0
:10349000E953F74F208126FF12C02C91332727FDD7
:1034A0003095280F391FF901EE0FFF1FE20FF31FB0
:1034B000E953F74F80818F7360E00E945409F8014F
:1034C000E95AF64F80818F5F8083C801880F991F6A
:1034D000800F911F880F991F880F991F2081332714
:1034E00027FD3095280F391F4091C60850E024175A
:1034F00035070CF053C020812C300CF04FC04881B0
:1035000059812081332727FD3095280F391FD90194
:10351000AA0FBB1FA20FB31FA953B74F11962D912E
:103520003C911297420F531FD70111965C934E9313
:103530002081332727FD3095280F391FD901AA0F85
:10354000BB1FA20FB31FA953B74F2C9126FF2DC04D
:103550002081332727FD3095280F391FF901EE0F01
:10356000FF1FE20FF31FE953F74F80818F7361E074
:103570000E9454091AC080E49CE9F701918380837A
:1035800007C0888199810496D70111969C938E93E8
:10359000F801E95AF64F8FEF808307C0888199813F
:1035A000BCE984349B0738F3ECCFDF91CF911F91B6
:1035B0000F91FF90EF9008951F920F920FB60F9208
:1035C0000BB60F9211242F933F934F935F936F93FA
:1035D0007F938F939F93AF93BF93EF93FF9381E07C
:1035E00090E064E870E048E850E00E94161AFF910D
:1035F000EF91BF91AF919F918F917F916F915F916B
:103600004F913F912F910F900BBE0F900FBE0F90D7
:103610001F9018951F920F920FB60F920BB60F9234
:1036200011242F933F934F935F936F937F938F93C7
:103630009F93AF93BF93EF93FF9382E090E064E991
:1036400070E048E950E00E94161AFF91EF91BF9197
:10365000AF919F918F917F916F915F914F913F912A
:103660002F910F900BBE0F900FBE0F901F901895CB
:103670001F920F920FB60F920BB60F9211242F9339
:103680003F934F935F936F937F938F939F93AF93EA
:10369000BF93EF93FF9383E090E064EA70E048EA21
:1036A00050E00E94161AFF91EF91BF91AF919F9148
:1036B0008F917F916F915F914F913F912F910F90DB
:1036C0000BBE0F900FBE0F901F9018951F920F9278
:1036D0000FB60F920BB60F9211242F933F934F9377
:1036E0005F936F937F938F939F93AF93BF93EF936A
:1036F000FF9380E090E064E271E048E251E00E94D4
:10370000161AFF91EF91BF91AF919F918F917F9189
:103710006F915F914F913F912F910F900BBE0F9042
:103720000FBE0F901F901895FC018091C608803342
:1037300090F480838F5F8093C608808190E0FC01C5
:10374000EE0FFF1FE80FF91FE953F74F88EB9BE0DF
:103750009283818308958FEF80830895DF92EF92A3
:10376000FF920F931F93CF93DF93EC01D62E8A0124
:1037700079018881803308F093C0862F61E00E9430
:1037800030094881842F90E0FC01EE0FFF1FE80F05
:10379000F91FE953F74F9D2D9F738081807C892B02
:1037A000808380E292E0801B910B24E030E0B9013D
:1037B0000E949729698380E699E08E199F09B901D3
:1037C0000E9497296A83842F6CE00E948B2990E0E5
:1037D0009C01220F331F280F391F220F331F220F86
:1037E000331F40E050E0BA01620F731FFB01EE0F80
:1037F000FF1FE60FF71FE953F74F608166FD44C0D6
:103800004F5F5F4F4C30510571F753C010928000ED
:1038100082E0809381001092850010928400B19A1A
:1038200080916F00826080936F002EC0823091057E
:1038300069F41092900082E08093910010929500BC
:103840001092940088BB809371001EC08330910554
:1038500069F41092A00082E08093A1001092A5006C
:103860001092A40089BB809372000EC0009761F48F
:103870001092200182E08093210110922501109284
:1038800024018ABB80937300888190E0FC01EE0FD5
:10389000FF1FE80FF91FE953F74F80818064808391
:1038A0008881DF91CF911F910F91FF90EF90DF9072
:1038B00008958130910509F0B9CFA8CF40E252E0D8
:1038C00020E639E00E94AE1B0895FC0120812033E0
:1038D00078F54181552747FD509588E890E0841B95
:1038E000950B880F991F880F991F6817790784F027
:1038F0004281552747FD509588E592E0841B950B42
:10390000880F991F880F991F681779070CF4CB014E
:103910004FB7F89430E0F901EE0FFF1FE20FF31FED
:10392000E953F74F0297880F991F928381834FBF06
:103930000895AF92BF92CF92DF92EF92FF920F93D2
:103940001F93CF93DF93EC0182E0603278070CF095
:1039500046C077FD04C0653B710524F405C060E0F6
:1039600070E002C064EB70E000D00F92882777FD12
:103970008095982F4981552747FD509528E830E0DC
:10398000241B350B220F331F220F331F5901CC2468
:10399000B7FCC094DC2C4A81552747FD509528E59B
:1039A00032E0241B350B220F331F220F331F442715
:1039B00037FD4095542FEDB7FEB721833283438303
:1039C000548320E030E0A901B4EBEB2EF12C012D63
:1039D000112D0E9435250F900F900F900F90CE0162
:1039E0000E94651CDF91CF911F910F91FF90EF9086
:1039F000DF90CF90BF90AF900895FC0180818F3F02
:103A0000B9F090E0FC01EE0FFF1FE80FF91FE9533A
:103A1000F74F2181328193E0220F331F9A95E1F70E
:103A200084E0369527958A95E1F72E5F3F4F02C0D7
:103A300020E030E0C9010895AF92BF92CF92DF92AB
:103A4000EF92FF920F931F93CF93DF93EC010E94AD
:103A5000FD1C00D00F92BC016F5F7F4F882777FD60
:103A60008095982F4981552747FD509528E830E0EB
:103A7000241B350B220F331F220F331F442737FD22
:103A80004095542FAA81BB27A7FDB095E8E5F2E049
:103A9000EA1BFB0BEE0FFF1FEE0FFF1F5F01CC2495
:103AA000B7FCC094DC2CE4EBEE2EF12C012D112D93
:103AB000EDB7FEB7E182F2820383148386017501BC
:103AC000AA24BB2465010E9435250F900F900F900A
:103AD0000F90CB01DF91CF911F910F91FF90EF904D
:103AE000DF90CF90BF90AF90089510927F0984E14E
:103AF00061E00E94540985E161E00E945409E9EB0C
:103B0000F0E080818E7F808380818D7F808388E458
:103B10008093B80085E48093BC000895413288F515
:103B200090917F099923E1F791E090937F099FEFAE
:103B300090937E0910925C09942F915090935D09A7
:103B4000880F816080935B0985EE8093BC00809133
:103B50007F098130E1F380915C09841710F4409172
:103B60005C09EEE5F9E0262F372FD901242F30E04C
:103B70002E0F3F1F02C081918D93E217F307D9F7F3
:103B800001C040E0842F08954132B0F590917F0943
:103B90009923E1F792E090937F099FEF90937E093C
:103BA00010925C0940935D09DB01EEE5F9E050E01D
:103BB0004E0F5F1F02C09D919193E417F507D9F74F
:103BC00090E0880F991F80935B0985EE8093BC007D
:103BD000222321F080917F098230E1F380917E09D8
:103BE0008F3F61F080917E09803251F080917E0993
:103BF000803341F483E0089581E0089580E00895E2
:103C000082E0089584E008956132A0F420917F0954
:103C1000243091F46093A409DC01E7EAF9E070E054
:103C20006E0F7F1F02C08D918193E617F707D9F7BA
:103C300080E0089581E0089582E00895882311F0DE
:103C400085EC01C085E88093BC00089585ED8093E4
:103C5000BC008091BC0084FDFCCF10927F090895C8
:103C600085EC8093BC0010927F0908951F920F92FB
:103C70000FB60F920BB60F9211242F933F934F93D1
:103C80005F936F937F938F939F93AF93BF93EF93C4
:103C9000FF938091B90090E0887F90708036910505
:103CA00009F4C2C081369105E4F58832910509F422
:103CB0007EC089329105C4F48031910509F472C047
:103CC0008131910544F4009709F413C188309105BE
:103CD00009F013C167C08831910509F468C08032CA
:103CE000910509F00AC178C08034910509F48AC0B1
:103CF000813491054CF48033910509F46FC0883309
:103D0000910509F0FAC06EC08035910509F46EC0C6
:103D10008835910509F47BC08834910509F0EDC020
:103D2000EAC08839910509F4DAC089399105ECF4C3
:103D30008837910509F478C0893791054CF48836A5
:103D4000910509F471C08037910509F0D6C06CC0A7
:103D50008838910509F4C3C08039910509F46AC017
:103D60008038910509F0C9C065C0803B910509F410
:103D70008EC0813B91054CF4803A910509F46CC0EA
:103D8000883A910509F0B9C082C0803C910509F4D8
:103D9000AAC0883C910509F4A6C0883B910509F0AA
:103DA000ACC08AC080915B098093BB0013C0909126
:103DB0005C0980915D09981708F09DC080915C09AD
:103DC000E82FF0E0E25AF64F90819093BB008F5FAE
:103DD00080935C0981E084C080E201C080E380932D
:103DE0007E0989C088E380937E094EC080915C097A
:103DF0009091BB00E82FF0E0E25AF64F90838F5F7E
:103E000080935C0990915C0980915D0965C0809107
:103E10005C099091BB00E82FF0E0E25AF64F9083E6
:103E20008F5F80935C0967C083E080937F09109265
:103E30008009D0CF80918009803208F050C08091F5
:103E400080099091BB00E82FF0E0EF57F64F908388
:103E50008F5F80938009BECF80918009803230F4DB
:103E6000E0918009F0E0EF57F64F10820E94261E85
:103E700060918009E091A109F091A20981E899E09F
:103E800070E01995109280090E94301E36C084E0BF
:103E900080937F091092A3091092A409E091A509CB
:103EA000F091A60919958091A409882329F481E04D
:103EB0008093A4091092A7098091A309E82FF0E04C
:103EC000E955F64F90819093BB008F5F8093A309D3
:103ED0009091A3098091A409981708F47BCF80E002
:103EE0000E941E1E0AC081E00E941E1E10927F09C1
:103EF00004C010927E090E94261EFF91EF91BF918F
:103F0000AF919F918F917F916F915F914F913F9171
:103F10002F910F900BBE0F900FBE0F901F90189512
:103F2000863308F0865390917B00282F269526959E
:103F3000269530E02170307043E0220F331F4A9500
:103F4000E1F7977F922B90937B0087709091800789
:103F50009295990F990F907C982B90937C0080916B
:103F60007A00806480937A0080917A0086FDFCCF8D
:103F70002091780030917900932F80E030E0282B59
:103F8000392BC90108951F93CF93DF93182FEB01AD
:103F900061E00E943009209709F4C5C0CF3FD105E8
:103FA00009F4C4C0E12FF0E0E254FE4FE491E9309F
:103FB00009F466C0EA30B0F4E430F1F1E53040F4E1
:103FC000E23059F1E33070F5E13009F0A9C020C0CA
:103FD000E73009F443C0E83008F048C0E63009F0A3
:103FE0009FC034C0ED3009F473C0EE3038F4EB30CC
:103FF00009F45AC0EC3008F061C04CC0E03109F45B
:104000007BC0E13109F482C0EF3009F089C06AC099
:1040100084B5806884BDC7BD8DC084B5806284BD11
:10402000C8BD88C080918000806880938000D09354
:104030008900C09388007EC0809180008062809358
:104040008000D0938B00C0938A0074C08091B00030
:1040500080688093B000C093B3006CC08091B000C2
:1040600080628093B000C093B40064C080919000DF
:10407000806880939000D0939900C09398005AC0B4
:1040800080919000806280939000D0939B00C093B9
:104090009A0050C080919000886080939000D093E7
:1040A0009D00C0939C0046C08091A00080688093D2
:1040B000A000D093A900C093A8003CC08091A000AC
:1040C00080628093A000D093AB00C093AA0032C05E
:1040D0008091A00088608093A000D093AD00C09331
:1040E000AC0028C080912001806880932001D0938B
:1040F0002901C09328011EC0809120018062809315
:104100002001D0932B01C0932A0114C0809120017B
:10411000886080932001D0932D01C0932C010AC0A8
:10412000C038D1051CF4812F60E002C0812F61E00E
:104130000E945409DF91CF911F910895CF92DF9291
:10414000EF92FF920F931F93CF93DF936C017B014C
:104150008A01C0E0D0E00FC0D7016D917D01D6018A
:10416000ED91FC910190F081E02DC6011995C80FE9
:10417000D91F015010400115110571F7CE01DF91D3
:10418000CF911F910F91FF90EF90DF90CF90089506
:10419000DB010D900020E9F7AD0141505040461B76
:1041A000570BDC01ED91FC910280F381E02D199514
:1041B00008950E94C8200895DC01ED91FC910190C2
:1041C000F081E02D199508958F929F92AF92BF9242
:1041D000CF92DF92EF92FF920F931F93DF93CF93D3
:1041E000CDB7DEB7A1970FB6F894DEBF0FBECDBF37
:1041F0006C01042FE52FCB01122F19A2223008F4F5
:104200001AE021E2E22EF12CEC0EFD1E812E992403
:10421000AA24BB2403C0022FE32FCA01602F7E2FE4
:10422000A50194010E94AA29129F802D1124081B28
:104230000894E108F1080A3014F4005D01C0095C3B
:10424000F7010083211531054105510521F7C6010C
:10425000B7010E94C820A1960FB6F894DEBF0FBE2A
:10426000CDBFCF91DF911F910F91FF90EF90DF9025
:10427000CF90BF90AF909F908F90089521153105FA
:1042800049F4DC01ED91FC910190F081E02D642F67
:10429000199508950E94E42008959A01462F50E050
:1042A00060E070E00E943E210895CF92DF92EF928D
:1042B000FF920F931F93CF93DF93EC017A018B0151
:1042C0002115310541F4E881F9810190F081E02D5B
:1042D000642F19951AC02A303105A9F477FF12C04E
:1042E0006DE20E94DC206C0144275527BA014E196B
:1042F0005F09600B710BCE012AE00E94E420C80E1A
:10430000D91E04C02AE00E94E4206C01C601DF919E
:10431000CF911F910F91FF90EF90DF90CF90089574
:104320009A01FB01AF01662757FD6095762F0E9429
:10433000552108953F924F925F926F927F928F9294
:104340009F92AF92BF92CF92DF92EF92FF920F9324
:104350001F93DF93CF9300D00F92CDB7DEB74B0101
:1043600029833A834B835C8390918107981721F0CE
:104370009F3F09F0BBC204C0E4E9F2E03490FDC005
:1043800080938107E4E9F2E03490932D9F3F09F494
:10439000ADC2923009F459C0933034F4332079F02F
:1043A000913009F0EAC02BC0A32DA43009F499C0C4
:1043B000A4300CF470C0A53009F0DFC0B8C014BC44
:1043C00015BC94B5926094BD95B5916095BD282FAC
:1043D00030E0F901EE5CFE4FE491F0E0EE0FFF1FDC
:1043E000E250FF4F459154914093CB095093CC0933
:1043F00028583E4FF90124912093CD09C0C0109256
:1044000080001092810090918100986090938100CB
:1044100090918100916090938100282F30E0F90104
:10442000EE5CFE4FE491F0E0EE0FFF1FE250FF4F15
:10443000459154914093D2095093D30928583E4F47
:10444000F90124912093D4099AC01092B0001092DF
:10445000B1009091B00092609093B0009091B10043
:1044600091609093B100282F30E0F901EE5CFE4F8F
:10447000E491F0E0EE0FFF1FE250FF4F45915491A1
:104480004093D9095093DA0928583E4FF9012491F5
:104490002093DB0974C010929000109291009091CB
:1044A0009100986090939100909191009160909309
:1044B0009100282F30E0F901EE5CFE4FE491F0E02E
:1044C000EE0FFF1FE250FF4F459154914093E009DA
:1044D0005093E10928583E4FF90124912093E209B5
:1044E0004EC01092A0001092A1009091A10098607F
:1044F0009093A1009091A10091609093A100282F2A
:1045000030E0F901EE5CFE4FE491F0E0EE0FFF1FAA
:10451000E250FF4F459154914093E7095093E809C9
:1045200028583E4FF90124912093E90928C01092A0
:104530002001109221019091210198609093210116
:1045400090912101916090932101282F30E0F90191
:10455000EE5CFE4FE491F0E0EE0FFF1FE250FF4FE4
:10456000459154914093EE095093EF0928583E4FDE
:10457000F90124912093F00902C037FCB7C161E032
:104580000E943009332021F0F32DF23009F0C1C030
:104590005401CC24DD2460E072E18AE790E0A601BA
:1045A00095010E94CC2929013A0179018A010894D8
:1045B000E108F108010911098FEFE816F10401057E
:1045C000110509F008F498C060E472E48FE090E00F
:1045D000A60195010E94CC2979018A010894E1087D
:1045E000F10801091109932D9230C9F4AFEFEA16D1
:1045F000F1040105110509F008F485C060E970EDCA
:1046000083E090E0A60195010E94CC2979018A01FE
:104610000894E108F1080109110983E001C082E072
:10462000BFEFEB16F1040105110509F008F465C0B0
:1046300068E478EE81E090E0A60195010E94CC2923
:1046400079018A010894E108F10801091109332070
:10465000E1F0E32DE230D9F4FFEFEF16F1040105AC
:10466000110509F008F451C064E274EF80E090E0B5
:10467000A60195010E94CC2979018A010894E108DC
:10468000F1080109110985E003C083E001C084E05D
:104690009FEFE916F1040105110579F170F162E16E
:1046A0007AE780E090E0A60195010E94CC2979018B
:1046B0008A010894E108F10801091109332011F475
:1046C00084E001C086E0AFEFEA16F10401051105B0
:1046D000A1F098F0830172019AE015950795F7947F
:1046E000E7949A95D1F70894E108F10801091109B6
:1046F000332031F087E00AC081E0332011F006C09A
:1047000085E085BD5AC082E001C084E08093B1009D
:1047100054C05401CC24DD2460E072E18AE790E0CB
:10472000A60195010E94CC2979018A010894E1082B
:10473000F10801091109B0E0EB16B0E0FB06B1E0A9
:104740000B07B0E01B0788F068E478EE81E090E0AA
:10475000A60195010E94CC2979018A010894E108FB
:10476000F1080109110993E001C091E0E32DE13066
:1047700039F480918100887F892B809381001DC04E
:10478000F32DF33039F480919100887F892B809349
:10479000910013C0832D843039F48091A100887F6B
:1047A000892B8093A10009C0A32DA53031F48091FD
:1047B0002101887F892B8093210189819A81AB8196
:1047C000BC810097A105B10591F0880C991CB4013A
:1047D00080E090E029813A814B815C810E946C29C4
:1047E00028EE33E040E050E00E94AA2904C02FEFF9
:1047F0003FEF4FEF5FEF932D923099F1933034F408
:10480000332071F0913009F071C019C0A32DA4308C
:1048100009F449C0A430ACF1A53009F067C055C017
:10482000E7BC2093C7093093C8094093C909509346
:10483000CA0980916E00826080936E0057C0F0922A
:104840008900E09288002093CE093093CF094093ED
:10485000D0095093D10980916F00826080936F00DE
:1048600045C0E092B3002093D5093093D609409318
:10487000D7095093D80980917000826080937000AE
:1048800035C0F0929900E09298002093DC093093B3
:10489000DD094093DE095093DF0980917100826049
:1048A0008093710023C0F092A900E092A8002093A9
:1048B000E3093093E4094093E5095093E6098091B8
:1048C000720082608093720011C0F0922901E09220
:1048D00028012093EA093093EB094093EC095093A7
:1048E000ED09809173008260809373000F900F90A8
:1048F0000F900F90CF91DF911F910F91FF90EF904C
:10490000DF90CF90BF90AF909F908F907F906F90EF
:104910005F904F903F9008958230B9F0833028F433
:10492000882351F0813051F50AC0843011F1843070
:10493000E8F0853019F520C010926E00089580913E
:104940006F008D7F80936F000895809170008D7F40
:104950008093700081E08093B0008091B100887FE7
:1049600084608093B1001092B3000895109271009A
:104970000895109272000895109273000895CF93D5
:10498000C82F809181078C1739F4E4E9F2E0849113
:104990009FEF9093810701C08FEF0E948C248C2F92
:1049A00060E00E945409CF9108951F920F920FB6B4
:1049B0000F920BB60F9211242F933F934F935F9357
:1049C0006F937F938F939F93AF93BF93EF93FF93D7
:1049D0008091D5099091D609A091D709B091D809B5
:1049E0000097A105B10551F1E091D909F091DA09DB
:1049F00080819091DB09892780838091D5099091EE
:104A0000D609A091D709B091D809181619061A0627
:104A10001B06C4F48091D5099091D609A091D709BD
:104A2000B091D8090197A109B1098093D509909354
:104A3000D609A093D709B093D80904C08091810703
:104A40000E94BF24FF91EF91BF91AF919F918F91F1
:104A50007F916F915F914F913F912F910F900BBE7E
:104A60000F900FBE0F901F9018952F923F924F926C
:104A70005F926F927F928F929F92AF92BF92CF92EE
:104A8000DF92EF92FF920F931F93DF93CF93CDB7F7
:104A9000DEB73B014C0119012A016E897F89888D9F
:104AA000998D6A197B098C099D09621A730A840A17
:104AB000950AA40193010E946C29E218F3080409E5
:104AC0001509A80197010E94CC292A0D3B1D4C1DF8
:104AD0005D1DB901CA01CF91DF911F910F91FF9028
:104AE000EF90DF90CF90BF90AF909F908F907F908E
:104AF0006F905F904F903F902F900895FC018485B8
:104B00009585FC01E05CFF4F208131818E5B9F4FDA
:104B1000FC0180819181281B390B2F733070C901F2
:104B20000895FC0184859585FC01E05CFF4F408180
:104B30005181FC01EE5BFF4F208131814217530709
:104B400041F00190F081E02DE80FF91F208130E065
:104B500002C02FEF3FEFC9010895FC0184859585C0
:104B6000FC01E05CFF4F40815181FC01EE5BFF4F97
:104B7000208131814217530771F0A081B181A80FC4
:104B8000B91F2C918081918101968F7390709183D0
:104B9000808330E002C02FEF3FEFC9010895DC01B0
:104BA0001E968D919C911F97FC01E05CFF4F8E5BE0
:104BB0009F4F40815181DC012D913C91119742170B
:104BC0005307B9F70895CF93FC01C62F2685378583
:104BD000D901A05CBF4F8D919C91019660E470E07B
:104BE0000E949729D901AE5BBF4F4D915C911197FF
:104BF00084179507D1F3D901A05CBF4F0D90BC91EC
:104C0000A02DA20FB31FCC93A685B785A05CBF4F84
:104C100011969C938E93A689B7892C9181E090E0A0
:104C2000058C02C0880F991F0A94E2F7282B2C9359
:104C300081E090E0CF910895FB01E05CFF4F20817F
:104C400031812F5F3F4F2F733070DB01AE5BBF4F61
:104C50004D915C9111972417350739F0A081B181EE
:104C6000A60FB71F8C933183208308951F920F9254
:104C70000FB60F920BB60F9211242F933F934F93C1
:104C80005F936F937F938F939F93AF93BF93EF93B4
:104C9000FF938091C60061EF79E00E941C26FF918E
:104CA000EF91BF91AF919F918F917F916F915F91A4
:104CB0004F913F912F910F900BBE0F900FBE0F9011
:104CC0001F9018951F920F920FB60F920BB60F926E
:104CD00011242F933F934F935F936F937F938F9301
:104CE0009F93AF93BF93EF93FF938091CE0069E7BB
:104CF0007AE00E941C26FF91EF91BF91AF919F91A6
:104D00008F917F916F915F914F913F912F910F9074
:104D10000BBE0F900FBE0F901F9018951F920F9211
:104D20000FB60F920BB60F9211242F933F934F9310
:104D30005F936F937F938F939F93AF93BF93EF9303
:104D4000FF938091D60061E07BE00E941C26FF91DA
:104D5000EF91BF91AF919F918F917F916F915F91F3
:104D60004F913F912F910F900BBE0F900FBE0F9060
:104D70001F9018951F920F920FB60F920BB60F92BD
:104D800011242F933F934F935F936F937F938F9350
:104D90009F93AF93BF93EF93FF938091360169E8A0
:104DA0007BE00E941C26FF91EF91BF91AF919F91F4
:104DB0008F917F916F915F914F913F912F910F90C4
:104DC0000BBE0F900FBE0F901F9018951F920F9261
:104DD0000FB60F920BB60F9211242F933F935F9350
:104DE0006F937F938F939F93AF93BF93EF93FF93B3
:104DF0002091750A3091760A8091770A9091780A0D
:104E00002817390731F48091C1008F7D8093C1004C
:104E100016C0E091770AF091780AEB5CF54F20819B
:104E20008091770A9091780A019660E470E00E9480
:104E300097299093780A8093770A2093C600FF9170
:104E4000EF91BF91AF919F918F917F916F915F9102
:104E50003F912F910F900BBE0F900FBE0F901F90A0
:104E600018951F920F920FB60F920BB60F92112446
:104E70002F933F935F936F937F938F939F93AF9302
:104E8000BF93EF93FF932091FD0A3091FE0A80912A
:104E9000FF0A9091000B2817390731F48091C9005F
:104EA0008F7D8093C90016C0E091FF0AF091000B3E
:104EB000E354F54F20818091FF0A9091000B0196F9
:104EC00060E470E00E9497299093000B8093FF0AA2
:104ED0002093CE00FF91EF91BF91AF919F918F9161
:104EE0007F916F915F913F912F910F900BBE0F902B
:104EF0000FBE0F901F9018951F920F920FB60F9232
:104F00000BB60F9211242F933F935F936F937F9370
:104F10008F939F93AF93BF93EF93FF932091850B54
:104F20003091860B8091870B9091880B2817390759
:104F300031F48091D1008F7D8093D10016C0E09133
:104F4000870BF091880BEB5BF44F20818091870BEE
:104F50009091880B019660E470E00E9497299093ED
:104F6000880B8093870B2093D600FF91EF91BF9120
:104F7000AF919F918F917F916F915F913F912F9111
:104F80000F900BBE0F900FBE0F901F9018951F92A1
:104F90000F920FB60F920BB60F9211242F933F93DF
:104FA0005F936F937F938F939F93AF93BF93EF9391
:104FB000FF9320910D0C30910E0C80910F0C90916D
:104FC000100C2817390731F4809131018F7D8093BF
:104FD000310116C0E0910F0CF091100CE353F44F27
:104FE000208180910F0C9091100C019660E470E08C
:104FF0000E9497299093100C80930F0C20933601F8
:10500000FF91EF91BF91AF919F918F917F916F91A0
:105010005F913F912F910F900BBE0F900FBE0F909D
:105020001F901895DF92EF92FF920F931F93CF93EB
:10503000DF93EC017A018B01DD24D394403081EEC3
:10504000580780E0680780E0780749F4DD24EC89A0
:10505000FD89108260E874E88EE190E00FC0EC8971
:10506000FD8981E090E00E8C02C0880F991F0A94A0
:10507000E2F7808360E079E08DE390E0A80197019A
:105080000E94AA29215030404040504056954795F3
:105090003795279580E12030380710F0DD20B1F6F4
:1050A000E889F9893083EA89FB892083EE89FF89C1
:1050B000408181E090E09C010A8C02C0220F331FE6
:1050C0000A94E2F7422B4083EE89FF8940819C01DC
:1050D0000B8C02C0220F331F0A94E2F7422B40834D
:1050E000EE89FF8940819C010C8C02C0220F331F86
:1050F0000A94E2F7422B4083EE89FF8920810D8CD0
:1051000002C0880F991F0A94E2F78095822380835A
:10511000DF91CF911F910F91FF90EF90DF90089555
:105120000F931F93CF931092140C1092130C88EED0
:1051300093E0A0E0B0E08093150C9093160CA09340
:10514000170CB093180CE3E1FCE02FEB37E032933F
:10515000229341EF59E05587448745E35AE057874A
:10516000468745EC50E0518B408B44EC50E0538B2C
:10517000428B40EC50E0558B448B41EC50E0578B18
:10518000468B46EC50E0518F408FC4E0C28F73E0F5
:10519000738F67E0648F55E0558F41E0468F109222
:1051A000330C1092320C8093340C9093350CA093F6
:1051B000360CB093370CE2E3FCE03293229309E71C
:1051C0001AE0158704870DEB1AE0178706870DECA8
:1051D00010E0118B008B0CEC10E0138B028B08ECB1
:1051E00010E0158B048B09EC10E0178B068B0EEC8E
:1051F00010E0118F008FC28F738F648F558F468F91
:105200001092520C1092510C8093530C9093540CAA
:10521000A093550CB093560CE1E5FCE03293229339
:1052200001E01BE01587048705E41BE0178706876C
:1052300005ED10E0118B008B04ED10E0138B028B59
:1052400000ED10E0158B048B01ED10E0178B068B41
:1052500006ED10E0118F008FC28F738F648F558F12
:10526000468F1092710C1092700C8093720C909378
:10527000730CA093740CB093750CE0E7FCE03293D0
:10528000229389E89BE0958784878DEC9BE0978744
:10529000868785E391E0918B808B84E391E0938B0B
:1052A000828B80E391E0958B848B81E391E0978BF7
:1052B000868B86E391E0918F808FC28F738F648F8E
:1052C000558F468FCF911F910F9108950E945B2AB1
:1052D00008950E94F52A0895629FD001739FF001FE
:1052E000829FE00DF11D649FE00DF11D929FF00D76
:1052F000839FF00D749FF00D659FF00D9927729FAD
:10530000B00DE11DF91F639FB00DE11DF91FBD0137
:10531000CF0111240895991B79E004C0991F9617B5
:1053200008F0961B881F7A95C9F78095089597FB1A
:10533000092E07260AD077FD04D049D006D00020D8
:105340001AF4709561957F4F0895F6F790958195C1
:105350009F4F0895A1E21A2EAA1BBB1BFD010DC091
:10536000AA1FBB1FEE1FFF1FA217B307E407F50715
:1053700020F0A21BB30BE40BF50B661F771F881FF1
:10538000991F1A9469F760957095809590959B0187
:10539000AC01BD01CF01089597FB092E05260ED063
:1053A00057FD04D0D7DF0AD0001C38F45095409543
:1053B000309521953F4F4F4F5F4F0895F6F79095E9
:1053C0008095709561957F4F8F4F9F4F0895AA1BD1
:1053D000BB1B51E107C0AA1FBB1FA617B70710F0E0
:1053E000A61BB70B881F991F5A95A9F78095909512
:1053F000BC01CD0108952F923F924F925F926F9220
:105400007F928F929F92AF92BF92CF92DF92EF9254
:10541000FF920F931F93CF93DF93CDB7DEB7CA1BD5
:10542000DB0B0FB6F894DEBF0FBECDBF19942A88F0
:10543000398848885F846E847D848C849B84AA84A8
:10544000B984C884DF80EE80FD800C811B81AA8135
:10545000B981CE0FD11D0FB6F894DEBF0FBECDBF00
:10546000ED0108950790F691E02D1994EF92FF92C7
:105470000F931F93CF93DF93689F8001699F100D57
:10548000789F100D1124C8010E945B2AE82EE701C5
:105490007E01F92EE701209731F08E2D60E070E05B
:1054A000A8010E948E2BCE01DF91CF911F910F9109
:1054B000FF90EF900895CF93DF938230910510F421
:1054C00082E090E0E091930CF091940C40E050E089
:1054D00020E030E026C06081718168177907E0F034
:1054E0006817790781F4828193812115310531F0A4
:1054F000D90113969C938E9312972BC09093940C82
:105500008093930C26C04115510519F06417750757
:1055100018F4AB01E901DF019F0172816381E72F7C
:10552000F62F3097C1F64115510501F1481B590B73
:105530004430510580F412968D919C9113972097D9
:1055400019F09B838A8304C09093940C8093930CEE
:10555000FD01329646C0FD01E40FF51F8193919342
:105560004250504011965C934E933BC02091910C59
:105570003091920C2115310541F420916A07309148
:105580006B073093920C2093910C20916C07309113
:105590006D072115310541F42DB73EB740916807DD
:1055A00050916907241B350BE091910CF091920CFE
:1055B000E217F307A0F42E1B3F0B2817390778F0EA
:1055C000AC014E5F5F4F2417350748F04E0F5F1F49
:1055D0005093920C4093910C8193919302C0E0E020
:1055E000F0E0CF01DF91CF910895CF93DF93009743
:1055F00009F491C0FC013297138212826091930CDE
:105600007091940C6115710581F420813181280F0E
:10561000391F8091910C9091920C8217930799F504
:10562000F093920CE093910C76C0DB0180E090E067
:1056300002C0CD01D901AE17BF0748F412962D91D3
:105640003C91139721153105A1F7CD0121C0B383FA
:10565000A283EF01499159919E01240F351FA21792
:10566000B30779F42D913C911197240F351F2E5FCC
:105670003F4F3183208312962D913C9113973383B2
:105680002283009729F4F093940CE093930C43C089
:10569000DC011396FC93EE9312974D915D91A40F4C
:1056A000B51FEA17FB0769F420813181240F351FEC
:1056B0002E5F3F4FEC0139832883228133813B8366
:1056C0002A83E0E0F0E002C0FB01BC01DB0112969E
:1056D0008D919C9113970097B9F79B012E5F3F4FD7
:1056E0008D919C911197820F931F4091910C509135
:1056F000920C4817590779F4309729F41092940CBA
:105700001092930C02C013821282225030403093C8
:10571000920C2093910CDF91CF910895DC0101C090
:105720006D9341505040E0F70895FB01DC0101907A
:105730000D920020E1F70895EF92FF920F931F93CF
:10574000CF93DF938C01E091970CF091980C8381BB
:1057500081FF1FC0C0E0D0E00AC0DB011896ED91C8
:10576000FC9119971995009711F0CFEFDFEFF80131
:1057700081918F016091970C7091980C882369F743
:10578000DB011896ED91FC9119978AE01995009725
:1057900011F0CFEFDFEFCE01DF91CF911F910F918D
:1057A000FF90EF90089512E0CEE9D2E000E006C04D
:1057B00022970109FE010BBF0E94322AC03AD1078D
:0A57C00080E00807A9F7F894FFCF76
:1057CA0066616E5F666F72776172645F737065653A
:1057DA00642063616C6C65640A0066616E5F686F61
:1057EA00766572696E675F73706565642063616C64
:1057FA006C65640A0072756465725F6469726563D8
:10580A0074696F6E2063616C6C65640A00520A00E9
:10581A00626174746572795F6C6576656C20636128
:10582A006C6C65640A00556E61626C6520746F2049
:10583A00676574206D656D6F72790A005354524121
:10584A00494748540A00484152445F4C4546540A65
:10585A0000484152445F52494748540A00534F4650
:10586A00545F52494748540A00534F46545F4C45C7
:10587A0046540A004252414B450A00646972656304
:10588A0074696F6E204552524F520A007075742027
:10589A0046616E20486F766572696E6720696E632D
:1058AA0072656173696E67200A00707574204661BB
:1058BA006E20486F766572696E67206465637265EB
:1058CA006173696E670A007075742046616E2048BC
:1058DA006F766572696E67205370656564204552FC
:1058EA00524F520A007075742046616E20486F76D6
:1058FA006572696E672053544F5020696E20717526
:10590A006575650A007075742046616E20486F7669
:10591A006572696E6720545552424F20696E207134
:10592A00756575650A0046616E20486F766572690D
:10593A006E67206E6F7420696D706C656D656E742C
:10594A00656420636F6D6D616E6473204552524FBA
:10595A0052007075742065786163742046414E5F09
:10596A00484F564552494E475F53504545440042B9
:10597A0061636B77617264007075742046616E2092
:10598A00466F727761726420696E637265617369CA
:10599A006E6720537065656420696E207175657540
:1059AA00650A007075742046616E20466F727761D1
:1059BA0072642064656372656173696E67205370EF
:1059CA0065656420696E2071756575650A00707574
:1059DA00742046616E20466F72776172642053703C
:1059EA00656564204552524F520A0070757420460C
:1059FA00616E20466F72776172642053544F502053
:105A0A00696E2071756575650A0070757420466146
:105A1A006E20466F727761726420545552424F204D
:105A2A00696E2071756575650A0046616E20466F5C
:105A3A007277617264206E6F7420696D706C656D27
:105A4A00656E74656420636F6D6D616E6473204565
:105A5A0052524F520A00707574206578616374203F
:105A6A00466F72776172642073706565642076612F
:105A7A006C75650A00536F6D657468696E67206E90
:105A8A006F74206261736564206F6E2070726F7428
:105A9A006F636F6C206973207265636569766564EC
:105AAA000A000A00426C7565746F6F746820697326
:105ABA0020616374697661746564000909546573C9
:105ACA0074206D6F746F72207374617274656420D0
