:100000000C9450010C9481010C9481010C94810199
:100010000C9481010C9481010C9481010C94810158
:100020000C9481010C94431F0C946B1F0C94931F30
:100030000C9481010C94B12C0C9481010C948101DD
:100040000C9481010C940C220C9481010C9481017C
:100050000C9481010C9481010C9481010C94760C18
:100060000C9481010C94122E0C94C22E0C948101DC
:100070000C9481010C9481010C9481010C948101F8
:100080000C943A220C9481010C9481010C9481010E
:100090000C943E2E0C940D2F0C9481010C9466252B
:1000A0000C9481010C9481010C9468220C948101C0
:1000B0000C9481010C9481010C9481010C94962282
:1000C0000C9481010C9481010C9481010C946A2E92
:1000D0000C94582F0C9481010C94962E0C94A32F01
:1000E0000C94810100002100240027002A002D002B
:1000F0003000330001010000040107010A01000083
:100100002200250028002B002E00310034000201BF
:100110000000050108010B0100002000230026005B
:1001200029002C002F00320000010000030106010D
:10013000090105050505070508080808020202026D
:100140000A0A080804040404010101010101010173
:100150000303030303030303040707070C0C0C0C3E
:100160000C0C0C0C02020202060606060606060627
:100170000B0B0B0B0B0B0B0B0102102020080810B4
:100180002040102040800201020108040201010207
:1001900004081020408080402010080402018004E0
:1001A000020180402010080402010804020101023B
:1001B0000408102040800102040810204080000044
:1001C000090A02080B0C0D070603040100000000D9
:1001D000000000000000000000000000000000001F
:1001E0000000000000000000000011100F000000DF
:1001F00000000000000000000000000000000000FF
:100200000000000000C201000100110011000C00FC
:1002100000E100000A0025002500210000960000F2
:100220001900390039003600127A00001F0046001C
:10023000460044008070000022004D004D004A003E
:10024000004B000036007500750072004038000059
:100250004A009C009C009900802500007200EC0080
:10026000EC00E900C0120000E900DA01DA01D70170
:1002700060090000D701B603B603B303B004000061
:10028000B3036E076E076B072C010000DC0EC11D67
:10029000C11DBE1D02008514A514C51D6C30AA1415
:1002A00011241FBECFEFD1E2DEBFCDBF00E00CBFF7
:1002B00018E0A0E0B2E0EAE3F8E600E00BBF02C01D
:1002C00007900D92AA3CB107D9F71DE0AAECB8E05F
:1002D00001C01D92AD3AB107E1F712E0CEE9D2E0DC
:1002E00000E006C022970109FE010BBF0E940E32FA
:1002F000C639D10780E00807A9F70E948E070C9441
:100300000B340C940000A0E0B0E0E9E8F1E00C94BC
:10031000DB31FC01EA018081823008F438C1DB0165
:100320009C91923008F430C1843059F4943009F033
:100330002EC1918111968C911197981709F021C1C6
:1003400026C1943009F420C19230B1F4823009F012
:100350001EC1CA01AF0128E0DA010D90AD01DC0138
:100360000D92CD012150C1F7DB0111968C911197AF
:100370009181892389830AC1823009F405C1C28031
:10038000D380DB0112966D907C9013972481358188
:10039000468157811496ED90FD900D911C91179711
:1003A000C601861997095C0197FF04C0AA24BB24E3
:1003B000A81AB90AB0E2AB16B1040CF061C0181665
:1003C00019066CF5370148010A2C04C096948794ED
:1003D000779467940A94D2F781E090E0A0E0B0E0CF
:1003E0000A2C04C0880F991FAA1FBB1F0A94D2F7BA
:1003F0000197A109B1098E219F21A023B123EE24E9
:10040000FF248701E3940097A105B10519F4EE24B8
:10041000FF248701E628F728082919293CC00097FE
:10042000D1F1CA0CDB1C39014A010A2C04C0969494
:100430008794779467940A94D2F781E090E0A0E0E3
:10044000B0E00A2C04C0880F991FAA1FBB1F0A9492
:10045000D2F70197A109B10982239323A423B523DD
:1004600021E030E040E050E00097A105B10519F42B
:1004700020E030E0A90126293729482959290BC055
:100480006C147D0424F4EE24FF24870104C063016E
:1004900020E030E0A9018181FB019181891709F4F5
:1004A00045C0882349F0D801C701821B930BA40BD8
:1004B000B50B9C01AD0104C02E193F09400B510B37
:1004C00057FD04C01982DB82CA820BC081E0898398
:1004D000DB82CA8250954095309521953F4F4F4F12
:1004E0005F4F2C833D834E835F830DC0880F991F20
:1004F000AA1FBB1F8C839D83AE83BF838A819B8190
:1005000001979B838A838C819D81AE81BF819C01F1
:10051000AD0121503040404050402F3FEFEF3E07AB
:10052000EFEF4E07EFE35E0708F30BC08983DB8232
:10053000CA822E0D3F1D401F511F2C833D834E83C9
:100540005F8383E088832C813D814E815F8157FFEB
:100550001DC0DA01C90181709070A070B07056950D
:10056000479537952795822B932BA42BB52B8C83FE
:100570009D83AE83BF838A819B8101969B838A83FF
:1005800005C0EEE4F7E003C0FB0101C0FE01CF01AE
:10059000CDB7DEB7EEE00C94F731A0E2B0E0E3EDCA
:1005A000F2E00C94E33169837A838B839C832D83FF
:1005B0003E834F83588789E0E82EF12CEC0EFD1E18
:1005C000CE010196B7010E9425078E010F5E1F4FD5
:1005D000CE010596B8010E942507C701B801AE01FA
:1005E000475E5F4F0E9483010E945706A096E6E097
:1005F0000C94FF31A0E2B0E0E0E0F3E00C94E331D2
:1006000069837A838B839C832D833E834F835887B2
:100610008E01075F1F4FCE010196B8010E9425078A
:1006200091E1E92EF12CEC0EFD1ECE010596B701ED
:100630000E9425078A8991E089278A8BC801B70122
:10064000AE01475E5F4F0E9483010E945706A0964D
:10065000E6E00C94FF31A0E2B0E0E1E3F3E00C94BB
:10066000D73169837A838B839C832D833E834F8329
:100670005887CE010196BE01675F7F4F0E94250714
:10068000CE010596BE016F5E7F4F0E9425079985BA
:10069000923078F089898230C0F0943019F4823039
:1006A00041F4CBC0843019F4923079F4C6C0923052
:1006B00051F481E02A859A89291709F480E08A8714
:1006C000CE010996BCC0823051F481E02A859A8916
:1006D000291709F480E08A8BCE014196B0C06D8461
:1006E0007E848F849888ED88FE880F89188DE0E2DB
:1006F000F0E080E090E0DC01AA24BB24650120E06A
:1007000030E0A901B3016170707061157105D1F01D
:100710002E0D3F1D401F511F15012601280E391EA9
:100720004A1E5B1E81E090E0A0E0B0E02E153F0580
:100730004007510718F080E090E0DC01820D931D26
:10074000A41DB51DAA0CBB1CCC1CDD1C17FF09C0C9
:1007500061E0262E312C412C512CA228B328C4282C
:10076000D528319749F0EE0CFF1C001F111F9694FD
:10077000879477946794C6CF6B897C89EB85FC85D9
:100780006E0F7F1F6E5F7F4F7C8F6B8F61E0EA85FE
:100790007A89E71709F460E06A8F6B8D7C8D10C051
:1007A000FC01E170F070309729F056954795379528
:1007B00027955068B695A795979587956F5F7F4F5A
:1007C000B7FDEECF0CC0880F991FAA1FBB1F57FDA6
:1007D0008160220F331F441F551F615070408030CD
:1007E000E0E09E07E0E0AE07E0E4BE0760F36B8F59
:1007F0007C8F6FE7E62EF12C012D112DE822F922D6
:100800000A231B2360E4E616F1040105110561F4D7
:1008100087FD0AC0211531054105510529F0805C8D
:100820009F4FAF4FBF4F80788D8F9E8FAF8FB8A3F4
:1008300083E0898FCE01499602C08EE497E00E9442
:100840005706A096E2E10C94F331A8E1B0E0EBE2A8
:10085000F4E00C94DF3169837A838B839C832D834E
:100860003E834F8358878E01075F1F4FCE0101964D
:10087000B8010E94250781E1E82EF12CEC0EFD1E47
:10088000CE010596B7010E9425079985923008F49C
:1008900083C08989823008F47BC02A853A8923275E
:1008A0002A87943011F0923021F4981709F06CC027
:1008B00071C0843039F41D861E861F86188A1C86F6
:1008C0001B866AC0823019F484E0898765C08B85F5
:1008D0009C852B893C89821B930B9C878B872D855C
:1008E0003E854F855889ED88FE880F89188D2E1515
:1008F0003F054007510738F4220F331F441F551F8F
:1009000001979C878B876FE170E0A12CB12CC12CE3
:10091000A0E4DA2E80E090E0DC012E153F054007D0
:10092000510740F08A299B29AC29BD292E193F097E
:10093000400B510BD694C794B794A794220F331F42
:10094000441F551F6150704041F76FE7E62EF12CB0
:10095000012D112DE822F9220A231B2360E4E6165B
:10096000F1040105110561F487FD0AC02115310567
:100970004105510529F0805C9F4FAF4FBF4F8078F4
:100980008D879E87AF87B88B8E01075F1F4F04C08E
:10099000870102C00EE417E0C8010E94570668965E
:1009A000EAE00C94FB31A8E0B0E0E9EDF4E00C944F
:1009B000E3317B018C0183E08983D801C70188275B
:1009C000B7FD83959927AA27BB27282F8A83E1148F
:1009D000F1040105110519F482E0898337C08EE125
:1009E00090E09C838B83222389F080E0E81680E0EE
:1009F000F80680E0080780E8180769F1109500956F
:100A0000F094E094E11CF11C011D111DED82FE82A9
:100A10000F831887C801B7010E94FD059C01215072
:100A200030401216130694F4022E04C0EE0CFF1C84
:100A3000001F111F0A94D2F7ED82FE820F831887E0
:100A40008EE190E0821B930B9C838B83CE010196F9
:100A50000E94570604C060E070E080E09FEC28969A
:100A6000E6E00C94FF31ACE0B0E0E9E3F5E00C9493
:100A7000E73169837A838B839C83CE010196BE0123
:100A80006B5F7F4F0E9425078D81823081F182301C
:100A900070F1843021F48E81882369F10AC02F819E
:100AA000388537FD24C06E812F3131053CF0662337
:100AB00011F120E030E040E050E821C08EE190E00C
:100AC000821B930B29853A854B855C8504C056951E
:100AD0004795379527958A95D2F7662381F05095EB
:100AE0004095309521953F4F4F4F5F4F08C020E014
:100AF00030E0A90104C02FEF3FEF4FEF5FE7B901EE
:100B0000CA012C96E2E00C940332A8E0B0E0EBE8D6
:100B1000F5E00C94E1317B018C011A8261157105BD
:100B20008105910519F482E089835FC083E08983A0
:100B30008EE1C82ED12CDC82CB82ED82FE820F8327
:100B40001887C801B7010E94FD05FC013197F7FF26
:100B50003AC0AA27BB27AE1BBF0B21E030E040E024
:100B600050E00A2E04C0220F331F441F551F0A9461
:100B7000D2F721503040404050402E213F214023A9
:100B8000512361E070E080E090E0211531054105DE
:100B9000510519F460E070E0CB0104C0169507958B
:100BA000F794E794AA95D2F7E62AF72A082B192B8F
:100BB000ED82FE820F8318878EE190E08E1B9F0BE3
:100BC0009C838B8312C0309781F00E2E04C0EE0CF4
:100BD000FF1C001F111F0A94D2F7ED82FE820F83C3
:100BE0001887CE1ADF0ADC82CB82CE0101960E94E2
:100BF00057062896E8E00C94FD31AF92BF92CF9251
:100C0000DF92EF92FF920F931F937B018C0180E0A4
:100C1000E81680E0F80681E0080780E0180758F43D
:100C2000EFEFEE16F1040105110509F090F480E0F4
:100C300090E0DC0117C0F0E0EF16F0E0FF06F0E016
:100C40000F07F1E01F0750F480E190E0A0E0B0E072
:100C500009C088E090E0A0E0B0E004C088E190E046
:100C6000A0E0B0E020E230E040E050E0281B390B8B
:100C70004A0B5B0B5701680104C0D694C794B79424
:100C8000A7948A95D2F7D601C5018A5A984FFC01DC
:100C90008081281B310941095109C9011F910F9118
:100CA000FF90EF90DF90CF90BF90AF900895EF92BC
:100CB000FF920F931F93CF93DF93FC012481358123
:100CC0004681578161818081823020F44061EFEF5D
:100CD000F0E0A3C0843009F49BC0823009F492C0D4
:100CE000211531054105510509F48FC00280F381BA
:100CF000E02D8FEFE238F8070CF05AC0C2E8DFEFC2
:100D0000CE1BDF0BCA31D1056CF579018A010C2E9F
:100D100004C016950795F794E7940A94D2F781E0FA
:100D200090E0A0E0B0E00C2E04C0880F991FAA1F2D
:100D3000BB1F0A94D2F70197A109B109822393231B
:100D4000A423B52321E030E040E050E00097A10566
:100D5000B10519F420E030E0A9012E293F29402BEC
:100D6000512B03C020E030E0A901DA01C9018F77DF
:100D70009070A070B07080349105A105B10539F470
:100D800027FF09C0205C3F4F4F4F5F4F04C0215CDD
:100D90003F4F4F4F5F4FE1E0F0E0203080E03807F9
:100DA00080E0480780E4580728F5E0E0F0E022C042
:100DB000E038F1056CF5E158FF4FDA01C9018F7792
:100DC0009070A070B07080349105A105B10539F420
:100DD00027FF09C0205C3F4F4F4F5F4F04C0215C8D
:100DE0003F4F4F4F5F4F57FF05C05695479537957B
:100DF0002795319687E056954795379527958A959B
:100E0000D1F70BC0E0E0F0E005C0E0E0F0E005C0A5
:100E1000EFEFF0E020E030E0A9018E2F87958827E2
:100E20008795942F9F77679566276795E695E22EBD
:100E3000A92FA82BFE2FF62B622F732F8A2F9F2FFF
:100E4000CDB7DEB7E6E00C94FF31DC01FB012C915D
:100E500011963C91119712968C911297482F4F77CB
:100E600050E0982F991F9927991F13966C9113970B
:100E7000862F880F892B90E0661F6627661F618387
:100E8000009739F5211531054105510511F482E02E
:100E900029C082E89FEF9383828367E0220F331F8C
:100EA000441F551F6A95D1F783E0808309C0220F44
:100EB000331F441F551F828193810197938382833F
:100EC000203080E0380780E0480780E4580778F356
:100ED00020C08F3F910579F4211531054105510559
:100EE00019F484E08083089544FF03C081E0808387
:100EF00010C010820EC08F5790409383828383E08E
:100F0000808387E0220F331F441F551F8A95D1F736
:100F10005064248335834683578308950E94230DAC
:100F20000E94AF070E948D110E94661280E090E03F
:100F30000E945B1380E060E00E94F90D81E060E0B8
:100F40000E94F90D0E9434159093A60D8093A50D73
:100F50000E948E160E944B1A0E942E0FFDCF0E94F7
:100F600049110E94841108950F931F93DF93CF932B
:100F700000D0CDB7DEB79B838A830E948911813070
:100F800089F48EE389838E010F5F1F4FC8010E9491
:100F90004211CE0102960E945E118FE38983C8013F
:100FA0000E9442118FEF0F900F900F90CF91DF9121
:100FB0001F910F910895DF93CF9300D0CDB7DEB787
:100FC0008A836B830E948911813061F4CE0102967D
:100FD000BE016D5F7F4F0E9423118983CE01019670
:100FE0000E944211CE010296BE016D5F7F4F0E94AA
:100FF00023110F900F900F90CF91DF9108958F9252
:101000009F92AF92BF92CF92DF92EF92FF920F9397
:101010001F93DF93CF93CDB7DEB761970FB6F894E8
:10102000DEBF0FBECDBF0E940D11882321F081309D
:1010300009F07CC022C08FE692E1F82E998788875C
:1010400081E089838EE190E0582F9F878E87198AEF
:10105000188A882483949A80AB80BC80CD80DE80FF
:10106000EF8009851A852B853C854D856F8570E05D
:1010700089890E94D70E80E05EC02FE632E1F22E11
:101080003987288789838EE190E0582F9F878E8744
:10109000198A188A882483949A80AB80BC80CD807A
:1010A000DE80EF8009851A852B853C854D856F850F
:1010B00070E089890E94D70E88EE91E1D82E9F8337
:1010C0008E8319821B821A8288249924AB80BC806B
:1010D000CD80EF80F88409851A852B853C854D8568
:1010E0005E856F85788989890E94D70E8BE593E1AB
:1010F000182F9B878A8782E0898385E090E0982E6D
:101100009B838A8392E0892EAB80BC80CD80DE8079
:10111000EF80F88409852B853C854D855E856F853C
:10112000788989890E94D70E81E005C08CE492E01D
:101130000E9468118FEF61960FB6F894DEBF0FBE64
:10114000CDBFCF91DF911F910F91FF90EF90DF9076
:10115000CF90BF90AF909F908F9008958F929F9265
:10116000AF92BF92CF92DF92EF92FF920F931F93B5
:10117000DF93CF93CDB7DEB761970FB6F894DEBF9C
:101180000FBECDBF0E940511823009F464C08330C8
:1011900030F4882371F0813009F004C132C084300A
:1011A00009F4ACC0843008F47FC0853009F0FAC07F
:1011B000CFC08BE593E1182F9B878A8782E08983D4
:1011C0001B821A828EE190E0582F9F878E87198AA2
:1011D000188AE2E08E2E9924AB80BC80CD80DE8020
:1011E000EF80F88409852B853C854D856F8570E0FF
:1011F00089890E94D70E8EE592E00E94681180E0F6
:10120000D6C08BE593E1182F9B878A8782E089837C
:1012100081E090E0982E9B838A838EE190E0582FA6
:101220009F878E87198A188A72E0872EAB80BC80D0
:10123000CD80DE80EF80F88409852B853C854D8547
:101240006F8570E089890E94D70E87E692E00E9440
:10125000681181E0ACC02BE533E1122F3B872A8770
:10126000898382E090E0982E9B838A838EE190E0D0
:10127000582F9F878E87198A188A62E0862EAB8046
:10128000BC80CD80DE80EF80F88409852B853C858D
:101290004D856F8570E089890E94D70E81E792E0C5
:1012A0000E94681182E083C08BE593E1182F9B8731
:1012B0008A8782E0898383E090E0982E9B838A83EB
:1012C0008EE190E0582F9F878E87198A188A42E016
:1012D000842EAB80BC80CD80DE80EF80F8840985D1
:1012E0002B853C854D856F8570E089890E94D70EDE
:1012F0008CE792E00E94681183E059C08BE593E18E
:10130000182F9B878A8782E0898384E090E0982E5B
:101310009B838A838EE190E0582F9F878E87198A5E
:10132000188A32E0832EAB80BC80CD80DE80EF80D7
:10133000F88409852B853C854D856F8570E089890A
:101340000E94D70E87E892E00E94681184E02FC0C7
:101350008BE593E1182F9B878A8782E0898385E05C
:1013600090E0982E9B838A838EE190E0582F9F8790
:101370008E87198A188A22E0822EAB80BC80CD80AD
:10138000DE80EF80F88409852B853C854D856F854F
:1013900070E089890E94D70E81E992E00E9468116D
:1013A00085E005C087E992E00E9468118FEF6196A1
:1013B0000FB6F894DEBF0FBECDBFCF91DF911F9166
:1013C0000F91FF90EF90DF90CF90BF90AF909F90E4
:1013D0008F9008958F929F92AF92BF92CF92DF929B
:1013E000EF92FF920F931F93DF93CF93CDB7DEB7AA
:1013F00061970FB6F894DEBF0FBECDBF8C010E947F
:10140000FA108130910509F054C0C8010E940911F9
:10141000882321F0813009F049C023C082E992E19C
:10142000F82E9987888781E089838EE190E0582F94
:101430009F878E87198A188A882483949A80AB8024
:10144000BC80CD80DE80EF8009851A852B853C85A8
:101450004D856F8570E089890E94D70E87EA92E0FA
:1014600032C025E832E1F22E3987288789838EE160
:1014700090E0582F9F878E87198A188A8824839432
:101480009A80AB80BC80CD80DE80EF8009851A8594
:101490002B853C854D856F8570E089890E94D70E2C
:1014A00083EC92E00E94681181E020C08FED92E011
:1014B0001AC0C8010E940911882319F0873069F405
:1014C00006C08CEF92E00E94681180E00FC08BE1B3
:1014D00093E00E94681187E009C08BE393E00E94CB
:1014E000681187E693E00E9468118FEF61960FB64E
:1014F000F894DEBF0FBECDBFCF91DF911F910F914A
:10150000FF90EF90DF90CF90BF90AF909F908F9023
:1015100008958F929F92AF92BF92CF92DF92EF92F7
:10152000FF920F931F93DF93CF93CDB7DEB76197F1
:101530000FB6F894DEBF0FBECDBF8DEF91E1F82E50
:101540009987888781E089838EE190E0582F9F8773
:101550008E87198A188A882483949A80AB80BC80ED
:10156000CD80DE80EF8009851A852B853C854D85F1
:101570006F8570E089890E94D70E84E893E00E940D
:10158000681181E061960FB6F894DEBF0FBECDBF43
:10159000CF91DF911F910F91FF90EF90DF90CF904F
:1015A000BF90AF909F908F9008958F929F92AF922F
:1015B000BF92CF92DF92EF92FF920F931F93DF9330
:1015C000CF93CDB7DEB761970FB6F894DEBF0FBEED
:1015D000CDBF8C010E94FA108130910509F054C0F2
:1015E000C8010E940911882321F0813009F049C007
:1015F00023C084E991E1F82E9987888781E0898367
:101600008EE190E0582F9F878E87198A188A882448
:1016100083949A80AB80BC80CD80DE80EF8009858A
:101620001A852B853C854D856F8570E089890E94E0
:10163000D70E8DE893E09AC02FEB31E1F22E398777
:10164000288789838EE190E0582F9F878E87198A9B
:10165000188A882483949A80AB80BC80CD80DE80F9
:10166000EF8009851A852B853C854D856F8570E057
:1016700089890E94D70E87EB93E00E94681181E070
:10168000C4C081EE93E0BEC0C8010E940911882346
:1016900021F0873009F0B0C06DC088EE91E1D82EFE
:1016A0009F838E831B821A8219828EE190E0582FCD
:1016B0009F878E87198A188A88249924AB80BC80DA
:1016C000CD80EF80F88409851A852B853C854D8572
:1016D0006F8570E089890E94D70E85E892E1F82E27
:1016E0009987888781E08983882483949A80AB8056
:1016F000BC80CD80DE80EF8009851A852B853C85F6
:101700004D855E856F85788989890E94D70E89808D
:101710009A80AB80BC80CD80DE80EF80F884098524
:101720001A852B853C854D855E856F8578898989ED
:101730000E94D70E8BE593E1182F9B878A8782E062
:101740008983F2E08F2E9A80AB80BC80CD80DE80D2
:10175000EF80F88409852B853C854D855E856F85F6
:10176000788989890E94D70E8DEF93E00E946811D5
:1017700080E04BC088EE91E1D82E9F838E8388E76E
:1017800090E0982E9B838A8319828EE190E0582FF7
:101790009F878E87198A188A8824AB80BC80CD8069
:1017A000EF80F88409851A852B853C854D856F85EA
:1017B00070E089890E94D70E8AE792E1F82E998716
:1017C000888781E08983882483949A80AB80BC8059
:1017D000CD80DE80EF8009851A852B853C854D857F
:1017E0005E856F85788989890E94D70E8BE194E0A8
:1017F0000E94681187E009C08AE394E00E946811A2
:1018000085E694E00E9468118FEF61960FB6F89418
:10181000DEBF0FBECDBFCF91DF911F910F91FF9023
:10182000EF90DF90CF90BF90AF909F908F900895F2
:10183000CF93DF93EC010E9420118F3F51F1823052
:10184000B1F0833028F4882341F08130F1F40AC0EC
:10185000883091F08930C9F413C0CE010E94D50AB6
:1018600080E018C0CE010E94EA0981E013C0CE01D9
:101870000E94AE0882E00EC00E94890A88E00AC079
:10188000CE010E94FF0789E005C083E894E00E9432
:1018900068118FEFDF91CF910895CF93DF93EC0123
:1018A0000E94341188838E3F18F4CE010E94180CD8
:1018B0008881DF91CF9108950F931F93DF93CF938A
:1018C0000F92CDB7DEB78FEF89838E010F5F1F4F69
:1018D0000E94F519C8010E944D0C89818F3FC1F704
:1018E0000F90CF91DF911F910F9108951F920F924A
:1018F0000FB60F9211242F933F938F939F93AF9323
:10190000BF938091CE089091CF08A091D008B0915C
:10191000D1083091D2080196A11DB11D232F2D5F52
:101920002D3720F02D570196A11DB11D2093D2080F
:101930008093CE089093CF08A093D008B093D1089D
:101940008091CA089091CB08A091CC08B091CD08A5
:101950000196A11DB11D8093CA089093CB08A09356
:10196000CC08B093CD08BF91AF919F918F913F91DB
:101970002F910F900FBE0F901F9018958FB7F8946E
:101980002091CE083091CF084091D0085091D108D5
:101990008FBFB901CA0108959FB7F8942091CA0872
:1019A0003091CB084091CC085091CD0886B5A89BCA
:1019B00006C08F3F21F02F5F3F4F4F4F5F4F9FBFBC
:1019C000542F432F322F2227280F311D411D511D27
:1019D00082E0220F331F441F551F8A95D1F7B901AA
:1019E000CA010895EF92FF920F931F93CF93DF9355
:1019F0007B018C010E94CC0CEB010FC00E94CC0C2F
:101A00006C1B7D0B83E0683E780738F00894E10892
:101A1000F10801091109C851DC4FE114F104010575
:101A2000110561F7DF91CF911F910F91FF90EF901A
:101A30000895019739F0880F991F880F991F029711
:101A40000197F1F70895789484B5826084BD84B5D8
:101A5000816084BD85B5826085BD85B5816085BDA9
:101A6000EEE6F0E0808181608083E1E8F0E01082C2
:101A7000808182608083808181608083E0E8F0E003
:101A8000808181608083E1EBF0E0808184608083ED
:101A9000E0EBF0E0808181608083E1E9F0E080812B
:101AA00082608083808181608083E0E9F0E08081D2
:101AB00081608083E1EAF0E08081826080838081C0
:101AC00081608083E0EAF0E0808181608083E1E2F0
:101AD000F1E0808182608083808181608083E0E2A8
:101AE000F1E0808181608083EAE7F0E080818460BA
:101AF0008083808182608083808181608083808117
:101B0000806880831092C1000895893009F449C02B
:101B10008A30A0F4843051F1853040F4823079F17C
:101B2000833000F5813009F063C026C0873079F139
:101B3000883098F5863009F05BC025C08D3009F4F7
:101B400042C08E3028F48B30B1F18C30C0F52DC0FE
:101B5000803109F442C0813109F445C08F3009F069
:101B600047C037C0809180008F7703C0809180008C
:101B70008F7D80938000089584B58F7702C084B5EF
:101B80008F7D84BD08958091B0008F7703C08091D0
:101B9000B0008F7D8093B0000895809190008F7782
:101BA00007C0809190008F7D03C080919000877F57
:101BB0008093900008958091A0008F7707C0809156
:101BC000A0008F7D03C08091A000877F8093A0003C
:101BD0000895809120018F7703C0809120018F7D2F
:101BE00080932001089580912001877F80932001B8
:101BF000089590E0FC01E858FE4F2491FC01EE5C52
:101C0000FE4FE491EE23C1F0F0E0EE0FFF1FEC5128
:101C1000FF4F85919491DC01662341F49FB7F894BE
:101C20008C91209582238C939FBF08959FB7F89441
:101C30008C91822B8C939FBF08950F931F93DF93FA
:101C4000CF930F92CDB7DEB7282F30E0F901E254E1
:101C5000FE4F8491F901E858FE4F14912E5C3E4FDF
:101C6000F90104910023D9F0882321F069830E94AF
:101C7000850D6981E02FF0E0EE0FFF1FE250FF4F6E
:101C800085919491DC019FB7F894662321F48C919F
:101C90001095812302C08C91812B8C939FBF0F9054
:101CA000CF91DF911F910F910895CF93DF93282F4C
:101CB00030E0F901E254FE4F8491F901E858FE4FFB
:101CC000D4912E5C3E4FF901C491CC2391F088232E
:101CD00011F00E94850DEC2FF0E0EE0FFF1FE85E83
:101CE000FE4F85919491DC018C918D2321E030E0B1
:101CF00011F420E030E0C901DF91CF91089581E037
:101D000090E066E070E00E941232FC019093D408EB
:101D10008093D308158214820895FF920F931F9326
:101D2000DF93CF93CDB7DEB761970FB6F894DEBFE0
:101D30000FBECDBF8E010F5F1F4F23C0C8010E9491
:101D4000D01079818A819B81FC806D814E815F8179
:101D5000A885B9852A853B85EC85FD85772319F40F
:101D6000FA0119950EC0713019F4FD01199509C0D9
:101D7000723019F4F901199504C0733011F48F2DE4
:101D800019956091D3087091D408FB0184819581E5
:101D9000181619069CF261960FB6F894DEBF0FBEB6
:101DA000CDBFCF91DF911F910F91FF9008958F923A
:101DB0009F92AF92BF92CF92DF92EF92FF920F93DA
:101DC0001F93DF93CF93CDB7DEB761970FB6F8942B
:101DD000DEBF0FBECDBF89829A82AB82BC82CD822C
:101DE000DE82EF82F88609871A872B873C874D872A
:101DF0005E876F87788B898B0F920F928091D308C3
:101E00009091D408EDB7FEB79283818389809A8040
:101E1000AB80BC80CD80DE80EF80F88409851A8598
:101E20002B853C854D855E856F85788989890E94E3
:101E3000EF0F0F900F9061960FB6F894DEBF0FBEB4
:101E4000CDBFCF91DF911F910F91FF90EF90DF9069
:101E5000CF90BF90AF909F908F9008952F923F9218
:101E60004F925F926F927F928F929F92AF92BF92AA
:101E7000CF92DF92EF92FF920F931F93DF93CF9356
:101E8000CDB7DEB7C454D0400FB6F894DEBF0FBE56
:101E9000CDBF0E947F0E42E0242E3EE1632E712CC6
:101EA00023E0322E9BED492E97E0592E0E945C0CC8
:101EB0000E948D0E8091A50D9091A60D0E945E1539
:101EC0008091A50D9091A60D0E94BC152982562DDA
:101ED0007F866E86982E8A839B8384EB97E0182FEB
:101EE0009B878A8782E0882EAB80BC80CD80DE8095
:101EF000EF80F88409852B853C854D856F85788931
:101F000089890E94D70E3A8A78A26F8E91E09D8BC4
:101F100081E090E00E94E2168E8B342D5E8E4D8E15
:101F20008A889B88AC88BD88C82EDF88E88CF98CAD
:101F30000A8D1B8D2C8D4E8D5F8D68A179A18AA194
:101F40000E94D70E3BA279AA68AA2EA282E090E056
:101F50000E94E2168FA3342D5FA64EA68BA09CA0F4
:101F6000ADA0BEA0C82ED8A4E9A4FAA40BA51CA5B8
:101F70002DA54FA558A969A97AA98BA90E94D70EAA
:101F80003CAA23967FAE6EAE23973FAA83E090E0F3
:101F90000E94E21688AF342D21965FAE4EAE219797
:101FA0008CA89DA8AEA8BFA8C82ED9ACEAACFBAC43
:101FB0000CAD1DAD2EAD21964FAD219722965FAD94
:101FC000229723966FAD239724967FAD249725966D
:101FD0008FAD25970E94D70E0E948D0E67CF8F92EE
:101FE0009F92AF92BF92CF92DF92EF92FF920F93A8
:101FF0001F93DF93CF93CDB7DEB761970FB6F894F9
:10200000DEBF0FBECDBF89829A82AB82BC82CD82F9
:10201000DE82EF82F88609871A872B873C874D87F7
:102020005E876F87788B898B09A11AA1EE84FF8464
:1020300081E090E065E170E00E941232FC010097BF
:1020400009F49BC0AE014F5F5F4F21E1DA010D90B3
:10205000AD01DC010D92CD012150C1F7F686E58678
:10206000D80114968D919C9115978230910594F129
:102070008D919C911197AC0129C0DA011D962D918B
:102080003C911E972E153F05E0F4528B418B5396E1
:102090002D913C915497348B238B8417950729F409
:1020A000D801ED93FC93DC013EC0DA0153968D918B
:1020B0009C915497DC015296FC93EE935197DA0170
:1020C00032C0DA0151964D915C91529741155105FC
:1020D000A1F63FC08130910559F5D8012D913C9171
:1020E000D9011D968D919C911E978E159F0578F0B4
:1020F000128A118A348B238BD8011396FC93EE93AA
:102100001297D9015296FC93EE9351971BC0148AF3
:10211000138A328B218BD80113963C932E931297FE
:10212000ED93FC93D9015496FC93EE9353970AC018
:10213000009741F4D8011196FC93EE93128A118A0C
:10214000148A138AF801848195810196958384838A
:1021500014C0128A118AD80112968D919C911397FE
:10216000948B838BDC015296FC93EE935197D801AC
:102170001396FC93EE931297E5CF61960FB6F89401
:10218000DEBF0FBECDBFCF91DF911F910F91FF90AA
:10219000EF90DF90CF90BF90AF909F908F90089579
:1021A0000F931F93CF93DF938C01FB01A081B1812B
:1021B000982F292F312FAD0181E1EA010990AE015D
:1021C000E90109929E018150C1F724813581215096
:1021D00030403583248351968D919C915297918301
:1021E0008083CD010E94D132C801DF91CF911F9130
:1021F0000F910895FC01808190E08870907023E039
:10220000959587952A95E1F70895FC01808187705F
:102210000895FC01808187700895FC0180818170A0
:102220000895FC01808182958F7090E08A3091053D
:1022300028F48158974FFC01808108958FEF08950D
:102240000E9411110895FC01DB012C91203110F046
:102250008FEF0895808190E0049634E0880F991FF5
:102260003A95E1F7822B089588E49DE00E945A2D6B
:10227000181619062CF488E49DE00E94892D089513
:102280008FEF0895FC0188E49DE060810E94BF2DDE
:10229000089589E29DE040E855E260E070E00E9428
:1022A000EE2F88E49DE040E855E260E070E00E9497
:1022B000EE2F88E060E00E94F90D0895FC01608136
:1022C000718188E49DE04AE050E00E945129089520
:1022D000EF92FF92CF93DF93E82EE7017E01F92E74
:1022E000E70104C089E29DE00E944E2869916623BF
:1022F000C9F789E29DE06FEA74E00E944B28DF9104
:10230000CF91FF90EF90089581EB94E00E946811C7
:10231000089588E00E94550E08950E9415120E94AB
:10232000381280E090E00895EF92FF92CF93DF9310
:102330000E9444122091D5083091D6082F5F3F4F5C
:102340003093D6082093D5088C3891056CF08CE832
:1023500090E00E94491284E190E09093D608809327
:10236000D508CCE8D0E005C0EC012796CE010E944C
:102370004912CE01DF91CF91FF90EF900895EF9237
:10238000FF92CF93DF930E9444122091D5083091A1
:10239000D608215030403093D6082093D508883095
:1023A000910534F0EC012797CE010E9449120AC032
:1023B00080E090E00E9449121092D6081092D50851
:1023C000C0E0D0E0CE01DF91CF91FF90EF90089573
:1023D000EF92FF92CF93DF93EC018937910528F0BC
:1023E0000E946112CFEFDFEF02C00E944912CE01BE
:1023F000DF91CF91FF90EF9008950E9444120097D3
:1024000081F487E00E94550E8130910519F487E030
:1024100060E002C087E061E00E941D0E20E030E035
:1024200002C02FEF3FEFC901089587E061E00E94ED
:10243000F90D80E090E008958091D708813029F06F
:10244000813018F0823089F404C08BE064E670E0DB
:102450000AC06091D8087091D908633971052CF4CD
:1024600065597F4F8BE00E94F3268091D70808952D
:102470008BE061E00E94F90D81E08093D7080E9413
:102480001C1280E090E008958091D8089091D908BE
:1024900008958439910510F081E00EC0009739F459
:1024A0001092D9081092D8081092D70807C09093BC
:1024B000D9088093D80882E08093D7080E941C1224
:1024C00008951092D7080E941C1208958AE090E0A7
:1024D00066E070E00E94F61281E090E0089581ECE1
:1024E00092E16AE070E046E050E00E949F1282E0D4
:1024F00090E0089588EC92E16AE070E046E050E0F8
:102500000E949F1284E090E0089583EB92E16AE0DC
:1025100070E046E050E02AE030E00E94A61287E03A
:1025200090E008958EEA92E16AE070E046E050E0C3
:102530002AE030E00E94A61288E090E00895FC01B5
:10254000CB01BA01199580E090E00895FC01CB0120
:10255000BA01A901199580E090E008950E94221324
:1025600080E090E008950E94421380E090E008959A
:102570005093DB084093DA080E941C1380E090E03F
:10258000089548E750E00E94B81280E090E0089576
:102590004EEF50E00E94B81280E090E008954BE9C1
:1025A00050E00E94B81280E090E0089544E650E0C8
:1025B0000E94B81280E090E008952091DA083091EE
:1025C000DB08243631052CF40E94D61220E030E0DE
:1025D00002C021E030E0C90108954091DA0850912D
:1025E000DB080E941C1380E090E008950F931F9376
:1025F000DF93CF930F920F92CDB7DEB7182F092F2D
:10260000AB01862F61E049835A830E94F90D812F27
:1026100061E00E94F90D8DED92E1612F702F4981EB
:102620005A810E949F1280E090E00F900F90CF910E
:10263000DF911F910F910895BA010E94F32680E067
:1026400090E008952091DA083091DB08420F531F83
:102650004F3F51052CF00E94C81221E030E010C01D
:102660004B3951052CF40E94CF1222E030E008C013
:102670005093DB084093DA080E94ED1220E030E02E
:10268000C90108952091DA083091DB082B39310512
:1026900074F0241B350B2B3931054CF03093DB08DB
:1026A0002093DA080E94ED1220E030E002C021E021
:1026B00030E0C90108950F931F93CF93DF938C01EE
:1026C0000E946E13EC01B8010E947414CE010E94A6
:1026D0007313DF91CF911F910F91089581E090E0E6
:1026E0000E94423108950E94453108950F931F932F
:1026F000CF93DF93CCEDD8E0CE0162E070E00E9492
:102700008E230FED18E0C80163E070E00E948E2375
:10271000CE016FE570E00E94C923C8016EE670E04B
:102720000E94C92380E090E0DF91CF911F910F912B
:1027300008958CED98E06EE170E00E94C9238FED62
:1027400098E06DE270E00E94C92382E090E0089575
:102750008CED98E066E970E00E94C9238FED98E067
:1027600065EA70E00E94C92383E090E00895CF936A
:10277000DF93CCEDD8E0CE010E944C24BC01CE0109
:102780000E94C923CFEDD8E0CE010E944C24BC01A9
:10279000CE010E94C92384E090E0DF91CF9108959B
:1027A0008CED98E06FE570E00E94C9238FED98E012
:1027B0006EE670E00E94C92385E090E008958CEDFC
:1027C00098E064EB70E00E94C9238FED98E06FE021
:1027D00070E00E94C92386E090E008950F931F9354
:1027E000CF93DF938CED98E00E944C248C01EC0198
:1027F0002F96863991057CF48CED98E0BE010E94FD
:10280000C923B801625E7F4F8FED98E00E94C92313
:1028100027E030E00CC08CED98E0B8010E94C9239D
:102820008FED98E0BE010E94C92328E030E0C90185
:10283000DF91CF911F910F910895CF93DF938CED8E
:1028400098E00E944C24EC018F3191057CF0BC0192
:102850006F5070408CED98E00E94C9238FED98E096
:10286000BE010E94C92329E030E00CC08CED98E045
:10287000BE010E94C9238FED98E0BE010E94C923CA
:102880002AE030E0C901DF91CF91089562307105EF
:10289000D1F0633071053CF46115710571F0613060
:1028A0007105E9F40DC06430710599F0643071056B
:1028B0006CF06530710599F40FC00E94D01311C0FF
:1028C0000E94A8130EC00E9499130BC00E941D14F1
:1028D00008C00E94EE1305C00E94DF1302C00E94D0
:1028E000B7138BE090E008950F931F93CF93DF937E
:1028F0008C01EB010E947613C801BE010E944614B0
:10290000DF91CF911F910F9108958CED98E00E9477
:10291000C4228FED98E00E94C42208958130910571
:1029200039F482EE98E066E147E10E94E1140895EF
:10293000009751F48DE898E09093E3088093E208C3
:102940008EEE98E00E943521089581E090E00E948B
:102950008E14089580E090E00E948E1408950C96E5
:102960000E94171E08950C960E94FD1D0895CF9396
:10297000DF93EC010C960E94DC1D9C01EEADFFADD7
:102980008081992787FD90952817390741F4CF0159
:1029900001969FAF8EAF8181882339F41DAE80915F
:1029A0006808909169089FAF8EAFC901DF91CF9100
:1029B00008950C960E94D21E08950C960E94281E1F
:1029C00008950F931F93CF93DF93EC011B821A821C
:1029D00088EE93E0A0E0B0E08C839D83AE83BF835C
:1029E0008DE898E0998388838E01045F1F4FC801AA
:1029F00020E00E9409201CAE1DAE18AE19AE1AAE22
:102A00001BAE6091660870916708CE0188960E949F
:102A10009833FE01EE5BFF4F80ED97E0918380835A
:102A2000FE01E05CFF4F80E590E091838083FE0132
:102A3000EC5BFF4F118210828091680890916908C9
:102A40009FAF8EAFC80140E855E260E070E00E94A1
:102A50003620C8010E944A1EC8010E94171EDF913D
:102A6000CF911F910F910895EF92FF92CF93DF9333
:102A70008CE090E00E943732E82EE7017E01F92ECB
:102A8000E7012097A9F00E94C5150E945C1668878F
:102A900079878A879B8780E090E0DC01888399832F
:102AA000AA83BB830E94BE0C6C837D838E839F832D
:102AB000CE01DF91CF91FF90EF9008952F923F923A
:102AC0004F925F926F927F928F929F92AF92BF923E
:102AD000CF92DF92EF92FF920F931F93CF93DF93EA
:102AE000EC010E94BE0C3B014C018C819D81AE81AA
:102AF000BF8184017301E81AF90A0A0B1B0B2880B5
:102B000039804A805B80688579858A859B850E94AB
:102B100015165B016C01C801B7010E9485059B0178
:102B2000AC01C601B5010E942B0320E030E04AE76A
:102B300054E40E9425049B01AC01C201B1010E9432
:102B4000CD02688379838A839B836C827D828E82A7
:102B50009F82DF91CF911F910F91FF90EF90DF90B7
:102B6000CF90BF90AF909F908F907F906F905F902D
:102B70004F903F902F900895FC0160817181828178
:102B800093810E943305CB010895CF93DF93CDE865
:102B9000D9E0CE010E948D1DCE0160E470E00E945C
:102BA000B21DCE0160E10E945D1DCE0166EB0E9468
:102BB0005D1DCE010E94B51D6AE070E080E090E0EE
:102BC0000E94F20CCE0160E470E00E94B21DCE01C2
:102BD0006DE00E945D1DCE0160E10E945D1DCE0191
:102BE0000E94B51DCE0160E470E00E94B21DCE01CE
:102BF00060E20E945D1DCE0160E70E945D1DCE0176
:102C00000E94B51DCE0160E470E00E94B21DCE01AD
:102C100065E30E945D1DCE0164E00E945D1DCE0152
:102C20000E94B51DDF91CF910895CF92DF92EF9270
:102C3000FF920F931F93CF93DF936B017C01CDE83D
:102C4000D9E0CE0160E470E00E94B21DCE0162E0E6
:102C50000E945D1DCE010E94B51DCE0160E470E0B2
:102C600042E050E00E94A51DCE010E94061D8C018D
:102C7000CE010E94061D782F60E0602B712B7595A8
:102C8000679575956795882777FD8095982F0E94A1
:102C9000D3042EE230E940E25BE30E942B03A7015C
:102CA00096010E94CD02DF91CF911F910F91FF906D
:102CB000EF90DF90CF900895EF92FF920F931F93C4
:102CC000CF93DF93C0E9D1E0EE24FF2400E010E0D1
:102CD00060E070E0CB010E9415169B01AC016E2DE7
:102CE0007F2D802F912F0E94CD027B018C0181E7E7
:102CF00092E00E94190D219759F76E2D7F2D802F9C
:102D0000912F20E030E048EC53EC0E942504DF9145
:102D1000CF911F910F91FF90EF9008950E94FD16A3
:102D20000E94551880E090E008958730910560F189
:102D30008E3091055CF18431910554F18B31910510
:102D40004CF18232910544F1883291053CF18F3289
:102D5000910534F1853391052CF18C33910524F1E3
:102D6000833491051CF18934910514F18035910566
:102D70000CF18635910504F18D359105FCF0853611
:102D80009105F4F48EE0089580E0089581E00895BF
:102D900082E0089583E0089584E0089585E0089531
:102DA00086E0089587E0089588E0089589E0089511
:102DB0008AE008958BE008958CE008958DE00895F1
:102DC00080E008950F931F93CF93DF93EC010E944F
:102DD0003918182F092FC130D10531F40E949D18E0
:102DE000812F902F0E941E17812F902F0E949516E1
:102DF000DF91CF911F910F91089585E361E00E94CB
:102E0000F90D84E361E00E94F90D83E361E00E9423
:102E1000F90D82E361E00E94F90D85E361E00E9413
:102E20001D0E84E361E00E941D0E83E361E00E94B9
:102E30001D0E82E361E00E941D0E0895EF92FF9245
:102E40000F931F93CF93DF93EC010E94BE0C9E0162
:102E5000215530402431310518F485E361E008C084
:102E60009E012D5330402431310538F485E360E074
:102E70000E941D0E84E361E00CC09E012952304087
:102E80002431310558F485E360E00E941D0E84E38F
:102E900060E00E941D0E83E361E010C09E01255199
:102EA00030402431310578F485E360E00E941D0E46
:102EB00084E360E00E941D0E83E360E00E941D0E2B
:102EC00082E361E05BC09E01215030402431310536
:102ED00008F044C020912A0930912B0940912C0917
:102EE00050912D097B018C01E21AF30A040B150B9A
:102EF000A8019701253F01E0300700E0400700E00E
:102F00005007F0F160932A0970932B0980932C09E4
:102F100090932D098091280990912909009739F4FF
:102F200081E090E0909329098093280904C01092D1
:102F300029091092280985E3609128090E941D0E35
:102F400084E3609128090E941D0E83E360912809A3
:102F50000E941D0E82E36091280910C0209781F421
:102F600085E360E00E941D0E84E360E00E941D0E78
:102F700083E360E00E941D0E82E360E00E941D0E6C
:102F8000DF91CF911F910F91FF90EF90089583E40F
:102F90000E94C02622E08D3F9207DCF083E40E946D
:102FA000C026BC016D5F7240882777FD8095982F01
:102FB0000E94D30420E030E041E853E40E9425045D
:102FC00020E030E048EC52E40E942B030E943305DD
:102FD00002C060E070E0CB01089584E40E94C02646
:102FE00022E08D3F9207DCF084E40E94C026BC0101
:102FF0006D5F7240882777FD8095982F0E94D304DB
:1030000020E030E041E853E40E94250420E030E075
:1030100048EC52E40E942B030E94330502C060E09A
:1030200070E0CB01089585E40E94C02622E08D3F28
:103030009207DCF085E40E94C026BC016D5F7240FF
:10304000882777FD8095982F0E94D30420E030E0F8
:1030500041E853E40E94250420E030E048EC52E4CB
:103060000E942B030E94330502C060E070E0CB0198
:1030700008958130910519F40E94C7170895823090
:10308000910519F40E94ED1708958330910519F404
:103090000E9413180895089581E361E00E94F90DDC
:1030A0001092A80D1092A70D08950E944C18089533
:1030B0008530910561F08035910591F481E390E0D0
:1030C00064E971E10E94A01820E030E00AC081E3C9
:1030D00090E068E873E10E94A0182FEF3FEF01C075
:1030E0000895C90108958035B9F48091A70D909194
:1030F000A80D84319105CCF480E590E00E94581829
:103100008091A70D9091A80D01969093A80D8093A2
:10311000A70D21E030E00FC0863038F485E090E064
:103120000E94581820E030E006C081E390E00E9441
:10313000A7182FEF3FEFC90108950E947318089553
:1031400022E030E040E050E00E94762908950E949D
:103150009B2C0895FC018081823561F48181893442
:10316000A1F482818E3489F421E030E083818734B8
:1031700061F410C08E3449F481818F3431F482813E
:10318000803219F48381833419F020E030E002C0EA
:1031900022E030E0C9010895EF92FF921F93CF9390
:1031A000DF938AE10E94550E80FF19C08CE16BE12C
:1031B00040E00E94CE27182F89E29DE061E175E092
:1031C0000E944B281F70C12FDD27C7FDD09589E2D3
:1031D0009DE0BE014AE050E00E945B2902C0CFEFB3
:1031E000DFEFCE01DF91CF911F91FF90EF90089517
:1031F0000F931F93DF93CF930F92CDB7DEB78C0160
:10320000809136098823C9F00C30110599F080911E
:10321000340990913509843091050CF0DEC0FC0131
:10322000E15DF64F006A0083019690933509809323
:103230003409D3C010923609ADC080912F0988237C
:1032400029F40C30110509F0C8C093C006301105EF
:1032500009F45FC007301105BCF40330110509F40F
:1032600040C00430110544F40130110551F1023021
:10327000110509F0A5C02DC004301105D1F10530AC
:10328000110509F09DC03DC00930110509F459C070
:103290000A3011054CF40730110509F442C008301A
:1032A000110509F08DC045C00B30110509F459C056
:1032B0000B3011050CF44DC00C30110509F080C025
:1032C00058C089E29DE06AE275E00E946B2884E2C2
:1032D00071C089E29DE06DE375E00E946B2880E299
:1032E00069C089E29DE06DE375E00E946B2883E28E
:1032F00061C089E29DE060E575E00E946B2881E293
:1033000059C089E29DE06DE375E00E946B2881E978
:1033100051C089E29DE063E675E00E946B2882E27D
:1033200049C089E29DE06DE375E00E946B2888E169
:1033300041C089E29DE066E775E00E946B2888E065
:1033400039C089E29DE06DE375E00E946B2880E85A
:1033500031C089E29DE06DE375E00E946B2889E051
:1033600029C089E29DE06DE375E00E946B2889E148
:1033700021C089E29DE069E875E00E946B28809198
:103380002F098823B1F481E090913609911180E0F2
:103390008093360989E29DE068E175E00E944B2840
:1033A00089E29DE0609136094AE050E00E94FE28E3
:1033B00014C087E08983CE0101960E94180C0DC0CD
:1033C00089E29DE06CE975E00E944B2889E29DE06E
:1033D000B8014AE050E00E945B2980E090E00F9045
:1033E000CF91DF911F910F9108950F931F93DF935A
:1033F000CF93CDB7DEB7C456D0400FB6F894DEBF3A
:103400000FBECDBF8E010F5F1F4FC8010E94BD1AB6
:103410008430910504F189E29DE0B8010E946B2897
:10342000C8010E94AA188130910579F488E00E94B1
:10343000550E0097A1F487E69DE06CEB75E00E94C5
:103440006B2881E080932E090AC08230910519F41F
:1034500010922E0904C0CE0101960E94A71C0E9462
:10346000CC182FEF8F3F920711F00E94F81862E3FB
:1034700070E080E090E00E94F20C80E090E0CC5997
:10348000DF4F0FB6F894DEBF0FBECDBFCF91DF91F7
:103490001F910F910895CF93DF93C7E6DDE0CE0132
:1034A00040E855E260E070E00E94EE2FCE0160EC53
:1034B00075E00E946B28CE016AEC75E00E946B28D3
:1034C000CE016AED75E00E946B288AE160E00E94FF
:1034D000F90D8BE161E00E94F90D8CE160E00E9442
:1034E000F90DCE0166EE75E00E946B2889E29DE041
:1034F00060EF75E00E946B28DF91CF910895CF9225
:10350000DF92EF92FF920F931F93CF93DF937C0193
:103510006B01C7E6DDE0CE0167EF75E00E946B2826
:10352000CE0161E076E00E944B280AE016E0CE0171
:10353000B8010E944B28CE01B7010E944B28CE0152
:10354000B8010E946B2864EF71E080E090E00E9477
:10355000F20CCE01B6010E944B28CE016CE076E061
:103560000E944B2880E090E0DF91CF911F910F9156
:10357000FF90EF90DF90CF900895FF920F931F93ED
:10358000CF93DF93EC018C01FF2419C087E69DE007
:103590000E94892D8F3F39F08A3089F09F2D933614
:1035A00011F08D3041F42F2D332727FD3095C20FB8
:1035B000D31F18820FC0F80181938F01F39487E61F
:1035C0009DE00E945A2D1816190604F32F2D33275B
:1035D00027FD3095C901DF91CF911F910F91FF9089
:1035E0000895F42FA42FB52F20E030E005C0ED9111
:1035F000E03211F42F5F3F4FEA2FEF1B26173707FA
:10360000B4F3FF27E7FDF095DA01AE0FBF1F6C9111
:10361000DC013196E40FF51F20E030E0603239F034
:10362000662329F06D932F5F3F4F6191F7CF820F93
:10363000931FFC01108280E090E00895EF92FF92CA
:103640000F931F93CF93DF937C018B01EA0161E01D
:1036500070E0A8010E94F11AC7010E946A330E941B
:10366000ED1C009709F059C089E29DE06EE076E01C
:103670000E946B28C70162E070E0A8010E94F11A65
:10368000D7010D900020E9F7BD01615070406E191F
:103690007F096430710570F489E29DE04AE050E0F2
:1036A0000E94E72889E29DE00E945628CE016EE143
:1036B00076E036C06430710579F089E29DE04AE039
:1036C00050E00E94E72889E29DE0B7010E946B2844
:1036D000CE0164E376E024C0C7010E946A330097FC
:1036E00021F4CE0169E476E01BC00E94B01C0E9468
:1036F000CE1CBC0189E29DE04AE050E00E94E72830
:10370000CE0167E676E00E94983387E399E0BE0138
:103710000E947F1A20E030E00CC0CE0166E776E020
:103720000E94983387E399E0BE010E947F1A21E04E
:1037300030E0C901DF91CF911F910F91FF90EF9081
:103740000895EF92FF920F931F93CF93DF938C0115
:103750007B01EA0189E29DE061E876E00E946B2846
:10376000C80161E070E0A7010E94F11AC8010E943F
:103770006A330E94B01C8C010E94CE1CBC0189E2FD
:103780009DE04AE050E00E94E7280115110521F074
:103790000130110509F516C0CE016BE976E00E94F3
:1037A000983387E399E0BE010E947F1A0E94CE1CE5
:1037B000BC0189E29DE04AE050E00E94E72820E059
:1037C00030E00CC0CE016FEA76E00E94983387E3C8
:1037D00099E0BE010E947F1A21E030E0C901DF912B
:1037E000CF911F910F91FF90EF900895EF92FF926C
:1037F0000F931F93DF93CF93CDB7DEB7CA56D04058
:103800000FB6F894DEBF0FBECDBF8C0127E0E22ECD
:10381000F12CEC0EFD1EC70160E070E0A8010E94D3
:10382000F11A80ED96E0B80144E050E00E949F3329
:103830000097A9F4B801695F7F4F87E399E04CE0F6
:1038400050E00E94AD3389E29DE0B8010E946B28F0
:1038500089E29DE067E379E00E946B286AC085ED0C
:1038600096E0B7010E948F33009739F48E010F5E06
:103870001F4FC8016AED76E025C08EE297E0B701E0
:103880000E948F33009731F587E399E06EE678E088
:103890000E948F330097F1F489E29DE065E377E0C1
:1038A0000E946B280E94CE1C7E010894E11CF11C32
:1038B000B7014AE050E00E94BC338E010F5E1F4FFB
:1038C000C801B7010E94983387E399E0B8010E94CC
:1038D0007F1A2FC097E0E92EF12CEC0EFD1E83E439
:1038E00097E0B7010E948F33009781F487E399E056
:1038F0006EE678E00E948F33009741F4C701B8016B
:10390000AE014F5E5F4F0E94A11B13C087E0E82EFF
:10391000F12CEC0EFD1E8AE497E0B7010E948F3374
:10392000009739F4C701B801AE014F5E5F4F0E94A6
:103930001E1BC659DF4F0FB6F894DEBF0FBECDBFBA
:10394000CF91DF911F910F91FF90EF9008950E940A
:10395000F61B62E370E080E090E00E94F20C0895B4
:103960001F93CF93DF93482F192FCDEDD9E06091AE
:103970007B0870917C08CE010E94412160917B08F8
:1039800070917C086F5F7F4FCE01412F0E944121D3
:1039900080E090E0DF91CF911F9108951F93CF9326
:1039A000DF93CDEDD9E060917B0870917C08CE016A
:1039B0000E943D21182F60917B0870917C086F5FF9
:1039C0007F4FCE010E943D21382F20E0210F311D75
:1039D000C901DF91CF911F910895CF93DF93EC013F
:1039E0000E94CE1C21E030E08C179D0711F420E0EE
:1039F00030E0C901DF91CF9108952091680930E04E
:103A000080916709281B3109C901089580916709D0
:103A100090916809891750F4E82FF0E0E95BF64FC0
:103A2000208130E08F5F8093670902C02FEF3FEF66
:103A3000C9010895E091670980916809E81730F499
:103A4000F0E0E95BF64F208130E002C02FEF3FEF5E
:103A5000C90108950895CF92DF92EF92FF920F93DC
:103A60001F93CF93DF936C01CB01EA0120918C0966
:103A70002223B1F0E62EF92E00E010E00DC0D701B0
:103A80006D917D01D601ED91FC910190F081E02DC9
:103A9000C60119950F5F1F4F0C171D0780F303C058
:103AA000642F0E943425CE01DF91CF911F910F9199
:103AB000FF90EF90DF90CF900895DF93CF930F9218
:103AC000CDB7DEB7698320918C092223D1F02091F4
:103AD0008B09203240F021E030E0FC013383228367
:103AE00020E030E015C080918A09E82FF0E0E65927
:103AF000F64F998190838F5F80938A0980938B0919
:103B000005C0CE01019661E00E94342521E030E03D
:103B1000C9010F90CF91DF9108951092670910921B
:103B2000680910928A0910928B090E94A5240895B1
:103B3000862F413208F040E267E479E00E94BE241B
:103B4000109267098093680908950E94981D08954E
:103B500081E080938C096093690910928A09109220
:103B60008B0908950E94A81D0895809169096AE64D
:103B700079E040918B0921E00E94F42410928A0997
:103B800010928B0910928C0908951092900910924E
:103B90008F0988EE93E0A0E0B0E0809391099093C4
:103BA0009209A0939309B09394098DE998E09093BA
:103BB0008E0980938D0908952091990930919A0971
:103BC00028173907B1F49091DC098091DB09981727
:103BD00081F0E091DC09F0E0E556F64F208180911C
:103BE000DC0990E001968F7390708093DC0930E0DF
:103BF00002C02FEF3FEFC90108952091990930913C
:103C00009A092817390779F48091DB092091DC099A
:103C100090E0805C9F4F821B910960E470E00E94FD
:103C200073319C0102C020E030E0C9010895209169
:103C3000990930919A092817390749F48FB7F894F0
:103C40001092DB099091DB099093DC098FBF0895F6
:103C50002091990930919A092817390781F4909198
:103C6000DC098091DB09981751F0E091DC09F0E064
:103C7000E556F64F2081332727FD309502C02FEF00
:103C80003FEFC901089520E001972FEF8F3F920782
:103C9000D9F70895FC018091990990919A098E179E
:103CA0009F0791F0838D8E7F838F8FB7F89410924A
:103CB000DB099091DB099093DC09F0939A09E0937A
:103CC00099098FBF81E0089580E00895EF92FF92F7
:103CD0000F931F93CF93DF93EC018B8DEE85FF85C0
:103CE0009D8581FF04C08081892329F445C080819E
:103CF000892309F041C08B899C890E94431E08E0FA
:103D000010E0EE24E394FF248D899E890E94431ED7
:103D1000EE85FF8580819D85892311F0FE2803C0F3
:103D20008E2D8095F822EE0C0150104069F78F8996
:103D3000988D0E94431E8B8D81FDF0948091DB094C
:103D40002091DC0990E001968F73907030E082172B
:103D5000930779F0E091DB09F0E0E556F64FF08249
:103D60008091DB0990E001968F7390708093DB095E
:103D700003C08B8D81608B8FDF91CF911F910F914D
:103D8000FF90EF900895FC01A189B2899089662384
:103D900029F42C91892F8095822302C08C91892B44
:103DA0008C930895DF92EF92FF920F931F93CF931E
:103DB000DF93EC01E62E898D9A8D009739F481E02E
:103DC00090E09B838A8320E030E04BC0DFB6F8941C
:103DD0008B8D61E081FF60E0CE010E94C31E898D62
:103DE0009A8D05960E94431E8B8D81FF19C008E0B5
:103DF00010E0FF24F3948F2D8E2119F0CE0160E0A6
:103E000002C0CE0161E00E94C31E898D9A8D0E947E
:103E1000431EFF0C0150104071F7CE0160E018C046
:103E200008E010E0FF24F3948F2D8E2119F0CE01CD
:103E300061E002C0CE0160E00E94C31E898D9A8DB0
:103E40000E94431EFF0C0150104071F7CE0161E04B
:103E50000E94C31EDFBE898D9A8D0E94431E21E001
:103E600030E0C901DF91CF911F910F91FF90EF904A
:103E7000DF9008958091990990919A09009711F027
:103E80000E94661E08951F920F920FB60F920BB6F6
:103E90000F9211242F933F934F935F936F937F93D0
:103EA0008F939F93AF93BF93EF93FF930E943A1F1B
:103EB000FF91EF91BF91AF919F918F917F916F9102
:103EC0005F914F913F912F910F900BBE0F900FBEBE
:103ED0000F901F9018951F920F920FB60F920BB66E
:103EE0000F9211242F933F934F935F936F937F9380
:103EF0008F939F93AF93BF93EF93FF930E943A1FCB
:103F0000FF91EF91BF91AF919F918F917F916F91B1
:103F10005F914F913F912F910F900BBE0F900FBE6D
:103F20000F901F9018951F920F920FB60F920BB61D
:103F30000F9211242F933F934F935F936F937F932F
:103F40008F939F93AF93BF93EF93FF930E943A1F7A
:103F5000FF91EF91BF91AF919F918F917F916F9161
:103F60005F914F913F912F910F900BBE0F900FBE1D
:103F70000F901F9018951F93CF93DF93EC01162F8E
:103F8000862F61E00E94F90D812F61E00E941D0ED5
:103F9000812F90E0FC01E858FE4FE491E88BFC0192
:103FA000EE5CFE4FE491F0E0EE0FFF1FE250FF4F9A
:103FB00085919491898B9A8BDF91CF911F91089570
:103FC0001F93CF93DF93EC01162F862F60E00E94A2
:103FD000F90D8B8D81FD04C0812F61E00E941D0EC3
:103FE0001C87812F90E0FC01E858FE4FE491ED879B
:103FF000FC01EE5CFE4FE491F0E0EE0FFF1FE85E87
:10400000FE4F859194918E879F87DF91CF911F916D
:1040100008951F93CF93DF93EC01162F1B821A8212
:1040200088EE93E0A0E0B0E08C839D83AE83BF83F5
:104030008DEA98E0998388831C8A1B8A1E8A1D8AD0
:10404000188E1F8A1A8E198E8B8D2170220F8C7FED
:10405000822B8B8FCE01642F0E94BB1FCE01612F5C
:104060000E94E01FDF91CF911F910895EF92FF9280
:104070000F931F93CF93DF93EC017A018B011A8E7C
:10408000198E188E1F8A1E8A1D8A1C8A1B8A40E080
:1040900050E09A01220F331F240F351F220F331FC8
:1040A000220F331FF901EC5FFD4F85919591A5918A
:1040B000B4918E159F05A007B107E9F4F901E85FF7
:1040C000FD4F859194918B8B9C8BF901E65FFD4FA1
:1040D000859194918D8B9E8BF901E45FFD4F8591C5
:1040E00094918F8B988F225F3D4FF9018591949128
:1040F000898F9A8F06C04F5F5F4F4C30510509F092
:10410000C8CF8F89988D009709F466C08C85982F49
:104110009A50943040F0282F2253243020F02C5015
:10412000283008F055C020916800943048F0982F4E
:104130009253943028F08E53883010F484E001C0FC
:1041400081E0822B809368002C85922F9A509430C6
:1041500088F0822F8253843068F08C50883018F4B5
:10416000EDE6F0E002C0E0E0F0E0883040F4ADE6DB
:10417000B0E007C0EBE6F0E0ABE6B0E002C0A0E0E4
:10418000B0E04C91943020F430E0265030400FC025
:104190002233A9F02333A9F02433A9F02533A9F061
:1041A000822F8E53883088F430E02E53304081E0E7
:1041B00090E002C0880F991F2A95E2F707C088E0B7
:1041C00005C084E003C082E001C081E0842B8083CD
:1041D000898D9A8D0E94431ECE010E944A1EDF9156
:1041E000CF911F910F91FF90EF900895FC012485CE
:1041F000922F9A50943060F0822F8253843040F096
:104200008C50883088F5EDE6F0E0ADE6B0E004C013
:10421000EBE6F0E0ABE6B0E04C91943020F430E017
:10422000265030400FC02233B1F02333B1F0243395
:10423000B1F02533B1F0822F8E53883090F430E006
:104240002E53304081E090E002C0880F991F2A95DC
:10425000E2F7809507C087EF05C08BEF03C08DEFB5
:1042600001C08EEF8423808308952DEA38E0FC019D
:10427000318320830E94F6200895CB010E94E5330C
:104280000895CB01642F0E94ED330895EF92FF92C1
:104290000F931F93CF93DF93EB017A018C01DC0125
:1042A000A159B54F8C9187FF03C01982188237C07E
:1042B000C801880F991F800F911F880F991F880FC1
:1042C000991F2C91332727FD3095280F391F4091D6
:1042D000DE0950E02417350714F52C91332727FD0C
:1042E0003095280F391FF901EE0FFF1FE20FF31F62
:1042F000E152F64F208126FF12C02C91332727FD73
:104300003095280F391FF901EE0FFF1FE20FF31F41
:10431000E152F64F80818F7360E00E941D0EF8011C
:10432000E159F54F80818F5F8083C801880F991F05
:10433000800F911F880F991F880F991F20813327A5
:1043400027FD3095280F391F4091DE0950E02417D2
:1043500035070CF053C020812C300CF04FC0488141
:1043600059812081332727FD3095280F391FD90126
:10437000AA0FBB1FA20FB31FA152B64F11962D91CA
:104380003C911297420F531FD70111965C934E93A5
:104390002081332727FD3095280F391FD901AA0F17
:1043A000BB1FA20FB31FA152B64F2C9126FF2DC0E9
:1043B0002081332727FD3095280F391FF901EE0F93
:1043C000FF1FE20FF31FE152F64F80818F7361E010
:1043D0000E941D0E1AC080E49CE9F701918380833E
:1043E00007C0888199810496D70111969C938E937A
:1043F000F801E159F54F8FEF808307C088819981DB
:10440000BCE984349B0738F3ECCFDF91CF911F9147
:104410000F91FF90EF9008951F920F920FB60F9299
:104420000BB60F9211242F933F934F935F936F938B
:104430007F938F939F93AF93BF93EF93FF9381E00D
:1044400090E064E870E048E850E00E944621FF9167
:10445000EF91BF91AF919F918F917F916F915F91FC
:104460004F913F912F910F900BBE0F900FBE0F9069
:104470001F9018951F920F920FB60F920BB60F92C6
:1044800011242F933F934F935F936F937F938F9359
:104490009F93AF93BF93EF93FF9382E090E064E923
:1044A00070E048E950E00E944621FF91EF91BF91F2
:1044B000AF919F918F917F916F915F914F913F91BC
:1044C0002F910F900BBE0F900FBE0F901F9018955D
:1044D0001F920F920FB60F920BB60F9211242F93CB
:1044E0003F934F935F936F937F938F939F93AF937C
:1044F000BF93EF93FF9383E090E064EA70E048EAB3
:1045000050E00E944621FF91EF91BF91AF919F91A2
:104510008F917F916F915F914F913F912F910F906C
:104520000BBE0F900FBE0F901F9018951F920F9209
:104530000FB60F920BB60F9211242F933F934F9308
:104540005F936F937F938F939F93AF93BF93EF93FB
:10455000FF9380E090E064E271E048E251E00E9465
:104560004621FF91EF91BF91AF919F918F917F91E4
:104570006F915F914F913F912F910F900BBE0F90D4
:104580000FBE0F901F901895FC018091DE098033BB
:1045900090F480838F5F8093DE09808190E0FC013E
:1045A000EE0FFF1FE80FF91FE152F64F88EB9BE07B
:1045B0009283818308958FEF80830895DF92EF9235
:1045C000FF920F931F93CF93DF93EC01D62E8A01B6
:1045D00079018881803308F093C0862F61E00E94C2
:1045E000F90D4881842F90E0FC01EE0FFF1FE80FCA
:1045F000F91FE152F64F9D2D9F738081807C892B9E
:10460000808380E292E0801B910B24E030E0B901CE
:104610000E947331698380E699E08E199F09B90180
:104620000E9473316A83842F6CE00E94673190E0AE
:104630009C01220F331F280F391F220F331F220F17
:10464000331F40E050E0BA01620F731FFB01EE0F11
:10465000FF1FE60FF71FE152F64F608166FD44C071
:104660004F5F5F4F4C30510571F753C0109280007F
:1046700082E0809381001092850010928400B19AAC
:1046800080916F00826080936F002EC08230910510
:1046900069F41092900082E080939100109295004E
:1046A0001092940088BB809371001EC083309105E6
:1046B00069F41092A00082E08093A1001092A500FE
:1046C0001092A40089BB809372000EC0009761F421
:1046D0001092200182E08093210110922501109216
:1046E00024018ABB80937300888190E0FC01EE0F67
:1046F000FF1FE80FF91FE152F64F8081806480832D
:104700008881DF91CF911F910F91FF90EF90DF9003
:1047100008958130910509F0B9CFA8CF40E252E069
:1047200020E639E00E94DE220895FC01208120333A
:1047300078F54181552747FD509588E890E0841B26
:10474000950B880F991F880F991F6817790784F0B8
:104750004281552747FD509588E592E0841B950BD3
:10476000880F991F880F991F681779070CF4CB01E0
:104770004FB7F89430E0F901EE0FFF1FE20FF31F7F
:10478000E152F64F0297880F991F928381834FBFA2
:104790000895AF92BF92CF92DF92EF92FF920F9364
:1047A0001F93CF93DF93EC0182E0603278070CF027
:1047B00046C077FD04C0653B710524F405C060E088
:1047C00070E002C064EB70E000D00F92882777FDA4
:1047D0008095982F4981552747FD509528E830E06E
:1047E000241B350B220F331F220F331F5901CC24FA
:1047F000B7FCC094DC2C4A81552747FD509528E52D
:1048000032E0241B350B220F331F220F331F4427A6
:1048100037FD4095542FEDB7FEB721833283438394
:10482000548320E030E0A901B4EBEB2EF12C012DF4
:10483000112D0E94112D0F900F900F900F90CE010F
:104840000E949523DF91CF911F910F91FF90EF90E0
:10485000DF90CF90BF90AF900895FC0180818F3F93
:10486000B9F090E0FC01EE0FFF1FE80FF91FE152D5
:10487000F64F2181328193E0220F331F9A95E1F7A1
:1048800084E0369527958A95E1F72E5F3F4F02C069
:1048900020E030E0C9010895AF92BF92CF92DF923D
:1048A000EF92FF920F931F93CF93DF93EC010E943F
:1048B0002D2400D00F92BC016F5F7F4F882777FDBA
:1048C0008095982F4981552747FD509528E830E07D
:1048D000241B350B220F331F220F331F442737FDB4
:1048E0004095542FAA81BB27A7FDB095E8E5F2E0DB
:1048F000EA1BFB0BEE0FFF1FEE0FFF1F5F01CC2427
:10490000B7FCC094DC2CE4EBEE2EF12C012D112D24
:10491000EDB7FEB7E182F28203831483860175014D
:10492000AA24BB2465010E94112D0F900F900F90B7
:104930000F90CB01DF91CF911F910F91FF90EF90DE
:10494000DF90CF90BF90AF9008951092970A84E1C6
:1049500061E00E941D0E85E161E00E941D0EE9EB01
:10496000F0E080818E7F808380818D7F808388E4EA
:104970008093B80085E48093BC000895413288F5A7
:104980009091970A9923E1F791E09093970A9FEF0E
:104990009093960A1092740A942F91509093750AEE
:1049A000880F81608093730A85EE8093BC008091AC
:1049B000970A8130E1F38091740A841710F44091D2
:1049C000740AE6E7FAE0262F372FD901242F30E0CA
:1049D0002E0F3F1F02C081918D93E217F307D9F785
:1049E00001C040E0842F08954132B0F59091970ABC
:1049F0009923E1F792E09093970A9FEF9093960A9C
:104A00001092740A4093750ADB01E6E7FAE050E081
:104A10004E0F5F1F02C09D919193E417F507D9F7E0
:104A200090E0880F991F8093730A85EE8093BC00F5
:104A3000222321F08091970A8230E1F38091960A37
:104A40008F3F61F08091960A803251F08091960AF2
:104A5000803341F483E0089581E0089580E0089573
:104A600082E0089584E008956132A0F42091970ACD
:104A7000243091F46093BC0ADC01EFEBFAE070E0C3
:104A80006E0F7F1F02C08D918193E617F707D9F74C
:104A900080E0089581E0089582E00895882311F070
:104AA00085EC01C085E88093BC00089585ED809376
:104AB000BC008091BC0084FDFCCF1092970A089541
:104AC00085EC8093BC001092970A08951F920F9274
:104AD0000FB60F920BB60F9211242F933F934F9363
:104AE0005F936F937F938F939F93AF93BF93EF9356
:104AF000FF938091B90090E0887F90708036910597
:104B000009F4C2C081369105E4F58832910509F4B3
:104B10007EC089329105C4F48031910509F472C0D8
:104B20008131910544F4009709F413C1883091054F
:104B300009F013C167C08831910509F468C080325B
:104B4000910509F00AC178C08034910509F48AC042
:104B5000813491054CF48033910509F46FC088339A
:104B6000910509F0FAC06EC08035910509F46EC058
:104B70008835910509F47BC08834910509F0EDC0B2
:104B8000EAC08839910509F4DAC089399105ECF455
:104B90008837910509F478C0893791054CF4883637
:104BA000910509F471C08037910509F0D6C06CC039
:104BB0008838910509F4C3C08039910509F46AC0A9
:104BC0008038910509F0C9C065C0803B910509F4A2
:104BD0008EC0813B91054CF4803A910509F46CC07C
:104BE000883A910509F0B9C082C0803C910509F46A
:104BF000AAC0883C910509F4A6C0883B910509F03C
:104C0000ACC08AC08091730A8093BB0013C090919E
:104C1000740A8091750A981708F09DC08091740AF3
:104C2000E82FF0E0EA58F54F90819093BB008F5F3A
:104C30008093740A81E084C080E201C080E38093A5
:104C4000960A89C088E38093960A4EC08091740AC0
:104C50009091BB00E82FF0E0EA58F54F90838F5F0A
:104C60008093740A9091740A8091750A65C080914E
:104C7000740A9091BB00E82FF0E0EA58F54F90835A
:104C80008F5F8093740A67C083E08093970A1092C5
:104C9000980AD0CF8091980A803208F050C0809155
:104CA000980A9091BB00E82FF0E0E756F54F90830B
:104CB0008F5F8093980ABECF8091980A803230F43B
:104CC000E091980AF0E0E756F54F10820E945625D1
:104CD0006091980AE091B90AF091BA0A89E99AE0DC
:104CE00070E019951092980A0E94602536C084E001
:104CF0008093970A1092BB0A1092BC0AE091BD0AF9
:104D0000F091BE0A19958091BC0A882329F481E0AC
:104D10008093BC0A1092BF0A8091BB0AE82FF0E092
:104D2000E154F54F90819093BB008F5F8093BB0A55
:104D30009091BB0A8091BC0A981708F47BCF80E061
:104D40000E944E250AC081E00E944E251092970ACB
:104D500004C01092960A0E945625FF91EF91BF91D0
:104D6000AF919F918F917F916F915F914F913F9103
:104D70002F910F900BBE0F900FBE0F901F901895A4
:104D8000863308F0865390917B00282F2695269530
:104D9000269530E02170307043E0220F331F4A9592
:104DA000E1F7977F922B90937B00877090917D081D
:104DB0009295990F990F907C982B90937C008091FD
:104DC0007A00806480937A0080917A0086FDFCCF1F
:104DD0002091780030917900932F80E030E0282BEB
:104DE000392BC90108951F93CF93DF93182FEB013F
:104DF00061E00E94F90D209709F4C5C0CF3FD105AD
:104E000009F4C4C0E12FF0E0E254FE4FE491E93030
:104E100009F466C0EA30B0F4E430F1F1E53040F472
:104E2000E23059F1E33070F5E13009F0A9C020C05B
:104E3000E73009F443C0E83008F048C0E63009F034
:104E40009FC034C0ED3009F473C0EE3038F4EB305D
:104E500009F45AC0EC3008F061C04CC0E03109F4EC
:104E60007BC0E13109F482C0EF3009F089C06AC02B
:104E700084B5806884BDC7BD8DC084B5806284BDA3
:104E8000C8BD88C080918000806880938000D093E6
:104E90008900C09388007EC08091800080628093EA
:104EA0008000D0938B00C0938A0074C08091B000C2
:104EB00080688093B000C093B3006CC08091B00054
:104EC00080628093B000C093B40064C08091900071
:104ED000806880939000D0939900C09398005AC046
:104EE00080919000806280939000D0939B00C0934B
:104EF0009A0050C080919000886080939000D09379
:104F00009D00C0939C0046C08091A0008068809363
:104F1000A000D093A900C093A8003CC08091A0003D
:104F200080628093A000D093AB00C093AA0032C0EF
:104F30008091A00088608093A000D093AD00C093C2
:104F4000AC0028C080912001806880932001D0931C
:104F50002901C09328011EC08091200180628093A6
:104F60002001D0932B01C0932A0114C0809120010D
:104F7000886080932001D0932D01C0932C010AC03A
:104F8000C038D1051CF4812F60E002C0812F61E0A0
:104F90000E941D0EDF91CF911F910895CF92DF9255
:104FA000EF92FF920F931F93CF93DF93E82EF62E8D
:104FB000C42EC7E0D0E0DD2407E010E08F2D61E0D3
:104FC0000E941D0ECC2071F48E2D0E94550E98016A
:104FD0002C1B3D0BAC0102C0440F551F2A95E2F774
:104FE0009A010AC08E2D0E94550E9C010C2E02C003
:104FF000220F331F0A94E2F7D22A8F2D60E00E941D
:105000001D0E21978FEFCF3FD807C1F68D2DDF9171
:10501000CF911F910F91FF90EF90DF90CF90089567
:10502000CF92DF92EF92FF920F931F93CF93DF9374
:105030006C017B018A01C0E0D0E00FC0D7016D9107
:105040007D01D601ED91FC910190F081E02DC6012A
:105050001995C80FD91F015010400115110571F79E
:10506000CE01DF91CF911F910F91FF90EF90DF90D4
:10507000CF900895DB010D900020E9F7AD0141507C
:105080005040461B570BDC01ED91FC910280F381EF
:10509000E02D199508950E943A280895DC01ED91BC
:1050A000FC910190F081E02D199508950F931F93C5
:1050B000CF93DF93EC016DE00E944E288C01CE016E
:1050C0006AE00E944E28080F191FC801DF91CF9196
:1050D0001F910F9108950F931F93CF93DF93EC01CE
:1050E0000E943A288C01CE010E945628080F191FF1
:1050F000C801DF91CF911F910F9108958F929F92D8
:10510000AF92BF92CF92DF92EF92FF920F931F93D5
:10511000DF93CF93CDB7DEB7A1970FB6F894DEBF7C
:105120000FBECDBF6C01042FE52FCB01122F19A2AA
:10513000223008F41AE021E2E22EF12CEC0EFD1EE2
:10514000812E9924AA24BB2403C0022FE32FCA0175
:10515000602F7E2FA50194010E948631129F802D21
:105160001124081B0894E108F1080A3014F4005DCA
:1051700001C0095CF7010083211531054105510586
:1051800021F7C601B7010E943A28A1960FB6F894FC
:10519000DEBF0FBECDBFCF91DF911F910F91FF906A
:1051A000EF90DF90CF90BF90AF909F908F90089539
:1051B0002115310549F4DC01ED91FC910190F0815C
:1051C000E02D642F199508950E947E2808950F936D
:1051D0001F93CF93DF93EC019A01AB0160E070E085
:1051E0000E94D8288C01CE010E945628080F191F52
:1051F000C801DF91CF911F910F9108950F931F93D5
:10520000CF93DF93EC019A01462F50E060E070E00D
:105210000E94D8288C01CE010E945628080F191F21
:10522000C801DF91CF911F910F910895CF92DF9226
:10523000EF92FF920F931F93CF93DF93EC017A01CC
:105240008B012115310541F4E881F9810190F0814C
:10525000E02D642F19951AC02A303105A9F477FF83
:1052600012C06DE20E944E286C0144275527BA01F6
:105270004E195F09600B710BCE012AE00E947E2857
:10528000C80ED91E04C02AE00E947E286C01C60107
:10529000DF91CF911F910F91FF90EF90DF90CF9012
:1052A00008959A01FB01AF01662757FD6095762F9F
:1052B0000E94162908950F931F93CF93DF93EC015B
:1052C0009A01CB01AC01662757FD6095762FCE0180
:1052D0000E9416298C01CE010E945628080F191F22
:1052E000C801DF91CF911F910F9108953F924F9286
:1052F0005F926F927F928F929F92AF92BF92CF9266
:10530000DF92EF92FF920F931F93DF93CF9300D022
:105310000F92CDB7DEB74B0129833A834B835C8371
:1053200090917E08981721F09F3F09F0BBC204C0FE
:10533000E4E9F2E03490FDC080937E08E4E9F2E015
:105340003490932D9F3F09F4ADC2923009F459C0B7
:10535000933034F4332079F0913009F0EAC02BC057
:10536000A32DA43009F499C0A4300CF470C0A5306A
:1053700009F0DFC0B8C014BC15BC94B5926094BDF0
:1053800095B5916095BD282F30E0F901EE5CFE4F98
:10539000E491F0E0EE0FFF1FE250FF4F4591549172
:1053A0004093E30A5093E40A28583E4FF9012491B0
:1053B0002093E50AC0C01092800010928100909165
:1053C000810098609093810090918100916090930A
:1053D0008100282F30E0F901EE5CFE4FE491F0E00F
:1053E000EE0FFF1FE250FF4F459154914093EA0AA0
:1053F0005093EB0A28583E4FF90124912093EC0A70
:105400009AC01092B0001092B1009091B0009260DA
:105410009093B0009091B10091609093B100282FCB
:1054200030E0F901EE5CFE4FE491F0E0EE0FFF1F7B
:10543000E250FF4F459154914093F10A5093F20A84
:1054400028583E4FF90124912093F30A74C010921A
:10545000900010929100909191009860909391002B
:1054600090919100916090939100282F30E0F90184
:10547000EE5CFE4FE491F0E0EE0FFF1FE250FF4FB5
:10548000459154914093F80A5093F90A28583E4F99
:10549000F90124912093FA0A4EC01092A0001092B4
:1054A000A1009091A10098609093A1009091A1001B
:1054B00091609093A100282F30E0F901EE5CFE4F3F
:1054C000E491F0E0EE0FFF1FE250FF4F4591549141
:1054D0004093FF0A5093000B28583E4FF901249146
:1054E0002093010B28C0109220011092210190916D
:1054F00021019860909321019091210191609093F6
:105500002101282F30E0F901EE5CFE4FE491F0E03C
:10551000EE0FFF1FE250FF4F459154914093060B51
:105520005093070B28583E4FF90124912093080B04
:1055300002C037FCB7C161E00E94F90D332021F0B1
:10554000F32DF23009F0C1C05401CC24DD2460E019
:1055500072E18AE790E0A60195010E94A831290135
:105560003A0179018A010894E108F1080109110959
:105570008FEFE816F1040105110509F008F498C051
:1055800060E472E48FE090E0A60195010E94A831EA
:1055900079018A010894E108F10801091109932DA4
:1055A0009230C9F4AFEFEA16F1040105110509F0D4
:1055B00008F485C060E970ED83E090E0A6019501F4
:1055C0000E94A83179018A010894E108F1080109D3
:1055D000110983E001C082E0BFEFEB16F104010581
:1055E000110509F008F465C068E478EE81E090E008
:1055F000A60195010E94A83179018A010894E10869
:10560000F108010911093320E1F0E32DE230D9F46A
:10561000FFEFEF16F1040105110509F008F451C080
:1056200064E274EF80E090E0A60195010E94A83149
:1056300079018A010894E108F1080109110985E05E
:1056400003C083E001C084E09FEFE916F104010587
:10565000110579F170F162E17AE780E090E0A6014E
:1056600095010E94A83179018A010894E108F108A6
:1056700001091109332011F484E001C086E0AFEF85
:10568000EA16F10401051105A1F098F083017201F9
:105690009AE015950795F794E7949A95D1F70894B1
:1056A000E108F10801091109332031F087E00AC04F
:1056B00081E0332011F006C085E085BD5AC082E04C
:1056C00001C084E08093B10054C05401CC24DD2497
:1056D00060E072E18AE790E0A60195010E94A8319E
:1056E00079018A010894E108F10801091109B0E083
:1056F000EB16B0E0FB06B1E00B07B0E01B0788F04B
:1057000068E478EE81E090E0A60195010E94A8315E
:1057100079018A010894E108F1080109110993E06F
:1057200001C091E0E32DE13039F480918100887F60
:10573000892B809381001DC0F32DF33039F48091C3
:105740009100887F892B8093910013C0832D843032
:1057500039F48091A100887F892B8093A10009C032
:10576000A32DA53031F480912101887F892B80936E
:10577000210189819A81AB81BC810097A105B10586
:1057800091F0880C991CB40180E090E029813A8165
:105790004B815C810E94483128EE33E040E050E0CC
:1057A0000E94863104C02FEF3FEF4FEF5FEF932D44
:1057B000923099F1933034F4332071F0913009F044
:1057C00071C019C0A32DA43009F449C0A430ACF1B4
:1057D000A53009F067C055C0E7BC2093DF0A3093BD
:1057E000E00A4093E10A5093E20A80916E008260E1
:1057F00080936E0057C0F0928900E0928800209359
:10580000E60A3093E70A4093E80A5093E90A809148
:105810006F00826080936F0045C0E092B3002093D8
:10582000ED0A3093EE0A4093EF0A5093F00A80910C
:10583000700082608093700035C0F0929900E09211
:1058400098002093F40A3093F50A4093F60A509397
:10585000F70A8091710082608093710023C0F092FA
:10586000A900E092A8002093FB0A3093FC0A409321
:10587000FD0A5093FE0A809172008260809372004C
:1058800011C0F0922901E09228012093020B30937D
:10589000030B4093040B5093050B809173008260BF
:1058A000809373000F900F900F900F90CF91DF9126
:1058B0001F910F91FF90EF90DF90CF90BF90AF902E
:1058C0009F908F907F906F905F904F903F90089542
:1058D0008230B9F0833028F4882351F0813051F5BB
:1058E0000AC0843011F18430E8F0853019F520C009
:1058F00010926E00089580916F008D7F80936F00ED
:105900000895809170008D7F8093700081E0809376
:10591000B0008091B100887F84608093B1001092C4
:10592000B3000895109271000895109272000895C6
:10593000109273000895CF93C82F80917E088C1722
:1059400039F4E4E9F2E084919FEF90937E0801C07E
:105950008FEF0E94682C8C2F60E00E941D0ECF916B
:1059600008951F920F920FB60F920BB60F9211244B
:105970002F933F934F935F936F937F938F939F9357
:10598000AF93BF93EF93FF938091ED0A9091EE0A4E
:10599000A091EF0AB091F00A0097A105B10551F16D
:1059A000E091F10AF091F20A80819091F30A89273F
:1059B00080838091ED0A9091EE0AA091EF0AB09158
:1059C000F00A181619061A061B06C4F48091ED0A8F
:1059D0009091EE0AA091EF0AB091F00A0197A10907
:1059E000B1098093ED0A9093EE0AA093EF0AB09369
:1059F000F00A04C080917E080E949B2CFF91EF91D9
:105A0000BF91AF919F918F917F916F915F914F91D6
:105A10003F912F910F900BBE0F900FBE0F901F90D4
:105A200018952F923F924F925F926F927F928F9232
:105A30009F92AF92BF92CF92DF92EF92FF920F931D
:105A40001F93DF93CF93CDB7DEB73B014C01190114
:105A50002A016E897F89888D998D6A197B098C0945
:105A60009D09621A730A840A950AA40193010E948F
:105A70004831E218F30804091509A80197010E94AA
:105A8000A8312A0D3B1D4C1D5D1DB901CA01CF91E6
:105A9000DF911F910F91FF90EF90DF90CF90BF901B
:105AA000AF909F908F907F906F905F904F903F90BE
:105AB0002F900895FC0184859585FC01E05CFF4FE3
:105AC000208131818E5B9F4FFC0180819181281B59
:105AD000390B2F733070C9010895FC0184859585B9
