:100000000C9404010C9435010C9435010C943501C9
:100010000C9435010C9435010C9435010C94350188
:100020000C9435010C9435010C9435010C94350178
:100030000C9435010C9435010C9435010C94350168
:100040000C9435010C94370A0C9435010C9435014D
:100050000C9435010C9435010C9435010C94460137
:100060000C9435010C9433100C94E3100C9435016E
:100070000C9435010C9435010C9435010C94350128
:100080000C94650A0C9435010C9435010C943501DF
:100090000C945F100C942E110C9435010C943501C6
:1000A0000C9435010C9435010C94930A0C94350191
:1000B0000C9435010C9435010C9435010C94C10A53
:1000C0000C9435010C9435010C9435010C948B1073
:1000D0000C9479110C9435010C94B7100C94C41144
:1000E0000C94350100002100240027002A002D0077
:1000F0003000330001010000040107010A01000083
:100100002200250028002B002E00310034000201BF
:100110000000050108010B0100002000230026005B
:1001200029002C002F00320000010000030106010D
:10013000090105050505070508080808020202026D
:100140000A0A080804040404010101010101010173
:100150000303030303030303040707070C0C0C0C3E
:100160000C0C0C0C02020202060606060606060627
:100170000B0B0B0B0B0B0B0B0102102020080810B4
:100180002040102040800201020108040201010207
:1001900004081020408080402010080402018004E0
:1001A000020180402010080402010804020101023B
:1001B0000408102040800102040810204080000044
:1001C000090A02080B0C0D070603040100000000D9
:1001D000000000000000000000000000000000001F
:1001E0000000000000000000000011100F000000DF
:1001F00000000000000000000000000000000000FF
:100200000000000068098D1211241FBECFEFD1E25B
:10021000DEBFCDBF00E00CBF16E0A0E0B2E0E8E238
:10022000FBE200E00BBF02C007900D92AE34B107B5
:10023000D9F719E0AEE4B6E001C01D92AF39B107BD
:10024000E1F712E0C8E0D2E000E006C02297010921
:10025000FE010BBF0E94F813C430D10780E00807ED
:10026000A9F70E9437010C9492150C9400000E948B
:10027000DB010E94B8030E94FB050E94930680E008
:1002800090E00E943E080E948102FDCF1F920F92D3
:100290000FB60F9211242F933F938F939F93AF9399
:1002A000BF938091520690915306A0915406B0914D
:1002B0005506309156060196A11DB11D232F2D5FC5
:1002C0002D3720F02D570196A11DB11D2093560604
:1002D0008093520690935306A0935406B09355060C
:1002E00080914E0690914F06A0915006B091510614
:1002F0000196A11DB11D80934E0690934F06A093C9
:100300005006B0935106BF91AF919F918F913F914D
:100310002F910F900FBE0F901F9018959FB7F894D4
:1003200020914E0630914F06409150065091510653
:1003300086B5A89B06C08F3F21F02F5F3F4F4F4FE0
:100340005F4F9FBF542F432F322F2227280F311D7D
:10035000411D511D82E0220F331F441F551F8A95F6
:10036000D1F7B901CA010895EF92FF920F931F933D
:10037000CF93DF937B018C010E948E01EB010FC0B4
:100380000E948E016C1B7D0B83E0683E780738F07D
:100390000894E108F10801091109C851DC4FE11482
:1003A000F1040105110561F7DF91CF911F910F91C4
:1003B000FF90EF900895789484B5826084BD84B5F1
:1003C000816084BD85B5826085BD85B5816085BD50
:1003D000EEE6F0E0808181608083E1E8F0E0108269
:1003E000808182608083808181608083E0E8F0E0AA
:1003F000808181608083E1EBF0E080818460808394
:10040000E0EBF0E0808181608083E1E9F0E08081D1
:1004100082608083808181608083E0E9F0E0808178
:1004200081608083E1EAF0E0808182608083808166
:1004300081608083E0EAF0E0808181608083E1E296
:10044000F1E0808182608083808181608083E0E24E
:10045000F1E0808181608083EAE7F0E08081846060
:1004600080838081826080838081816080838081BD
:10047000806880831092C100089581E090E066E07A
:1004800070E00E94FC13FC0190935806809357067D
:100490001582148208950F931F93DF93CF93CDB7E6
:1004A000DEB72A970FB6F894DEBF0FBECDBF8E0120
:1004B0000F5F1F4F11C0C8010E948E0399818A816E
:1004C0002B813C81ED81FE81913019F4F901199560
:1004D00003C0923009F4199560915706709158063F
:1004E000FB0184819581181619062CF32A960FB604
:1004F000F894DEBF0FBECDBFCF91DF911F910F915A
:1005000008950E943D020E9463050E944B02FBCFAA
:10051000AF92BF92CF92DF92EF92FF920F931F9311
:10052000DF93CF93CDB7DEB72A970FB6F894DEBF2F
:100530000FBECDBFC02E0983D12E1A83E22E2B838E
:10054000F32E3C834D835E836F83788789879A87F8
:10055000A0905706B09058068601970175010E9439
:10056000C2022A960FB6F894DEBF0FBECDBFCF9160
:10057000DF911F910F91FF90EF90DF90CF90BF9090
:10058000AF900895EF92FF920F931F93DF93CF9355
:10059000CDB7DEB72A970FB6F894DEBF0FBECDBF3A
:1005A00009831A832B833C834D835E836F83788713
:1005B00089879A870F81188581E090E06EE070E06E
:1005C0000E94FC13FC01009709F49BC0AE014F5F31
:1005D0005F4F2AE0DA010D90AD01DC010D92CD01F3
:1005E0002150C1F717830683D70114968D919C91F2
:1005F00015978230910594F18D919C911197AC01E2
:1006000029C0DA0116962D913C91179720173107D2
:10061000E0F4538742871C962D913C911D973587B6
:1006200024878417950729F4D701ED93FC93DC0107
:100630003EC0DA011C968D919C911D97DC011B96A2
:10064000FC93EE931A97DA0132C0DA011A964D91B3
:100650005C911B9741155105A1F63FC08130910572
:1006600059F5D7012D913C91D90116968D919C9108
:1006700017978017910778F013861286358724879D
:10068000D7011396FC93EE931297D9011B96FC9316
:10069000EE931A971BC01586148633872287D701DD
:1006A00013963C932E931297ED93FC93D9011D96CC
:1006B000FC93EE931C970AC0009741F4D701119662
:1006C000FC93EE931386128615861486F7018481B7
:1006D000958101969583848314C013861286D70171
:1006E00012968D919C91139795878487DC011B96B8
:1006F000FC93EE931A97D7011396FC93EE931297FF
:10070000E5CF2A960FB6F894DEBF0FBECDBFCF91CE
:10071000DF911F910F91FF90EF9008950F931F931A
:10072000CF93DF938C01FB01A081B181982F292FFA
:10073000312FAD018AE0EA010990AE01E901099289
:100740009E018150C1F7248135812150304035838D
:1007500024831A968D919C911B9791838083CD0160
:100760000E94BB14C801DF91CF911F910F91089592
:100770000E94A0050E94F6050895CF93DF93EC0137
:100780008AE090E00E942114009719F486E892E034
:1007900052C0CE010E948605823019F1833030F4B8
:1007A000882359F0813009F044C011C0843069F1C8
:1007B000843008F18530E9F532C080E090E00E9495
:1007C0003E088CE992E00E94DA0580E037C081E0C3
:1007D00090E00E943E0886EA92E00E94DA0581E0FD
:1007E0002DC082E090E00E943E0881EB92E00E94E2
:1007F000DA0582E023C083E090E00E943E088DEBA2
:1008000092E00E94DA0583E019C084E090E00E9443
:100810003E0889EC92E00E94DA0584E00FC085E092
:1008200090E00E943E0884ED92E00E94DA0585E0A7
:1008300005C08BED92E00E94DA058FEFDF91CF913A
:100840000895EF92FF920F931F93CF93DF938C0144
:100850008AE090E00E942114E82EE7017E01F92E43
:10086000E701209719F486E892E064C0C8010E946D
:100870007B058130910509F043C0C8010E948A05BB
:10088000882319F08130C9F51BC089EA96E0282F2A
:100890009B838A8381E088838EE190E0682F9F8329
:1008A0008E831986188601E019813B814C815D8118
:1008B0007F8180E099850E9488028CEE92E02AC0B8
:1008C0004CE956E0242F5B834A8388838EE190E0D5
:1008D000682F9F838E831986188601E019813B81DA
:1008E0004C815D817F8180E099850E9488028AE049
:1008F00093E00E94DA0581E020C087E293E01AC00D
:10090000C8010E948A05882319F0873069F406C05F
:1009100085E493E00E94DA0580E00FC085E693E06D
:100920000E94DA0587E009C086E893E00E94DA05B4
:1009300083EB93E00E94DA058FEFDF91CF911F9157
:100940000F91FF90EF900895EF92FF920F931F93F6
:10095000CF93DF938C018AE090E00E942114E82E6F
:10096000E7017E01F92EE701209719F486E892E06D
:100970006CC0C8010E947B058130910509F043C01D
:10098000C8010E948A05882319F08130C9F51BC06F
:1009900080E096E0282F9B838A8381E088838EE124
:1009A00090E0682F9F838E831986188601E0198155
:1009B0003B814C815D817F8180E099850E94880226
:1009C00082ED93E032C04BE156E0242F5B834A83F3
:1009D00088838EE190E0682F9F838E831986188626
:1009E00001E019813B814C815D817F8180E09985A7
:1009F0000E9488028DEF93E00E94DA0581E028C012
:100A000088E294E022C0C8010E948A05882319F078
:100A10008730A9F40EC080E090E00E94320680E0AA
:100A200090E00E943E0885E494E00E94DA0580E0B0
:100A30000FC084E694E00E94DA0587E009C084E8EC
:100A400094E00E94DA0580EB94E00E94DA058FEFD3
:100A5000DF91CF911F910F91FF90EF900895CF9369
:100A6000DF93EC010E949D058F3FD1F0813051F062
:100A7000813018F0823081F40AC0CE010E94A404B3
:100A800080E00FC0CE010E94210481E00AC0CE01A7
:100A90000E94BD0382E005C08FEC94E00E94DA055D
:100AA0008FEFDF91CF910895CF93DF93EC010E94F8
:100AB000BE0588838E3F18F4CE010E942F058881E1
:100AC000DF91CF9108950F931F93DF93CF930F92F0
:100AD000CDB7DEB78FEF89838E010F5F1F4FC8013F
:100AE0000E94540589818F3FD1F70F90CF91DF91FC
:100AF0001F910F910895FC01808190E088709070A3
:100B000023E0959587952A95E1F70895FC0180816A
:100B100087700895FC01808187700895FC018081B1
:100B200082958F7090E08630910528F4895C994F0A
:100B3000FC01808108958FEF08950E948E0508952D
:100B400089E199E040E855E260E070E00E940F1210
:100B500088E399E040E855E260E070E00E940F12FF
:100B600089E060E00E941F0E0895FC0189E199E090
:100B700060814AE050E00E942A0F0895DF93CF93EE
:100B80000F92CDB7DEB788E399E00E947B0F18166D
:100B900019065CF488E399E00E94AA0F8983CE01CC
:100BA00001960E94B505898101C08FEF0F90CF910A
:100BB000DF910895EF92FF92CF93DF93E82EE70144
:100BC0007E01F92EE70104C089E199E00E94B90E87
:100BD00069916623C9F789E199E06CEF74E00E949E
:100BE000B60EDF91CF91FF90EF9008958EEF94E0D5
:100BF0000E94DA0508950E94630680E090E008955F
:100C0000EF92FF92CF93DF930E946F068837910592
:100C10003CF088E790E00E947406C8E7D0E005C089
:100C2000EC012696CE010E947406CE01DF91CF9191
:100C3000FF90EF900895EF92FF92CF93DF930E9481
:100C40006F06EC01873091051CF486E090E002C04D
:100C50002697CE010E947406CE01DF91CF91FF90BE
:100C6000EF900895EF92FF92CF93DF93EC018937D5
:100C7000910528F00E948D06CFEFDFEF02C00E94A1
:100C80007406CE01DF91CF91FF90EF90089580918F
:100C90005906813029F0813018F0823089F404C07F
:100CA0008BE064E670E00AC060915A0670915B06C2
:100CB0006A3771052CF46C577F4F8BE00E94D00C83
:100CC0008091590608958BE061E00E941F0E81E03B
:100CD000809359060E94470680E090E00895809135
:100CE0005A0690915B0608958B3791051CF08AE7B0
:100CF00090E009C01816190634F010925B061092A5
:100D00005A0681E005C090935B0680935A0682E004
:100D1000809359060E944706089581E08093590602
:100D20000E94470608958AE090E067E070E00E9424
:100D3000740780E090E008958AE397E06AE070E04D
:100D400047E050E02AE030E00E94BD0680E090E0FD
:100D5000089587E597E06AE070E047E050E02AE018
:100D600030E00E94BD0680E090E00895FC01CB01D8
:100D7000BA01199580E090E00895FC01CB01BA0119
:100D8000A901199580E090E0089540915C0650918A
:100D90005D060E949A0780E090E00895CF93DF936C
:100DA000EB012EEF30E030935D0620935C064EEFB2
:100DB00050E00E94C506CE010E94120880E090E03B
:100DC000DF91CF910895CF93DF93EB012BE930E0D2
:100DD00030935D0620935C064BE950E00E94C50607
:100DE000CE010E94070880E090E0DF91CF91089546
:100DF00024E630E030935D0620935C0644E650E044
:100E00000E94C50668EE73E080E090E00E94B401A5
:100E100080E090E00895CF93DF93EB0120915C0692
:100E200030915D062436310514F40E94F806CE0197
:100E30000E94FC0780E090E0DF91CF9108950F932E
:100E40001F93CF93DF93EC018B0150935D0640938A
:100E50005C060E94A80740915C0650915D06CE0199
:100E6000B8010E94C50680E090E0DF91CF911F910C
:100E70000F9108950F931F93CF93DF93EC018B0194
:100E80009A0140915C0650915D060E94E807AC0112
:100E900090935D0680935C06CE01B8010E941F0707
:100EA00080E090E0DF91CF911F910F9108950F9313
:100EB0001F93CF93DF93EC018B019A0140915C0665
:100EC00050915D060E94CA07AC0190935D06809325
:100ED0005C06CE01B8010E941F0780E090E0DF9120
:100EE000CF911F910F9108950F931F93DF93CF938D
:100EF0000F920F92CDB7DEB7182F092FAB01862FB7
:100F000061E049835A830E941F0E812F61E00E9495
:100F10001F0E8BE097E0612F702F49815A810E944C
:100F2000B60680E090E00F900F90CF91DF911F9177
:100F30000F910895CF93DF93EB01BA010E94D00C7B
:100F4000CE010E941D0880E090E0DF91CF910895CE
:100F50000F931F93CF93DF938C01EB014B39510516
:100F600044F4CB010E942808C801BE010E94E30698
:100F70000AC04F3F51053CF0CB010E943308C80125
:100F8000BE010E94CE0680E090E0DF91CF911F91DC
:100F90000F910895EF92FF920F931F93CF93DF93DA
:100FA0007C018B01EA014F3F510544F0CB010E94C7
:100FB0003308C701B8010E94CE0602C0C20FD31F7A
:100FC000CE01DF91CF911F910F91FF90EF90089587
:100FD000EF92FF92CF93DF93CB01EA014B3951059A
:100FE0001CF40E94280802C0C21BD30BCE01DF9163
:100FF000CF91FF90EF9008950F931F938C0185E19F
:1010000095E00E945B15C8011F910F9108950F9301
:101010001F938C0181E495E00E945B15C8011F912C
:101020000F9108950F931F938C0189E595E00E941D
:101030005B15C8011F910F9108950F931F938C01A9
:1010400080E795E00E945B15C8011F910F910895FC
:101050000F931F938C0185E895E00E945B15C801F2
:101060001F910F9108950F931F938C0185E995E0CF
:101070000E945B15C8011F910F9108950F931F9354
:10108000CF93DF938C010E945108EC01B8010E94BC
:101090005709CE010E945608DF91CF911F910F9101
:1010A000089581E090E00E94631308950E94661302
:1010B00008950F931F93CF93DF93CEE5D6E0CE0133
:1010C00062E070E00E94B90B01E616E0C80163E03F
:1010D00070E00E94B90BCE016FE570E00E94F40B46
:1010E000C8016EE670E00E94F40B80E090E0DF91B2
:1010F000CF911F910F9108958EE596E06EE170E01B
:101100000E94F40B81E696E06DE270E00E94F40B21
:1011100082E090E008958EE596E066E970E00E9436
:10112000F40B81E696E065EA70E00E94F40B83E040
:1011300090E00895CF93DF93CEE5D6E0CE010E94F4
:10114000770CBC01CE010E94F40BC1E6D6E0CE01C3
:101150000E94770CBC01CE010E94F40B84E090E069
:10116000DF91CF9108958EE596E06FE570E00E94E3
:10117000F40B81E696E06EE670E00E94F40B85E0E9
:1011800090E008958EE596E064EB70E00E94F40B29
:1011900081E696E06FE070E00E94F40B86E090E05C
:1011A00008950F931F93CF93DF938EE596E00E94EF
:1011B000770C8C01EC012F96863991057CF48EE535
:1011C00096E0BE010E94F40BB801625E7F4F81E69B
:1011D00096E00E94F40B27E030E00CC08EE596E02C
:1011E000B8010E94F40B81E696E0BE010E94F40B68
:1011F00028E030E0C901DF91CF911F910F91089550
:10120000CF93DF938EE596E00E94770CEC018F314F
:1012100091057CF0BC016F5070408EE596E00E9415
:10122000F40B81E696E0BE010E94F40B29E030E069
:101230000CC08EE596E0BE010E94F40B81E696E0BC
:10124000BE010E94F40B2AE030E0C901DF91CF918A
:10125000089562307105D1F0633071053CF4611579
:10126000710571F061307105E9F40DC064307105EC
:1012700099F0643071056CF06530710599F40FC018
:101280000E94B30811C00E948B080EC00E947C0807
:101290000BC00E94000908C00E94D10805C00E942E
:1012A000C20802C00E949A088BE090E008950F9354
:1012B0001F93CF93DF938C01EB010E945908C80163
:1012C000BE010E942909DF91CF911F910F910895CE
:1012D0008EE596E00E94EF0A81E696E00E94EF0A12
:1012E0000895EF92FF920F931F93CF93DF93EB013B
:1012F0007A018C01DC01AB50B94F8C9187FF03C0A0
:101300001982188237C0C801880F991F800F911F5A
:10131000880F991F880F991F2C91332727FD30952F
:10132000280F391F4091640650E02417350714F543
:101330002C91332727FD3095280F391FF901EE0F27
:10134000FF1FE20FF31FEB59F94F208126FF12C058
:101350002C91332727FD3095280F391FF901EE0F07
:10136000FF1FE20FF31FEB59F94F80818F7360E08D
:101370000E94430EF801EB50F94F80818F5F80830C
:10138000C801880F991F800F911F880F991F880F20
:10139000991F2081332727FD3095280F391F409151
:1013A000640650E0241735070CF053C020812C3020
:1013B0000CF04FC0488159812081332727FD30959B
:1013C000280F391FD901AA0FBB1FA20FB31FAB599A
:1013D000B94F11962D913C911297420F531FD7018F
:1013E00011965C934E932081332727FD3095280F6B
:1013F000391FD901AA0FBB1FA20FB31FAB59B94F99
:101400002C9126FF2DC02081332727FD3095280FF2
:10141000391FF901EE0FFF1FE20FF31FEB59F94FD0
:1014200080818F7361E00E94430E1AC080E49CE9C2
:10143000F7019183808307C0888199810496D70141
:1014400011969C938E93F801EB50F94F8FEF8083A8
:1014500007C088819981BCE984349B0738F3ECCFBD
:10146000DF91CF911F910F91FF90EF9008951F9200
:101470000F920FB60F920BB60F9211242F933F933A
:101480004F935F936F937F938F939F93AF93BF938C
:10149000EF93FF9381E090E064E870E048E850E06B
:1014A0000E947109FF91EF91BF91AF919F918F9130
:1014B0007F916F915F914F913F912F910F900BBE54
:1014C0000F900FBE0F901F9018951F920F920FB69E
:1014D0000F920BB60F9211242F933F934F935F936C
:1014E0006F937F938F939F93AF93BF93EF93FF93EC
:1014F00082E090E064E970E048E950E00E94710900
:10150000FF91EF91BF91AF919F918F917F916F91DB
:101510005F914F913F912F910F900BBE0F900FBE97
:101520000F901F9018951F920F920FB60F920BB647
:101530000F9211242F933F934F935F936F937F9359
:101540008F939F93AF93BF93EF93FF9383E090E0CC
:1015500064EA70E048EA50E00E947109FF91EF915F
:10156000BF91AF919F918F917F916F915F914F91BB
:101570003F912F910F900BBE0F900FBE0F901F90B9
:1015800018951F920F920FB60F920BB60F9211245F
:101590002F933F934F935F936F937F938F939F937B
:1015A000AF93BF93EF93FF9380E090E064E271E02C
:1015B00048E251E00E947109FF91EF91BF91AF9114
:1015C0009F918F917F916F915F914F913F912F915B
:1015D0000F900BBE0F900FBE0F901F901895FC013F
:1015E00080916406803390F480838F5F80936406DB
:1015F000808190E0FC01EE0FFF1FE80FF91FEB590F
:10160000F94F88EB9BE09283818308958FEF80836D
:101610000895DF92EF92FF920F931F93CF93DF9382
:10162000EC01D62E8A0179018881803308F093C0BD
:10163000862F61E00E941F0E4881842F90E0FC01FC
:10164000EE0FFF1FE80FF91FEB59F94F9D2D9F7308
:101650008081807C892B808380E292E0801B910BCB
:1016600024E030E0B9010E949413698380E699E098
:101670008E199F09B9010E9494136A83842F6CE02C
:101680000E94881390E09C01220F331F280F391FFE
:10169000220F331F220F331F40E050E0BA01620FC8
:1016A000731FFB01EE0FFF1FE60FF71FEB59F94FFA
:1016B000608166FD44C04F5F5F4F4C30510571F74C
:1016C00053C01092800082E08093810010928500C8
:1016D00010928400B19A80916F00826080936F00B5
:1016E0002EC08230910569F41092900082E08093C0
:1016F0009100109295001092940088BB8093710025
:101700001EC08330910569F41092A00082E080939E
:10171000A1001092A5001092A40089BB80937200D2
:101720000EC0009761F41092200182E080932101A5
:1017300010922501109224018ABB80937300888146
:1017400090E0FC01EE0FFF1FE80FF91FEB59F94F76
:101750008081806480838881DF91CF911F910F9178
:10176000FF90EF90DF9008958130910509F0B9CF97
:10177000A8CF40E252E020E639E00E94090B08952C
:10178000FC012081203378F54181552747FD509594
:1017900088E890E0841B950B880F991F880F991F8C
:1017A0006817790784F04281552747FD509588E5F1
:1017B00092E0841B950B880F991F880F991F68175B
:1017C00079070CF4CB014FB7F89430E0F901EE0F34
:1017D000FF1FE20FF31FEB59F94F0297880F991F74
:1017E000928381834FBF0895AF92BF92CF92DF92D1
:1017F000EF92FF920F931F93CF93DF93EC0182E060
:10180000603278070CF046C077FD04C0653B710577
:1018100024F405C060E070E002C064EB70E000D02A
:101820000F92882777FD8095982F4981552747FD8E
:10183000509528E830E0241B350B220F331F220F70
:10184000331F5901CC24B7FCC094DC2C4A815527A6
:1018500047FD509528E532E0241B350B220F331F3E
:10186000220F331F442737FD4095542FEDB7FEB7A5
:10187000218332834383548320E030E0A901B4EB19
:10188000EB2EF12C012D112D0E94320F0F900F9095
:101890000F900F90CE010E94C00BDF91CF911F914E
:1018A0000F91FF90EF90DF90CF90BF90AF90089591
:1018B000FC0180818F3FB9F090E0FC01EE0FFF1F2B
:1018C000E80FF91FEB59F94F2181328193E0220F84
:1018D000331F9A95E1F784E0369527958A95E1F7CD
:1018E0002E5F3F4F02C020E030E0C9010895AF9263
:1018F000BF92CF92DF92EF92FF920F931F93CF93FD
:10190000DF93EC010E94580C00D00F92BC016F5F76
:101910007F4F882777FD8095982F4981552747FD70
:10192000509528E830E0241B350B220F331F220F7F
:10193000331F442737FD4095542FAA81BB27A7FDAD
:10194000B095E8E5F2E0EA1BFB0BEE0FFF1FEE0F90
:10195000FF1F5F01CC24B7FCC094DC2CE4EBEE2E1F
:10196000F12C012D112DEDB7FEB7E182F282038338
:10197000148386017501AA24BB2465010E94320FDD
:101980000F900F900F900F90CB01DF91CF911F918F
:101990000F91FF90EF90DF90CF90BF90AF900895A0
:1019A0001F93CF93DF93182FEB0161E00E941F0E6E
:1019B000209709F4C5C0CF3FD10509F4C4C0E12F79
:1019C000F0E0E254FE4FE491E93009F466C0EA30F9
:1019D000B0F4E430F1F1E53040F4E23059F1E330B5
:1019E00070F5E13009F0A9C020C0E73009F443C028
:1019F000E83008F048C0E63009F09FC034C0ED3050
:101A000009F473C0EE3038F4EB3009F45AC0EC300E
:101A100008F061C04CC0E03109F47BC0E13109F449
:101A200082C0EF3009F089C06AC084B5806884BD87
:101A3000C7BD8DC084B5806284BDC8BD88C080919B
:101A40008000806880938000D0938900C0938800D4
:101A50007EC080918000806280938000D0938B0054
:101A6000C0938A0074C08091B00080688093B000F9
:101A7000C093B3006CC08091B00080628093B000CE
:101A8000C093B40064C080919000806880939000FF
:101A9000D0939900C09398005AC0809190008062C2
:101AA00080939000D0939B00C0939A0050C0809187
:101AB0009000886080939000D0939D00C0939C001C
:101AC00046C08091A00080688093A000D093A900B8
:101AD000C093A8003CC08091A00080628093A000C9
:101AE000D093AB00C093AA0032C08091A000886060
:101AF0008093A000D093AD00C093AC0028C080912B
:101B00002001806880932001D0932901C09328018F
:101B10001EC080912001806280932001D0932B0110
:101B2000C0932A0114C08091200188608093200115
:101B3000D0932D01C0932C010AC0C038D1051CF4EC
:101B4000812F60E002C0812F61E00E94430EDF918F
:101B5000CF911F910895893009F449C08A30A0F4CB
:101B6000843051F1853040F4823079F1833000F5D2
:101B7000813009F063C026C0873079F1883098F54C
:101B8000863009F05BC025C08D3009F442C08E302C
:101B900028F48B30B1F18C30C0F52DC0803109F4C0
:101BA00042C0813109F445C08F3009F047C037C0C9
:101BB000809180008F7703C0809180008F7D80931B
:101BC0008000089584B58F7702C084B58F7D84BD71
:101BD00008958091B0008F7703C08091B0008F7D11
:101BE0008093B0000895809190008F7707C0809116
:101BF00090008F7D03C080919000877F809390003C
:101C000008958091A0008F7707C08091A0008F7DFC
:101C100003C08091A000877F8093A00008958091E9
:101C200020018F7703C0809120018F7D8093200158
:101C3000089580912001877F80932001089590E08E
:101C4000FC01E858FE4F2491FC01EE5CFE4FE4914C
:101C5000EE23C1F0F0E0EE0FFF1FEC51FF4F859136
:101C60009491DC01662341F49FB7F8948C91209500
:101C700082238C939FBF08959FB7F8948C91822BF9
:101C80008C939FBF08950F931F93DF93CF930F9271
:101C9000CDB7DEB7282F30E0F901E254FE4F849132
:101CA000F901E858FE4F14912E5C3E4FF901049162
:101CB0000023D9F0882321F069830E94AB0D69814C
:101CC000E02FF0E0EE0FFF1FE250FF4F859194915F
:101CD000DC019FB7F894662321F48C911095812341
:101CE00002C08C91812B8C939FBF0F90CF91DF917D
:101CF0001F910F910895CF92DF92EF92FF920F9371
:101D00001F93CF93DF936C017B018A01C0E0D0E089
:101D10000FC0D7016D917D01D601ED91FC9101902D
:101D2000F081E02DC6011995C80FD91F0150104050
:101D30000115110571F7CE01DF91CF911F910F9120
:101D4000FF90EF90DF90CF900895DB010D90002081
:101D5000E9F7AD0141505040461B570BDC01ED91B6
:101D6000FC910280F381E02D199508950E94A50E43
:101D70000895DC01ED91FC910190F081E02D199521
:101D800008958F929F92AF92BF92CF92DF92EF927F
:101D9000FF920F931F93DF93CF93CDB7DEB7A19739
:101DA0000FB6F894DEBF0FBECDBF6C01042FE52F38
:101DB000CB01122F19A2223008F41AE021E2E22E00
:101DC000F12CEC0EFD1E812E9924AA24BB2403C005
:101DD000022FE32FCA01602F7E2FA50194010E94DC
:101DE000A713129F802D1124081B0894E108F10805
:101DF0000A3014F4005D01C0095CF701008321156D
:101E000031054105510521F7C601B7010E94A50E14
:101E1000A1960FB6F894DEBF0FBECDBFCF91DF9174
:101E20001F910F91FF90EF90DF90CF90BF90AF90F8
:101E30009F908F9008952115310549F4DC01ED91B3
:101E4000FC910190F081E02D642F199508950E9476
:101E5000C10E08959A01462F50E060E070E00E94A4
:101E60001B0F08952F923F924F925F926F927F9235
:101E70008F929F92AF92BF92CF92DF92EF92FF929A
:101E80000F931F93DF93CF93CDB7DEB73B014C0188
:101E900019012A016E897F89888D998D6A197B09BC
:101EA0008C099D09621A730A840A950AA401930198
:101EB0000E946913E218F30804091509A8019701A3
:101EC0000E94C9132A0D3B1D4C1D5D1DB901CA019D
:101ED000CF91DF911F910F91FF90EF90DF90CF9006
:101EE000BF90AF909F908F907F906F905F904F903A
:101EF0003F902F900895FC0184859585FC01E05C5E
:101F0000FF4F208131818E5B9F4FFC018081918149
:101F1000281B390B2F733070C9010895FC0184858B
:101F20009585FC01E05CFF4F40815181FC01EE5B37
:101F3000FF4F208131814217530741F00190F0811A
:101F4000E02DE80FF91F208130E002C02FEF3FEFB6
:101F5000C9010895FC0184859585FC01E05CFF4F73
:101F600040815181FC01EE5BFF4F2081318142179E
:101F7000530771F0A081B181A80FB91F2C91808106
:101F8000918101968F7390709183808330E002C0BD
:101F90002FEF3FEFC9010895DC011E968D919C91B2
:101FA0001F97FC01E05CFF4F8E5B9F4F408151818A
:101FB000DC012D913C91119742175307B9F7089511
:101FC000CF93FC01C62F26853785D901A05CBF4F72
:101FD0008D919C91019660E470E00E949413D90168
:101FE000AE5BBF4F4D915C91119784179507D1F36C
:101FF000D901A05CBF4F0D90BC91A02DA20FB31FC3
:10200000CC93A685B785A05CBF4F11969C938E9309
:10201000A689B7892C9181E090E0058C02C0880FD9
:10202000991F0A94E2F7282B2C9381E090E0CF913E
:102030000895FB01E05CFF4F208131812F5F3F4F0E
:102040002F733070DB01AE5BBF4F4D915C911197E8
:102050002417350739F0A081B181A60FB71F8C93E3
:102060003183208308951F920F920FB60F920BB603
:102070000F9211242F933F934F935F936F937F930E
:102080008F939F93AF93BF93EF93FF938091C6007D
:1020900069EF76E00E941910FF91EF91BF91AF9127
:1020A0009F918F917F916F915F914F913F912F9170
:1020B0000F900BBE0F900FBE0F901F9018951F92A0
:1020C0000F920FB60F920BB60F9211242F933F93DE
:1020D0004F935F936F937F938F939F93AF93BF9330
:1020E000EF93FF938091CE0061E877E00E94191092
:1020F000FF91EF91BF91AF919F918F917F916F91E0
:102100005F914F913F912F910F900BBE0F900FBE9B
:102110000F901F9018951F920F920FB60F920BB64B
:102120000F9211242F933F934F935F936F937F935D
:102130008F939F93AF93BF93EF93FF938091D600BC
:1021400069E078E00E941910FF91EF91BF91AF9183
:102150009F918F917F916F915F914F913F912F91BF
:102160000F900BBE0F900FBE0F901F9018951F92EF
:102170000F920FB60F920BB60F9211242F933F932D
:102180004F935F936F937F938F939F93AF93BF937F
:10219000EF93FF938091360161E978E00E94191076
:1021A000FF91EF91BF91AF919F918F917F916F912F
:1021B0005F914F913F912F910F900BBE0F900FBEEB
:1021C0000F901F9018951F920F920FB60F920BB69B
:1021D0000F9211242F933F935F936F937F938F936D
:1021E0009F93AF93BF93EF93FF9320917D0730911F
:1021F0007E0780917F07909180072817390731F477
:102200008091C1008F7D8093C10016C0E0917F074F
:10221000F0918007E35CF84F208180917F079091D7
:102220008007019660E470E00E9494139093800709
:1022300080937F072093C600FF91EF91BF91AF91EC
:102240009F918F917F916F915F913F912F910F900F
:102250000BBE0F900FBE0F901F9018951F920F92FC
:102260000FB60F920BB60F9211242F933F935F93EB
:102270006F937F938F939F93AF93BF93EF93FF934E
:102280002091050830910608809107089091080870
:102290002817390731F48091C9008F7D8093C900D8
:1022A00016C0E0910708F0910808EB53F84F208121
:1022B0008091070890910808019660E470E00E9400
:1022C000941390930808809307082093CE00FF9101
:1022D000EF91BF91AF919F918F917F916F915F919E
:1022E0003F912F910F900BBE0F900FBE0F901F903C
:1022F00018951F920F920FB60F920BB60F921124E2
:102300002F933F935F936F937F938F939F93AF939D
:10231000BF93EF93FF9320918D0830918E088091A9
:102320008F08909190082817390731F48091D100D7
:102330008F7D8093D10016C0E0918F08F0919008B6
:10234000E35BF74F208180918F0890919008019670
:1023500060E470E00E9494139093900880938F083B
:102360002093D600FF91EF91BF91AF919F918F91F4
:102370007F916F915F913F912F910F900BBE0F90C6
:102380000FBE0F901F9018951F920F920FB60F92CD
:102390000BB60F9211242F933F935F936F937F930C
:1023A0008F939F93AF93BF93EF93FF932091150962
:1023B000309116098091170990911809281739074B
:1023C00031F4809131018F7D8093310116C0E0910D
:1023D0001709F0911809EB52F74F208180911709E6
:1023E00090911809019660E470E00E949413909314
:1023F00018098093170920933601FF91EF91BF913F
:10240000AF919F918F917F916F915F913F912F91AC
:102410000F900BBE0F900FBE0F901F901895DF927C
:10242000EF92FF920F931F93CF93DF93EC017A010A
:102430008B01DD24D394403081EE580780E068079B
:1024400080E0780749F4DD24EC89FD89108260E89A
:1024500074E88EE190E00FC0EC89FD8981E090E0A6
:102460000E8C02C0880F991F0A94E2F7808360E007
:1024700079E08DE390E0A80197010E94A713215015
:10248000304040405040569547953795279580E11C
:102490002030380710F0DD20B1F6E889F989308363
:1024A000EA89FB892083EE89FF89408181E090E001
:1024B0009C010A8C02C0220F331F0A94E2F7422BC0
:1024C0004083EE89FF8940819C010B8C02C0220F62
:1024D000331F0A94E2F7422B4083EE89FF89408143
:1024E0009C010C8C02C0220F331F0A94E2F7422B8E
:1024F0004083EE89FF8920810D8C02C0880F991FCF
:102500000A94E2F7809582238083DF91CF911F9117
:102510000F91FF90EF90DF9008950F931F93CF934B
:1025200010921C0910921B0988EE93E0A0E0B0E025
:1025300080931D0990931E09A0931F09B093200951
:10254000EBE1F9E021E436E03293229349EF56E0E3
:10255000558744874DE357E05787468745EC50E061
:10256000518B408B44EC50E0538B428B40EC50E05D
:10257000558B448B41EC50E0578B468B46EC50E03A
:10258000518F408FC4E0C28F73E0738F67E0648F18
:1025900055E0558F41E0468F10923B0910923A0961
:1025A00080933C0990933D09A0933E09B0933F0965
:1025B000EAE3F9E03293229301E817E015870487F4
:1025C00005EC17E0178706870DEC10E0118B008BE8
:1025D0000CEC10E0138B028B08EC10E0158B048BD5
:1025E00009EC10E0178B068B0EEC10E0118F008FBA
:1025F000C28F738F648F558F468F10925A09109235
:10260000590980935B0990935C09A0935D09B0938D
:102610005E09E9E5F9E03293229309E018E01587B5
:1026200004870DE418E01787068705ED10E0118B8D
:10263000008B04ED10E0138B028B00ED10E0158B86
:10264000048B01ED10E0178B068B06ED10E0118F67
:10265000008FC28F738F648F558F468F10927909C8
:102660001092780980937A0990937B09A0937C0952
:10267000B0937D09E8E7F9E03293229381E998E08D
:102680009587848785ED98E09787868785E391E035
:10269000918B808B84E391E0938B828B80E391E03C
:1026A000958B848B81E391E0978B868B86E391E019
:1026B000918F808FC28F738F648F558F468FCF918C
:1026C0001F910F9108950E94211408950E94BB1438
:1026D0000895629FD001739FF001829FE00DF11D6C
:1026E000649FE00DF11D929FF00D839FF00D749F8C
:1026F000F00D659FF00D9927729FB00DE11DF91F38
:10270000639FB00DE11DF91FBD01CF011124089594
:10271000991B79E004C0991F961708F0961B881F33
:102720007A95C9F78095089597FB092E07260AD058
:1027300077FD04D049D006D000201AF47095619539
:102740007F4F0895F6F7909581959F4F0895A1E2E8
:102750001A2EAA1BBB1BFD010DC0AA1FBB1FEE1F1B
:10276000FF1FA217B307E407F50720F0A21BB30B66
:10277000E40BF50B661F771F881F991F1A9469F7E2
:1027800060957095809590959B01AC01BD01CF013E
:10279000089597FB092E05260ED057FD04D0D7DFEC
:1027A0000AD0001C38F450954095309521953F4F44
:1027B0004F4F5F4F0895F6F790958095709561950E
:1027C0007F4F8F4F9F4F0895AA1BBB1B51E107C03E
:1027D000AA1FBB1FA617B70710F0A61BB70B881FB1
:1027E000991F5A95A9F780959095BC01CD01089540
:1027F0000790F691E02D1994EF92FF920F931F939B
:10280000CF93DF93689F8001699F100D789F100D13
:102810001124C8010E942114E82EE7017E01F92E3F
:10282000E701209731F08E2D60E070E0A8010E9452
:102830005415CE01DF91CF911F910F91FF90EF9032
:102840000895CF93DF938230910510F482E090E0F9
:10285000E0919709F091980940E050E020E030E0E5
:1028600026C06081718168177907E0F068177907E1
:1028700081F4828193812115310531F0D9011396BC
:102880009C938E9312972BC09093980980939709ED
:1028900026C04115510519F06417750718F4AB01EE
:1028A000E901DF019F0172816381E72FF62F3097E5
:1028B000C1F64115510501F1481B590B4430510532
:1028C00080F412968D919C911397209719F09B8319
:1028D0008A8304C09093980980939709FD013296EA
:1028E00046C0FD01E40FF51F819391934250504083
:1028F00011965C934E933BC02091950930919609B7
:102900002115310541F4209133063091340630937E
:1029100096092093950920913506309136062115A8
:10292000310541F42DB73EB7409131065091320642
:10293000241B350BE0919509F0919609E217F307F6
:10294000A0F42E1B3F0B2817390778F0AC014E5F1F
:102950005F4F2417350748F04E0F5F1F50939609BD
:10296000409395098193919302C0E0E0F0E0CF019C
:10297000DF91CF910895CF93DF93009709F491C031
:10298000FC01329713821282609197097091980925
:102990006115710581F420813181280F391F8091E3
:1029A0009509909196098217930799F5F0939609E6
:1029B000E093950976C0DB0180E090E002C0CD0194
:1029C000D901AE17BF0748F412962D913C91139789
:1029D00021153105A1F7CD0121C0B383A283EF01F9
:1029E000499159919E01240F351FA217B30779F41D
:1029F0002D913C911197240F351F2E5F3F4F31834E
:102A0000208312962D913C91139733832283009754
:102A100029F4F0939809E093970943C0DC011396D9
:102A2000FC93EE9312974D915D91A40FB51FEA1799
:102A3000FB0769F420813181240F351F2E5F3F4F42
:102A4000EC0139832883228133813B832A83E0E0B0
:102A5000F0E002C0FB01BC01DB0112968D919C915C
:102A600013970097B9F79B012E5F3F4F8D919C9173
:102A70001197820F931F409195095091960948171D
:102A8000590779F4309729F4109298091092970910
:102A900002C0138212822250304030939609209354
:102AA0009509DF91CF910895DC0101C06D934150EC
:102AB0005040E0F70895EF92FF920F931F93CF934A
:102AC000DF938C01E0919B09F0919C09838181FF48
:102AD0001FC0C0E0D0E00AC0DB011896ED91FC9168
:102AE00019971995009711F0CFEFDFEFF801819159
:102AF0008F0160919B0970919C09882369F7DB0124
:102B00001896ED91FC9119978AE01995009711F0AC
:102B1000CFEFDFEFCE01DF91CF911F910F91FF90AB
:082B2000EF900895F894FFCF37
:102B280066616E5F666F72776172645F7370656508
:102B3800642063616C6C65640A0066616E5F686F2F
:102B4800766572696E675F73706565642063616C32
:102B58006C65640A0072756465725F6469726563A6
:102B680074696F6E2063616C6C65640A00686F76C7
:102B7800657263726166745F737065656420636112
:102B88006C6C65640A0070726573737572650A000F
:102B9800626174746572795F6C6576656C206361D7
:102BA8006C6C65640A00556E61626C6520746F20F8
:102BB800676574206D656D6F72790A0053545241D0
:102BC800494748540A00484152445F4C4546540A14
:102BD80000484152445F52494748540A00534F46FF
:102BE800545F52494748540A00534F46545F4C4576
:102BF80046540A004252414B450A006469726563B3
:102C080074696F6E204552524F520A0070757420D5
:102C180046616E20486F766572696E6720696E63DB
:102C280072656173696E67200A0070757420466169
:102C38006E20486F766572696E6720646563726599
:102C48006173696E670A007075742046616E20486A
:102C58006F766572696E67205370656564204552AA
:102C6800524F520A007075742046616E20486F7684
:102C78006572696E672053544F5020696E207175D4
:102C88006575650A007075742046616E20486F7618
:102C98006572696E6720545552424F20696E2071E3
:102CA800756575650A0046616E20486F76657269BC
:102CB8006E67206E6F7420696D706C656D656E74DB
:102CC800656420636F6D6D616E6473204552524F69
:102CD800520A007075742065786163742046414E0D
:102CE8005F484F564552494E475F5350454544202B
:102CF8000A007075742046616E20466F72776172A3
:102D08006420696E6372656173696E6720537065CC
:102D1800656420696E2071756575650A0070757443
:102D28002046616E20466F72776172642064656325
:102D380072656173696E6720537065656420696E9A
:102D48002071756575650A007075742046616E207E
:102D5800466F7277617264205370656564204552CE
:102D6800524F520A007075742046616E20466F7289
:102D7800776172642053544F5020696E20717565D5
:102D880075650A007075742046616E20466F72770B
:102D980061726420545552424F20696E20717565E6
:102DA80075650A0046616E20466F7277617264200D
:102DB8006E6F7420696D706C656D656E74656420E6
:102DC800636F6D6D616E6473204552524F520A00F5
:102DD80070757420657861637420466F72776172CC
:102DE800642073706565642076616C75650A0053AC
:102DF8006F6D657468696E67206E6F7420626173A9
:102E08006564206F6E2070726F746F636F6C2069D9
:102E1800732072656365697665640A000A00426C0E
:102E28007565746F6F74682069732061637469765F
:102E38006174656400090954657374206D6F746F5B
:102E48007220737461727465642000090954657393
:102E580074206D6F746F722073746F707065642066
:102E680000090954657374206C6576656C20697374
:102E7800206E6F726D616C200009095465737420AF
:102E88006C6576656C20697320747572626F2000BA
:102E980009095465737420616E616C6F67207772DD
:102EA800697465200009095465737420546F6F2094
:102EB8006C6F77200009095465737420546F6F2074
:102EC80068696768200009095465737420542053A1
:102ED80020697320626F74746F6D2000090954654E
:102EE8007374206D6F746F722068617320616C72E7
:102EF80065616479206265656E20737461727465BA
:102F080064200009095465737420494E43204E65B6
:102F180077202020204C3A202564200A00090954F3
:102F280065737420444543204E6577202020204C4B
:102F38003A202564200A00090954657374207365D2
:102F480074204E6577202020204C3A202564200AE2
:102F58000020009F09000000010203040500000092
:0E2F680000E00F7B0E7B0FAA0F8E0FCC0F0028
:0400000300000E16D5
:00000001FF
