:100000000C9403010C9434010C9434010C943401CD
:100010000C9434010C9434010C9434010C9434018C
:100020000C9434010C9434010C9434010C9434017C
:100030000C9434010C9434010C9434010C9434016C
:100040000C9434010C9434010C9434010C9434015C
:100050000C9434010C9434010C9434010C948306F8
:100060000C9434010C94B9090C94690A0C94340171
:100070000C9434010C9434010C9434010C9434012C
:100080000C9434010C9434010C9434010C9434011C
:100090000C94E5090C94B40A0C9434010C943401CA
:1000A0000C9434010C9434010C9434010C943401FC
:1000B0000C9434010C9434010C9434010C943401EC
:1000C0000C9434010C9434010C9434010C94110AF6
:1000D0000C94FF0A0C9434010C943D0A0C944A0BC6
:1000E0000C94340100002100240027002A002D0078
:1000F0003000330001010000040107010A01000083
:100100002200250028002B002E00310034000201BF
:100110000000050108010B0100002000230026005B
:1001200029002C002F00320000010000030106010D
:10013000090105050505070508080808020202026D
:100140000A0A080804040404010101010101010173
:100150000303030303030303040707070C0C0C0C3E
:100160000C0C0C0C02020202060606060606060627
:100170000B0B0B0B0B0B0B0B0102102020080810B4
:100180002040102040800201020108040201010207
:1001900004081020408080402010080402018004E0
:1001A000020180402010080402010804020101023B
:1001B0000408102040800102040810204080000044
:1001C000090A02080B0C0D070603040100000000D9
:1001D000000000000000000000000000000000001F
:1001E0000000000000000000000011100F000000DF
:1001F00000000000000000000000000000000000FF
:1002000000000000130C11241FBECFEFD1E2DEBFAF
:10021000CDBF00E00CBF14E0A0E0B2E0EEE2FDE1F3
:1002200000E00BBF02C007900D92A632B107D9F7CC
:1002300016E0A6E2B4E001C01D92A63DB107E1F7C9
:1002400012E0C6E0D2E000E006C022970109FE01FC
:100250000BBF0E94320DC430D10780E00807A9F718
:100260000E9436010C94950E0C9400000E94180711
:100270000E94BC020E945A040E94E1040E9485016F
:10028000FDCF81E090E066E070E00E94360DFC0159
:1002900090932704809326041582148208950F9367
:1002A0001F93DF93CF93CDB7DEB72A970FB6F8949D
:1002B000DEBF0FBECDBF8E010F5F1F4F11C0C80143
:1002C0000E94920299818A812B813C81ED81FE817D
:1002D000913019F4F901199503C0923009F4199578
:1002E0006091260470912704FB0184819581181682
:1002F00019062CF32A960FB6F894DEBF0FBECDBFB9
:10030000CF91DF911F910F9108950E9441010E94AA
:10031000BF020E944F01FBCFAF92BF92CF92DF92FC
:10032000EF92FF920F931F93DF93CF93CDB7DEB77A
:100330002A970FB6F894DEBF0FBECDBFC02E09833B
:10034000D12E1A83E22E2B83F32E3C834D835E83C2
:100350006F83788789879A87A0902604B0902704B6
:100360008601970175010E94C6012A960FB6F8947E
:10037000DEBF0FBECDBFCF91DF911F910F91FF90D8
:10038000EF90DF90CF90BF90AF900895EF92FF92E3
:100390000F931F93DF93CF93CDB7DEB72A970FB696
:1003A000F894DEBF0FBECDBF09831A832B833C8335
:1003B0004D835E836F83788789879A870F8118853D
:1003C00081E090E06EE070E00E94360DFC01009745
:1003D00009F49BC0AE014F5F5F4F2AE0DA010D9038
:1003E000AD01DC010D92CD012150C1F717830683C9
:1003F000D70114968D919C9115978230910594F1B7
:100400008D919C911197AC0129C0DA0116962D911E
:100410003C91179720173107E0F4538742871C96C9
:100420002D913C911D97358724878417950729F4D2
:10043000D701ED93FC93DC013EC0DA011C968D914F
:100440009C911D97DC011B96FC93EE931A97DA01A1
:1004500032C0DA011A964D915C911B9741155105F6
:10046000A1F63FC08130910559F5D7012D913C91FE
:10047000D90116968D919C9117978017910778F066
:100480001386128635872487D7011396FC93EE9343
:100490001297D9011B96FC93EE931A971BC01586F1
:1004A000148633872287D70113963C932E93129795
:1004B000ED93FC93D9011D96FC93EE931C970AC013
:1004C000009741F4D7011196FC93EE9313861286A0
:1004D00015861486F701848195810196958384831E
:1004E00014C013861286D70112968D919C91139792
:1004F00095878487DC011B96FC93EE931A97D701AE
:100500001396FC93EE931297E5CF2A960FB6F894C4
:10051000DEBF0FBECDBFCF91DF911F910F91FF9036
:10052000EF9008950F931F93CF93DF938C01FB01FE
:10053000A081B181982F292F312FAD018AE0EA01E6
:100540000990AE01E90109929E018150C1F7248111
:10055000358121503040358324831A968D919C91AA
:100560001B9791838083CD010E94F50DC801DF9117
:10057000CF911F910F9108950E94080408952F9222
:100580003F924F925F926F927F928F929F92AF9223
:10059000BF92CF92DF92EF92FF920F931F93DF9360
:1005A000CF930F92CDB7DEB78FEF89835E010894AA
:1005B000A11CB11C43EF842E44E0942E3EE1C32ED7
:1005C000D12C28EE622E24E0722E91E6492E94E082
:1005D000592E8CE7282E84E0382E0E94220489832D
:1005E0008F3F09F4CAC090E00E94F703182F8F3F95
:1005F00009F4C3C08AE090E00E945B0D7C01009783
:1006000029F480E092E00E943E04BBC0113009F45E
:1006100049C0113020F0123009F0AFC085C0C501CB
:100620000E94D50381309105D1F5C5010E94E403F4
:10063000882319F0813081F518C0242DF7015382E9
:10064000428281E080836C2DD782C682118610861B
:1006500001E01181338144815581778180E091856A
:100660000E948C0186E192E086C0222DF701338240
:10067000228280836C2DD782C6821186108601E08B
:100680001181338144815581778180E091850E9479
:100690008C0181E492E06FC08CE692E06CC089E846
:1006A00092E069C0C5010E94D50381309105C9F56A
:1006B000C5010E94E403882319F0813079F517C041
:1006C000282DF7019382828210836C2DD782C682F7
:1006D0001186108601E01181338144815581778133
:1006E00080E091850E948C0188EA92E044C0262D2A
:1006F000F7017382628280836C2DD782C682118655
:10070000108601E01181338144815581778180E039
:1007100091850E948C0186EC92E02DC083EE92E0E0
:100720002AC081E093E027C0C5010E94E003823027
:10073000A1F0833028F4882351F08130D1F40AC02D
:10074000843089F0843060F0853099F40FC080E205
:1007500093E011C08AE293E00EC085E393E00BC002
:1007600081E493E008C08DE493E005C088E593E060
:1007700002C08FE593E00E943E0489818F3F09F01B
:100780002CCF0F90CF91DF911F910F91FF90EF90A1
:10079000DF90CF90BF90AF909F908F907F906F90A1
:1007A0005F904F903F902F900895FC01808190E0E2
:1007B0008870907023E0959587952A95E1F70895C4
:1007C000FC01808187700895FC0180818770089505
:1007D000FC01808182958F7090E08630910528F42D
:1007E000805F9B4FFC01808108958FEF0895DF9318
:1007F000CF930F920F92CDB7DEB79A838983CE0144
:1008000001960E94E8030F900F90CF91DF91089519
:1008100086E596E040E855E260E070E00E94950BC6
:1008200085E796E040E855E260E070E00E94950BB5
:100830000895FC0186E596E0608140E150E00E9469
:10084000F9080895DF93CF930F92CDB7DEB785E710
:1008500096E00E940109181619065CF485E796E0F7
:100860000E9430098983CE0101960E941904898172
:1008700001C08FEF0F90CF91DF910895EF92FF921B
:10088000CF93DF93E82EE7017E01F92EE70104C044
:1008900086E596E00E94880869916623C9F786E597
:1008A00096E068E074E00E948508DF91CF91FF90A8
:1008B000EF9008950E9495040E94DC0480E090E08F
:1008C0000895EF92FF92CF93DF930E94B804873789
:1008D00091053CF088E790E00E94BD04C8E7D0E0B5
:1008E00005C0EC01A896CE010E94BD04CE01DF91A7
:1008F000CF91FF90EF900895EF92FF92CF93DF9307
:100900000E94B804181619062CF00E94D604C0E004
:10091000D0E005C0EC01A897CE010E94BD04CE0135
:10092000DF91CF91FF90EF9008958BE061E00E94FE
:10093000EE0780E090E0089580912804813029F04E
:10094000813018F0823089F404C08BE064E670E0F6
:100950000AC06091290470912A046A3771052CF449
:100960006C577F4F8BE00E94A80580912804089562
:100970008091290490912A0408958B3791051CF0E9
:100980008AE790E009C01816190634F010922A047C
:100990001092290481E005C090932A0480932904D1
:1009A00082E0809328040E949C04089581E0809353
:1009B00028040E949C040895109228040E949C041C
:1009C00008958AE090E00E94770580E090E0089525
:1009D0008AE595E06AE070E04AE050E00E94040594
:1009E00080E090E008958EE395E06AE070E04AE0F0
:1009F00050E00E94040580E090E00895FC01CB01E6
:100A0000199580E090E00895FC01CB01BA01199599
:100A100080E090E0089564E670E00E94950568EE3D
:100A200073E080E090E00E94F10680E090E008959D
:100A300020912B0430912C042436310514F40E94AB
:100A40000B0580E090E0089525E830E030932C0419
:100A500020932B0465E870E00E94950580E090E00B
:100A600008952EEF30E030932C0420932B046EEF8A
:100A700070E00E94950580E090E00895CF93DF93A9
:100A8000EC0180912B0490912C04680F791F7093D6
:100A90002C0460932B04CE010E949A0560912B04D4
:100AA00070912C04CE010E94950580E090E0DF91CA
:100AB000CF910895CF93DF93EC01CB0160912B048C
:100AC00070912C04681B790B70932C0460932B0499
:100AD000CE010E949A0560912B0470912C04CE01E6
:100AE0000E94950580E090E0DF91CF9108951F93DB
:100AF000DF93CF930F92CDB7DEB7182F61E09983C4
:100B00000E94EE0788E195E0612F79810E94FE0442
:100B100068EE73E080E090E00E94F10680E090E0F3
:100B20000F90CF91DF911F9108950E94A80580E05A
:100B300090E00895653871051CF40E94240505C0F5
:100B40006F3F710514F00E94310580E090E0089538
:100B50001F93CF93DF93182FEB0161E00E94EE0704
:100B6000209709F4C5C0CF3FD10509F4C4C0E12FD7
:100B7000F0E0E254FE4FE491E93009F466C0EA3057
:100B8000B0F4E430F1F1E53040F4E23059F1E33013
:100B900070F5E13009F0A9C020C0E73009F443C086
:100BA000E83008F048C0E63009F09FC034C0ED30AE
:100BB00009F473C0EE3038F4EB3009F45AC0EC306D
:100BC00008F061C04CC0E03109F47BC0E13109F4A8
:100BD00082C0EF3009F089C06AC084B5806884BDE6
:100BE000C7BD8DC084B5806284BDC8BD88C08091FA
:100BF0008000806880938000D0938900C093880033
:100C00007EC080918000806280938000D0938B00B2
:100C1000C0938A0074C08091B00080688093B00057
:100C2000C093B3006CC08091B00080628093B0002C
:100C3000C093B40064C0809190008068809390005D
:100C4000D0939900C09398005AC080919000806220
:100C500080939000D0939B00C0939A0050C08091E5
:100C60009000886080939000D0939D00C0939C007A
:100C700046C08091A00080688093A000D093A90016
:100C8000C093A8003CC08091A00080628093A00027
:100C9000D093AB00C093AA0032C08091A0008860BE
:100CA0008093A000D093AD00C093AC0028C0809189
:100CB0002001806880932001D0932901C0932801EE
:100CC0001EC080912001806280932001D0932B016F
:100CD000C0932A0114C08091200188608093200174
:100CE000D0932D01C0932C010AC0C038D1051CF44B
:100CF000812F60E002C0812F61E00E941208DF9125
:100D0000CF911F9108951F920F920FB60F92112449
:100D10002F933F938F939F93AF93BF938091310411
:100D200090913204A0913304B09134043091350491
:100D30000196A11DB11D232F2D5F2D3720F02D57BA
:100D40000196A11DB11D2093350480933104909329
:100D50003204A0933304B093340480912D04909115
:100D60002E04A0912F04B09130040196A11DB11D55
:100D700080932D0490932E04A0932F04B0933004FD
:100D8000BF91AF919F918F913F912F910F900FBE87
:100D90000F901F9018959FB7F89420912D043091D3
:100DA0002E0440912F045091300486B5A89B06C0B4
:100DB0008F3F21F02F5F3F4F4F4F5F4F9FBF542F0B
:100DC000432F322F2227280F311D411D511D82E054
:100DD000220F331F441F551F8A95D1F7B901CA014D
:100DE0000895EF92FF920F931F93CF93DF937B01B0
:100DF0008C010E94CB06EB010FC00E94CB066C1B3E
:100E00007D0B83E0683E780738F00894E108F1082C
:100E100001091109C851DC4FE114F1040105110564
:100E200061F7DF91CF911F910F91FF90EF9008959F
:100E3000789484B5826084BD84B5816084BD85B5B5
:100E4000826085BD85B5816085BDEEE6F0E080817C
:100E500081608083E1E8F0E010828081826080839D
:100E6000808181608083E0E8F0E080818160808320
:100E7000E1EBF0E0808184608083E0EBF0E0808152
:100E800081608083E1E9F0E08081826080838081FD
:100E900081608083E0E9F0E0808181608083E1EA25
:100EA000F0E0808182608083808181608083E0EADD
:100EB000F0E0808181608083E1E2F1E08081826006
:100EC0008083808181608083E0E2F1E080818160C5
:100ED0008083EAE7F0E080818460808380818260A3
:100EE000808380818160808380818068808310928C
:100EF000C1000895893009F449C08A30A0F48430D3
:100F000051F1853040F4823079F1833000F5813041
:100F100009F063C026C0873079F1883098F58630B3
:100F200009F05BC025C08D3009F442C08E3028F432
:100F30008B30B1F18C30C0F52DC0803109F442C046
:100F4000813109F445C08F3009F047C037C0809126
:100F500080008F7703C0809180008F7D8093800018
:100F6000089584B58F7702C084B58F7D84BD0895C0
:100F70008091B0008F7703C08091B0008F7D809307
:100F8000B0000895809190008F7707C08091900005
:100F90008F7D03C080919000877F8093900008959B
:100FA0008091A0008F7707C08091A0008F7D03C043
:100FB0008091A000877F8093A000089580912001F8
:100FC0008F7703C0809120018F7D80932001089549
:100FD00080912001877F80932001089590E0FC019B
:100FE000E858FE4F2491FC01EE5CFE4FE491EE23A5
:100FF000C1F0F0E0EE0FFF1FEC51FF4F859194918F
:10100000DC01662341F49FB7F8948C9120958223EC
:101010008C939FBF08959FB7F8948C91822B8C93EB
:101020009FBF08950F931F93DF93CF930F92CDB778
:10103000DEB7282F30E0F901E254FE4F8491F90128
:10104000E858FE4F14912E5C3E4FF90104910023A5
:10105000D9F0882321F069830E947A076981E02F03
:10106000F0E0EE0FFF1FE250FF4F85919491DC01FD
:101070009FB7F894662321F48C911095812302C0C8
:101080008C91812B8C939FBF0F90CF91DF911F91FB
:101090000F910895CF92DF92EF92FF920F931F93DB
:1010A000CF93DF936C017B018A01C0E0D0E00FC0D9
:1010B000D7016D917D01D601ED91FC910190F081F8
:1010C000E02DC6011995C80FD91F01501040011518
:1010D000110571F7CE01DF91CF911F910F91FF9014
:1010E000EF90DF90CF900895DB010D900020E9F79D
:1010F000AD0141505040461B570BDC01ED91FC9176
:101100000280F381E02D199508950E9474080895D6
:10111000DC01ED91FC910190F081E02D199508958D
:101120008F929F92AF92BF92CF92DF92EF92FF92F7
:101130000F931F93DF93CF93CDB7DEB7A1970FB671
:10114000F894DEBF0FBECDBF6C01042FE52FCB019D
:10115000122F19A2223008F41AE021E2E22EF12C1B
:10116000EC0EFD1E812E9924AA24BB2403C0022F5D
:10117000E32FCA01602F7E2FA50194010E94FC0C71
:10118000129F802D1124081B0894E108F1080A30F1
:1011900014F4005D01C0095CF701008321153105DD
:1011A0004105510521F7C601B7010E947408A196B7
:1011B0000FB6F894DEBF0FBECDBFCF91DF911F9168
:1011C0000F91FF90EF90DF90CF90BF90AF909F90E6
:1011D0008F9008952115310549F4DC01ED91FC91C2
:1011E0000190F081E02D642F199508950E949008D8
:1011F00008959A01462F50E060E070E00E94EA08EE
:101200000895FC0184859585FC01E05CFF4F2081F9
:1012100031818E5B9F4FFC0180819181281B390BAE
:101220002F733070C9010895FC0184859585FC01F8
:10123000E05CFF4F40815181FC01EE5BFF4F20815C
:1012400031814217530741F00190F081E02DE80F02
:10125000F91F208130E002C02FEF3FEFC901089550
:10126000FC0184859585FC01E05CFF4F4081518144
:10127000FC01EE5BFF4F208131814217530771F073
:10128000A081B181A80FB91F2C9180819181019615
:101290008F7390709183808330E002C02FEF3FEF17
:1012A000C9010895DC011E968D919C911F97FC0148
:1012B000E05CFF4F8E5B9F4F40815181DC012D919F
:1012C0003C91119742175307B9F70895CF93FC014A
:1012D000C62F26853785D901A05CBF4F8D919C9183
:1012E000019660E470E00E94E90CD901AE5BBF4F4B
:1012F0004D915C91119784179507D1F3D901A05CAA
:10130000BF4F0D90BC91A02DA20FB31FCC93A6850B
:10131000B785A05CBF4F11969C938E93A689B78921
:101320002C9181E090E0058C02C0880F991F0A94EF
:10133000E2F7282B2C9381E090E0CF910895FB01F8
:10134000E05CFF4F208131812F5F3F4F2F73307062
:10135000DB01AE5BBF4F4D915C91119724173507B0
:1013600039F0A081B181A60FB71F8C933183208300
:1013700008951F920F920FB60F920BB60F92112481
:101380002F933F934F935F936F937F938F939F938D
:10139000AF93BF93EF93FF938091C60066E374E031
:1013A0000E949F09FF91EF91BF91AF919F918F9103
:1013B0007F916F915F914F913F912F910F900BBE55
:1013C0000F900FBE0F901F9018951F920F920FB69F
:1013D0000F920BB60F9211242F933F934F935F936D
:1013E0006F937F938F939F93AF93BF93EF93FF93ED
:1013F0008091CE006EEB74E00E949F09FF91EF9107
:10140000BF91AF919F918F917F916F915F914F911C
:101410003F912F910F900BBE0F900FBE0F901F901A
:1014200018951F920F920FB60F920BB60F921124C0
:101430002F933F934F935F936F937F938F939F93DC
:10144000AF93BF93EF93FF938091D60066E475E06E
:101450000E949F09FF91EF91BF91AF919F918F9152
:101460007F916F915F914F913F912F910F900BBEA4
:101470000F900FBE0F901F9018951F920F920FB6EE
:101480000F920BB60F9211242F933F934F935F93BC
:101490006F937F938F939F93AF93BF93EF93FF933C
:1014A000809136016EEC75E00E949F09FF91EF91EB
:1014B000BF91AF919F918F917F916F915F914F916C
:1014C0003F912F910F900BBE0F900FBE0F901F906A
:1014D00018951F920F920FB60F920BB60F92112410
:1014E0002F933F935F936F937F938F939F93AF93CC
:1014F000BF93EF93FF932091BA043091BB04809186
:10150000BC049091BD042817390731F48091C100C3
:101510008F7D8093C10016C0E091BC04F091BD04A2
:10152000E658FB4F20818091BC049091BD04019648
:1015300060E470E00E94E90C9093BD048093BC04C9
:101540002093C600FF91EF91BF91AF919F918F9132
:101550007F916F915F913F912F910F900BBE0F90F4
:101560000FBE0F901F9018951F920F920FB60F92FB
:101570000BB60F9211242F933F935F936F937F933A
:101580008F939F93AF93BF93EF93FF932091420567
:1015900030914305809144059091450528173907FE
:1015A00031F48091C9008F7D8093C90016C0E0910D
:1015B0004405F0914505EE5FFA4F20818091440586
:1015C00090914505019660E470E00E94E90C9093CB
:1015D0004505809344052093CE00FF91EF91BF9184
:1015E000AF919F918F917F916F915F913F912F91DB
:1015F0000F900BBE0F900FBE0F901F9018951F926B
:101600000F920FB60F920BB60F9211242F933F93A8
:101610005F936F937F938F939F93AF93BF93EF935A
:10162000FF932091CA053091CB058091CC05909114
:10163000CD052817390731F48091D1008F7D809333
:10164000D10016C0E091CC05F091CD05E657FA4FD8
:1016500020818091CC059091CD05019660E470E0E9
:101660000E94E90C9093CD058093CC052093D60081
:10167000FF91EF91BF91AF919F918F917F916F916A
:101680005F913F912F910F900BBE0F900FBE0F9067
:101690001F9018951F920F920FB60F920BB60F92D4
:1016A00011242F933F935F936F937F938F939F9317
:1016B000AF93BF93EF93FF9320915206309153065F
:1016C00080915406909155062817390731F480917E
:1016D00031018F7D8093310116C0E0915406F09165
:1016E0005506EE5EF94F2081809154069091550683
:1016F000019660E470E00E94E90C90935506809397
:10170000540620933601FF91EF91BF91AF919F91C5
:101710008F917F916F915F913F912F910F900BBEB1
:101720000F900FBE0F901F901895DF92EF92FF92CF
:101730000F931F93CF93DF93EC017A018B01DD248C
:10174000D394403081EE580780E0680780E0780746
:1017500049F4DD24EC89FD89108260E874E88EE1AB
:1017600090E00FC0EC89FD8981E090E00E8C02C012
:10177000880F991F0A94E2F7808360E079E08DE397
:1017800090E0A80197010E94FC0C2150304040409D
:101790005040569547953795279580E1203038077A
:1017A00010F0DD20B1F6E889F9893083EA89FB89F8
:1017B0002083EE89FF89408181E090E09C010A8CC2
:1017C00002C0220F331F0A94E2F7422B4083EE89B6
:1017D000FF8940819C010B8C02C0220F331F0A94A9
:1017E000E2F7422B4083EE89FF8940819C010C8CFB
:1017F00002C0220F331F0A94E2F7422B4083EE8986
:10180000FF8920810D8C02C0880F991F0A94E2F78E
:10181000809582238083DF91CF911F910F91FF905C
:10182000EF90DF9008950F931F93CF931092590676
:101830001092580688EE93E0A0E0B0E080935A063C
:1018400090935B06A0935C06B0935D06E8E5F6E036
:101850002AE134E03293229346E354E055874487EB
:101860004AE754E05787468745EC50E0518B408B60
:1018700044EC50E0538B428B40EC50E0558B448B52
:1018800041EC50E0578B468B46EC50E0518F408F37
:10189000C4E0C28F73E0738F67E0648F55E0558FAB
:1018A00041E0468F10927806109277068093790671
:1018B00090937A06A0937B06B0937C06E7E7F6E068
:1018C000329322930EEB14E01587048702E015E0B3
:1018D000178706870DEC10E0118B008B0CEC10E0E5
:1018E000138B028B08EC10E0158B048B09EC10E0D5
:1018F000178B068B0EEC10E0118F008FC28F738F49
:10190000648F558F468F109297061092960680939B
:10191000980690939906A0939A06B0939B06E6E9E1
:10192000F6E03293229306E415E0158704870AE86F
:1019300015E01787068705ED10E0118B008B04ED8D
:1019400010E0138B028B00ED10E0158B048B01ED82
:1019500010E0178B068B06ED10E0118F008FC28F01
:10196000738F648F558F468F1092B6061092B5060E
:101970008093B7069093B806A093B906B093BA06C1
:10198000E5EBF6E0329322938EEC95E09587848721
:1019900082E196E09787868785E391E0918B808B43
:1019A00084E391E0938B828B80E391E0958B848B31
:1019B00081E391E0978B868B86E391E0918F808F16
:1019C000C28F738F648F558F468FCF911F910F9168
:1019D000089597FB092E07260AD077FD04D02ED054
:1019E00006D000201AF4709561957F4F0895F6F7A0
:1019F000909581959F4F0895A1E21A2EAA1BBB1BBB
:101A0000FD010DC0AA1FBB1FEE1FFF1FA217B307CA
:101A1000E407F50720F0A21BB30BE40BF50B661FE0
:101A2000771F881F991F1A9469F7609570958095A4
:101A300090959B01AC01BD01CF010895AA1BBB1B72
:101A400051E107C0AA1FBB1FA617B70710F0A61BBE
:101A5000B70B881F991F5A95A9F780959095BC01DF
:101A6000CD0108950790F691E02D1994EF92FF9221
:101A70000F931F93CF93DF93689F8001699F100D91
:101A8000789F100D1124C8010E945B0DE82EE7011C
:101A90007E01F92EE701209731F08E2D60E070E095
:101AA000A8010E948E0ECE01DF91CF911F910F9160
:101AB000FF90EF900895CF93DF938230910510F45B
:101AC00082E090E0E091D406F091D50640E050E04D
:101AD00020E030E026C06081718168177907E0F06E
:101AE0006817790781F4828193812115310531F0DE
:101AF000D90113969C938E9312972BC09093D50681
:101B00008093D40626C04115510519F06417750756
:101B100018F4AB01E901DF019F0172816381E72FB6
:101B2000F62F3097C1F64115510501F1481B590BAD
:101B30004430510580F412968D919C911397209713
:101B400019F09B838A8304C09093D5068093D406B2
:101B5000FD01329646C0FD01E40FF51F819391937C
:101B60004250504011965C934E933BC02091D20658
:101B70003091D3062115310541F420910C043091A8
:101B80000D043093D3062093D20620910E04309199
:101B90000F042115310541F42DB73EB740910A04D9
:101BA00050910B04241B350BE091D206F091D30623
:101BB000E217F307A0F42E1B3F0B2817390778F024
:101BC000AC014E5F5F4F2417350748F04E0F5F1F83
:101BD0005093D3064093D2068193919302C0E0E0E4
:101BE000F0E0CF01DF91CF910895CF93DF9300977D
:101BF00009F491C0FC013297138212826091D406DD
:101C00007091D5066115710581F420813181280F0D
:101C1000391F8091D2069091D3068217930799F5C8
:101C2000F093D306E093D20676C0DB0180E090E02B
:101C300002C0CD01D901AE17BF0748F412962D910D
:101C40003C91139721153105A1F7CD0121C0B38334
:101C5000A283EF01499159919E01240F351FA217CC
:101C6000B30779F42D913C911197240F351F2E5F06
:101C70003F4F3183208312962D913C9113973383EC
:101C80002283009729F4F093D506E093D40643C04D
:101C9000DC011396FC93EE9312974D915D91A40F86
:101CA000B51FEA17FB0769F420813181240F351F26
:101CB0002E5F3F4FEC0139832883228133813B83A0
:101CC0002A83E0E0F0E002C0FB01BC01DB011296D8
:101CD0008D919C9113970097B9F79B012E5F3F4F11
:101CE0008D919C911197820F931F4091D206509134
:101CF000D3064817590779F4309729F41092D5067E
:101D00001092D40602C013821282225030403093C7
:101D1000D3062093D206DF91CF910895DC0101C054
:0E1D20006D9341505040E0F70895F894FFCFC6
:101D2E00556E61626C6520746F20676574206D65F9
:101D3E006D6F72790A007075742046616E20466F61
:101D4E00727761726420696E6372656173696E6722
:101D5E0020537065656420696E2071756575650A1E
:101D6E00007075742046616E20466F7277617264E2
:101D7E002064656372656173696E67205370656573
:101D8E006420696E2071756575650A007075742022
:101D9E0046616E20466F727761726420537065657E
:101DAE0064204552524F520A007075742065786156
:101DBE00637420466F727761726420737065656418
:101DCE002076616C75650A007075742046616E2010
:101DDE00486F766572696E6720696E6372656173AE
:101DEE00696E67200A007075742046616E20486F18
:101DFE00766572696E672064656372656173696E7C
:101E0E00670A007075742046616E20486F766572A1
:101E1E00696E67205370656564204552524F520AB1
:101E2E00007075742065786163742046414E5F487A
:101E3E004F564552494E475F5350454544200A0080
:101E4E0053545241494748540A00484152445F4C4A
:101E5E004546540A00484152445F52494748540A85
:101E6E0000534F46545F52494748540A00534F4659
:101E7E00545F4C4546540A004252414B450A006499
:101E8E006972656374696F6E204552524F520A0033
:101E9E0066616E5F666F72776172645F737065659F
:101EAE00642063616C6C65640A0066616E5F686FC6
:101EBE00766572696E675F73706565642063616CC9
:101ECE006C65640A0072756465725F64697265633D
:101EDE0074696F6E2063616C6C65640A00686F765E
:101EEE00657263726166745F7370656564206361A9
:101EFE006C6C65640A00686F7665726372616674F5
:101F0E005F70726573737572652063616C6C656466
:101F1E000A00626174746572795F6C6576656C2017
:101F2E0063616C6C65640A000A002000D60600002E
:101F3E000001020304050000000066094A080109B9
:061F4E00300914095209DC
:0400000300000A30BF
:00000001FF
