:100000000C94F7000C9428010C9428010C942801FE
:100010000C9428010C9428010C9428010C942801BC
:100020000C9428010C9428010C9428010C942801AC
:100030000C9428010C9428010C9428010C9428019C
:100040000C9428010C9428010C9428010C9428018C
:100050000C9428010C9428010C9428010C9447015D
:100060000C9428010C94F7020C944F030C94280173
:100070000C9428010C9428010C9428010C9428015C
:100080000C9428010C9428010C9428010C9428014C
:100090000C9423030C949A030C9428010C942801CB
:1000A0000C9428010C9428010C9428010C9428012C
:1000B0000C9428010C9428010C9428010C9428011C
:1000C0000C9428010C9428010C94280100002100B4
:1000D000240027002A002D00300033000101000019
:1000E000040107010A0100002200250028002B005E
:1000F0002E003100340002010000050108010B014F
:10010000000020002300260029002C002F003200D0
:1001100000010000030106010901050505050705A9
:1001200008080808020202020A0A08080404040473
:10013000010101010101010103030303030303039F
:10014000040707070C0C0C0C0C0C0C0C020202022E
:1001500006060606060606060B0B0B0B0B0B0B0B17
:1001600001021020200808102040102040800201C9
:1001700002010804020101020408102040808040AE
:1001800020100804020180040201804020100804AD
:10019000020108040201010204081020408001024B
:1001A0000408102040800000090A02080B0C0D070B
:1001B0000603040100000000000000000000000031
:1001C000000000000000000000000000000000002F
:1001D000000011100F0000000000000000000000EF
:1001E0000000000000000000000000006304112473
:1001F0001FBECFEFD1E2DEBFCDBF00E00CBF12E0EB
:10020000A0E0B2E0E0E1FBE000E00BBF02C007903D
:100210000D92A031B107D9F714E0A0E1B2E001C01E
:100220001D92A53BB107E1F711E000E0CEEED1E071
:1002300040E006C022974109FE014BBF0E948205A3
:10024000CC3ED1074007B1F70E942A010C948605E5
:100250000C9400000E948F018DE061E00E94F1018A
:100260000E943301FFCF0E943601089589E394E094
:1002700040E855E260E070E00E94E50388E594E024
:1002800040E855E260E070E00E94E50308951F92A7
:100290000F920FB60F9211242F933F938F939F933A
:1002A000AF93BF938091140290911502A091160212
:1002B000B0911702309118020196A11DB11D232F94
:1002C0002D5F2D3720F02D570196A11DB11D2093D4
:1002D00018028093140290931502A0931602B09313
:1002E00017028091100290911102A0911202B09118
:1002F00013020196A11DB11D80931002909311026B
:10030000A0931202B0931302BF91AF919F918F916E
:100310003F912F910F900FBE0F901F9018957894DA
:1003200084B5826084BD84B5816084BD85B58260FA
:1003300085BD85B5816085BDEEE6F0E08081816098
:100340008083E1E8F0E01082808182608083808198
:1003500081608083E0E8F0E0808181608083E1EB70
:10036000F0E0808184608083E0EBF0E08081816058
:100370008083E1E9F0E08081826080838081816018
:100380008083E0E9F0E0808181608083E1EAF0E051
:10039000808182608083808181608083E0EAF0E0F8
:1003A000808181608083E1E2F1E0808182608083EE
:1003B000808181608083E0E2F1E0808181608083E0
:1003C000EAE7F0E0808184608083808182608083BE
:1003D0008081816080838081806880831092C100E9
:1003E000089590E0FC01E05AFE4F2491FC01E65E86
:1003F000FE4FE491EE23C1F0F0E0EE0FFF1FE45357
:10040000FF4F85919491DC01662341F49FB7F894E6
:100410008C91209582238C939FBF08959FB7F89469
:100420008C91822B8C939FBF0895CF92DF92EF9295
:10043000FF920F931F93CF93DF936C017B018A018F
:10044000C0E0D0E00FC0D7016D917D01D601ED91E4
:10045000FC910190F081E02DC6011995C80FD91FBC
:10046000015010400115110571F7CE01DF91CF91B8
:100470001F910F91FF90EF90DF90CF900895FC01B6
:1004800084859585FC01E05CFF4F208131818E5B86
:100490009F4FFC0180819181281B390B2F73307095
:1004A000C9010895FC0184859585FC01E05CFF4F3E
:1004B00040815181FC01EE5BFF4F20813181421769
:1004C000530741F00190F081E02DE80FF91F2081E2
:1004D00030E002C02FEF3FEFC9010895FC01848591
:1004E0009585FC01E05CFF4F40815181FC01EE5B92
:1004F000FF4F208131814217530771F0A081B181F4
:10050000A80FB91F2C918081918101968F739070F3
:100510009183808330E002C02FEF3FEFC90108953F
:10052000DC011E968D919C911F97FC01E05CFF4FB2
:100530008E5B9F4F40815181DC012D913C91119741
:1005400042175307B9F708951F93FC01162F26850C
:100550003785D901A05CBF4F8D919C91019660E4D5
:1005600070E00E943905D901AE5BBF4F4D915C919F
:10057000119784179507D1F3D901A05CBF4F0D9057
:10058000BC91A02DA20FB31F1C93A685B785A05CBC
:10059000BF4F11969C938E93A689B7892C9181E0C9
:1005A00090E0058C02C0880F991F0A94E2F7282B6F
:1005B0002C9381E090E01F910895FB01E05CFF4FD8
:1005C000208131812F5F3F4F2F733070DB01AE5B95
:1005D000BF4F4D915C9111972417350739F0A081D9
:1005E000B181A60FB71F8C933183208308951F928A
:1005F0000F920FB60F920BB60F9211242F933F93C9
:100600004F935F936F937F938F939F93AF93BF931A
:10061000EF93FF938091C60069E172E00E94DD02D2
:10062000FF91EF91BF91AF919F918F917F916F91CA
:100630005F914F913F912F910F900BBE0F900FBE86
:100640000F901F9018951F920F920FB60F920BB636
:100650000F9211242F933F934F935F936F937F9348
:100660008F939F93AF93BF93EF93FF938091CE00AF
:1006700061EA72E00E94DD02FF91EF91BF91AF91BC
:100680009F918F917F916F915F914F913F912F91AA
:100690000F900BBE0F900FBE0F901F9018951F92DA
:1006A0000F920FB60F920BB60F9211242F933F9318
:1006B0005F936F937F938F939F93AF93BF93EF93CA
:1006C000FF9320919D0230919E0280919F02909114
:1006D000A0022817390731F48091C1008F7D8093E3
:1006E000C10016C0E0919F02F091A002E35AFD4FB5
:1006F000208180919F029091A002019660E470E0B9
:100700000E9439059093A00280939F022093C60017
:10071000FF91EF91BF91AF919F918F917F916F91D9
:100720005F913F912F910F900BBE0F900FBE0F90D6
:100730001F9018951F920F920FB60F920BB60F9243
:1007400011242F933F935F936F937F938F939F9386
:10075000AF93BF93EF93FF9320912503309126032E
:1007600080912703909128032817390731F480914D
:10077000C9008F7D8093C90016C0E0912703F091D6
:100780002803EB51FD4F208180912703909128038E
:10079000019660E470E00E943905909328038093ED
:1007A00027032093CE00FF91EF91BF91AF919F91CE
:1007B0008F917F916F915F913F912F910F900BBE21
:1007C0000F900FBE0F901F901895DF92EF92FF923F
:1007D0000F931F93CF93DF93EC017A018B01DD24FC
:1007E000D394403081EE580780E0680780E07807B6
:1007F00049F4DD24EC89FD89108260E874E88EE11B
:1008000090E00FC0EC89FD8981E090E00E8C02C081
:10081000880F991F0A94E2F7808360E079E08DE306
:1008200090E0A80197010E944C05215030404040C3
:100830005040569547953795279580E120303807E9
:1008400010F0DD20B1F6E889F9893083EA89FB8967
:100850002083EE89FF89408181E090E09C010A8C31
:1008600002C0220F331F0A94E2F7422B4083EE8925
:10087000FF8940819C010B8C02C0220F331F0A9418
:10088000E2F7422B4083EE89FF8940819C010C8C6A
:1008900002C0220F331F0A94E2F7422B4083EE89F5
:1008A000FF8920810D8C02C0880F991F0A94E2F7FE
:1008B000809582238083DF91CF911F910F91FF90CC
:1008C000EF90DF9008951F93CF93DF9310923C0435
:1008D00010923B0488EE93E0A0E0B0E080933D04EA
:1008E00090933E04A0933F04B0934004EBE3F4E004
:1008F00024E032E03293229349E152E05587448765
:100900004DE552E05787468745EC50E0518B408BD0
:1009100044EC50E0538B428B40EC50E0558B448BC1
:1009200041EC50E0578B468B46EC50E0518F408FA6
:1009300014E0128F73E0738F67E0648F55E0558F7A
:1009400041E0468F10925B0410925A0480935C043D
:1009500090935D04A0935E04B0935F04EAE5F4E035
:1009600032932293C1EAD2E0D587C487C5EED2E0A4
:10097000D787C687CDECD0E0D18BC08BCCECD0E054
:10098000D38BC28BC8ECD0E0D58BC48BC9ECD0E044
:10099000D78BC68BCEECD0E0D18FC08F128F738FE8
:1009A000648F558F468F10927A0410927904809349
:1009B0007B0490937C04A0937D04B0937E04E9E7CC
:1009C000F4E032932293C9E2D3E0D587C487CDE621
:1009D000D3E0D787C687C5EDD0E0D18BC08BC4EDFF
:1009E000D0E0D38BC28BC0EDD0E0D58BC48BC1EDF2
:1009F000D0E0D78BC68BC6EDD0E0D18FC08F128FE1
:100A0000738F648F558F468F1092990410929804BB
:100A100080939A0490939B04A0939C04B0939D04AC
:100A2000E8E9F4E03293229381EB93E095878487A1
:100A300085EF93E09787868785E391E0918B808BA4
:100A400084E391E0938B828B80E391E0958B848BA0
:100A500081E391E0978B868B86E391E0918F808F85
:100A6000128F738F648F558F468FDF91CF911F91B7
:100A7000089597FB092E07260AD077FD04D02ED0C3
:100A800006D000201AF4709561957F4F0895F6F70F
:100A9000909581959F4F0895A1E21A2EAA1BBB1B2A
:100AA000FD010DC0AA1FBB1FEE1FFF1FA217B3073A
:100AB000E407F50720F0A21BB30BE40BF50B661F50
:100AC000771F881F991F1A9469F760957095809514
:100AD00090959B01AC01BD01CF010895AA1BBB1BE2
:100AE00051E107C0AA1FBB1FA617B70710F0A61B2E
:100AF000B70B881F991F5A95A9F780959095BC014F
:100B0000CD0108950790F691E02D1994F894FFCF48
:100B100000000000A40215023F026E025202900281
:00000001FF
