:100000000C9403010C9434010C9434010C943401CD
:100010000C9434010C9434010C9434010C9434018C
:100020000C9434010C9434010C9434010C9434017C
:100030000C9434010C9434010C9434010C9434016C
:100040000C9434010C9434010C9434010C9434015C
:100050000C9434010C9434010C9434010C94470238
:100060000C9434010C9484040C9434050C943401E5
:100070000C9434010C9434010C9434010C9434012C
:100080000C9434010C9434010C9434010C9434011C
:100090000C94B0040C947F050C9434010C9434013E
:1000A0000C9434010C9434010C9434010C943401FC
:1000B0000C9434010C9434010C9434010C943401EC
:1000C0000C9434010C9434010C9434010C94DC0431
:1000D0000C94CA050C9434010C9408050C94150674
:1000E0000C94340100002100240027002A002D0078
:1000F0003000330001010000040107010A01000083
:100100002200250028002B002E00310034000201BF
:100110000000050108010B0100002000230026005B
:1001200029002C002F00320000010000030106010D
:10013000090105050505070508080808020202026D
:100140000A0A080804040404010101010101010173
:100150000303030303030303040707070C0C0C0C3E
:100160000C0C0C0C02020202060606060606060627
:100170000B0B0B0B0B0B0B0B0102102020080810B4
:100180002040102040800201020108040201010207
:1001900004081020408080402010080402018004E0
:1001A000020180402010080402010804020101023B
:1001B0000408102040800102040810204080000044
:1001C000090A02080B0C0D070603040100000000D9
:1001D000000000000000000000000000000000001F
:1001E0000000000000000000000011100F000000DF
:1001F00000000000000000000000000000000000FF
:1002000000000000DE0611241FBECFEFD1E2DEBFEA
:10021000CDBF00E00CBF13E0A0E0B2E0E4ECF2E1FF
:1002200000E00BBF02C007900D92A63BB107D9F7C3
:1002300016E0A6EBB3E001C01D92A136B107E1F7CD
:1002400012E0C6E0D2E000E006C022970109FE01FC
:100250000BBF0E94FD07C430D10780E00807A9F753
:100260000E9436010C9460090C9400000E948F02D9
:100270008DE061E00E94F1020E9441010E94420271
:10028000FDCF0E94AF0108950F931F93DF93CF938B
:100290000F920F92CDB7DEB78FEF89838E010F5F7C
:1002A0001F4F0E94C90189838F3F09F44DC090E020
:1002B0000E942302482F8F3F09F446C08DE090E052
:1002C0004A830E9426084A81009729F480E092E040
:1002D0000E94E5013DC0413099F1413018F04230B3
:1002E00099F51BC0C8010E9401028130910591F46B
:1002F000C8010E941002009721F08130910539F465
:1003000003C086E192E01EC081E492E01BC08CE64F
:1003100092E018C089E892E015C0C8010E940C0262
:100320008130910521F08530910539F403C080EAD0
:1003300092E008C087EB92E005C08DEC92E002C02D
:100340008EED92E00E94E50189818F3F09F0A9CFEF
:100350000F900F90CF91DF911F910F91089581EE33
:1003600095E040E855E260E070E00E94600680E0C1
:1003700096E040E855E260E070E00E946006089573
:10038000FC0181EE95E0608140E150E00E94C403F1
:100390000895DF93CF930F92CDB7DEB780E096E05C
:1003A0000E94CC03181619065CF480E096E00E94C7
:1003B000FB038983CE0101960E94C001898101C09F
:1003C0008FEF0F90CF91DF910895EF92FF92CF932F
:1003D000DF93E82EE7017E01F92EE70104C081EEEC
:1003E00095E00E94530369916623C9F781EE95E079
:1003F00067E973E00E945003DF91CF91FF90EF9087
:100400000895FC01808190E08870907023E09595BC
:1004100087952A95E1F70895FC01808187700895FA
:10042000FC01808187700895FC01808182958F7026
:1004300090E08630910528F481569C4FFC01808124
:1004400008958FEF0895DF93CF930F920F92CDB75A
:10045000DEB79A838983CE0101960E9414020F9021
:100460000F90CF91DF91089581E090E066E070E019
:100470000E940108FC019093B7038093B603158294
:10048000148208950E9434020E944401FDCF1F92FD
:100490000F920FB60F9211242F933F938F939F9338
:1004A000AF93BF938091BC039091BD03A091BE0315
:1004B000B091BF033091C0030196A11DB11D232F40
:1004C0002D5F2D3720F02D570196A11DB11D2093D2
:1004D000C0038093BC039093BD03A093BE03B0936D
:1004E000BF038091B8039091B903A091BA03B09172
:1004F000BB030196A11DB11D8093B8039093B9036E
:10050000A093BA03B093BB03BF91AF919F918F911A
:100510003F912F910F900FBE0F901F9018957894D8
:1005200084B5826084BD84B5816084BD85B58260F8
:1005300085BD85B5816085BDEEE6F0E08081816096
:100540008083E1E8F0E01082808182608083808196
:1005500081608083E0E8F0E0808181608083E1EB6E
:10056000F0E0808184608083E0EBF0E08081816056
:100570008083E1E9F0E08081826080838081816016
:100580008083E0E9F0E0808181608083E1EAF0E04F
:10059000808182608083808181608083E0EAF0E0F6
:1005A000808181608083E1E2F1E0808182608083EC
:1005B000808181608083E0E2F1E0808181608083DE
:1005C000EAE7F0E0808184608083808182608083BC
:1005D0008081816080838081806880831092C100E7
:1005E000089590E0FC01E858FE4F2491FC01EE5C78
:1005F000FE4FE491EE23C1F0F0E0EE0FFF1FEC514F
:10060000FF4F85919491DC01662341F49FB7F894E4
:100610008C91209582238C939FBF08959FB7F89467
:100620008C91822B8C939FBF0895CF92DF92EF9293
:10063000FF920F931F93CF93DF936C017B018A018D
:10064000C0E0D0E00FC0D7016D917D01D601ED91E2
:10065000FC910190F081E02DC6011995C80FD91FBA
:10066000015010400115110571F7CE01DF91CF91B6
:100670001F910F91FF90EF90DF90CF900895DB01D5
:100680000D900020E9F7AD0141505040461B570B3B
:10069000DC01ED91FC910280F381E02D1995089524
:1006A0000E943F030895DC01ED91FC910190F081DF
:1006B000E02D199508958F929F92AF92BF92CF929D
:1006C000DF92EF92FF920F931F93DF93CF93CDB7FB
:1006D000DEB7A1970FB6F894DEBF0FBECDBF6C0199
:1006E000042FE52FCB01122F19A2223008F41AE0B3
:1006F00021E2E22EF12CEC0EFD1E812E9924AA247B
:10070000BB2403C0022FE32FCA01602F7E2FA50157
:1007100094010E94C707129F802D1124081B089482
:10072000E108F1080A3014F4005D01C0095CF7012A
:100730000083211531054105510521F7C601B70197
:100740000E943F03A1960FB6F894DEBF0FBECDBF47
:10075000CF91DF911F910F91FF90EF90DF90CF909D
:10076000BF90AF909F908F9008952115310549F467
:10077000DC01ED91FC910190F081E02D642F199541
:1007800008950E945B0308959A01462F50E060E0AF
:1007900070E00E94B5030895FC0184859585FC01F5
:1007A000E05CFF4F208131818E5B9F4FFC01808197
:1007B0009181281B390B2F733070C9010895FC01FA
:1007C00084859585FC01E05CFF4F40815181FC01EF
:1007D000EE5BFF4F208131814217530741F00190BA
:1007E000F081E02DE80FF91F208130E002C02FEFEB
:1007F0003FEFC9010895FC0184859585FC01E05C0B
:10080000FF4F40815181FC01EE5BFF4F2081318120
:100810004217530771F0A081B181A80FB91F2C9125
:100820008081918101968F7390709183808330E0F5
:1008300002C02FEF3FEFC9010895DC011E968D9194
:100840009C911F97FC01E05CFF4F8E5B9F4F4081A6
:100850005181DC012D913C91119742175307B9F753
:100860000895CF93FC01C62F26853785D901A05C5A
:10087000BF4F8D919C91019660E470E00E94B40797
:10088000D901AE5BBF4F4D915C91119784179507CD
:10089000D1F3D901A05CBF4F0D90BC91A02DA20F48
:1008A000B31FCC93A685B785A05CBF4F11969C93D0
:1008B0008E93A689B7892C9181E090E0058C02C0C7
:1008C000880F991F0A94E2F7282B2C9381E090E07F
:1008D000CF910895FB01E05CFF4F208131812F5FB4
:1008E0003F4F2F733070DB01AE5BBF4F4D915C917A
:1008F00011972417350739F0A081B181A60FB71FD2
:100900008C933183208308951F920F920FB60F921C
:100910000BB60F9211242F933F934F935F936F93D6
:100920007F938F939F93AF93BF93EF93FF938091A8
:10093000C60061EC73E00E946A04FF91EF91BF91E1
:10094000AF919F918F917F916F915F914F913F9167
:100950002F910F900BBE0F900FBE0F901F90189508
:100960001F920F920FB60F920BB60F9211242F9376
:100970003F934F935F936F937F938F939F93AF9327
:10098000BF93EF93FF938091CE0069E474E00E94DF
:100990006A04FF91EF91BF91AF919F918F917F91E9
:1009A0006F915F914F913F912F910F900BBE0F90E0
:1009B0000FBE0F901F9018951F920F920FB60F92B7
:1009C0000BB60F9211242F933F934F935F936F9326
:1009D0007F938F939F93AF93BF93EF93FF938091F8
:1009E000D60061ED74E00E946A04FF91EF91BF911F
:1009F000AF919F918F917F916F915F914F913F91B7
:100A00002F910F900BBE0F900FBE0F901F90189557
:100A10001F920F920FB60F920BB60F9211242F93C5
:100A20003F934F935F936F937F938F939F93AF9376
:100A3000BF93EF93FF938091360169E575E00E94C3
:100A40006A04FF91EF91BF91AF919F918F917F9138
:100A50006F915F914F913F912F910F900BBE0F902F
:100A60000FBE0F901F9018951F920F920FB60F9206
:100A70000BB60F9211242F933F935F936F937F9345
:100A80008F939F93AF93BF93EF93FF932091450470
:100A90003091460480914704909148042817390703
:100AA00031F48091C1008F7D8093C10016C0E09128
:100AB0004704F0914804EB5FFB4F2081809147048D
:100AC00090914804019660E470E00E94B40790930E
:100AD0004804809347042093C600FF91EF91BF9193
:100AE000AF919F918F917F916F915F913F912F91E6
:100AF0000F900BBE0F900FBE0F901F9018951F9276
:100B00000F920FB60F920BB60F9211242F933F93B3
:100B10005F936F937F938F939F93AF93BF93EF9365
:100B2000FF932091CD043091CE048091CF04909119
:100B3000D0042817390731F48091C9008F7D809344
:100B4000C90016C0E091CF04F091D004E357FB4FE9
:100B500020818091CF049091D004019660E470E0F0
:100B60000E94B4079093D0048093CF042093CE00CA
:100B7000FF91EF91BF91AF919F918F917F916F9175
:100B80005F913F912F910F900BBE0F900FBE0F9072
:100B90001F9018951F920F920FB60F920BB60F92DF
:100BA00011242F933F935F936F937F938F939F9322
:100BB000AF93BF93EF93FF93209155053091560566
:100BC00080915705909158052817390731F4809185
:100BD000D1008F7D8093D10016C0E0915705F09130
:100BE0005805EB5EFA4F208180915705909158058A
:100BF000019660E470E00E94B407909358058093DA
:100C000057052093D600FF91EF91BF91AF919F912F
:100C10008F917F916F915F913F912F910F900BBEBC
:100C20000F900FBE0F901F9018951F920F920FB646
:100C30000F920BB60F9211242F933F935F936F93F4
:100C40007F938F939F93AF93BF93EF93FF932091E5
:100C5000DD053091DE058091DF059091E0052817D4
:100C6000390731F4809131018F7D8093310116C0B5
:100C7000E091DF05F091E005E356FA4F2081809185
:100C8000DF059091E005019660E470E00E94B407F2
:100C90009093E0058093DF0520933601FF91EF915B
:100CA000BF91AF919F918F917F916F915F913F9194
:100CB0002F910F900BBE0F900FBE0F901F901895A5
:100CC000DF92EF92FF920F931F93CF93DF93EC018C
:100CD0007A018B01DD24D394403081EE580780E007
:100CE000680780E0780749F4DD24EC89FD891082EB
:100CF00060E874E88EE190E00FC0EC89FD8981E046
:100D000090E00E8C02C0880F991F0A94E2F780834E
:100D100060E079E08DE390E0A80197010E94C707A9
:100D20002150304040405040569547953795279583
:100D300080E12030380710F0DD20B1F6E889F9892C
:100D40003083EA89FB892083EE89FF89408181E035
:100D500090E09C010A8C02C0220F331F0A94E2F734
:100D6000422B4083EE89FF8940819C010B8C02C09D
:100D7000220F331F0A94E2F7422B4083EE89FF894A
:100D800040819C010C8C02C0220F331F0A94E2F7B1
:100D9000422B4083EE89FF8920810D8C02C0880F91
:100DA000991F0A94E2F7809582238083DF91CF9187
:100DB0001F910F91FF90EF90DF9008950F931F9375
:100DC000CF931092E4051092E30588EE93E0A0E043
:100DD000B0E08093E5059093E605A093E705B09316
:100DE000E805E3EEF5E029EA33E03293229341ECA3
:100DF00053E05587448745E054E05787468745ECE4
:100E000050E0518B408B44EC50E0538B428B40ECD4
:100E100050E0558B448B41EC50E0578B468B46ECB1
:100E200050E0518F408FC4E0C28F73E0738F67E052
:100E3000648F55E0558F41E0468F10920306109263
:100E400002068093040690930506A0930606B093CD
:100E50000706E2E0F6E03293229309E414E01587F6
:100E600004870DE814E0178706870DEC10E0118B5E
:100E7000008B0CEC10E0138B028B08EC10E0158B50
:100E8000048B09EC10E0178B068B0EEC10E0118F31
:100E9000008FC28F738F648F558F468F10922206FA
:100EA000109221068093230690932406A093250692
:100EB000B0932606E1E2F6E03293229301ED14E0CE
:100EC0001587048705E115E01787068705ED10E013
:100ED000118B008B04ED10E0138B028B00ED10E002
:100EE000158B048B01ED10E0178B068B06ED10E0DF
:100EF000118F008FC28F738F648F558F468F109222
:100F00004106109240068093420690934306A093B8
:100F10004406B0934506E0E4F6E03293229389E577
:100F200095E0958784878DE995E09787868785E3A7
:100F300091E0918B808B84E391E0938B828B80E3B3
:100F400091E0958B848B81E391E0978B868B86E390
:100F500091E0918F808FC28F738F648F558F468FF2
:100F6000CF911F910F91089597FB092E07260AD064
:100F700077FD04D02ED006D000201AF4709561952C
:100F80007F4F0895F6F7909581959F4F0895A1E2C0
:100F90001A2EAA1BBB1BFD010DC0AA1FBB1FEE1FF3
:100FA000FF1FA217B307E407F50720F0A21BB30B3E
:100FB000E40BF50B661F771F881F991F1A9469F7BA
:100FC00060957095809590959B01AC01BD01CF0116
:100FD0000895AA1BBB1B51E107C0AA1FBB1FA61780
:100FE000B70710F0A61BB70B881F991F5A95A9F7D2
:100FF00080959095BC01CD0108950790F691E02D64
:101000001994EF92FF920F931F93CF93DF93689FF2
:101010008001699F100D789F100D1124C8010E9456
:101020002608E82EE7017E01F92EE701209731F02E
:101030008E2D60E070E0A8010E945909CE01DF9179
:10104000CF911F910F91FF90EF900895CF93DF9371
:101050008230910510F482E090E0E0915F06F0911B
:10106000600640E050E020E030E026C06081718101
:1010700068177907E0F06817790781F48281938116
:101080002115310531F0D90113969C938E93129757
:101090002BC09093600680935F0626C041155105D2
:1010A00019F06417750718F4AB01E901DF019F011E
:1010B00072816381E72FF62F3097C1F641155105F4
:1010C00001F1481B590B4430510580F412968D9163
:1010D0009C911397209719F09B838A8304C0909367
:1010E000600680935F06FD01329646C0FD01E40F65
:1010F000F51F819391934250504011965C934E930B
:101100003BC020915D0630915E062115310541F40A
:1011100020919B0330919C0330935E0620935D06E3
:1011200020919D0330919E032115310541F42DB787
:101130003EB74091990350919A03241B350BE091DF
:101140005D06F0915E06E217F307A0F42E1B3F0B3D
:101150002817390778F0AC014E5F5F4F2417350729
:1011600048F04E0F5F1F50935E0640935D068193DB
:10117000919302C0E0E0F0E0CF01DF91CF910895BC
:10118000CF93DF93009709F491C0FC01329713824B
:10119000128260915F06709160066115710581F49D
:1011A00020813181280F391F80915D0690915E0664
:1011B0008217930799F5F0935E06E0935D0676C07B
:1011C000DB0180E090E002C0CD01D901AE17BF077E
:1011D00048F412962D913C91139721153105A1F7F2
:1011E000CD0121C0B383A283EF01499159919E01A2
:1011F000240F351FA217B30779F42D913C91119755
:10120000240F351F2E5F3F4F3183208312962D917F
:101210003C91139733832283009729F4F09360065F
:10122000E0935F0643C0DC011396FC93EE931297A4
:101230004D915D91A40FB51FEA17FB0769F420815A
:101240003181240F351F2E5F3F4FEC0139832883F6
:10125000228133813B832A83E0E0F0E002C0FB017E
:10126000BC01DB0112968D919C9113970097B9F701
:101270009B012E5F3F4F8D919C911197820F931F81
:1012800040915D0650915E064817590779F43097F2
:1012900029F41092600610925F0602C01382128237
:1012A0002250304030935E0620935D06DF91CF914F
:1012B0000895DC0101C06D9341505040E0F708955E
:0412C000F894FFCFD0
:1012C400556E61626C6520746F20676574206D656E
:1012D4006D6F72790A007075742046616E20466FD6
:1012E400727761726420696E6372656173696E6797
:1012F40020537065656420696E2071756575650A93
:10130400007075742046616E20466F727761726456
:101314002064656372656173696E672053706565E7
:101324006420696E2071756575650A007075742096
:1013340046616E20466F72776172642053706565F2
:1013440064204552524F520A0070757420657861CA
:1013540063742073706565642076616C75650A003A
:1013640070757420676F5F726967687420696E2096
:1013740071756575650A0070757420676F5F6C65BB
:10138400667420696E2071756575650A00646972FA
:10139400656374696F6E204552524F520A0070752E
:1013A400742046616E5F486F766572696E675F533D
:1013B4007065656420696E2071756575650A0066DF
:1013C400616E5F666F72776172645F737065656486
:1013D4002063616C6C65640A0066616E5F686F7699
:1013E4006572696E675F73706565642063616C6CB8
:1013F40065640A0072756465725F6469726563741A
:10140400696F6E2063616C6C65640A00686F766551
:101414007263726166745F73706565642063616C86
:101424006C65640A00686F76657263726166745FE6
:1014340070726573737572652063616C6C65640AA0
:1014440000626174746572795F6C6576656C2063A3
:10145400616C6C65640A000A0020006106000000EB
:1014640001020304050000000031041503CC03FB52
:0614740003DF031D04006C
:00000001FF
