:100000000C9403010C9434010C9434010C943401CD
:100010000C9434010C9434010C9434010C9434018C
:100020000C9434010C9434010C9434010C9434017C
:100030000C9434010C9434010C9434010C9434016C
:100040000C9434010C9434010C9434010C9434015C
:100050000C9434010C9434010C9434010C9433024C
:100060000C9434010C9469050C9419060C94340119
:100070000C9434010C9434010C9434010C9434012C
:100080000C9434010C9434010C9434010C9434011C
:100090000C9495050C9464060C9434010C94340172
:1000A0000C9434010C9434010C9434010C943401FC
:1000B0000C9434010C9434010C9434010C943401EC
:1000C0000C9434010C9434010C9434010C94C1054B
:1000D0000C94AF060C9434010C94ED050C94FA06C4
:1000E0000C94340100002100240027002A002D0078
:1000F0003000330001010000040107010A01000083
:100100002200250028002B002E00310034000201BF
:100110000000050108010B0100002000230026005B
:1001200029002C002F00320000010000030106010D
:10013000090105050505070508080808020202026D
:100140000A0A080804040404010101010101010173
:100150000303030303030303040707070C0C0C0C3E
:100160000C0C0C0C02020202060606060606060627
:100170000B0B0B0B0B0B0B0B0102102020080810B4
:100180002040102040800201020108040201010207
:1001900004081020408080402010080402018004E0
:1001A000020180402010080402010804020101023B
:1001B0000408102040800102040810204080000044
:1001C000090A02080B0C0D070603040100000000D9
:1001D000000000000000000000000000000000001F
:1001E0000000000000000000000011100F000000DF
:1001F00000000000000000000000000000000000FF
:1002000000000000C30711241FBECFEFD1E2DEBF04
:10021000CDBF00E00CBF13E0A0E0B2E0E0EDF1E103
:1002200000E00BBF02C007900D92AA39B107D9F7C1
:1002300016E0AAE9B3E001C01D92AF33B107E1F7C0
:1002400012E0C6E0D2E000E006C022970109FE01FC
:100250000BBF0E94E208C430D10780E00807A9F76D
:100260000E9436010C94E6080C9400000E94C8021B
:100270008DE061E00E949E030E94E1010E948801DE
:100280008DE061E00E94C20364EF71E080E090E0E5
:100290000E94A1028DE060E00E94C20364EF71E061
:1002A00080E090E00E94A102E9CFFC01808190E013
:1002B0008870907023E0959587952A95E1F70895C9
:1002C000FC01808187700895FC018081877008950A
:1002D000FC01808182958F7090E08630910528F432
:1002E0008D579C4FFC01808108958FEF0895DF9317
:1002F000CF930F920F92CDB7DEB79A838983CE0149
:1003000001960E9468010F900F90CF91DF910895A0
:100310000F931F93DF93CF930F92CDB7DEB78FEF7D
:1003200089838E010F5F1F4F0E94FB0189838F3FDE
:10033000F1F190E00E9477018F3FC9F1813099F18E
:10034000813018F0823099F51BC0C8010E94550118
:100350008130910591F4C8010E946401009721F059
:100360008130910539F403C080E092E01EC08BE239
:1003700092E01BC086E592E018C083E792E015C0CA
:10038000C8010E9460018130910521F085309105FE
:1003900039F403C08AE892E008C081EA92E005C01F
:1003A00087EB92E002C088EC92E00E9417028981FC
:1003B0008F3F09F0B9CF0F90CF91DF911F910F912F
:1003C000089583EC95E040E855E260E070E00E941B
:1003D000450782EE95E040E855E260E070E00E945B
:1003E00045070895FC0183EC95E0608140E150E011
:1003F0000E94A9040895DF93CF930F92CDB7DEB783
:1004000082EE95E00E94B104181619065CF482EEA3
:1004100095E00E94E0048983CE0101960E94F201DA
:10042000898101C08FEF0F90CF91DF910895EF92F6
:10043000FF92CF93DF93E82EE7017E01F92EE701CB
:1004400004C083EC95E00E94380469916623C9F7E3
:1004500083EC95E061E873E00E943504DF91CF9171
:10046000FF90EF9008951F920F920FB60F921124F4
:100470002F933F938F939F93AF93BF9380919E034E
:1004800090919F03A091A003B091A1033091A2038A
:100490000196A11DB11D232F2D5F2D3720F02D5763
:1004A0000196A11DB11D2093A20380939E039093FA
:1004B0009F03A093A003B093A10380919A0390910E
:1004C0009B03A0919C03B0919D030196A11DB11DBA
:1004D00080939A0390939B03A0939C03B0939D03F6
:1004E000BF91AF919F918F913F912F910F900FBE30
:1004F0000F901F9018959FB7F89420919A03309110
:100500009B0340919C0350919D0386B5A89B06C018
:100510008F3F21F02F5F3F4F4F4F5F4F9FBF542FB3
:10052000432F322F2227280F311D411D511D82E0FC
:10053000220F331F441F551F8A95D1F7B901CA01F5
:100540000895EF92FF920F931F93CF93DF937B0158
:100550008C010E947B02EB010FC00E947B026C1B8E
:100560007D0B83E0683E780738F00894E108F108D5
:1005700001091109C851DC4FE114F104010511050D
:1005800061F7DF91CF911F910F91FF90EF90089548
:10059000789484B5826084BD84B5816084BD85B55E
:1005A000826085BD85B5816085BDEEE6F0E0808125
:1005B00081608083E1E8F0E0108280818260808346
:1005C000808181608083E0E8F0E0808181608083C9
:1005D000E1EBF0E0808184608083E0EBF0E08081FB
:1005E00081608083E1E9F0E08081826080838081A6
:1005F00081608083E0E9F0E0808181608083E1EACE
:10060000F0E0808182608083808181608083E0EA85
:10061000F0E0808181608083E1E2F1E080818260AE
:100620008083808181608083E0E2F1E0808181606D
:100630008083EAE7F0E0808184608083808182604B
:100640008083808181608083808180688083109234
:10065000C1000895893009F449C08A30A0F484307B
:1006600051F1853040F4823079F1833000F58130EA
:1006700009F063C026C0873079F1883098F586305C
:1006800009F05BC025C08D3009F442C08E3028F4DB
:100690008B30B1F18C30C0F52DC0803109F442C0EF
:1006A000813109F445C08F3009F047C037C08091CF
:1006B00080008F7703C0809180008F7D80938000C1
:1006C000089584B58F7702C084B58F7D84BD089569
:1006D0008091B0008F7703C08091B0008F7D8093B0
:1006E000B0000895809190008F7707C080919000AE
:1006F0008F7D03C080919000877F80939000089544
:100700008091A0008F7707C08091A0008F7D03C0EB
:100710008091A000877F8093A000089580912001A0
:100720008F7703C0809120018F7D809320010895F1
:1007300080912001877F80932001089590E0FC0143
:10074000E858FE4F2491FC01EE5CFE4FE491EE234D
:10075000C1F0F0E0EE0FFF1FEC51FF4F8591949137
:10076000DC01662341F49FB7F8948C912095822395
:100770008C939FBF08959FB7F8948C91822B8C9394
:100780009FBF08950F931F93DF93CF930F92CDB721
:10079000DEB7282F30E0F901E254FE4F8491F901D1
:1007A000E858FE4F14912E5C3E4FF901049100234E
:1007B000D9F0882321F069830E942A036981E02F00
:1007C000F0E0EE0FFF1FE250FF4F85919491DC01A6
:1007D0009FB7F894662321F48C911095812302C071
:1007E0008C91812B8C939FBF0F90CF91DF911F91A4
:1007F0000F910895CF92DF92EF92FF920F931F9384
:10080000CF93DF936C017B018A01C0E0D0E00FC081
:10081000D7016D917D01D601ED91FC910190F081A0
:10082000E02DC6011995C80FD91F015010400115C0
:10083000110571F7CE01DF91CF911F910F91FF90BC
:10084000EF90DF90CF900895DB010D900020E9F745
:10085000AD0141505040461B570BDC01ED91FC911E
:100860000280F381E02D199508950E9424040895D3
:10087000DC01ED91FC910190F081E02D1995089536
:100880008F929F92AF92BF92CF92DF92EF92FF92A0
:100890000F931F93DF93CF93CDB7DEB7A1970FB61A
:1008A000F894DEBF0FBECDBF6C01042FE52FCB0146
:1008B000122F19A2223008F41AE021E2E22EF12CC4
:1008C000EC0EFD1E812E9924AA24BB2403C0022F06
:1008D000E32FCA01602F7E2FA50194010E94AC086E
:1008E000129F802D1124081B0894E108F1080A309A
:1008F00014F4005D01C0095CF70100832115310586
:100900004105510521F7C601B7010E942404A196B3
:100910000FB6F894DEBF0FBECDBFCF91DF911F9110
:100920000F91FF90EF90DF90CF90BF90AF909F908E
:100930008F9008952115310549F4DC01ED91FC916A
:100940000190F081E02D642F199508950E944004D4
:1009500008959A01462F50E060E070E00E949A04EA
:100960000895FC0184859585FC01E05CFF4F2081A2
:1009700031818E5B9F4FFC0180819181281B390B57
:100980002F733070C9010895FC0184859585FC01A1
:10099000E05CFF4F40815181FC01EE5BFF4F208105
:1009A00031814217530741F00190F081E02DE80FAB
:1009B000F91F208130E002C02FEF3FEFC9010895F9
:1009C000FC0184859585FC01E05CFF4F40815181ED
:1009D000FC01EE5BFF4F208131814217530771F01C
:1009E000A081B181A80FB91F2C91808191810196BE
:1009F0008F7390709183808330E002C02FEF3FEFC0
:100A0000C9010895DC011E968D919C911F97FC01F0
:100A1000E05CFF4F8E5B9F4F40815181DC012D9147
:100A20003C91119742175307B9F70895CF93FC01F2
:100A3000C62F26853785D901A05CBF4F8D919C912B
:100A4000019660E470E00E949908D901AE5BBF4F47
:100A50004D915C91119784179507D1F3D901A05C52
:100A6000BF4F0D90BC91A02DA20FB31FCC93A685B4
:100A7000B785A05CBF4F11969C938E93A689B789CA
:100A80002C9181E090E0058C02C0880F991F0A9498
:100A9000E2F7282B2C9381E090E0CF910895FB01A1
:100AA000E05CFF4F208131812F5F3F4F2F7330700B
:100AB000DB01AE5BBF4F4D915C9111972417350759
:100AC00039F0A081B181A60FB71F8C9331832083A9
:100AD00008951F920F920FB60F920BB60F9211242A
:100AE0002F933F934F935F936F937F938F939F9336
:100AF000AF93BF93EF93FF938091C60063EA73E0D7
:100B00000E944F05FF91EF91BF91AF919F918F91FF
:100B10007F916F915F914F913F912F910F900BBEFD
:100B20000F900FBE0F901F9018951F920F920FB647
:100B30000F920BB60F9211242F933F934F935F9315
:100B40006F937F938F939F93AF93BF93EF93FF9395
:100B50008091CE006BE274E00E944F05FF91EF910F
:100B6000BF91AF919F918F917F916F915F914F91C5
:100B70003F912F910F900BBE0F900FBE0F901F90C3
:100B800018951F920F920FB60F920BB60F92112469
:100B90002F933F934F935F936F937F938F939F9385
:100BA000AF93BF93EF93FF938091D60063EB74E014
:100BB0000E944F05FF91EF91BF91AF919F918F914F
:100BC0007F916F915F914F913F912F910F900BBE4D
:100BD0000F900FBE0F901F9018951F920F920FB697
:100BE0000F920BB60F9211242F933F934F935F9365
:100BF0006F937F938F939F93AF93BF93EF93FF93E5
:100C0000809136016BE375E00E944F05FF91EF91F3
:100C1000BF91AF919F918F917F916F915F914F9114
:100C20003F912F910F900BBE0F900FBE0F901F9012
:100C300018951F920F920FB60F920BB60F921124B8
:100C40002F933F935F936F937F938F939F93AF9374
:100C5000BF93EF93FF932091270430912804809154
:100C6000290490912A042817390731F48091C10092
:100C70008F7D8093C10016C0E0912904F0912A0471
:100C8000E951FC4F20818091290490912A0401961A
:100C900060E470E00E94990890932A0480932904EC
:100CA0002093C600FF91EF91BF91AF919F918F91DB
:100CB0007F916F915F913F912F910F900BBE0F909D
:100CC0000FBE0F901F9018951F920F920FB60F92A4
:100CD0000BB60F9211242F933F935F936F937F93E3
:100CE0008F939F93AF93BF93EF93FF932091AF04A4
:100CF0003091B0048091B1049091B2042817390763
:100D000031F48091C9008F7D8093C90016C0E091B5
:100D1000B104F091B204E159FB4F20818091B104FC
:100D20009091B204019660E470E00E94990890935B
:100D3000B2048093B1042093CE00FF91EF91BF9154
:100D4000AF919F918F917F916F915F913F912F9183
:100D50000F900BBE0F900FBE0F901F9018951F9213
:100D60000F920FB60F920BB60F9211242F933F9351
:100D70005F936F937F938F939F93AF93BF93EF9303
:100D8000FF93209137053091380580913905909176
:100D90003A052817390731F48091D1008F7D80936F
:100DA000D10016C0E0913905F0913A05E950FB4FAA
:100DB00020818091390590913A05019660E470E0B8
:100DC0000E94990890933A05809339052093D600A4
:100DD000FF91EF91BF91AF919F918F917F916F9113
:100DE0005F913F912F910F900BBE0F900FBE0F9010
:100DF0001F9018951F920F920FB60F920BB60F927D
:100E000011242F933F935F936F937F938F939F93BF
:100E1000AF93BF93EF93FF932091BF053091C0052F
:100E20008091C1059091C2052817390731F480914E
:100E300031018F7D8093310116C0E091C105F091A1
:100E4000C205E158FA4F20818091C1059091C205F9
:100E5000019660E470E00E9499089093C205809327
:100E6000C10520933601FF91EF91BF91AF919F9102
:100E70008F917F916F915F913F912F910F900BBE5A
:100E80000F900FBE0F901F901895DF92EF92FF9278
:100E90000F931F93CF93DF93EC017A018B01DD2435
:100EA000D394403081EE580780E0680780E07807EF
:100EB00049F4DD24EC89FD89108260E874E88EE154
:100EC00090E00FC0EC89FD8981E090E00E8C02C0BB
:100ED000880F991F0A94E2F7808360E079E08DE340
:100EE00090E0A80197010E94AC082150304040409A
:100EF0005040569547953795279580E12030380723
:100F000010F0DD20B1F6E889F9893083EA89FB89A0
:100F10002083EE89FF89408181E090E09C010A8C6A
:100F200002C0220F331F0A94E2F7422B4083EE895E
:100F3000FF8940819C010B8C02C0220F331F0A9451
:100F4000E2F7422B4083EE89FF8940819C010C8CA3
:100F500002C0220F331F0A94E2F7422B4083EE892E
:100F6000FF8920810D8C02C0880F991F0A94E2F737
:100F7000809582238083DF91CF911F910F91FF9005
:100F8000EF90DF9008950F931F93CF931092C605B3
:100F90001092C50588EE93E0A0E0B0E08093C7050D
:100FA0009093C805A093C905B093CA05E5ECF5E098
:100FB0002DE833E03293229343EA53E05587448788
:100FC00047EE53E05787468745EC50E0518B408B06
:100FD00044EC50E0538B428B40EC50E0558B448BFB
:100FE00041EC50E0578B468B46EC50E0518F408FE0
:100FF000C4E0C28F73E0738F67E0648F55E0558F54
:1010000041E0468F1092E5051092E4058093E605D5
:101010009093E705A093E805B093E905E4EEF5E0C9
:10102000329322930BE214E0158704870FE614E055
:10103000178706870DEC10E0118B008B0CEC10E08D
:10104000138B028B08EC10E0158B048B09EC10E07D
:10105000178B068B0EEC10E0118F008FC28F738FF1
:10106000648F558F468F109204061092030680936A
:10107000050690930606A0930706B0930806E3E0E2
:10108000F6E03293229303EB14E01587048707EF11
:1010900014E01787068705ED10E0118B008B04ED37
:1010A00010E0138B028B00ED10E0158B048B01ED2B
:1010B00010E0178B068B06ED10E0118F008FC28FAA
:1010C000738F648F558F468F1092230610922206DD
:1010D0008093240690932506A0932606B0932706B6
:1010E000E2E2F6E0329322938BE395E095878487E2
:1010F0008FE795E09787868785E391E0918B808BDA
:1011000084E391E0938B828B80E391E0958B848BD9
:1011100081E391E0978B868B86E391E0918F808FBE
:10112000C28F738F648F558F468FCF911F910F9110
:10113000089597FB092E07260AD077FD04D02ED0FC
:1011400006D000201AF4709561957F4F0895F6F748
:10115000909581959F4F0895A1E21A2EAA1BBB1B63
:10116000FD010DC0AA1FBB1FEE1FFF1FA217B30773
:10117000E407F50720F0A21BB30BE40BF50B661F89
:10118000771F881F991F1A9469F76095709580954D
:1011900090959B01AC01BD01CF010895AA1BBB1B1B
:1011A00051E107C0AA1FBB1FA617B70710F0A61B67
:1011B000B70B881F991F5A95A9F780959095BC0188
:1011C000CD0108950790F691E02D1994F894FFCF82
:1011D0007075742046616E20466F7277617264206C
:1011E000696E6372656173696E67205370656564CB
:1011F00020696E2071756575650A007075742046EA
:10120000616E20466F7277617264206465637265F7
:101210006173696E6720537065656420696E207123
:10122000756575650A007075742046616E20466F9D
:101230007277617264205370656564204552524F25
:10124000520A00707574206578616374207370654C
:1012500065642076616C75650A0070757420676F2F
:101260005F726967687420696E2071756575650ABB
:101270000070757420676F5F6C65667420696E20FE
:1012800071756575650A00646972656374696F6E6E
:10129000204552524F520A007075742046616E5FAD
:1012A000486F766572696E675F5370656564206923
:1012B0006E2071756575650A0066616E5F666F7296
:1012C000776172645F73706565642063616C6C65DF
:1012D000640A0066616E5F686F766572696E675F4B
:1012E00073706565642063616C6C65640A00727577
:1012F0006465725F646972656374696F6E206361AF
:101300006C6C65640A00686F7665726372616674FE
:101310005F73706565642063616C6C65640A006866
:101320006F76657263726166745F707265737375F0
:1013300072652063616C6C65640A00626174746537
:1013400072795F6C6576656C2063616C6C65640AAC
:10135000000A00000102030405000000001605FA5F
:0A13600003B104E004C40402050018
:00000001FF
